{
	"./VestedToken.sol": {
		"VestedToken": {
			"abi": [
				{
					"inputs": [],
					"stateMutability": "nonpayable",
					"type": "constructor"
				},
				{
					"inputs": [
						{
							"internalType": "address",
							"name": "spender",
							"type": "address"
						},
						{
							"internalType": "uint256",
							"name": "allowance",
							"type": "uint256"
						},
						{
							"internalType": "uint256",
							"name": "needed",
							"type": "uint256"
						}
					],
					"name": "ERC20InsufficientAllowance",
					"type": "error"
				},
				{
					"inputs": [
						{
							"internalType": "address",
							"name": "sender",
							"type": "address"
						},
						{
							"internalType": "uint256",
							"name": "balance",
							"type": "uint256"
						},
						{
							"internalType": "uint256",
							"name": "needed",
							"type": "uint256"
						}
					],
					"name": "ERC20InsufficientBalance",
					"type": "error"
				},
				{
					"inputs": [
						{
							"internalType": "address",
							"name": "approver",
							"type": "address"
						}
					],
					"name": "ERC20InvalidApprover",
					"type": "error"
				},
				{
					"inputs": [
						{
							"internalType": "address",
							"name": "receiver",
							"type": "address"
						}
					],
					"name": "ERC20InvalidReceiver",
					"type": "error"
				},
				{
					"inputs": [
						{
							"internalType": "address",
							"name": "sender",
							"type": "address"
						}
					],
					"name": "ERC20InvalidSender",
					"type": "error"
				},
				{
					"inputs": [
						{
							"internalType": "address",
							"name": "spender",
							"type": "address"
						}
					],
					"name": "ERC20InvalidSpender",
					"type": "error"
				},
				{
					"inputs": [
						{
							"internalType": "address",
							"name": "owner",
							"type": "address"
						}
					],
					"name": "OwnableInvalidOwner",
					"type": "error"
				},
				{
					"inputs": [
						{
							"internalType": "address",
							"name": "account",
							"type": "address"
						}
					],
					"name": "OwnableUnauthorizedAccount",
					"type": "error"
				},
				{
					"anonymous": false,
					"inputs": [
						{
							"indexed": true,
							"internalType": "address",
							"name": "owner",
							"type": "address"
						},
						{
							"indexed": true,
							"internalType": "address",
							"name": "spender",
							"type": "address"
						},
						{
							"indexed": false,
							"internalType": "uint256",
							"name": "value",
							"type": "uint256"
						}
					],
					"name": "Approval",
					"type": "event"
				},
				{
					"anonymous": false,
					"inputs": [
						{
							"indexed": true,
							"internalType": "address",
							"name": "beneficiary",
							"type": "address"
						},
						{
							"indexed": false,
							"internalType": "string",
							"name": "category",
							"type": "string"
						}
					],
					"name": "BeneficiaryCategorySet",
					"type": "event"
				},
				{
					"anonymous": false,
					"inputs": [
						{
							"indexed": false,
							"internalType": "string",
							"name": "category",
							"type": "string"
						},
						{
							"indexed": false,
							"internalType": "uint256",
							"name": "amount",
							"type": "uint256"
						}
					],
					"name": "CategoryAllocationSet",
					"type": "event"
				},
				{
					"anonymous": false,
					"inputs": [
						{
							"indexed": true,
							"internalType": "address",
							"name": "previousOwner",
							"type": "address"
						},
						{
							"indexed": true,
							"internalType": "address",
							"name": "newOwner",
							"type": "address"
						}
					],
					"name": "OwnershipTransferred",
					"type": "event"
				},
				{
					"anonymous": false,
					"inputs": [
						{
							"indexed": false,
							"internalType": "address",
							"name": "account",
							"type": "address"
						}
					],
					"name": "Paused",
					"type": "event"
				},
				{
					"anonymous": false,
					"inputs": [
						{
							"indexed": false,
							"internalType": "string",
							"name": "name",
							"type": "string"
						},
						{
							"indexed": false,
							"internalType": "string",
							"name": "symbol",
							"type": "string"
						},
						{
							"indexed": false,
							"internalType": "uint256",
							"name": "totalSupply",
							"type": "uint256"
						},
						{
							"indexed": false,
							"internalType": "address",
							"name": "owner",
							"type": "address"
						}
					],
					"name": "TokenInitialized",
					"type": "event"
				},
				{
					"anonymous": false,
					"inputs": [
						{
							"indexed": true,
							"internalType": "address",
							"name": "from",
							"type": "address"
						},
						{
							"indexed": true,
							"internalType": "address",
							"name": "to",
							"type": "address"
						},
						{
							"indexed": false,
							"internalType": "uint256",
							"name": "value",
							"type": "uint256"
						}
					],
					"name": "Transfer",
					"type": "event"
				},
				{
					"anonymous": false,
					"inputs": [
						{
							"indexed": false,
							"internalType": "address",
							"name": "account",
							"type": "address"
						}
					],
					"name": "Unpaused",
					"type": "event"
				},
				{
					"anonymous": false,
					"inputs": [
						{
							"indexed": true,
							"internalType": "address",
							"name": "vestingContract",
							"type": "address"
						}
					],
					"name": "VestingContractAdded",
					"type": "event"
				},
				{
					"anonymous": false,
					"inputs": [
						{
							"indexed": true,
							"internalType": "address",
							"name": "vestingContract",
							"type": "address"
						}
					],
					"name": "VestingContractRemoved",
					"type": "event"
				},
				{
					"inputs": [
						{
							"internalType": "address",
							"name": "vestingContract",
							"type": "address"
						}
					],
					"name": "addVestingContract",
					"outputs": [],
					"stateMutability": "nonpayable",
					"type": "function"
				},
				{
					"inputs": [
						{
							"internalType": "address",
							"name": "owner",
							"type": "address"
						},
						{
							"internalType": "address",
							"name": "spender",
							"type": "address"
						}
					],
					"name": "allowance",
					"outputs": [
						{
							"internalType": "uint256",
							"name": "",
							"type": "uint256"
						}
					],
					"stateMutability": "view",
					"type": "function"
				},
				{
					"inputs": [
						{
							"internalType": "address",
							"name": "spender",
							"type": "address"
						},
						{
							"internalType": "uint256",
							"name": "value",
							"type": "uint256"
						}
					],
					"name": "approve",
					"outputs": [
						{
							"internalType": "bool",
							"name": "",
							"type": "bool"
						}
					],
					"stateMutability": "nonpayable",
					"type": "function"
				},
				{
					"inputs": [
						{
							"internalType": "address",
							"name": "account",
							"type": "address"
						}
					],
					"name": "balanceOf",
					"outputs": [
						{
							"internalType": "uint256",
							"name": "",
							"type": "uint256"
						}
					],
					"stateMutability": "view",
					"type": "function"
				},
				{
					"inputs": [
						{
							"internalType": "address",
							"name": "",
							"type": "address"
						}
					],
					"name": "beneficiaryCategories",
					"outputs": [
						{
							"internalType": "string",
							"name": "",
							"type": "string"
						}
					],
					"stateMutability": "view",
					"type": "function"
				},
				{
					"inputs": [
						{
							"internalType": "uint256",
							"name": "amount",
							"type": "uint256"
						}
					],
					"name": "burn",
					"outputs": [],
					"stateMutability": "nonpayable",
					"type": "function"
				},
				{
					"inputs": [
						{
							"internalType": "address",
							"name": "from",
							"type": "address"
						},
						{
							"internalType": "uint256",
							"name": "amount",
							"type": "uint256"
						}
					],
					"name": "burnFrom",
					"outputs": [],
					"stateMutability": "nonpayable",
					"type": "function"
				},
				{
					"inputs": [
						{
							"internalType": "string",
							"name": "",
							"type": "string"
						}
					],
					"name": "categoryAllocations",
					"outputs": [
						{
							"internalType": "uint256",
							"name": "",
							"type": "uint256"
						}
					],
					"stateMutability": "view",
					"type": "function"
				},
				{
					"inputs": [],
					"name": "decimals",
					"outputs": [
						{
							"internalType": "uint8",
							"name": "",
							"type": "uint8"
						}
					],
					"stateMutability": "view",
					"type": "function"
				},
				{
					"inputs": [
						{
							"internalType": "address",
							"name": "beneficiary",
							"type": "address"
						}
					],
					"name": "getBeneficiaryCategory",
					"outputs": [
						{
							"internalType": "string",
							"name": "",
							"type": "string"
						}
					],
					"stateMutability": "view",
					"type": "function"
				},
				{
					"inputs": [
						{
							"internalType": "string",
							"name": "category",
							"type": "string"
						}
					],
					"name": "getCategoryAllocation",
					"outputs": [
						{
							"internalType": "uint256",
							"name": "",
							"type": "uint256"
						}
					],
					"stateMutability": "view",
					"type": "function"
				},
				{
					"inputs": [
						{
							"internalType": "address",
							"name": "account",
							"type": "address"
						}
					],
					"name": "getVestedBalance",
					"outputs": [
						{
							"internalType": "uint256",
							"name": "",
							"type": "uint256"
						}
					],
					"stateMutability": "view",
					"type": "function"
				},
				{
					"inputs": [
						{
							"internalType": "string",
							"name": "name_",
							"type": "string"
						},
						{
							"internalType": "string",
							"name": "symbol_",
							"type": "string"
						},
						{
							"internalType": "uint256",
							"name": "totalSupply_",
							"type": "uint256"
						},
						{
							"internalType": "address",
							"name": "owner_",
							"type": "address"
						}
					],
					"name": "initialize",
					"outputs": [],
					"stateMutability": "nonpayable",
					"type": "function"
				},
				{
					"inputs": [],
					"name": "isInitialized",
					"outputs": [
						{
							"internalType": "bool",
							"name": "",
							"type": "bool"
						}
					],
					"stateMutability": "view",
					"type": "function"
				},
				{
					"inputs": [
						{
							"internalType": "address",
							"name": "to",
							"type": "address"
						},
						{
							"internalType": "uint256",
							"name": "amount",
							"type": "uint256"
						},
						{
							"internalType": "address",
							"name": "vestingContract",
							"type": "address"
						}
					],
					"name": "mintWithVesting",
					"outputs": [],
					"stateMutability": "nonpayable",
					"type": "function"
				},
				{
					"inputs": [],
					"name": "name",
					"outputs": [
						{
							"internalType": "string",
							"name": "",
							"type": "string"
						}
					],
					"stateMutability": "view",
					"type": "function"
				},
				{
					"inputs": [],
					"name": "owner",
					"outputs": [
						{
							"internalType": "address",
							"name": "",
							"type": "address"
						}
					],
					"stateMutability": "view",
					"type": "function"
				},
				{
					"inputs": [],
					"name": "pause",
					"outputs": [],
					"stateMutability": "nonpayable",
					"type": "function"
				},
				{
					"inputs": [],
					"name": "paused",
					"outputs": [
						{
							"internalType": "bool",
							"name": "",
							"type": "bool"
						}
					],
					"stateMutability": "view",
					"type": "function"
				},
				{
					"inputs": [
						{
							"internalType": "address",
							"name": "vestingContract",
							"type": "address"
						}
					],
					"name": "removeVestingContract",
					"outputs": [],
					"stateMutability": "nonpayable",
					"type": "function"
				},
				{
					"inputs": [],
					"name": "renounceOwnership",
					"outputs": [],
					"stateMutability": "nonpayable",
					"type": "function"
				},
				{
					"inputs": [
						{
							"internalType": "address",
							"name": "beneficiary",
							"type": "address"
						},
						{
							"internalType": "string",
							"name": "category",
							"type": "string"
						}
					],
					"name": "setBeneficiaryCategory",
					"outputs": [],
					"stateMutability": "nonpayable",
					"type": "function"
				},
				{
					"inputs": [
						{
							"internalType": "string",
							"name": "category",
							"type": "string"
						},
						{
							"internalType": "uint256",
							"name": "amount",
							"type": "uint256"
						}
					],
					"name": "setCategoryAllocation",
					"outputs": [],
					"stateMutability": "nonpayable",
					"type": "function"
				},
				{
					"inputs": [],
					"name": "symbol",
					"outputs": [
						{
							"internalType": "string",
							"name": "",
							"type": "string"
						}
					],
					"stateMutability": "view",
					"type": "function"
				},
				{
					"inputs": [],
					"name": "totalSupply",
					"outputs": [
						{
							"internalType": "uint256",
							"name": "",
							"type": "uint256"
						}
					],
					"stateMutability": "view",
					"type": "function"
				},
				{
					"inputs": [
						{
							"internalType": "address",
							"name": "to",
							"type": "address"
						},
						{
							"internalType": "uint256",
							"name": "value",
							"type": "uint256"
						}
					],
					"name": "transfer",
					"outputs": [
						{
							"internalType": "bool",
							"name": "",
							"type": "bool"
						}
					],
					"stateMutability": "nonpayable",
					"type": "function"
				},
				{
					"inputs": [
						{
							"internalType": "address",
							"name": "from",
							"type": "address"
						},
						{
							"internalType": "address",
							"name": "to",
							"type": "address"
						},
						{
							"internalType": "uint256",
							"name": "value",
							"type": "uint256"
						}
					],
					"name": "transferFrom",
					"outputs": [
						{
							"internalType": "bool",
							"name": "",
							"type": "bool"
						}
					],
					"stateMutability": "nonpayable",
					"type": "function"
				},
				{
					"inputs": [
						{
							"internalType": "address",
							"name": "newOwner",
							"type": "address"
						}
					],
					"name": "transferOwnership",
					"outputs": [],
					"stateMutability": "nonpayable",
					"type": "function"
				},
				{
					"inputs": [],
					"name": "unpause",
					"outputs": [],
					"stateMutability": "nonpayable",
					"type": "function"
				},
				{
					"inputs": [
						{
							"internalType": "address",
							"name": "",
							"type": "address"
						}
					],
					"name": "vestedBalances",
					"outputs": [
						{
							"internalType": "uint256",
							"name": "",
							"type": "uint256"
						}
					],
					"stateMutability": "view",
					"type": "function"
				},
				{
					"inputs": [
						{
							"internalType": "address",
							"name": "",
							"type": "address"
						}
					],
					"name": "vestingContracts",
					"outputs": [
						{
							"internalType": "bool",
							"name": "",
							"type": "bool"
						}
					],
					"stateMutability": "view",
					"type": "function"
				}
			],
			"devdoc": {
				"errors": {
					"ERC20InsufficientAllowance(address,uint256,uint256)": [
						{
							"details": "Indicates a failure with the `spender`’s `allowance`. Used in transfers.",
							"params": {
								"allowance": "Amount of tokens a `spender` is allowed to operate with.",
								"needed": "Minimum amount required to perform a transfer.",
								"spender": "Address that may be allowed to operate on tokens without being their owner."
							}
						}
					],
					"ERC20InsufficientBalance(address,uint256,uint256)": [
						{
							"details": "Indicates an error related to the current `balance` of a `sender`. Used in transfers.",
							"params": {
								"balance": "Current balance for the interacting account.",
								"needed": "Minimum amount required to perform a transfer.",
								"sender": "Address whose tokens are being transferred."
							}
						}
					],
					"ERC20InvalidApprover(address)": [
						{
							"details": "Indicates a failure with the `approver` of a token to be approved. Used in approvals.",
							"params": {
								"approver": "Address initiating an approval operation."
							}
						}
					],
					"ERC20InvalidReceiver(address)": [
						{
							"details": "Indicates a failure with the token `receiver`. Used in transfers.",
							"params": {
								"receiver": "Address to which tokens are being transferred."
							}
						}
					],
					"ERC20InvalidSender(address)": [
						{
							"details": "Indicates a failure with the token `sender`. Used in transfers.",
							"params": {
								"sender": "Address whose tokens are being transferred."
							}
						}
					],
					"ERC20InvalidSpender(address)": [
						{
							"details": "Indicates a failure with the `spender` to be approved. Used in approvals.",
							"params": {
								"spender": "Address that may be allowed to operate on tokens without being their owner."
							}
						}
					],
					"OwnableInvalidOwner(address)": [
						{
							"details": "The owner is not a valid owner account. (eg. `address(0)`)"
						}
					],
					"OwnableUnauthorizedAccount(address)": [
						{
							"details": "The caller account is not authorized to perform an operation."
						}
					]
				},
				"events": {
					"Approval(address,address,uint256)": {
						"details": "Emitted when the allowance of a `spender` for an `owner` is set by a call to {approve}. `value` is the new allowance."
					},
					"Paused(address)": {
						"details": "Emitted when the pause is triggered by `account`."
					},
					"Transfer(address,address,uint256)": {
						"details": "Emitted when `value` tokens are moved from one account (`from`) to another (`to`). Note that `value` may be zero."
					},
					"Unpaused(address)": {
						"details": "Emitted when the pause is lifted by `account`."
					}
				},
				"kind": "dev",
				"methods": {
					"addVestingContract(address)": {
						"details": "Add a vesting contract address",
						"params": {
							"vestingContract": "Address of the vesting contract"
						}
					},
					"allowance(address,address)": {
						"details": "Returns the remaining number of tokens that `spender` will be allowed to spend on behalf of `owner` through {transferFrom}. This is zero by default. This value changes when {approve} or {transferFrom} are called."
					},
					"approve(address,uint256)": {
						"details": "See {IERC20-approve}. NOTE: If `value` is the maximum `uint256`, the allowance is not updated on `transferFrom`. This is semantically equivalent to an infinite approval. Requirements: - `spender` cannot be the zero address."
					},
					"balanceOf(address)": {
						"details": "Returns the value of tokens owned by `account`."
					},
					"burn(uint256)": {
						"details": "Burn tokens (owner only)",
						"params": {
							"amount": "Amount to burn"
						}
					},
					"burnFrom(address,uint256)": {
						"details": "Burn tokens from specific address (owner only)",
						"params": {
							"amount": "Amount to burn",
							"from": "Address to burn from"
						}
					},
					"constructor": {
						"details": "Constructor for minimal proxy pattern - should not be called directly"
					},
					"decimals()": {
						"details": "Returns the number of decimals used to get its user representation"
					},
					"getBeneficiaryCategory(address)": {
						"details": "Get beneficiary category",
						"params": {
							"beneficiary": "Beneficiary address"
						},
						"returns": {
							"_0": "Category name"
						}
					},
					"getCategoryAllocation(string)": {
						"details": "Get category allocation",
						"params": {
							"category": "Category name"
						},
						"returns": {
							"_0": "Allocation amount"
						}
					},
					"getVestedBalance(address)": {
						"details": "Get vested balance for an address",
						"params": {
							"account": "Address to check"
						},
						"returns": {
							"_0": "Vested balance amount"
						}
					},
					"initialize(string,string,uint256,address)": {
						"details": "Initialize function for minimal proxy pattern",
						"params": {
							"name_": "Token name",
							"owner_": "Token owner address",
							"symbol_": "Token symbol",
							"totalSupply_": "Total token supply"
						}
					},
					"isInitialized()": {
						"details": "Check if token is initialized"
					},
					"mintWithVesting(address,uint256,address)": {
						"details": "Mint tokens with vesting allocation",
						"params": {
							"amount": "Token amount",
							"to": "Recipient address",
							"vestingContract": "Vesting contract address"
						}
					},
					"name()": {
						"details": "Returns the name of the token"
					},
					"owner()": {
						"details": "Returns the address of the current owner."
					},
					"pause()": {
						"details": "Pause token transfers"
					},
					"paused()": {
						"details": "Returns true if the contract is paused, and false otherwise."
					},
					"removeVestingContract(address)": {
						"details": "Remove a vesting contract address",
						"params": {
							"vestingContract": "Address of the vesting contract"
						}
					},
					"renounceOwnership()": {
						"details": "Leaves the contract without owner. It will not be possible to call `onlyOwner` functions. Can only be called by the current owner. NOTE: Renouncing ownership will leave the contract without an owner, thereby disabling any functionality that is only available to the owner."
					},
					"setBeneficiaryCategory(address,string)": {
						"details": "Set beneficiary category",
						"params": {
							"beneficiary": "Beneficiary address",
							"category": "Category name"
						}
					},
					"setCategoryAllocation(string,uint256)": {
						"details": "Set allocation for a category",
						"params": {
							"amount": "Allocation amount",
							"category": "Category name"
						}
					},
					"symbol()": {
						"details": "Returns the symbol of the token"
					},
					"totalSupply()": {
						"details": "Returns the value of tokens in existence."
					},
					"transfer(address,uint256)": {
						"details": "See {IERC20-transfer}. Requirements: - `to` cannot be the zero address. - the caller must have a balance of at least `value`."
					},
					"transferFrom(address,address,uint256)": {
						"details": "See {IERC20-transferFrom}. Skips emitting an {Approval} event indicating an allowance update. This is not required by the ERC. See {xref-ERC20-_approve-address-address-uint256-bool-}[_approve]. NOTE: Does not update the allowance if the current allowance is the maximum `uint256`. Requirements: - `from` and `to` cannot be the zero address. - `from` must have a balance of at least `value`. - the caller must have allowance for ``from``'s tokens of at least `value`."
					},
					"transferOwnership(address)": {
						"details": "Transfers ownership of the contract to a new account (`newOwner`). Can only be called by the current owner."
					},
					"unpause()": {
						"details": "Unpause token transfers"
					}
				},
				"version": 1
			},
			"evm": {
				"assembly": "    /* \"./VestedToken.sol\":224:7033  contract VestedToken is ERC20, Ownable, Pausable {... */\n  mstore(0x40, 0x80)\n    /* \"./VestedToken.sol\":1229:1418  constructor() ERC20(\"\", \"\") Ownable(msg.sender) {... */\n  callvalue\n  dup1\n  iszero\n  tag_1\n  jumpi\n  0x00\n  dup1\n  revert\ntag_1:\n  pop\n    /* \"./VestedToken.sol\":1265:1275  msg.sender */\n  caller\n    /* \"@openzeppelin/contracts/token/ERC20/ERC20.sol\":1582:1695  constructor(string memory name_, string memory symbol_) {... */\n  mload(0x40)\n  dup1\n  0x20\n  add\n  0x40\n  mstore\n  dup1\n  0x00\n  dup2\n  mstore\n  pop\n  mload(0x40)\n  dup1\n  0x20\n  add\n  0x40\n  mstore\n  dup1\n  0x00\n  dup2\n  mstore\n  pop\n    /* \"@openzeppelin/contracts/token/ERC20/ERC20.sol\":1656:1661  name_ */\n  dup2\n    /* \"@openzeppelin/contracts/token/ERC20/ERC20.sol\":1648:1653  _name */\n  0x03\n    /* \"@openzeppelin/contracts/token/ERC20/ERC20.sol\":1648:1661  _name = name_ */\n  swap1\n  dup2\n  tag_7\n  swap2\n  swap1\n  tag_8\n  jump\t// in\ntag_7:\n  pop\n    /* \"@openzeppelin/contracts/token/ERC20/ERC20.sol\":1681:1688  symbol_ */\n  dup1\n    /* \"@openzeppelin/contracts/token/ERC20/ERC20.sol\":1671:1678  _symbol */\n  0x04\n    /* \"@openzeppelin/contracts/token/ERC20/ERC20.sol\":1671:1688  _symbol = symbol_ */\n  swap1\n  dup2\n  tag_9\n  swap2\n  swap1\n  tag_8\n  jump\t// in\ntag_9:\n  pop\n    /* \"@openzeppelin/contracts/token/ERC20/ERC20.sol\":1582:1695  constructor(string memory name_, string memory symbol_) {... */\n  pop\n  pop\n    /* \"@openzeppelin/contracts/access/Ownable.sol\":1297:1298  0 */\n  0x00\n    /* \"@openzeppelin/contracts/access/Ownable.sol\":1273:1299  initialOwner == address(0) */\n  0xffffffffffffffffffffffffffffffffffffffff\n  and\n    /* \"@openzeppelin/contracts/access/Ownable.sol\":1273:1285  initialOwner */\n  dup2\n    /* \"@openzeppelin/contracts/access/Ownable.sol\":1273:1299  initialOwner == address(0) */\n  0xffffffffffffffffffffffffffffffffffffffff\n  and\n  sub\n    /* \"@openzeppelin/contracts/access/Ownable.sol\":1269:1364  if (initialOwner == address(0)) {... */\n  tag_11\n  jumpi\n    /* \"@openzeppelin/contracts/access/Ownable.sol\":1350:1351  0 */\n  0x00\n    /* \"@openzeppelin/contracts/access/Ownable.sol\":1322:1353  OwnableInvalidOwner(address(0)) */\n  mload(0x40)\n  0x1e4fbdf700000000000000000000000000000000000000000000000000000000\n  dup2\n  mstore\n  0x04\n  add\n  tag_12\n  swap2\n  swap1\n  tag_13\n  jump\t// in\ntag_12:\n  mload(0x40)\n  dup1\n  swap2\n  sub\n  swap1\n  revert\n    /* \"@openzeppelin/contracts/access/Ownable.sol\":1269:1364  if (initialOwner == address(0)) {... */\ntag_11:\n    /* \"@openzeppelin/contracts/access/Ownable.sol\":1373:1405  _transferOwnership(initialOwner) */\n  tag_14\n    /* \"@openzeppelin/contracts/access/Ownable.sol\":1392:1404  initialOwner */\n  dup2\n    /* \"@openzeppelin/contracts/access/Ownable.sol\":1373:1391  _transferOwnership */\n  shl(0x20, tag_15)\n    /* \"@openzeppelin/contracts/access/Ownable.sol\":1373:1405  _transferOwnership(initialOwner) */\n  0x20\n  shr\n  jump\t// in\ntag_14:\n    /* \"@openzeppelin/contracts/access/Ownable.sol\":1225:1412  constructor(address initialOwner) {... */\n  pop\n    /* \"@openzeppelin/contracts/security/Pausable.sol\":1006:1011  false */\n  0x00\n    /* \"@openzeppelin/contracts/security/Pausable.sol\":996:1003  _paused */\n  0x05\n  0x14\n    /* \"@openzeppelin/contracts/security/Pausable.sol\":996:1011  _paused = false */\n  0x0100\n  exp\n  dup2\n  sload\n  dup2\n  0xff\n  mul\n  not\n  and\n  swap1\n  dup4\n  iszero\n  iszero\n  mul\n  or\n  swap1\n  sstore\n  pop\n    /* \"./VestedToken.sol\":224:7033  contract VestedToken is ERC20, Ownable, Pausable {... */\n  jump(tag_18)\n    /* \"@openzeppelin/contracts/access/Ownable.sol\":2912:3099  function _transferOwnership(address newOwner) internal virtual {... */\ntag_15:\n    /* \"@openzeppelin/contracts/access/Ownable.sol\":2985:3001  address oldOwner */\n  0x00\n    /* \"@openzeppelin/contracts/access/Ownable.sol\":3004:3010  _owner */\n  0x05\n  0x00\n  swap1\n  sload\n  swap1\n  0x0100\n  exp\n  swap1\n  div\n  0xffffffffffffffffffffffffffffffffffffffff\n  and\n    /* \"@openzeppelin/contracts/access/Ownable.sol\":2985:3010  address oldOwner = _owner */\n  swap1\n  pop\n    /* \"@openzeppelin/contracts/access/Ownable.sol\":3029:3037  newOwner */\n  dup2\n    /* \"@openzeppelin/contracts/access/Ownable.sol\":3020:3026  _owner */\n  0x05\n  0x00\n    /* \"@openzeppelin/contracts/access/Ownable.sol\":3020:3037  _owner = newOwner */\n  0x0100\n  exp\n  dup2\n  sload\n  dup2\n  0xffffffffffffffffffffffffffffffffffffffff\n  mul\n  not\n  and\n  swap1\n  dup4\n  0xffffffffffffffffffffffffffffffffffffffff\n  and\n  mul\n  or\n  swap1\n  sstore\n  pop\n    /* \"@openzeppelin/contracts/access/Ownable.sol\":3083:3091  newOwner */\n  dup2\n    /* \"@openzeppelin/contracts/access/Ownable.sol\":3052:3092  OwnershipTransferred(oldOwner, newOwner) */\n  0xffffffffffffffffffffffffffffffffffffffff\n  and\n    /* \"@openzeppelin/contracts/access/Ownable.sol\":3073:3081  oldOwner */\n  dup2\n    /* \"@openzeppelin/contracts/access/Ownable.sol\":3052:3092  OwnershipTransferred(oldOwner, newOwner) */\n  0xffffffffffffffffffffffffffffffffffffffff\n  and\n  0x8be0079c531659141344cd1fd0a4f28419497f9722a3daafe3b4186f6b6457e0\n  mload(0x40)\n  mload(0x40)\n  dup1\n  swap2\n  sub\n  swap1\n  log3\n    /* \"@openzeppelin/contracts/access/Ownable.sol\":2975:3099  {... */\n  pop\n    /* \"@openzeppelin/contracts/access/Ownable.sol\":2912:3099  function _transferOwnership(address newOwner) internal virtual {... */\n  pop\n  jump\t// out\n    /* \"#utility.yul\":7:106   */\ntag_20:\n    /* \"#utility.yul\":59:65   */\n  0x00\n    /* \"#utility.yul\":93:98   */\n  dup2\n    /* \"#utility.yul\":87:99   */\n  mload\n    /* \"#utility.yul\":77:99   */\n  swap1\n  pop\n    /* \"#utility.yul\":7:106   */\n  swap2\n  swap1\n  pop\n  jump\t// out\n    /* \"#utility.yul\":112:292   */\ntag_21:\n    /* \"#utility.yul\":160:237   */\n  0x4e487b7100000000000000000000000000000000000000000000000000000000\n    /* \"#utility.yul\":157:158   */\n  0x00\n    /* \"#utility.yul\":150:238   */\n  mstore\n    /* \"#utility.yul\":257:261   */\n  0x41\n    /* \"#utility.yul\":254:255   */\n  0x04\n    /* \"#utility.yul\":247:262   */\n  mstore\n    /* \"#utility.yul\":281:285   */\n  0x24\n    /* \"#utility.yul\":278:279   */\n  0x00\n    /* \"#utility.yul\":271:286   */\n  revert\n    /* \"#utility.yul\":298:478   */\ntag_22:\n    /* \"#utility.yul\":346:423   */\n  0x4e487b7100000000000000000000000000000000000000000000000000000000\n    /* \"#utility.yul\":343:344   */\n  0x00\n    /* \"#utility.yul\":336:424   */\n  mstore\n    /* \"#utility.yul\":443:447   */\n  0x22\n    /* \"#utility.yul\":440:441   */\n  0x04\n    /* \"#utility.yul\":433:448   */\n  mstore\n    /* \"#utility.yul\":467:471   */\n  0x24\n    /* \"#utility.yul\":464:465   */\n  0x00\n    /* \"#utility.yul\":457:472   */\n  revert\n    /* \"#utility.yul\":484:804   */\ntag_23:\n    /* \"#utility.yul\":528:534   */\n  0x00\n    /* \"#utility.yul\":565:566   */\n  0x02\n    /* \"#utility.yul\":559:563   */\n  dup3\n    /* \"#utility.yul\":555:567   */\n  div\n    /* \"#utility.yul\":545:567   */\n  swap1\n  pop\n    /* \"#utility.yul\":612:613   */\n  0x01\n    /* \"#utility.yul\":606:610   */\n  dup3\n    /* \"#utility.yul\":602:614   */\n  and\n    /* \"#utility.yul\":633:651   */\n  dup1\n    /* \"#utility.yul\":623:704   */\n  tag_48\n  jumpi\n    /* \"#utility.yul\":689:693   */\n  0x7f\n    /* \"#utility.yul\":681:687   */\n  dup3\n    /* \"#utility.yul\":677:694   */\n  and\n    /* \"#utility.yul\":667:694   */\n  swap2\n  pop\n    /* \"#utility.yul\":623:704   */\ntag_48:\n    /* \"#utility.yul\":751:753   */\n  0x20\n    /* \"#utility.yul\":743:749   */\n  dup3\n    /* \"#utility.yul\":740:754   */\n  lt\n    /* \"#utility.yul\":720:738   */\n  dup2\n    /* \"#utility.yul\":717:755   */\n  sub\n    /* \"#utility.yul\":714:798   */\n  tag_49\n  jumpi\n    /* \"#utility.yul\":770:788   */\n  tag_50\n  tag_22\n  jump\t// in\ntag_50:\n    /* \"#utility.yul\":714:798   */\ntag_49:\n    /* \"#utility.yul\":535:804   */\n  pop\n    /* \"#utility.yul\":484:804   */\n  swap2\n  swap1\n  pop\n  jump\t// out\n    /* \"#utility.yul\":810:951   */\ntag_24:\n    /* \"#utility.yul\":859:863   */\n  0x00\n    /* \"#utility.yul\":882:885   */\n  dup2\n    /* \"#utility.yul\":874:885   */\n  swap1\n  pop\n    /* \"#utility.yul\":905:908   */\n  dup2\n    /* \"#utility.yul\":902:903   */\n  0x00\n    /* \"#utility.yul\":895:909   */\n  mstore\n    /* \"#utility.yul\":939:943   */\n  0x20\n    /* \"#utility.yul\":936:937   */\n  0x00\n    /* \"#utility.yul\":926:944   */\n  keccak256\n    /* \"#utility.yul\":918:944   */\n  swap1\n  pop\n    /* \"#utility.yul\":810:951   */\n  swap2\n  swap1\n  pop\n  jump\t// out\n    /* \"#utility.yul\":957:1050   */\ntag_25:\n    /* \"#utility.yul\":994:1000   */\n  0x00\n    /* \"#utility.yul\":1041:1043   */\n  0x20\n    /* \"#utility.yul\":1036:1038   */\n  0x1f\n    /* \"#utility.yul\":1029:1034   */\n  dup4\n    /* \"#utility.yul\":1025:1039   */\n  add\n    /* \"#utility.yul\":1021:1044   */\n  div\n    /* \"#utility.yul\":1011:1044   */\n  swap1\n  pop\n    /* \"#utility.yul\":957:1050   */\n  swap2\n  swap1\n  pop\n  jump\t// out\n    /* \"#utility.yul\":1056:1163   */\ntag_26:\n    /* \"#utility.yul\":1100:1108   */\n  0x00\n    /* \"#utility.yul\":1150:1155   */\n  dup3\n    /* \"#utility.yul\":1144:1148   */\n  dup3\n    /* \"#utility.yul\":1140:1156   */\n  shl\n    /* \"#utility.yul\":1119:1156   */\n  swap1\n  pop\n    /* \"#utility.yul\":1056:1163   */\n  swap3\n  swap2\n  pop\n  pop\n  jump\t// out\n    /* \"#utility.yul\":1169:1562   */\ntag_27:\n    /* \"#utility.yul\":1238:1244   */\n  0x00\n    /* \"#utility.yul\":1288:1289   */\n  0x08\n    /* \"#utility.yul\":1276:1286   */\n  dup4\n    /* \"#utility.yul\":1272:1290   */\n  mul\n    /* \"#utility.yul\":1311:1408   */\n  tag_55\n    /* \"#utility.yul\":1341:1407   */\n  0xffffffffffffffffffffffffffffffffffffffffffffffffffffffffffffffff\n    /* \"#utility.yul\":1330:1339   */\n  dup3\n    /* \"#utility.yul\":1311:1408   */\n  tag_26\n  jump\t// in\ntag_55:\n    /* \"#utility.yul\":1429:1468   */\n  tag_56\n    /* \"#utility.yul\":1459:1467   */\n  dup7\n    /* \"#utility.yul\":1448:1457   */\n  dup4\n    /* \"#utility.yul\":1429:1468   */\n  tag_26\n  jump\t// in\ntag_56:\n    /* \"#utility.yul\":1417:1468   */\n  swap6\n  pop\n    /* \"#utility.yul\":1501:1505   */\n  dup1\n    /* \"#utility.yul\":1497:1506   */\n  not\n    /* \"#utility.yul\":1490:1495   */\n  dup5\n    /* \"#utility.yul\":1486:1507   */\n  and\n    /* \"#utility.yul\":1477:1507   */\n  swap4\n  pop\n    /* \"#utility.yul\":1550:1554   */\n  dup1\n    /* \"#utility.yul\":1540:1548   */\n  dup7\n    /* \"#utility.yul\":1536:1555   */\n  and\n    /* \"#utility.yul\":1529:1534   */\n  dup5\n    /* \"#utility.yul\":1526:1556   */\n  or\n    /* \"#utility.yul\":1516:1556   */\n  swap3\n  pop\n    /* \"#utility.yul\":1245:1562   */\n  pop\n  pop\n    /* \"#utility.yul\":1169:1562   */\n  swap4\n  swap3\n  pop\n  pop\n  pop\n  jump\t// out\n    /* \"#utility.yul\":1568:1645   */\ntag_28:\n    /* \"#utility.yul\":1605:1612   */\n  0x00\n    /* \"#utility.yul\":1634:1639   */\n  dup2\n    /* \"#utility.yul\":1623:1639   */\n  swap1\n  pop\n    /* \"#utility.yul\":1568:1645   */\n  swap2\n  swap1\n  pop\n  jump\t// out\n    /* \"#utility.yul\":1651:1711   */\ntag_29:\n    /* \"#utility.yul\":1679:1682   */\n  0x00\n    /* \"#utility.yul\":1700:1705   */\n  dup2\n    /* \"#utility.yul\":1693:1705   */\n  swap1\n  pop\n    /* \"#utility.yul\":1651:1711   */\n  swap2\n  swap1\n  pop\n  jump\t// out\n    /* \"#utility.yul\":1717:1859   */\ntag_30:\n    /* \"#utility.yul\":1767:1776   */\n  0x00\n    /* \"#utility.yul\":1800:1853   */\n  tag_60\n    /* \"#utility.yul\":1818:1852   */\n  tag_61\n    /* \"#utility.yul\":1827:1851   */\n  tag_62\n    /* \"#utility.yul\":1845:1850   */\n  dup5\n    /* \"#utility.yul\":1827:1851   */\n  tag_28\n  jump\t// in\ntag_62:\n    /* \"#utility.yul\":1818:1852   */\n  tag_29\n  jump\t// in\ntag_61:\n    /* \"#utility.yul\":1800:1853   */\n  tag_28\n  jump\t// in\ntag_60:\n    /* \"#utility.yul\":1787:1853   */\n  swap1\n  pop\n    /* \"#utility.yul\":1717:1859   */\n  swap2\n  swap1\n  pop\n  jump\t// out\n    /* \"#utility.yul\":1865:1940   */\ntag_31:\n    /* \"#utility.yul\":1908:1911   */\n  0x00\n    /* \"#utility.yul\":1929:1934   */\n  dup2\n    /* \"#utility.yul\":1922:1934   */\n  swap1\n  pop\n    /* \"#utility.yul\":1865:1940   */\n  swap2\n  swap1\n  pop\n  jump\t// out\n    /* \"#utility.yul\":1946:2215   */\ntag_32:\n    /* \"#utility.yul\":2056:2095   */\n  tag_65\n    /* \"#utility.yul\":2087:2094   */\n  dup4\n    /* \"#utility.yul\":2056:2095   */\n  tag_30\n  jump\t// in\ntag_65:\n    /* \"#utility.yul\":2117:2208   */\n  tag_66\n    /* \"#utility.yul\":2166:2207   */\n  tag_67\n    /* \"#utility.yul\":2190:2206   */\n  dup3\n    /* \"#utility.yul\":2166:2207   */\n  tag_31\n  jump\t// in\ntag_67:\n    /* \"#utility.yul\":2158:2164   */\n  dup5\n    /* \"#utility.yul\":2151:2155   */\n  dup5\n    /* \"#utility.yul\":2145:2156   */\n  sload\n    /* \"#utility.yul\":2117:2208   */\n  tag_27\n  jump\t// in\ntag_66:\n    /* \"#utility.yul\":2111:2115   */\n  dup3\n    /* \"#utility.yul\":2104:2209   */\n  sstore\n    /* \"#utility.yul\":2022:2215   */\n  pop\n    /* \"#utility.yul\":1946:2215   */\n  pop\n  pop\n  pop\n  jump\t// out\n    /* \"#utility.yul\":2221:2294   */\ntag_33:\n    /* \"#utility.yul\":2266:2269   */\n  0x00\n    /* \"#utility.yul\":2221:2294   */\n  swap1\n  jump\t// out\n    /* \"#utility.yul\":2300:2489   */\ntag_34:\n    /* \"#utility.yul\":2377:2409   */\n  tag_70\n  tag_33\n  jump\t// in\ntag_70:\n    /* \"#utility.yul\":2418:2483   */\n  tag_71\n    /* \"#utility.yul\":2476:2482   */\n  dup2\n    /* \"#utility.yul\":2468:2474   */\n  dup5\n    /* \"#utility.yul\":2462:2466   */\n  dup5\n    /* \"#utility.yul\":2418:2483   */\n  tag_32\n  jump\t// in\ntag_71:\n    /* \"#utility.yul\":2353:2489   */\n  pop\n    /* \"#utility.yul\":2300:2489   */\n  pop\n  pop\n  jump\t// out\n    /* \"#utility.yul\":2495:2681   */\ntag_35:\n    /* \"#utility.yul\":2555:2675   */\ntag_73:\n    /* \"#utility.yul\":2572:2575   */\n  dup2\n    /* \"#utility.yul\":2565:2570   */\n  dup2\n    /* \"#utility.yul\":2562:2576   */\n  lt\n    /* \"#utility.yul\":2555:2675   */\n  iszero\n  tag_75\n  jumpi\n    /* \"#utility.yul\":2626:2665   */\n  tag_76\n    /* \"#utility.yul\":2663:2664   */\n  0x00\n    /* \"#utility.yul\":2656:2661   */\n  dup3\n    /* \"#utility.yul\":2626:2665   */\n  tag_34\n  jump\t// in\ntag_76:\n    /* \"#utility.yul\":2599:2600   */\n  0x01\n    /* \"#utility.yul\":2592:2597   */\n  dup2\n    /* \"#utility.yul\":2588:2601   */\n  add\n    /* \"#utility.yul\":2579:2601   */\n  swap1\n  pop\n    /* \"#utility.yul\":2555:2675   */\n  jump(tag_73)\ntag_75:\n    /* \"#utility.yul\":2495:2681   */\n  pop\n  pop\n  jump\t// out\n    /* \"#utility.yul\":2687:3230   */\ntag_36:\n    /* \"#utility.yul\":2788:2790   */\n  0x1f\n    /* \"#utility.yul\":2783:2786   */\n  dup3\n    /* \"#utility.yul\":2780:2791   */\n  gt\n    /* \"#utility.yul\":2777:3223   */\n  iszero\n  tag_78\n  jumpi\n    /* \"#utility.yul\":2822:2860   */\n  tag_79\n    /* \"#utility.yul\":2854:2859   */\n  dup2\n    /* \"#utility.yul\":2822:2860   */\n  tag_24\n  jump\t// in\ntag_79:\n    /* \"#utility.yul\":2906:2935   */\n  tag_80\n    /* \"#utility.yul\":2924:2934   */\n  dup5\n    /* \"#utility.yul\":2906:2935   */\n  tag_25\n  jump\t// in\ntag_80:\n    /* \"#utility.yul\":2896:2904   */\n  dup2\n    /* \"#utility.yul\":2892:2936   */\n  add\n    /* \"#utility.yul\":3089:3091   */\n  0x20\n    /* \"#utility.yul\":3077:3087   */\n  dup6\n    /* \"#utility.yul\":3074:3092   */\n  lt\n    /* \"#utility.yul\":3071:3120   */\n  iszero\n  tag_81\n  jumpi\n    /* \"#utility.yul\":3110:3118   */\n  dup2\n    /* \"#utility.yul\":3095:3118   */\n  swap1\n  pop\n    /* \"#utility.yul\":3071:3120   */\ntag_81:\n    /* \"#utility.yul\":3133:3213   */\n  tag_82\n    /* \"#utility.yul\":3189:3211   */\n  tag_83\n    /* \"#utility.yul\":3207:3210   */\n  dup6\n    /* \"#utility.yul\":3189:3211   */\n  tag_25\n  jump\t// in\ntag_83:\n    /* \"#utility.yul\":3179:3187   */\n  dup4\n    /* \"#utility.yul\":3175:3212   */\n  add\n    /* \"#utility.yul\":3162:3173   */\n  dup3\n    /* \"#utility.yul\":3133:3213   */\n  tag_35\n  jump\t// in\ntag_82:\n    /* \"#utility.yul\":2792:3223   */\n  pop\n  pop\n    /* \"#utility.yul\":2777:3223   */\ntag_78:\n    /* \"#utility.yul\":2687:3230   */\n  pop\n  pop\n  pop\n  jump\t// out\n    /* \"#utility.yul\":3236:3353   */\ntag_37:\n    /* \"#utility.yul\":3290:3298   */\n  0x00\n    /* \"#utility.yul\":3340:3345   */\n  dup3\n    /* \"#utility.yul\":3334:3338   */\n  dup3\n    /* \"#utility.yul\":3330:3346   */\n  shr\n    /* \"#utility.yul\":3309:3346   */\n  swap1\n  pop\n    /* \"#utility.yul\":3236:3353   */\n  swap3\n  swap2\n  pop\n  pop\n  jump\t// out\n    /* \"#utility.yul\":3359:3528   */\ntag_38:\n    /* \"#utility.yul\":3403:3409   */\n  0x00\n    /* \"#utility.yul\":3436:3487   */\n  tag_86\n    /* \"#utility.yul\":3484:3485   */\n  0x00\n    /* \"#utility.yul\":3480:3486   */\n  not\n    /* \"#utility.yul\":3472:3477   */\n  dup5\n    /* \"#utility.yul\":3469:3470   */\n  0x08\n    /* \"#utility.yul\":3465:3478   */\n  mul\n    /* \"#utility.yul\":3436:3487   */\n  tag_37\n  jump\t// in\ntag_86:\n    /* \"#utility.yul\":3432:3488   */\n  not\n    /* \"#utility.yul\":3517:3521   */\n  dup1\n    /* \"#utility.yul\":3511:3515   */\n  dup4\n    /* \"#utility.yul\":3507:3522   */\n  and\n    /* \"#utility.yul\":3497:3522   */\n  swap2\n  pop\n    /* \"#utility.yul\":3410:3528   */\n  pop\n    /* \"#utility.yul\":3359:3528   */\n  swap3\n  swap2\n  pop\n  pop\n  jump\t// out\n    /* \"#utility.yul\":3533:3828   */\ntag_39:\n    /* \"#utility.yul\":3609:3613   */\n  0x00\n    /* \"#utility.yul\":3755:3784   */\n  tag_88\n    /* \"#utility.yul\":3780:3783   */\n  dup4\n    /* \"#utility.yul\":3774:3778   */\n  dup4\n    /* \"#utility.yul\":3755:3784   */\n  tag_38\n  jump\t// in\ntag_88:\n    /* \"#utility.yul\":3747:3784   */\n  swap2\n  pop\n    /* \"#utility.yul\":3817:3820   */\n  dup3\n    /* \"#utility.yul\":3814:3815   */\n  0x02\n    /* \"#utility.yul\":3810:3821   */\n  mul\n    /* \"#utility.yul\":3804:3808   */\n  dup3\n    /* \"#utility.yul\":3801:3822   */\n  or\n    /* \"#utility.yul\":3793:3822   */\n  swap1\n  pop\n    /* \"#utility.yul\":3533:3828   */\n  swap3\n  swap2\n  pop\n  pop\n  jump\t// out\n    /* \"#utility.yul\":3833:5228   */\ntag_8:\n    /* \"#utility.yul\":3950:3987   */\n  tag_90\n    /* \"#utility.yul\":3983:3986   */\n  dup3\n    /* \"#utility.yul\":3950:3987   */\n  tag_20\n  jump\t// in\ntag_90:\n    /* \"#utility.yul\":4052:4070   */\n  0xffffffffffffffff\n    /* \"#utility.yul\":4044:4050   */\n  dup2\n    /* \"#utility.yul\":4041:4071   */\n  gt\n    /* \"#utility.yul\":4038:4094   */\n  iszero\n  tag_91\n  jumpi\n    /* \"#utility.yul\":4074:4092   */\n  tag_92\n  tag_21\n  jump\t// in\ntag_92:\n    /* \"#utility.yul\":4038:4094   */\ntag_91:\n    /* \"#utility.yul\":4118:4156   */\n  tag_93\n    /* \"#utility.yul\":4150:4154   */\n  dup3\n    /* \"#utility.yul\":4144:4155   */\n  sload\n    /* \"#utility.yul\":4118:4156   */\n  tag_23\n  jump\t// in\ntag_93:\n    /* \"#utility.yul\":4203:4270   */\n  tag_94\n    /* \"#utility.yul\":4263:4269   */\n  dup3\n    /* \"#utility.yul\":4255:4261   */\n  dup3\n    /* \"#utility.yul\":4249:4253   */\n  dup6\n    /* \"#utility.yul\":4203:4270   */\n  tag_36\n  jump\t// in\ntag_94:\n    /* \"#utility.yul\":4297:4298   */\n  0x00\n    /* \"#utility.yul\":4321:4325   */\n  0x20\n    /* \"#utility.yul\":4308:4325   */\n  swap1\n  pop\n    /* \"#utility.yul\":4353:4355   */\n  0x1f\n    /* \"#utility.yul\":4345:4351   */\n  dup4\n    /* \"#utility.yul\":4342:4356   */\n  gt\n    /* \"#utility.yul\":4370:4371   */\n  0x01\n    /* \"#utility.yul\":4365:4983   */\n  dup2\n  eq\n  tag_96\n  jumpi\n    /* \"#utility.yul\":5027:5028   */\n  0x00\n    /* \"#utility.yul\":5044:5050   */\n  dup5\n    /* \"#utility.yul\":5041:5118   */\n  iszero\n  tag_97\n  jumpi\n    /* \"#utility.yul\":5093:5102   */\n  dup3\n    /* \"#utility.yul\":5088:5091   */\n  dup8\n    /* \"#utility.yul\":5084:5103   */\n  add\n    /* \"#utility.yul\":5078:5104   */\n  mload\n    /* \"#utility.yul\":5069:5104   */\n  swap1\n  pop\n    /* \"#utility.yul\":5041:5118   */\ntag_97:\n    /* \"#utility.yul\":5144:5211   */\n  tag_98\n    /* \"#utility.yul\":5204:5210   */\n  dup6\n    /* \"#utility.yul\":5197:5202   */\n  dup3\n    /* \"#utility.yul\":5144:5211   */\n  tag_39\n  jump\t// in\ntag_98:\n    /* \"#utility.yul\":5138:5142   */\n  dup7\n    /* \"#utility.yul\":5131:5212   */\n  sstore\n    /* \"#utility.yul\":5000:5222   */\n  pop\n    /* \"#utility.yul\":4335:5222   */\n  jump(tag_95)\n    /* \"#utility.yul\":4365:4983   */\ntag_96:\n    /* \"#utility.yul\":4417:4421   */\n  0x1f\n    /* \"#utility.yul\":4413:4422   */\n  not\n    /* \"#utility.yul\":4405:4411   */\n  dup5\n    /* \"#utility.yul\":4401:4423   */\n  and\n    /* \"#utility.yul\":4451:4488   */\n  tag_99\n    /* \"#utility.yul\":4483:4487   */\n  dup7\n    /* \"#utility.yul\":4451:4488   */\n  tag_24\n  jump\t// in\ntag_99:\n    /* \"#utility.yul\":4510:4511   */\n  0x00\n    /* \"#utility.yul\":4524:4732   */\ntag_100:\n    /* \"#utility.yul\":4538:4545   */\n  dup3\n    /* \"#utility.yul\":4535:4536   */\n  dup2\n    /* \"#utility.yul\":4532:4546   */\n  lt\n    /* \"#utility.yul\":4524:4732   */\n  iszero\n  tag_102\n  jumpi\n    /* \"#utility.yul\":4617:4626   */\n  dup5\n    /* \"#utility.yul\":4612:4615   */\n  dup10\n    /* \"#utility.yul\":4608:4627   */\n  add\n    /* \"#utility.yul\":4602:4628   */\n  mload\n    /* \"#utility.yul\":4594:4600   */\n  dup3\n    /* \"#utility.yul\":4587:4629   */\n  sstore\n    /* \"#utility.yul\":4668:4669   */\n  0x01\n    /* \"#utility.yul\":4660:4666   */\n  dup3\n    /* \"#utility.yul\":4656:4670   */\n  add\n    /* \"#utility.yul\":4646:4670   */\n  swap2\n  pop\n    /* \"#utility.yul\":4715:4717   */\n  0x20\n    /* \"#utility.yul\":4704:4713   */\n  dup6\n    /* \"#utility.yul\":4700:4718   */\n  add\n    /* \"#utility.yul\":4687:4718   */\n  swap5\n  pop\n    /* \"#utility.yul\":4561:4565   */\n  0x20\n    /* \"#utility.yul\":4558:4559   */\n  dup2\n    /* \"#utility.yul\":4554:4566   */\n  add\n    /* \"#utility.yul\":4549:4566   */\n  swap1\n  pop\n    /* \"#utility.yul\":4524:4732   */\n  jump(tag_100)\ntag_102:\n    /* \"#utility.yul\":4760:4766   */\n  dup7\n    /* \"#utility.yul\":4751:4758   */\n  dup4\n    /* \"#utility.yul\":4748:4767   */\n  lt\n    /* \"#utility.yul\":4745:4924   */\n  iszero\n  tag_103\n  jumpi\n    /* \"#utility.yul\":4818:4827   */\n  dup5\n    /* \"#utility.yul\":4813:4816   */\n  dup10\n    /* \"#utility.yul\":4809:4828   */\n  add\n    /* \"#utility.yul\":4803:4829   */\n  mload\n    /* \"#utility.yul\":4861:4909   */\n  tag_104\n    /* \"#utility.yul\":4903:4907   */\n  0x1f\n    /* \"#utility.yul\":4895:4901   */\n  dup10\n    /* \"#utility.yul\":4891:4908   */\n  and\n    /* \"#utility.yul\":4880:4889   */\n  dup3\n    /* \"#utility.yul\":4861:4909   */\n  tag_38\n  jump\t// in\ntag_104:\n    /* \"#utility.yul\":4853:4859   */\n  dup4\n    /* \"#utility.yul\":4846:4910   */\n  sstore\n    /* \"#utility.yul\":4768:4924   */\n  pop\n    /* \"#utility.yul\":4745:4924   */\ntag_103:\n    /* \"#utility.yul\":4970:4971   */\n  0x01\n    /* \"#utility.yul\":4966:4967   */\n  0x02\n    /* \"#utility.yul\":4958:4964   */\n  dup9\n    /* \"#utility.yul\":4954:4968   */\n  mul\n    /* \"#utility.yul\":4950:4972   */\n  add\n    /* \"#utility.yul\":4944:4948   */\n  dup9\n    /* \"#utility.yul\":4937:4973   */\n  sstore\n    /* \"#utility.yul\":4372:4983   */\n  pop\n  pop\n  pop\n    /* \"#utility.yul\":4335:5222   */\ntag_95:\n  pop\n    /* \"#utility.yul\":3925:5228   */\n  pop\n  pop\n  pop\n    /* \"#utility.yul\":3833:5228   */\n  pop\n  pop\n  jump\t// out\n    /* \"#utility.yul\":5234:5360   */\ntag_40:\n    /* \"#utility.yul\":5271:5278   */\n  0x00\n    /* \"#utility.yul\":5311:5353   */\n  0xffffffffffffffffffffffffffffffffffffffff\n    /* \"#utility.yul\":5304:5309   */\n  dup3\n    /* \"#utility.yul\":5300:5354   */\n  and\n    /* \"#utility.yul\":5289:5354   */\n  swap1\n  pop\n    /* \"#utility.yul\":5234:5360   */\n  swap2\n  swap1\n  pop\n  jump\t// out\n    /* \"#utility.yul\":5366:5462   */\ntag_41:\n    /* \"#utility.yul\":5403:5410   */\n  0x00\n    /* \"#utility.yul\":5432:5456   */\n  tag_107\n    /* \"#utility.yul\":5450:5455   */\n  dup3\n    /* \"#utility.yul\":5432:5456   */\n  tag_40\n  jump\t// in\ntag_107:\n    /* \"#utility.yul\":5421:5456   */\n  swap1\n  pop\n    /* \"#utility.yul\":5366:5462   */\n  swap2\n  swap1\n  pop\n  jump\t// out\n    /* \"#utility.yul\":5468:5586   */\ntag_42:\n    /* \"#utility.yul\":5555:5579   */\n  tag_109\n    /* \"#utility.yul\":5573:5578   */\n  dup2\n    /* \"#utility.yul\":5555:5579   */\n  tag_41\n  jump\t// in\ntag_109:\n    /* \"#utility.yul\":5550:5553   */\n  dup3\n    /* \"#utility.yul\":5543:5580   */\n  mstore\n    /* \"#utility.yul\":5468:5586   */\n  pop\n  pop\n  jump\t// out\n    /* \"#utility.yul\":5592:5814   */\ntag_13:\n    /* \"#utility.yul\":5685:5689   */\n  0x00\n    /* \"#utility.yul\":5723:5725   */\n  0x20\n    /* \"#utility.yul\":5712:5721   */\n  dup3\n    /* \"#utility.yul\":5708:5726   */\n  add\n    /* \"#utility.yul\":5700:5726   */\n  swap1\n  pop\n    /* \"#utility.yul\":5736:5807   */\n  tag_111\n    /* \"#utility.yul\":5804:5805   */\n  0x00\n    /* \"#utility.yul\":5793:5802   */\n  dup4\n    /* \"#utility.yul\":5789:5806   */\n  add\n    /* \"#utility.yul\":5780:5786   */\n  dup5\n    /* \"#utility.yul\":5736:5807   */\n  tag_42\n  jump\t// in\ntag_111:\n    /* \"#utility.yul\":5592:5814   */\n  swap3\n  swap2\n  pop\n  pop\n  jump\t// out\n    /* \"./VestedToken.sol\":224:7033  contract VestedToken is ERC20, Ownable, Pausable {... */\ntag_18:\n  dataSize(sub_0)\n  dup1\n  dataOffset(sub_0)\n  0x00\n  codecopy\n  0x00\n  return\nstop\n\nsub_0: assembly {\n        /* \"./VestedToken.sol\":224:7033  contract VestedToken is ERC20, Ownable, Pausable {... */\n      mstore(0x40, 0x80)\n      callvalue\n      dup1\n      iszero\n      tag_1\n      jumpi\n      0x00\n      dup1\n      revert\n    tag_1:\n      pop\n      jumpi(tag_2, lt(calldatasize, 0x04))\n      shr(0xe0, calldataload(0x00))\n      dup1\n      0x715018a6\n      gt\n      tag_34\n      jumpi\n      dup1\n      0xa9059cbb\n      gt\n      tag_35\n      jumpi\n      dup1\n      0xd6458285\n      gt\n      tag_36\n      jumpi\n      dup1\n      0xd6458285\n      eq\n      tag_30\n      jumpi\n      dup1\n      0xdd62ed3e\n      eq\n      tag_31\n      jumpi\n      dup1\n      0xecbc5095\n      eq\n      tag_32\n      jumpi\n      dup1\n      0xf2fde38b\n      eq\n      tag_33\n      jumpi\n      jump(tag_2)\n    tag_36:\n      dup1\n      0xa9059cbb\n      eq\n      tag_26\n      jumpi\n      dup1\n      0xbc3bea5e\n      eq\n      tag_27\n      jumpi\n      dup1\n      0xbd3a13f6\n      eq\n      tag_28\n      jumpi\n      dup1\n      0xcb3fdb61\n      eq\n      tag_29\n      jumpi\n      jump(tag_2)\n    tag_35:\n      dup1\n      0x8456cb59\n      gt\n      tag_37\n      jumpi\n      dup1\n      0x8456cb59\n      eq\n      tag_22\n      jumpi\n      dup1\n      0x8da5cb5b\n      eq\n      tag_23\n      jumpi\n      dup1\n      0x95d89b41\n      eq\n      tag_24\n      jumpi\n      dup1\n      0xa00686f1\n      eq\n      tag_25\n      jumpi\n      jump(tag_2)\n    tag_37:\n      dup1\n      0x715018a6\n      eq\n      tag_18\n      jumpi\n      dup1\n      0x79cc6790\n      eq\n      tag_19\n      jumpi\n      dup1\n      0x7f58b9d3\n      eq\n      tag_20\n      jumpi\n      dup1\n      0x7fb36099\n      eq\n      tag_21\n      jumpi\n      jump(tag_2)\n    tag_34:\n      dup1\n      0x392e53cd\n      gt\n      tag_38\n      jumpi\n      dup1\n      0x4ebc47f8\n      gt\n      tag_39\n      jumpi\n      dup1\n      0x4ebc47f8\n      eq\n      tag_14\n      jumpi\n      dup1\n      0x5c975abb\n      eq\n      tag_15\n      jumpi\n      dup1\n      0x66368fb6\n      eq\n      tag_16\n      jumpi\n      dup1\n      0x70a08231\n      eq\n      tag_17\n      jumpi\n      jump(tag_2)\n    tag_39:\n      dup1\n      0x392e53cd\n      eq\n      tag_10\n      jumpi\n      dup1\n      0x3f4ba83a\n      eq\n      tag_11\n      jumpi\n      dup1\n      0x42966c68\n      eq\n      tag_12\n      jumpi\n      dup1\n      0x4cf590b0\n      eq\n      tag_13\n      jumpi\n      jump(tag_2)\n    tag_38:\n      dup1\n      0x19eccdfd\n      gt\n      tag_40\n      jumpi\n      dup1\n      0x19eccdfd\n      eq\n      tag_6\n      jumpi\n      dup1\n      0x23b872dd\n      eq\n      tag_7\n      jumpi\n      dup1\n      0x313ce567\n      eq\n      tag_8\n      jumpi\n      dup1\n      0x37915874\n      eq\n      tag_9\n      jumpi\n      jump(tag_2)\n    tag_40:\n      dup1\n      0x06fdde03\n      eq\n      tag_3\n      jumpi\n      dup1\n      0x095ea7b3\n      eq\n      tag_4\n      jumpi\n      dup1\n      0x18160ddd\n      eq\n      tag_5\n      jumpi\n    tag_2:\n      0x00\n      dup1\n      revert\n        /* \"./VestedToken.sol\":2448:2546  function name() public view virtual override returns (string memory) {... */\n    tag_3:\n      tag_41\n      tag_42\n      jump\t// in\n    tag_41:\n      mload(0x40)\n      tag_43\n      swap2\n      swap1\n      tag_44\n      jump\t// in\n    tag_43:\n      mload(0x40)\n      dup1\n      swap2\n      sub\n      swap1\n      return\n        /* \"@openzeppelin/contracts/token/ERC20/ERC20.sol\":3902:4088  function approve(address spender, uint256 value) public virtual returns (bool) {... */\n    tag_4:\n      tag_45\n      0x04\n      dup1\n      calldatasize\n      sub\n      dup2\n      add\n      swap1\n      tag_46\n      swap2\n      swap1\n      tag_47\n      jump\t// in\n    tag_46:\n      tag_48\n      jump\t// in\n    tag_45:\n      mload(0x40)\n      tag_49\n      swap2\n      swap1\n      tag_50\n      jump\t// in\n    tag_49:\n      mload(0x40)\n      dup1\n      swap2\n      sub\n      swap1\n      return\n        /* \"@openzeppelin/contracts/token/ERC20/ERC20.sol\":2803:2900  function totalSupply() public view virtual returns (uint256) {... */\n    tag_5:\n      tag_51\n      tag_52\n      jump\t// in\n    tag_51:\n      mload(0x40)\n      tag_53\n      swap2\n      swap1\n      tag_54\n      jump\t// in\n    tag_53:\n      mload(0x40)\n      dup1\n      swap2\n      sub\n      swap1\n      return\n        /* \"./VestedToken.sol\":4556:4923  function setBeneficiaryCategory(address beneficiary, string memory category) external onlyOwner {... */\n    tag_6:\n      tag_55\n      0x04\n      dup1\n      calldatasize\n      sub\n      dup2\n      add\n      swap1\n      tag_56\n      swap2\n      swap1\n      tag_57\n      jump\t// in\n    tag_56:\n      tag_58\n      jump\t// in\n    tag_55:\n      stop\n        /* \"@openzeppelin/contracts/token/ERC20/ERC20.sol\":4680:4924  function transferFrom(address from, address to, uint256 value) public virtual returns (bool) {... */\n    tag_7:\n      tag_59\n      0x04\n      dup1\n      calldatasize\n      sub\n      dup2\n      add\n      swap1\n      tag_60\n      swap2\n      swap1\n      tag_61\n      jump\t// in\n    tag_60:\n      tag_62\n      jump\t// in\n    tag_59:\n      mload(0x40)\n      tag_63\n      swap2\n      swap1\n      tag_50\n      jump\t// in\n    tag_63:\n      mload(0x40)\n      dup1\n      swap2\n      sub\n      swap1\n      return\n        /* \"./VestedToken.sol\":2815:2913  function decimals() public view virtual override returns (uint8) {... */\n    tag_8:\n      tag_64\n      tag_65\n      jump\t// in\n    tag_64:\n      mload(0x40)\n      tag_66\n      swap2\n      swap1\n      tag_67\n      jump\t// in\n    tag_66:\n      mload(0x40)\n      dup1\n      swap2\n      sub\n      swap1\n      return\n        /* \"./VestedToken.sol\":464:512  mapping(address => bool) public vestingContracts */\n    tag_9:\n      tag_68\n      0x04\n      dup1\n      calldatasize\n      sub\n      dup2\n      add\n      swap1\n      tag_69\n      swap2\n      swap1\n      tag_70\n      jump\t// in\n    tag_69:\n      tag_71\n      jump\t// in\n    tag_68:\n      mload(0x40)\n      tag_72\n      swap2\n      swap1\n      tag_50\n      jump\t// in\n    tag_72:\n      mload(0x40)\n      dup1\n      swap2\n      sub\n      swap1\n      return\n        /* \"./VestedToken.sol\":2977:3067  function isInitialized() external view returns (bool) {... */\n    tag_10:\n      tag_73\n      tag_74\n      jump\t// in\n    tag_73:\n      mload(0x40)\n      tag_75\n      swap2\n      swap1\n      tag_50\n      jump\t// in\n    tag_75:\n      mload(0x40)\n      dup1\n      swap2\n      sub\n      swap1\n      return\n        /* \"./VestedToken.sol\":6520:6585  function unpause() external onlyOwner {... */\n    tag_11:\n      tag_76\n      tag_77\n      jump\t// in\n    tag_76:\n      stop\n        /* \"./VestedToken.sol\":6680:6771  function burn(uint256 amount) external onlyOwner {... */\n    tag_12:\n      tag_78\n      0x04\n      dup1\n      calldatasize\n      sub\n      dup2\n      add\n      swap1\n      tag_79\n      swap2\n      swap1\n      tag_80\n      jump\t// in\n    tag_79:\n      tag_81\n      jump\t// in\n    tag_78:\n      stop\n        /* \"./VestedToken.sol\":6196:6345  function getBeneficiaryCategory(address beneficiary) external view returns (string memory) {... */\n    tag_13:\n      tag_82\n      0x04\n      dup1\n      calldatasize\n      sub\n      dup2\n      add\n      swap1\n      tag_83\n      swap2\n      swap1\n      tag_70\n      jump\t// in\n    tag_83:\n      tag_84\n      jump\t// in\n    tag_82:\n      mload(0x40)\n      tag_85\n      swap2\n      swap1\n      tag_44\n      jump\t// in\n    tag_85:\n      mload(0x40)\n      dup1\n      swap2\n      sub\n      swap1\n      return\n        /* \"./VestedToken.sol\":607:662  mapping(address => string) public beneficiaryCategories */\n    tag_14:\n      tag_86\n      0x04\n      dup1\n      calldatasize\n      sub\n      dup2\n      add\n      swap1\n      tag_87\n      swap2\n      swap1\n      tag_70\n      jump\t// in\n    tag_87:\n      tag_88\n      jump\t// in\n    tag_86:\n      mload(0x40)\n      tag_89\n      swap2\n      swap1\n      tag_44\n      jump\t// in\n    tag_89:\n      mload(0x40)\n      dup1\n      swap2\n      sub\n      swap1\n      return\n        /* \"@openzeppelin/contracts/security/Pausable.sol\":1615:1699  function paused() public view virtual returns (bool) {... */\n    tag_15:\n      tag_90\n      tag_91\n      jump\t// in\n    tag_90:\n      mload(0x40)\n      tag_92\n      swap2\n      swap1\n      tag_50\n      jump\t// in\n    tag_92:\n      mload(0x40)\n      dup1\n      swap2\n      sub\n      swap1\n      return\n        /* \"./VestedToken.sol\":548:601  mapping(string => uint256) public categoryAllocations */\n    tag_16:\n      tag_93\n      0x04\n      dup1\n      calldatasize\n      sub\n      dup2\n      add\n      swap1\n      tag_94\n      swap2\n      swap1\n      tag_95\n      jump\t// in\n    tag_94:\n      tag_96\n      jump\t// in\n    tag_93:\n      mload(0x40)\n      tag_97\n      swap2\n      swap1\n      tag_54\n      jump\t// in\n    tag_97:\n      mload(0x40)\n      dup1\n      swap2\n      sub\n      swap1\n      return\n        /* \"@openzeppelin/contracts/token/ERC20/ERC20.sol\":2933:3049  function balanceOf(address account) public view virtual returns (uint256) {... */\n    tag_17:\n      tag_98\n      0x04\n      dup1\n      calldatasize\n      sub\n      dup2\n      add\n      swap1\n      tag_99\n      swap2\n      swap1\n      tag_70\n      jump\t// in\n    tag_99:\n      tag_100\n      jump\t// in\n    tag_98:\n      mload(0x40)\n      tag_101\n      swap2\n      swap1\n      tag_54\n      jump\t// in\n    tag_101:\n      mload(0x40)\n      dup1\n      swap2\n      sub\n      swap1\n      return\n        /* \"@openzeppelin/contracts/access/Ownable.sol\":2293:2394  function renounceOwnership() public virtual onlyOwner {... */\n    tag_18:\n      tag_102\n      tag_103\n      jump\t// in\n    tag_102:\n      stop\n        /* \"./VestedToken.sol\":6928:7031  function burnFrom(address from, uint256 amount) external onlyOwner {... */\n    tag_19:\n      tag_104\n      0x04\n      dup1\n      calldatasize\n      sub\n      dup2\n      add\n      swap1\n      tag_105\n      swap2\n      swap1\n      tag_47\n      jump\t// in\n    tag_105:\n      tag_106\n      jump\t// in\n    tag_104:\n      stop\n        /* \"./VestedToken.sol\":5672:5794  function getVestedBalance(address account) external view returns (uint256) {... */\n    tag_20:\n      tag_107\n      0x04\n      dup1\n      calldatasize\n      sub\n      dup2\n      add\n      swap1\n      tag_108\n      swap2\n      swap1\n      tag_70\n      jump\t// in\n    tag_108:\n      tag_109\n      jump\t// in\n    tag_107:\n      mload(0x40)\n      tag_110\n      swap2\n      swap1\n      tag_54\n      jump\t// in\n    tag_110:\n      mload(0x40)\n      dup1\n      swap2\n      sub\n      swap1\n      return\n        /* \"./VestedToken.sol\":5922:6062  function getCategoryAllocation(string memory category) external view returns (uint256) {... */\n    tag_21:\n      tag_111\n      0x04\n      dup1\n      calldatasize\n      sub\n      dup2\n      add\n      swap1\n      tag_112\n      swap2\n      swap1\n      tag_95\n      jump\t// in\n    tag_112:\n      tag_113\n      jump\t// in\n    tag_111:\n      mload(0x40)\n      tag_114\n      swap2\n      swap1\n      tag_54\n      jump\t// in\n    tag_114:\n      mload(0x40)\n      dup1\n      swap2\n      sub\n      swap1\n      return\n        /* \"./VestedToken.sol\":6401:6462  function pause() external onlyOwner {... */\n    tag_22:\n      tag_115\n      tag_116\n      jump\t// in\n    tag_115:\n      stop\n        /* \"@openzeppelin/contracts/access/Ownable.sol\":1638:1723  function owner() public view virtual returns (address) {... */\n    tag_23:\n      tag_117\n      tag_118\n      jump\t// in\n    tag_117:\n      mload(0x40)\n      tag_119\n      swap2\n      swap1\n      tag_120\n      jump\t// in\n    tag_119:\n      mload(0x40)\n      dup1\n      swap2\n      sub\n      swap1\n      return\n        /* \"./VestedToken.sol\":2612:2714  function symbol() public view virtual override returns (string memory) {... */\n    tag_24:\n      tag_121\n      tag_122\n      jump\t// in\n    tag_121:\n      mload(0x40)\n      tag_123\n      swap2\n      swap1\n      tag_44\n      jump\t// in\n    tag_123:\n      mload(0x40)\n      dup1\n      swap2\n      sub\n      swap1\n      return\n        /* \"./VestedToken.sol\":3194:3539  function addVestingContract(address vestingContract) external onlyOwner {... */\n    tag_25:\n      tag_124\n      0x04\n      dup1\n      calldatasize\n      sub\n      dup2\n      add\n      swap1\n      tag_125\n      swap2\n      swap1\n      tag_70\n      jump\t// in\n    tag_125:\n      tag_126\n      jump\t// in\n    tag_124:\n      stop\n        /* \"@openzeppelin/contracts/token/ERC20/ERC20.sol\":3244:3422  function transfer(address to, uint256 value) public virtual returns (bool) {... */\n    tag_26:\n      tag_127\n      0x04\n      dup1\n      calldatasize\n      sub\n      dup2\n      add\n      swap1\n      tag_128\n      swap2\n      swap1\n      tag_47\n      jump\t// in\n    tag_128:\n      tag_129\n      jump\t// in\n    tag_127:\n      mload(0x40)\n      tag_130\n      swap2\n      swap1\n      tag_50\n      jump\t// in\n    tag_130:\n      mload(0x40)\n      dup1\n      swap2\n      sub\n      swap1\n      return\n        /* \"./VestedToken.sol\":3669:3939  function removeVestingContract(address vestingContract) external onlyOwner {... */\n    tag_27:\n      tag_131\n      0x04\n      dup1\n      calldatasize\n      sub\n      dup2\n      add\n      swap1\n      tag_132\n      swap2\n      swap1\n      tag_70\n      jump\t// in\n    tag_132:\n      tag_133\n      jump\t// in\n    tag_131:\n      stop\n        /* \"./VestedToken.sol\":1651:2384  function initialize(... */\n    tag_28:\n      tag_134\n      0x04\n      dup1\n      calldatasize\n      sub\n      dup2\n      add\n      swap1\n      tag_135\n      swap2\n      swap1\n      tag_136\n      jump\t// in\n    tag_135:\n      tag_137\n      jump\t// in\n    tag_134:\n      stop\n        /* \"./VestedToken.sol\":409:458  mapping(address => uint256) public vestedBalances */\n    tag_29:\n      tag_138\n      0x04\n      dup1\n      calldatasize\n      sub\n      dup2\n      add\n      swap1\n      tag_139\n      swap2\n      swap1\n      tag_70\n      jump\t// in\n    tag_139:\n      tag_140\n      jump\t// in\n    tag_138:\n      mload(0x40)\n      tag_141\n      swap2\n      swap1\n      tag_54\n      jump\t// in\n    tag_141:\n      mload(0x40)\n      dup1\n      swap2\n      sub\n      swap1\n      return\n        /* \"./VestedToken.sol\":4079:4414  function setCategoryAllocation(string memory category, uint256 amount) external onlyOwner {... */\n    tag_30:\n      tag_142\n      0x04\n      dup1\n      calldatasize\n      sub\n      dup2\n      add\n      swap1\n      tag_143\n      swap2\n      swap1\n      tag_144\n      jump\t// in\n    tag_143:\n      tag_145\n      jump\t// in\n    tag_142:\n      stop\n        /* \"@openzeppelin/contracts/token/ERC20/ERC20.sol\":3455:3595  function allowance(address owner, address spender) public view virtual returns (uint256) {... */\n    tag_31:\n      tag_146\n      0x04\n      dup1\n      calldatasize\n      sub\n      dup2\n      add\n      swap1\n      tag_147\n      swap2\n      swap1\n      tag_148\n      jump\t// in\n    tag_147:\n      tag_149\n      jump\t// in\n    tag_146:\n      mload(0x40)\n      tag_150\n      swap2\n      swap1\n      tag_54\n      jump\t// in\n    tag_150:\n      mload(0x40)\n      dup1\n      swap2\n      sub\n      swap1\n      return\n        /* \"./VestedToken.sol\":5117:5528  function mintWithVesting(... */\n    tag_32:\n      tag_151\n      0x04\n      dup1\n      calldatasize\n      sub\n      dup2\n      add\n      swap1\n      tag_152\n      swap2\n      swap1\n      tag_153\n      jump\t// in\n    tag_152:\n      tag_154\n      jump\t// in\n    tag_151:\n      stop\n        /* \"@openzeppelin/contracts/access/Ownable.sol\":2543:2758  function transferOwnership(address newOwner) public virtual onlyOwner {... */\n    tag_33:\n      tag_155\n      0x04\n      dup1\n      calldatasize\n      sub\n      dup2\n      add\n      swap1\n      tag_156\n      swap2\n      swap1\n      tag_70\n      jump\t// in\n    tag_156:\n      tag_157\n      jump\t// in\n    tag_155:\n      stop\n        /* \"./VestedToken.sol\":2448:2546  function name() public view virtual override returns (string memory) {... */\n    tag_42:\n        /* \"./VestedToken.sol\":2502:2515  string memory */\n      0x60\n        /* \"./VestedToken.sol\":2534:2539  _name */\n      0x06\n        /* \"./VestedToken.sol\":2527:2539  return _name */\n      dup1\n      sload\n      tag_159\n      swap1\n      tag_160\n      jump\t// in\n    tag_159:\n      dup1\n      0x1f\n      add\n      0x20\n      dup1\n      swap2\n      div\n      mul\n      0x20\n      add\n      mload(0x40)\n      swap1\n      dup2\n      add\n      0x40\n      mstore\n      dup1\n      swap3\n      swap2\n      swap1\n      dup2\n      dup2\n      mstore\n      0x20\n      add\n      dup3\n      dup1\n      sload\n      tag_161\n      swap1\n      tag_160\n      jump\t// in\n    tag_161:\n      dup1\n      iszero\n      tag_162\n      jumpi\n      dup1\n      0x1f\n      lt\n      tag_163\n      jumpi\n      0x0100\n      dup1\n      dup4\n      sload\n      div\n      mul\n      dup4\n      mstore\n      swap2\n      0x20\n      add\n      swap2\n      jump(tag_162)\n    tag_163:\n      dup3\n      add\n      swap2\n      swap1\n      0x00\n      mstore\n      keccak256(0x00, 0x20)\n      swap1\n    tag_164:\n      dup2\n      sload\n      dup2\n      mstore\n      swap1\n      0x01\n      add\n      swap1\n      0x20\n      add\n      dup1\n      dup4\n      gt\n      tag_164\n      jumpi\n      dup3\n      swap1\n      sub\n      0x1f\n      and\n      dup3\n      add\n      swap2\n    tag_162:\n      pop\n      pop\n      pop\n      pop\n      pop\n      swap1\n      pop\n        /* \"./VestedToken.sol\":2448:2546  function name() public view virtual override returns (string memory) {... */\n      swap1\n      jump\t// out\n        /* \"@openzeppelin/contracts/token/ERC20/ERC20.sol\":3902:4088  function approve(address spender, uint256 value) public virtual returns (bool) {... */\n    tag_48:\n        /* \"@openzeppelin/contracts/token/ERC20/ERC20.sol\":3975:3979  bool */\n      0x00\n        /* \"@openzeppelin/contracts/token/ERC20/ERC20.sol\":3991:4004  address owner */\n      dup1\n        /* \"@openzeppelin/contracts/token/ERC20/ERC20.sol\":4007:4019  _msgSender() */\n      tag_166\n        /* \"@openzeppelin/contracts/token/ERC20/ERC20.sol\":4007:4017  _msgSender */\n      tag_167\n        /* \"@openzeppelin/contracts/token/ERC20/ERC20.sol\":4007:4019  _msgSender() */\n      jump\t// in\n    tag_166:\n        /* \"@openzeppelin/contracts/token/ERC20/ERC20.sol\":3991:4019  address owner = _msgSender() */\n      swap1\n      pop\n        /* \"@openzeppelin/contracts/token/ERC20/ERC20.sol\":4029:4060  _approve(owner, spender, value) */\n      tag_168\n        /* \"@openzeppelin/contracts/token/ERC20/ERC20.sol\":4038:4043  owner */\n      dup2\n        /* \"@openzeppelin/contracts/token/ERC20/ERC20.sol\":4045:4052  spender */\n      dup6\n        /* \"@openzeppelin/contracts/token/ERC20/ERC20.sol\":4054:4059  value */\n      dup6\n        /* \"@openzeppelin/contracts/token/ERC20/ERC20.sol\":4029:4037  _approve */\n      tag_169\n        /* \"@openzeppelin/contracts/token/ERC20/ERC20.sol\":4029:4060  _approve(owner, spender, value) */\n      jump\t// in\n    tag_168:\n        /* \"@openzeppelin/contracts/token/ERC20/ERC20.sol\":4077:4081  true */\n      0x01\n        /* \"@openzeppelin/contracts/token/ERC20/ERC20.sol\":4070:4081  return true */\n      swap2\n      pop\n      pop\n        /* \"@openzeppelin/contracts/token/ERC20/ERC20.sol\":3902:4088  function approve(address spender, uint256 value) public virtual returns (bool) {... */\n      swap3\n      swap2\n      pop\n      pop\n      jump\t// out\n        /* \"@openzeppelin/contracts/token/ERC20/ERC20.sol\":2803:2900  function totalSupply() public view virtual returns (uint256) {... */\n    tag_52:\n        /* \"@openzeppelin/contracts/token/ERC20/ERC20.sol\":2855:2862  uint256 */\n      0x00\n        /* \"@openzeppelin/contracts/token/ERC20/ERC20.sol\":2881:2893  _totalSupply */\n      sload(0x02)\n        /* \"@openzeppelin/contracts/token/ERC20/ERC20.sol\":2874:2893  return _totalSupply */\n      swap1\n      pop\n        /* \"@openzeppelin/contracts/token/ERC20/ERC20.sol\":2803:2900  function totalSupply() public view virtual returns (uint256) {... */\n      swap1\n      jump\t// out\n        /* \"./VestedToken.sol\":4556:4923  function setBeneficiaryCategory(address beneficiary, string memory category) external onlyOwner {... */\n    tag_58:\n        /* \"@openzeppelin/contracts/access/Ownable.sol\":1531:1544  _checkOwner() */\n      tag_172\n        /* \"@openzeppelin/contracts/access/Ownable.sol\":1531:1542  _checkOwner */\n      tag_173\n        /* \"@openzeppelin/contracts/access/Ownable.sol\":1531:1544  _checkOwner() */\n      jump\t// in\n    tag_172:\n        /* \"./VestedToken.sol\":4693:4694  0 */\n      0x00\n        /* \"./VestedToken.sol\":4670:4695  beneficiary != address(0) */\n      0xffffffffffffffffffffffffffffffffffffffff\n      and\n        /* \"./VestedToken.sol\":4670:4681  beneficiary */\n      dup3\n        /* \"./VestedToken.sol\":4670:4695  beneficiary != address(0) */\n      0xffffffffffffffffffffffffffffffffffffffff\n      and\n      sub\n        /* \"./VestedToken.sol\":4662:4727  require(beneficiary != address(0), \"Invalid beneficiary address\") */\n      tag_175\n      jumpi\n      mload(0x40)\n      0x08c379a000000000000000000000000000000000000000000000000000000000\n      dup2\n      mstore\n      0x04\n      add\n      tag_176\n      swap1\n      tag_177\n      jump\t// in\n    tag_176:\n      mload(0x40)\n      dup1\n      swap2\n      sub\n      swap1\n      revert\n    tag_175:\n        /* \"./VestedToken.sol\":4770:4771  0 */\n      0x00\n        /* \"./VestedToken.sol\":4751:4759  category */\n      dup2\n        /* \"./VestedToken.sol\":4745:4767  bytes(category).length */\n      mload\n        /* \"./VestedToken.sol\":4745:4771  bytes(category).length > 0 */\n      gt\n        /* \"./VestedToken.sol\":4737:4800  require(bytes(category).length > 0, \"Category cannot be empty\") */\n      tag_178\n      jumpi\n      mload(0x40)\n      0x08c379a000000000000000000000000000000000000000000000000000000000\n      dup2\n      mstore\n      0x04\n      add\n      tag_179\n      swap1\n      tag_180\n      jump\t// in\n    tag_179:\n      mload(0x40)\n      dup1\n      swap2\n      sub\n      swap1\n      revert\n    tag_178:\n        /* \"./VestedToken.sol\":4848:4856  category */\n      dup1\n        /* \"./VestedToken.sol\":4811:4832  beneficiaryCategories */\n      0x0c\n        /* \"./VestedToken.sol\":4811:4845  beneficiaryCategories[beneficiary] */\n      0x00\n        /* \"./VestedToken.sol\":4833:4844  beneficiary */\n      dup5\n        /* \"./VestedToken.sol\":4811:4845  beneficiaryCategories[beneficiary] */\n      0xffffffffffffffffffffffffffffffffffffffff\n      and\n      0xffffffffffffffffffffffffffffffffffffffff\n      and\n      dup2\n      mstore\n      0x20\n      add\n      swap1\n      dup2\n      mstore\n      0x20\n      add\n      0x00\n      keccak256\n        /* \"./VestedToken.sol\":4811:4856  beneficiaryCategories[beneficiary] = category */\n      swap1\n      dup2\n      tag_181\n      swap2\n      swap1\n      tag_182\n      jump\t// in\n    tag_181:\n      pop\n        /* \"./VestedToken.sol\":4894:4905  beneficiary */\n      dup2\n        /* \"./VestedToken.sol\":4871:4916  BeneficiaryCategorySet(beneficiary, category) */\n      0xffffffffffffffffffffffffffffffffffffffff\n      and\n      0xa110b2daa9b9328e235e98c75405f18d092b0d0edd4574cc8d80a41908fbf0bf\n        /* \"./VestedToken.sol\":4907:4915  category */\n      dup3\n        /* \"./VestedToken.sol\":4871:4916  BeneficiaryCategorySet(beneficiary, category) */\n      mload(0x40)\n      tag_183\n      swap2\n      swap1\n      tag_44\n      jump\t// in\n    tag_183:\n      mload(0x40)\n      dup1\n      swap2\n      sub\n      swap1\n      log2\n        /* \"./VestedToken.sol\":4556:4923  function setBeneficiaryCategory(address beneficiary, string memory category) external onlyOwner {... */\n      pop\n      pop\n      jump\t// out\n        /* \"@openzeppelin/contracts/token/ERC20/ERC20.sol\":4680:4924  function transferFrom(address from, address to, uint256 value) public virtual returns (bool) {... */\n    tag_62:\n        /* \"@openzeppelin/contracts/token/ERC20/ERC20.sol\":4767:4771  bool */\n      0x00\n        /* \"@openzeppelin/contracts/token/ERC20/ERC20.sol\":4783:4798  address spender */\n      dup1\n        /* \"@openzeppelin/contracts/token/ERC20/ERC20.sol\":4801:4813  _msgSender() */\n      tag_185\n        /* \"@openzeppelin/contracts/token/ERC20/ERC20.sol\":4801:4811  _msgSender */\n      tag_167\n        /* \"@openzeppelin/contracts/token/ERC20/ERC20.sol\":4801:4813  _msgSender() */\n      jump\t// in\n    tag_185:\n        /* \"@openzeppelin/contracts/token/ERC20/ERC20.sol\":4783:4813  address spender = _msgSender() */\n      swap1\n      pop\n        /* \"@openzeppelin/contracts/token/ERC20/ERC20.sol\":4823:4860  _spendAllowance(from, spender, value) */\n      tag_186\n        /* \"@openzeppelin/contracts/token/ERC20/ERC20.sol\":4839:4843  from */\n      dup6\n        /* \"@openzeppelin/contracts/token/ERC20/ERC20.sol\":4845:4852  spender */\n      dup3\n        /* \"@openzeppelin/contracts/token/ERC20/ERC20.sol\":4854:4859  value */\n      dup6\n        /* \"@openzeppelin/contracts/token/ERC20/ERC20.sol\":4823:4838  _spendAllowance */\n      tag_187\n        /* \"@openzeppelin/contracts/token/ERC20/ERC20.sol\":4823:4860  _spendAllowance(from, spender, value) */\n      jump\t// in\n    tag_186:\n        /* \"@openzeppelin/contracts/token/ERC20/ERC20.sol\":4870:4896  _transfer(from, to, value) */\n      tag_188\n        /* \"@openzeppelin/contracts/token/ERC20/ERC20.sol\":4880:4884  from */\n      dup6\n        /* \"@openzeppelin/contracts/token/ERC20/ERC20.sol\":4886:4888  to */\n      dup6\n        /* \"@openzeppelin/contracts/token/ERC20/ERC20.sol\":4890:4895  value */\n      dup6\n        /* \"@openzeppelin/contracts/token/ERC20/ERC20.sol\":4870:4879  _transfer */\n      tag_189\n        /* \"@openzeppelin/contracts/token/ERC20/ERC20.sol\":4870:4896  _transfer(from, to, value) */\n      jump\t// in\n    tag_188:\n        /* \"@openzeppelin/contracts/token/ERC20/ERC20.sol\":4913:4917  true */\n      0x01\n        /* \"@openzeppelin/contracts/token/ERC20/ERC20.sol\":4906:4917  return true */\n      swap2\n      pop\n      pop\n        /* \"@openzeppelin/contracts/token/ERC20/ERC20.sol\":4680:4924  function transferFrom(address from, address to, uint256 value) public virtual returns (bool) {... */\n      swap4\n      swap3\n      pop\n      pop\n      pop\n      jump\t// out\n        /* \"./VestedToken.sol\":2815:2913  function decimals() public view virtual override returns (uint8) {... */\n    tag_65:\n        /* \"./VestedToken.sol\":2873:2878  uint8 */\n      0x00\n        /* \"./VestedToken.sol\":2897:2906  _decimals */\n      0x08\n      0x00\n      swap1\n      sload\n      swap1\n      0x0100\n      exp\n      swap1\n      div\n      0xff\n      and\n        /* \"./VestedToken.sol\":2890:2906  return _decimals */\n      swap1\n      pop\n        /* \"./VestedToken.sol\":2815:2913  function decimals() public view virtual override returns (uint8) {... */\n      swap1\n      jump\t// out\n        /* \"./VestedToken.sol\":464:512  mapping(address => bool) public vestingContracts */\n    tag_71:\n      mstore(0x20, 0x0a)\n      dup1\n      0x00\n      mstore\n      keccak256(0x00, 0x40)\n      0x00\n      swap2\n      pop\n      sload\n      swap1\n      0x0100\n      exp\n      swap1\n      div\n      0xff\n      and\n      dup2\n      jump\t// out\n        /* \"./VestedToken.sol\":2977:3067  function isInitialized() external view returns (bool) {... */\n    tag_74:\n        /* \"./VestedToken.sol\":3025:3029  bool */\n      0x00\n        /* \"./VestedToken.sol\":3048:3060  _initialized */\n      0x0d\n      0x00\n      swap1\n      sload\n      swap1\n      0x0100\n      exp\n      swap1\n      div\n      0xff\n      and\n        /* \"./VestedToken.sol\":3041:3060  return _initialized */\n      swap1\n      pop\n        /* \"./VestedToken.sol\":2977:3067  function isInitialized() external view returns (bool) {... */\n      swap1\n      jump\t// out\n        /* \"./VestedToken.sol\":6520:6585  function unpause() external onlyOwner {... */\n    tag_77:\n        /* \"@openzeppelin/contracts/access/Ownable.sol\":1531:1544  _checkOwner() */\n      tag_193\n        /* \"@openzeppelin/contracts/access/Ownable.sol\":1531:1542  _checkOwner */\n      tag_173\n        /* \"@openzeppelin/contracts/access/Ownable.sol\":1531:1544  _checkOwner() */\n      jump\t// in\n    tag_193:\n        /* \"./VestedToken.sol\":6568:6578  _unpause() */\n      tag_195\n        /* \"./VestedToken.sol\":6568:6576  _unpause */\n      tag_196\n        /* \"./VestedToken.sol\":6568:6578  _unpause() */\n      jump\t// in\n    tag_195:\n        /* \"./VestedToken.sol\":6520:6585  function unpause() external onlyOwner {... */\n      jump\t// out\n        /* \"./VestedToken.sol\":6680:6771  function burn(uint256 amount) external onlyOwner {... */\n    tag_81:\n        /* \"@openzeppelin/contracts/access/Ownable.sol\":1531:1544  _checkOwner() */\n      tag_198\n        /* \"@openzeppelin/contracts/access/Ownable.sol\":1531:1542  _checkOwner */\n      tag_173\n        /* \"@openzeppelin/contracts/access/Ownable.sol\":1531:1544  _checkOwner() */\n      jump\t// in\n    tag_198:\n        /* \"./VestedToken.sol\":6739:6764  _burn(msg.sender, amount) */\n      tag_200\n        /* \"./VestedToken.sol\":6745:6755  msg.sender */\n      caller\n        /* \"./VestedToken.sol\":6757:6763  amount */\n      dup3\n        /* \"./VestedToken.sol\":6739:6744  _burn */\n      tag_201\n        /* \"./VestedToken.sol\":6739:6764  _burn(msg.sender, amount) */\n      jump\t// in\n    tag_200:\n        /* \"./VestedToken.sol\":6680:6771  function burn(uint256 amount) external onlyOwner {... */\n      pop\n      jump\t// out\n        /* \"./VestedToken.sol\":6196:6345  function getBeneficiaryCategory(address beneficiary) external view returns (string memory) {... */\n    tag_84:\n        /* \"./VestedToken.sol\":6272:6285  string memory */\n      0x60\n        /* \"./VestedToken.sol\":6304:6325  beneficiaryCategories */\n      0x0c\n        /* \"./VestedToken.sol\":6304:6338  beneficiaryCategories[beneficiary] */\n      0x00\n        /* \"./VestedToken.sol\":6326:6337  beneficiary */\n      dup4\n        /* \"./VestedToken.sol\":6304:6338  beneficiaryCategories[beneficiary] */\n      0xffffffffffffffffffffffffffffffffffffffff\n      and\n      0xffffffffffffffffffffffffffffffffffffffff\n      and\n      dup2\n      mstore\n      0x20\n      add\n      swap1\n      dup2\n      mstore\n      0x20\n      add\n      0x00\n      keccak256\n        /* \"./VestedToken.sol\":6297:6338  return beneficiaryCategories[beneficiary] */\n      dup1\n      sload\n      tag_203\n      swap1\n      tag_160\n      jump\t// in\n    tag_203:\n      dup1\n      0x1f\n      add\n      0x20\n      dup1\n      swap2\n      div\n      mul\n      0x20\n      add\n      mload(0x40)\n      swap1\n      dup2\n      add\n      0x40\n      mstore\n      dup1\n      swap3\n      swap2\n      swap1\n      dup2\n      dup2\n      mstore\n      0x20\n      add\n      dup3\n      dup1\n      sload\n      tag_204\n      swap1\n      tag_160\n      jump\t// in\n    tag_204:\n      dup1\n      iszero\n      tag_205\n      jumpi\n      dup1\n      0x1f\n      lt\n      tag_206\n      jumpi\n      0x0100\n      dup1\n      dup4\n      sload\n      div\n      mul\n      dup4\n      mstore\n      swap2\n      0x20\n      add\n      swap2\n      jump(tag_205)\n    tag_206:\n      dup3\n      add\n      swap2\n      swap1\n      0x00\n      mstore\n      keccak256(0x00, 0x20)\n      swap1\n    tag_207:\n      dup2\n      sload\n      dup2\n      mstore\n      swap1\n      0x01\n      add\n      swap1\n      0x20\n      add\n      dup1\n      dup4\n      gt\n      tag_207\n      jumpi\n      dup3\n      swap1\n      sub\n      0x1f\n      and\n      dup3\n      add\n      swap2\n    tag_205:\n      pop\n      pop\n      pop\n      pop\n      pop\n      swap1\n      pop\n        /* \"./VestedToken.sol\":6196:6345  function getBeneficiaryCategory(address beneficiary) external view returns (string memory) {... */\n      swap2\n      swap1\n      pop\n      jump\t// out\n        /* \"./VestedToken.sol\":607:662  mapping(address => string) public beneficiaryCategories */\n    tag_88:\n      mstore(0x20, 0x0c)\n      dup1\n      0x00\n      mstore\n      keccak256(0x00, 0x40)\n      0x00\n      swap2\n      pop\n      swap1\n      pop\n      dup1\n      sload\n      tag_208\n      swap1\n      tag_160\n      jump\t// in\n    tag_208:\n      dup1\n      0x1f\n      add\n      0x20\n      dup1\n      swap2\n      div\n      mul\n      0x20\n      add\n      mload(0x40)\n      swap1\n      dup2\n      add\n      0x40\n      mstore\n      dup1\n      swap3\n      swap2\n      swap1\n      dup2\n      dup2\n      mstore\n      0x20\n      add\n      dup3\n      dup1\n      sload\n      tag_209\n      swap1\n      tag_160\n      jump\t// in\n    tag_209:\n      dup1\n      iszero\n      tag_210\n      jumpi\n      dup1\n      0x1f\n      lt\n      tag_211\n      jumpi\n      0x0100\n      dup1\n      dup4\n      sload\n      div\n      mul\n      dup4\n      mstore\n      swap2\n      0x20\n      add\n      swap2\n      jump(tag_210)\n    tag_211:\n      dup3\n      add\n      swap2\n      swap1\n      0x00\n      mstore\n      keccak256(0x00, 0x20)\n      swap1\n    tag_212:\n      dup2\n      sload\n      dup2\n      mstore\n      swap1\n      0x01\n      add\n      swap1\n      0x20\n      add\n      dup1\n      dup4\n      gt\n      tag_212\n      jumpi\n      dup3\n      swap1\n      sub\n      0x1f\n      and\n      dup3\n      add\n      swap2\n    tag_210:\n      pop\n      pop\n      pop\n      pop\n      pop\n      dup2\n      jump\t// out\n        /* \"@openzeppelin/contracts/security/Pausable.sol\":1615:1699  function paused() public view virtual returns (bool) {... */\n    tag_91:\n        /* \"@openzeppelin/contracts/security/Pausable.sol\":1662:1666  bool */\n      0x00\n        /* \"@openzeppelin/contracts/security/Pausable.sol\":1685:1692  _paused */\n      0x05\n      0x14\n      swap1\n      sload\n      swap1\n      0x0100\n      exp\n      swap1\n      div\n      0xff\n      and\n        /* \"@openzeppelin/contracts/security/Pausable.sol\":1678:1692  return _paused */\n      swap1\n      pop\n        /* \"@openzeppelin/contracts/security/Pausable.sol\":1615:1699  function paused() public view virtual returns (bool) {... */\n      swap1\n      jump\t// out\n        /* \"./VestedToken.sol\":548:601  mapping(string => uint256) public categoryAllocations */\n    tag_96:\n      0x0b\n      dup2\n      dup1\n      mload\n      0x20\n      dup2\n      add\n      dup3\n      add\n      dup1\n      mload\n      dup5\n      dup3\n      mstore\n      0x20\n      dup4\n      add\n      0x20\n      dup6\n      add\n      keccak256\n      dup2\n      dup4\n      mstore\n      dup1\n      swap6\n      pop\n      pop\n      pop\n      pop\n      pop\n      pop\n      0x00\n      swap2\n      pop\n      swap1\n      pop\n      sload\n      dup2\n      jump\t// out\n        /* \"@openzeppelin/contracts/token/ERC20/ERC20.sol\":2933:3049  function balanceOf(address account) public view virtual returns (uint256) {... */\n    tag_100:\n        /* \"@openzeppelin/contracts/token/ERC20/ERC20.sol\":2998:3005  uint256 */\n      0x00\n        /* \"@openzeppelin/contracts/token/ERC20/ERC20.sol\":3024:3033  _balances */\n      dup1\n        /* \"@openzeppelin/contracts/token/ERC20/ERC20.sol\":3024:3042  _balances[account] */\n      0x00\n        /* \"@openzeppelin/contracts/token/ERC20/ERC20.sol\":3034:3041  account */\n      dup4\n        /* \"@openzeppelin/contracts/token/ERC20/ERC20.sol\":3024:3042  _balances[account] */\n      0xffffffffffffffffffffffffffffffffffffffff\n      and\n      0xffffffffffffffffffffffffffffffffffffffff\n      and\n      dup2\n      mstore\n      0x20\n      add\n      swap1\n      dup2\n      mstore\n      0x20\n      add\n      0x00\n      keccak256\n      sload\n        /* \"@openzeppelin/contracts/token/ERC20/ERC20.sol\":3017:3042  return _balances[account] */\n      swap1\n      pop\n        /* \"@openzeppelin/contracts/token/ERC20/ERC20.sol\":2933:3049  function balanceOf(address account) public view virtual returns (uint256) {... */\n      swap2\n      swap1\n      pop\n      jump\t// out\n        /* \"@openzeppelin/contracts/access/Ownable.sol\":2293:2394  function renounceOwnership() public virtual onlyOwner {... */\n    tag_103:\n        /* \"@openzeppelin/contracts/access/Ownable.sol\":1531:1544  _checkOwner() */\n      tag_216\n        /* \"@openzeppelin/contracts/access/Ownable.sol\":1531:1542  _checkOwner */\n      tag_173\n        /* \"@openzeppelin/contracts/access/Ownable.sol\":1531:1544  _checkOwner() */\n      jump\t// in\n    tag_216:\n        /* \"@openzeppelin/contracts/access/Ownable.sol\":2357:2387  _transferOwnership(address(0)) */\n      tag_218\n        /* \"@openzeppelin/contracts/access/Ownable.sol\":2384:2385  0 */\n      0x00\n        /* \"@openzeppelin/contracts/access/Ownable.sol\":2357:2375  _transferOwnership */\n      tag_219\n        /* \"@openzeppelin/contracts/access/Ownable.sol\":2357:2387  _transferOwnership(address(0)) */\n      jump\t// in\n    tag_218:\n        /* \"@openzeppelin/contracts/access/Ownable.sol\":2293:2394  function renounceOwnership() public virtual onlyOwner {... */\n      jump\t// out\n        /* \"./VestedToken.sol\":6928:7031  function burnFrom(address from, uint256 amount) external onlyOwner {... */\n    tag_106:\n        /* \"@openzeppelin/contracts/access/Ownable.sol\":1531:1544  _checkOwner() */\n      tag_221\n        /* \"@openzeppelin/contracts/access/Ownable.sol\":1531:1542  _checkOwner */\n      tag_173\n        /* \"@openzeppelin/contracts/access/Ownable.sol\":1531:1544  _checkOwner() */\n      jump\t// in\n    tag_221:\n        /* \"./VestedToken.sol\":7005:7024  _burn(from, amount) */\n      tag_223\n        /* \"./VestedToken.sol\":7011:7015  from */\n      dup3\n        /* \"./VestedToken.sol\":7017:7023  amount */\n      dup3\n        /* \"./VestedToken.sol\":7005:7010  _burn */\n      tag_201\n        /* \"./VestedToken.sol\":7005:7024  _burn(from, amount) */\n      jump\t// in\n    tag_223:\n        /* \"./VestedToken.sol\":6928:7031  function burnFrom(address from, uint256 amount) external onlyOwner {... */\n      pop\n      pop\n      jump\t// out\n        /* \"./VestedToken.sol\":5672:5794  function getVestedBalance(address account) external view returns (uint256) {... */\n    tag_109:\n        /* \"./VestedToken.sol\":5738:5745  uint256 */\n      0x00\n        /* \"./VestedToken.sol\":5764:5778  vestedBalances */\n      0x09\n        /* \"./VestedToken.sol\":5764:5787  vestedBalances[account] */\n      0x00\n        /* \"./VestedToken.sol\":5779:5786  account */\n      dup4\n        /* \"./VestedToken.sol\":5764:5787  vestedBalances[account] */\n      0xffffffffffffffffffffffffffffffffffffffff\n      and\n      0xffffffffffffffffffffffffffffffffffffffff\n      and\n      dup2\n      mstore\n      0x20\n      add\n      swap1\n      dup2\n      mstore\n      0x20\n      add\n      0x00\n      keccak256\n      sload\n        /* \"./VestedToken.sol\":5757:5787  return vestedBalances[account] */\n      swap1\n      pop\n        /* \"./VestedToken.sol\":5672:5794  function getVestedBalance(address account) external view returns (uint256) {... */\n      swap2\n      swap1\n      pop\n      jump\t// out\n        /* \"./VestedToken.sol\":5922:6062  function getCategoryAllocation(string memory category) external view returns (uint256) {... */\n    tag_113:\n        /* \"./VestedToken.sol\":6000:6007  uint256 */\n      0x00\n        /* \"./VestedToken.sol\":6026:6045  categoryAllocations */\n      0x0b\n        /* \"./VestedToken.sol\":6046:6054  category */\n      dup3\n        /* \"./VestedToken.sol\":6026:6055  categoryAllocations[category] */\n      mload(0x40)\n      tag_226\n      swap2\n      swap1\n      tag_227\n      jump\t// in\n    tag_226:\n      swap1\n      dup2\n      mstore\n      0x20\n      add\n      mload(0x40)\n      dup1\n      swap2\n      sub\n      swap1\n      keccak256\n      sload\n        /* \"./VestedToken.sol\":6019:6055  return categoryAllocations[category] */\n      swap1\n      pop\n        /* \"./VestedToken.sol\":5922:6062  function getCategoryAllocation(string memory category) external view returns (uint256) {... */\n      swap2\n      swap1\n      pop\n      jump\t// out\n        /* \"./VestedToken.sol\":6401:6462  function pause() external onlyOwner {... */\n    tag_116:\n        /* \"@openzeppelin/contracts/access/Ownable.sol\":1531:1544  _checkOwner() */\n      tag_229\n        /* \"@openzeppelin/contracts/access/Ownable.sol\":1531:1542  _checkOwner */\n      tag_173\n        /* \"@openzeppelin/contracts/access/Ownable.sol\":1531:1544  _checkOwner() */\n      jump\t// in\n    tag_229:\n        /* \"./VestedToken.sol\":6447:6455  _pause() */\n      tag_231\n        /* \"./VestedToken.sol\":6447:6453  _pause */\n      tag_232\n        /* \"./VestedToken.sol\":6447:6455  _pause() */\n      jump\t// in\n    tag_231:\n        /* \"./VestedToken.sol\":6401:6462  function pause() external onlyOwner {... */\n      jump\t// out\n        /* \"@openzeppelin/contracts/access/Ownable.sol\":1638:1723  function owner() public view virtual returns (address) {... */\n    tag_118:\n        /* \"@openzeppelin/contracts/access/Ownable.sol\":1684:1691  address */\n      0x00\n        /* \"@openzeppelin/contracts/access/Ownable.sol\":1710:1716  _owner */\n      0x05\n      0x00\n      swap1\n      sload\n      swap1\n      0x0100\n      exp\n      swap1\n      div\n      0xffffffffffffffffffffffffffffffffffffffff\n      and\n        /* \"@openzeppelin/contracts/access/Ownable.sol\":1703:1716  return _owner */\n      swap1\n      pop\n        /* \"@openzeppelin/contracts/access/Ownable.sol\":1638:1723  function owner() public view virtual returns (address) {... */\n      swap1\n      jump\t// out\n        /* \"./VestedToken.sol\":2612:2714  function symbol() public view virtual override returns (string memory) {... */\n    tag_122:\n        /* \"./VestedToken.sol\":2668:2681  string memory */\n      0x60\n        /* \"./VestedToken.sol\":2700:2707  _symbol */\n      0x07\n        /* \"./VestedToken.sol\":2693:2707  return _symbol */\n      dup1\n      sload\n      tag_235\n      swap1\n      tag_160\n      jump\t// in\n    tag_235:\n      dup1\n      0x1f\n      add\n      0x20\n      dup1\n      swap2\n      div\n      mul\n      0x20\n      add\n      mload(0x40)\n      swap1\n      dup2\n      add\n      0x40\n      mstore\n      dup1\n      swap3\n      swap2\n      swap1\n      dup2\n      dup2\n      mstore\n      0x20\n      add\n      dup3\n      dup1\n      sload\n      tag_236\n      swap1\n      tag_160\n      jump\t// in\n    tag_236:\n      dup1\n      iszero\n      tag_237\n      jumpi\n      dup1\n      0x1f\n      lt\n      tag_238\n      jumpi\n      0x0100\n      dup1\n      dup4\n      sload\n      div\n      mul\n      dup4\n      mstore\n      swap2\n      0x20\n      add\n      swap2\n      jump(tag_237)\n    tag_238:\n      dup3\n      add\n      swap2\n      swap1\n      0x00\n      mstore\n      keccak256(0x00, 0x20)\n      swap1\n    tag_239:\n      dup2\n      sload\n      dup2\n      mstore\n      swap1\n      0x01\n      add\n      swap1\n      0x20\n      add\n      dup1\n      dup4\n      gt\n      tag_239\n      jumpi\n      dup3\n      swap1\n      sub\n      0x1f\n      and\n      dup3\n      add\n      swap2\n    tag_237:\n      pop\n      pop\n      pop\n      pop\n      pop\n      swap1\n      pop\n        /* \"./VestedToken.sol\":2612:2714  function symbol() public view virtual override returns (string memory) {... */\n      swap1\n      jump\t// out\n        /* \"./VestedToken.sol\":3194:3539  function addVestingContract(address vestingContract) external onlyOwner {... */\n    tag_126:\n        /* \"@openzeppelin/contracts/access/Ownable.sol\":1531:1544  _checkOwner() */\n      tag_241\n        /* \"@openzeppelin/contracts/access/Ownable.sol\":1531:1542  _checkOwner */\n      tag_173\n        /* \"@openzeppelin/contracts/access/Ownable.sol\":1531:1544  _checkOwner() */\n      jump\t// in\n    tag_241:\n        /* \"./VestedToken.sol\":3311:3312  0 */\n      0x00\n        /* \"./VestedToken.sol\":3284:3313  vestingContract != address(0) */\n      0xffffffffffffffffffffffffffffffffffffffff\n      and\n        /* \"./VestedToken.sol\":3284:3299  vestingContract */\n      dup2\n        /* \"./VestedToken.sol\":3284:3313  vestingContract != address(0) */\n      0xffffffffffffffffffffffffffffffffffffffff\n      and\n      sub\n        /* \"./VestedToken.sol\":3276:3342  require(vestingContract != address(0), \"Invalid vesting contract\") */\n      tag_243\n      jumpi\n      mload(0x40)\n      0x08c379a000000000000000000000000000000000000000000000000000000000\n      dup2\n      mstore\n      0x04\n      add\n      tag_244\n      swap1\n      tag_245\n      jump\t// in\n    tag_244:\n      mload(0x40)\n      dup1\n      swap2\n      sub\n      swap1\n      revert\n    tag_243:\n        /* \"./VestedToken.sol\":3361:3377  vestingContracts */\n      0x0a\n        /* \"./VestedToken.sol\":3361:3394  vestingContracts[vestingContract] */\n      0x00\n        /* \"./VestedToken.sol\":3378:3393  vestingContract */\n      dup3\n        /* \"./VestedToken.sol\":3361:3394  vestingContracts[vestingContract] */\n      0xffffffffffffffffffffffffffffffffffffffff\n      and\n      0xffffffffffffffffffffffffffffffffffffffff\n      and\n      dup2\n      mstore\n      0x20\n      add\n      swap1\n      dup2\n      mstore\n      0x20\n      add\n      0x00\n      keccak256\n      0x00\n      swap1\n      sload\n      swap1\n      0x0100\n      exp\n      swap1\n      div\n      0xff\n      and\n        /* \"./VestedToken.sol\":3360:3394  !vestingContracts[vestingContract] */\n      iszero\n        /* \"./VestedToken.sol\":3352:3429  require(!vestingContracts[vestingContract], \"Vesting contract already added\") */\n      tag_246\n      jumpi\n      mload(0x40)\n      0x08c379a000000000000000000000000000000000000000000000000000000000\n      dup2\n      mstore\n      0x04\n      add\n      tag_247\n      swap1\n      tag_248\n      jump\t// in\n    tag_247:\n      mload(0x40)\n      dup1\n      swap2\n      sub\n      swap1\n      revert\n    tag_246:\n        /* \"./VestedToken.sol\":3476:3480  true */\n      0x01\n        /* \"./VestedToken.sol\":3440:3456  vestingContracts */\n      0x0a\n        /* \"./VestedToken.sol\":3440:3473  vestingContracts[vestingContract] */\n      0x00\n        /* \"./VestedToken.sol\":3457:3472  vestingContract */\n      dup4\n        /* \"./VestedToken.sol\":3440:3473  vestingContracts[vestingContract] */\n      0xffffffffffffffffffffffffffffffffffffffff\n      and\n      0xffffffffffffffffffffffffffffffffffffffff\n      and\n      dup2\n      mstore\n      0x20\n      add\n      swap1\n      dup2\n      mstore\n      0x20\n      add\n      0x00\n      keccak256\n      0x00\n        /* \"./VestedToken.sol\":3440:3480  vestingContracts[vestingContract] = true */\n      0x0100\n      exp\n      dup2\n      sload\n      dup2\n      0xff\n      mul\n      not\n      and\n      swap1\n      dup4\n      iszero\n      iszero\n      mul\n      or\n      swap1\n      sstore\n      pop\n        /* \"./VestedToken.sol\":3516:3531  vestingContract */\n      dup1\n        /* \"./VestedToken.sol\":3495:3532  VestingContractAdded(vestingContract) */\n      0xffffffffffffffffffffffffffffffffffffffff\n      and\n      0x6a45208724d4b6f6774a21924d8ada0231f197811681096d5fd6b5f22e6e73d3\n      mload(0x40)\n      mload(0x40)\n      dup1\n      swap2\n      sub\n      swap1\n      log2\n        /* \"./VestedToken.sol\":3194:3539  function addVestingContract(address vestingContract) external onlyOwner {... */\n      pop\n      jump\t// out\n        /* \"@openzeppelin/contracts/token/ERC20/ERC20.sol\":3244:3422  function transfer(address to, uint256 value) public virtual returns (bool) {... */\n    tag_129:\n        /* \"@openzeppelin/contracts/token/ERC20/ERC20.sol\":3313:3317  bool */\n      0x00\n        /* \"@openzeppelin/contracts/token/ERC20/ERC20.sol\":3329:3342  address owner */\n      dup1\n        /* \"@openzeppelin/contracts/token/ERC20/ERC20.sol\":3345:3357  _msgSender() */\n      tag_250\n        /* \"@openzeppelin/contracts/token/ERC20/ERC20.sol\":3345:3355  _msgSender */\n      tag_167\n        /* \"@openzeppelin/contracts/token/ERC20/ERC20.sol\":3345:3357  _msgSender() */\n      jump\t// in\n    tag_250:\n        /* \"@openzeppelin/contracts/token/ERC20/ERC20.sol\":3329:3357  address owner = _msgSender() */\n      swap1\n      pop\n        /* \"@openzeppelin/contracts/token/ERC20/ERC20.sol\":3367:3394  _transfer(owner, to, value) */\n      tag_251\n        /* \"@openzeppelin/contracts/token/ERC20/ERC20.sol\":3377:3382  owner */\n      dup2\n        /* \"@openzeppelin/contracts/token/ERC20/ERC20.sol\":3384:3386  to */\n      dup6\n        /* \"@openzeppelin/contracts/token/ERC20/ERC20.sol\":3388:3393  value */\n      dup6\n        /* \"@openzeppelin/contracts/token/ERC20/ERC20.sol\":3367:3376  _transfer */\n      tag_189\n        /* \"@openzeppelin/contracts/token/ERC20/ERC20.sol\":3367:3394  _transfer(owner, to, value) */\n      jump\t// in\n    tag_251:\n        /* \"@openzeppelin/contracts/token/ERC20/ERC20.sol\":3411:3415  true */\n      0x01\n        /* \"@openzeppelin/contracts/token/ERC20/ERC20.sol\":3404:3415  return true */\n      swap2\n      pop\n      pop\n        /* \"@openzeppelin/contracts/token/ERC20/ERC20.sol\":3244:3422  function transfer(address to, uint256 value) public virtual returns (bool) {... */\n      swap3\n      swap2\n      pop\n      pop\n      jump\t// out\n        /* \"./VestedToken.sol\":3669:3939  function removeVestingContract(address vestingContract) external onlyOwner {... */\n    tag_133:\n        /* \"@openzeppelin/contracts/access/Ownable.sol\":1531:1544  _checkOwner() */\n      tag_253\n        /* \"@openzeppelin/contracts/access/Ownable.sol\":1531:1542  _checkOwner */\n      tag_173\n        /* \"@openzeppelin/contracts/access/Ownable.sol\":1531:1544  _checkOwner() */\n      jump\t// in\n    tag_253:\n        /* \"./VestedToken.sol\":3762:3778  vestingContracts */\n      0x0a\n        /* \"./VestedToken.sol\":3762:3795  vestingContracts[vestingContract] */\n      0x00\n        /* \"./VestedToken.sol\":3779:3794  vestingContract */\n      dup3\n        /* \"./VestedToken.sol\":3762:3795  vestingContracts[vestingContract] */\n      0xffffffffffffffffffffffffffffffffffffffff\n      and\n      0xffffffffffffffffffffffffffffffffffffffff\n      and\n      dup2\n      mstore\n      0x20\n      add\n      swap1\n      dup2\n      mstore\n      0x20\n      add\n      0x00\n      keccak256\n      0x00\n      swap1\n      sload\n      swap1\n      0x0100\n      exp\n      swap1\n      div\n      0xff\n      and\n        /* \"./VestedToken.sol\":3754:3826  require(vestingContracts[vestingContract], \"Vesting contract not found\") */\n      tag_255\n      jumpi\n      mload(0x40)\n      0x08c379a000000000000000000000000000000000000000000000000000000000\n      dup2\n      mstore\n      0x04\n      add\n      tag_256\n      swap1\n      tag_257\n      jump\t// in\n    tag_256:\n      mload(0x40)\n      dup1\n      swap2\n      sub\n      swap1\n      revert\n    tag_255:\n        /* \"./VestedToken.sol\":3873:3878  false */\n      0x00\n        /* \"./VestedToken.sol\":3837:3853  vestingContracts */\n      0x0a\n        /* \"./VestedToken.sol\":3837:3870  vestingContracts[vestingContract] */\n      0x00\n        /* \"./VestedToken.sol\":3854:3869  vestingContract */\n      dup4\n        /* \"./VestedToken.sol\":3837:3870  vestingContracts[vestingContract] */\n      0xffffffffffffffffffffffffffffffffffffffff\n      and\n      0xffffffffffffffffffffffffffffffffffffffff\n      and\n      dup2\n      mstore\n      0x20\n      add\n      swap1\n      dup2\n      mstore\n      0x20\n      add\n      0x00\n      keccak256\n      0x00\n        /* \"./VestedToken.sol\":3837:3878  vestingContracts[vestingContract] = false */\n      0x0100\n      exp\n      dup2\n      sload\n      dup2\n      0xff\n      mul\n      not\n      and\n      swap1\n      dup4\n      iszero\n      iszero\n      mul\n      or\n      swap1\n      sstore\n      pop\n        /* \"./VestedToken.sol\":3916:3931  vestingContract */\n      dup1\n        /* \"./VestedToken.sol\":3893:3932  VestingContractRemoved(vestingContract) */\n      0xffffffffffffffffffffffffffffffffffffffff\n      and\n      0x93c4daca93fe23045ea63d803db724ccff33790f1b2434276479f728a4e38f99\n      mload(0x40)\n      mload(0x40)\n      dup1\n      swap2\n      sub\n      swap1\n      log2\n        /* \"./VestedToken.sol\":3669:3939  function removeVestingContract(address vestingContract) external onlyOwner {... */\n      pop\n      jump\t// out\n        /* \"./VestedToken.sol\":1651:2384  function initialize(... */\n    tag_137:\n        /* \"./VestedToken.sol\":1819:1831  _initialized */\n      0x0d\n      0x00\n      swap1\n      sload\n      swap1\n      0x0100\n      exp\n      swap1\n      div\n      0xff\n      and\n        /* \"./VestedToken.sol\":1818:1831  !_initialized */\n      iszero\n        /* \"./VestedToken.sol\":1810:1855  require(!_initialized, \"Already initialized\") */\n      tag_259\n      jumpi\n      mload(0x40)\n      0x08c379a000000000000000000000000000000000000000000000000000000000\n      dup2\n      mstore\n      0x04\n      add\n      tag_260\n      swap1\n      tag_261\n      jump\t// in\n    tag_260:\n      mload(0x40)\n      dup1\n      swap2\n      sub\n      swap1\n      revert\n    tag_259:\n        /* \"./VestedToken.sol\":1895:1896  0 */\n      0x00\n        /* \"./VestedToken.sol\":1879:1884  name_ */\n      dup5\n        /* \"./VestedToken.sol\":1873:1892  bytes(name_).length */\n      mload\n        /* \"./VestedToken.sol\":1873:1896  bytes(name_).length > 0 */\n      gt\n        /* \"./VestedToken.sol\":1865:1921  require(bytes(name_).length > 0, \"Name cannot be empty\") */\n      tag_262\n      jumpi\n      mload(0x40)\n      0x08c379a000000000000000000000000000000000000000000000000000000000\n      dup2\n      mstore\n      0x04\n      add\n      tag_263\n      swap1\n      tag_264\n      jump\t// in\n    tag_263:\n      mload(0x40)\n      dup1\n      swap2\n      sub\n      swap1\n      revert\n    tag_262:\n        /* \"./VestedToken.sol\":1963:1964  0 */\n      0x00\n        /* \"./VestedToken.sol\":1945:1952  symbol_ */\n      dup4\n        /* \"./VestedToken.sol\":1939:1960  bytes(symbol_).length */\n      mload\n        /* \"./VestedToken.sol\":1939:1964  bytes(symbol_).length > 0 */\n      gt\n        /* \"./VestedToken.sol\":1931:1991  require(bytes(symbol_).length > 0, \"Symbol cannot be empty\") */\n      tag_265\n      jumpi\n      mload(0x40)\n      0x08c379a000000000000000000000000000000000000000000000000000000000\n      dup2\n      mstore\n      0x04\n      add\n      tag_266\n      swap1\n      tag_267\n      jump\t// in\n    tag_266:\n      mload(0x40)\n      dup1\n      swap2\n      sub\n      swap1\n      revert\n    tag_265:\n        /* \"./VestedToken.sol\":2024:2025  0 */\n      0x00\n        /* \"./VestedToken.sol\":2009:2021  totalSupply_ */\n      dup3\n        /* \"./VestedToken.sol\":2009:2025  totalSupply_ > 0 */\n      gt\n        /* \"./VestedToken.sol\":2001:2065  require(totalSupply_ > 0, \"Total supply must be greater than 0\") */\n      tag_268\n      jumpi\n      mload(0x40)\n      0x08c379a000000000000000000000000000000000000000000000000000000000\n      dup2\n      mstore\n      0x04\n      add\n      tag_269\n      swap1\n      tag_270\n      jump\t// in\n    tag_269:\n      mload(0x40)\n      dup1\n      swap2\n      sub\n      swap1\n      revert\n    tag_268:\n        /* \"./VestedToken.sol\":2101:2102  0 */\n      0x00\n        /* \"./VestedToken.sol\":2083:2103  owner_ != address(0) */\n      0xffffffffffffffffffffffffffffffffffffffff\n      and\n        /* \"./VestedToken.sol\":2083:2089  owner_ */\n      dup2\n        /* \"./VestedToken.sol\":2083:2103  owner_ != address(0) */\n      0xffffffffffffffffffffffffffffffffffffffff\n      and\n      sub\n        /* \"./VestedToken.sol\":2075:2129  require(owner_ != address(0), \"Invalid owner address\") */\n      tag_271\n      jumpi\n      mload(0x40)\n      0x08c379a000000000000000000000000000000000000000000000000000000000\n      dup2\n      mstore\n      0x04\n      add\n      tag_272\n      swap1\n      tag_273\n      jump\t// in\n    tag_272:\n      mload(0x40)\n      dup1\n      swap2\n      sub\n      swap1\n      revert\n    tag_271:\n        /* \"./VestedToken.sol\":2148:2153  name_ */\n      dup4\n        /* \"./VestedToken.sol\":2140:2145  _name */\n      0x06\n        /* \"./VestedToken.sol\":2140:2153  _name = name_ */\n      swap1\n      dup2\n      tag_274\n      swap2\n      swap1\n      tag_182\n      jump\t// in\n    tag_274:\n      pop\n        /* \"./VestedToken.sol\":2173:2180  symbol_ */\n      dup3\n        /* \"./VestedToken.sol\":2163:2170  _symbol */\n      0x07\n        /* \"./VestedToken.sol\":2163:2180  _symbol = symbol_ */\n      swap1\n      dup2\n      tag_275\n      swap2\n      swap1\n      tag_182\n      jump\t// in\n    tag_275:\n      pop\n        /* \"./VestedToken.sol\":2202:2204  18 */\n      0x12\n        /* \"./VestedToken.sol\":2190:2199  _decimals */\n      0x08\n      0x00\n        /* \"./VestedToken.sol\":2190:2204  _decimals = 18 */\n      0x0100\n      exp\n      dup2\n      sload\n      dup2\n      0xff\n      mul\n      not\n      and\n      swap1\n      dup4\n      0xff\n      and\n      mul\n      or\n      swap1\n      sstore\n      pop\n        /* \"./VestedToken.sol\":2215:2241  _transferOwnership(owner_) */\n      tag_276\n        /* \"./VestedToken.sol\":2234:2240  owner_ */\n      dup2\n        /* \"./VestedToken.sol\":2215:2233  _transferOwnership */\n      tag_219\n        /* \"./VestedToken.sol\":2215:2241  _transferOwnership(owner_) */\n      jump\t// in\n    tag_276:\n        /* \"./VestedToken.sol\":2251:2278  _mint(owner_, totalSupply_) */\n      tag_277\n        /* \"./VestedToken.sol\":2257:2263  owner_ */\n      dup2\n        /* \"./VestedToken.sol\":2265:2277  totalSupply_ */\n      dup4\n        /* \"./VestedToken.sol\":2251:2256  _mint */\n      tag_278\n        /* \"./VestedToken.sol\":2251:2278  _mint(owner_, totalSupply_) */\n      jump\t// in\n    tag_277:\n        /* \"./VestedToken.sol\":2303:2307  true */\n      0x01\n        /* \"./VestedToken.sol\":2288:2300  _initialized */\n      0x0d\n      0x00\n        /* \"./VestedToken.sol\":2288:2307  _initialized = true */\n      0x0100\n      exp\n      dup2\n      sload\n      dup2\n      0xff\n      mul\n      not\n      and\n      swap1\n      dup4\n      iszero\n      iszero\n      mul\n      or\n      swap1\n      sstore\n      pop\n        /* \"./VestedToken.sol\":2323:2377  TokenInitialized(name_, symbol_, totalSupply_, owner_) */\n      0x12bdfd2f29cf0194cd626fbd8a4b8fd1de36748d1a1b936eac39fe35845c585a\n        /* \"./VestedToken.sol\":2340:2345  name_ */\n      dup5\n        /* \"./VestedToken.sol\":2347:2354  symbol_ */\n      dup5\n        /* \"./VestedToken.sol\":2356:2368  totalSupply_ */\n      dup5\n        /* \"./VestedToken.sol\":2370:2376  owner_ */\n      dup5\n        /* \"./VestedToken.sol\":2323:2377  TokenInitialized(name_, symbol_, totalSupply_, owner_) */\n      mload(0x40)\n      tag_279\n      swap5\n      swap4\n      swap3\n      swap2\n      swap1\n      tag_280\n      jump\t// in\n    tag_279:\n      mload(0x40)\n      dup1\n      swap2\n      sub\n      swap1\n      log1\n        /* \"./VestedToken.sol\":1651:2384  function initialize(... */\n      pop\n      pop\n      pop\n      pop\n      jump\t// out\n        /* \"./VestedToken.sol\":409:458  mapping(address => uint256) public vestedBalances */\n    tag_140:\n      mstore(0x20, 0x09)\n      dup1\n      0x00\n      mstore\n      keccak256(0x00, 0x40)\n      0x00\n      swap2\n      pop\n      swap1\n      pop\n      sload\n      dup2\n      jump\t// out\n        /* \"./VestedToken.sol\":4079:4414  function setCategoryAllocation(string memory category, uint256 amount) external onlyOwner {... */\n    tag_145:\n        /* \"@openzeppelin/contracts/access/Ownable.sol\":1531:1544  _checkOwner() */\n      tag_282\n        /* \"@openzeppelin/contracts/access/Ownable.sol\":1531:1542  _checkOwner */\n      tag_173\n        /* \"@openzeppelin/contracts/access/Ownable.sol\":1531:1544  _checkOwner() */\n      jump\t// in\n    tag_282:\n        /* \"./VestedToken.sol\":4212:4213  0 */\n      0x00\n        /* \"./VestedToken.sol\":4193:4201  category */\n      dup3\n        /* \"./VestedToken.sol\":4187:4209  bytes(category).length */\n      mload\n        /* \"./VestedToken.sol\":4187:4213  bytes(category).length > 0 */\n      gt\n        /* \"./VestedToken.sol\":4179:4242  require(bytes(category).length > 0, \"Category cannot be empty\") */\n      tag_284\n      jumpi\n      mload(0x40)\n      0x08c379a000000000000000000000000000000000000000000000000000000000\n      dup2\n      mstore\n      0x04\n      add\n      tag_285\n      swap1\n      tag_180\n      jump\t// in\n    tag_285:\n      mload(0x40)\n      dup1\n      swap2\n      sub\n      swap1\n      revert\n    tag_284:\n        /* \"./VestedToken.sol\":4269:4270  0 */\n      0x00\n        /* \"./VestedToken.sol\":4260:4266  amount */\n      dup2\n        /* \"./VestedToken.sol\":4260:4270  amount > 0 */\n      gt\n        /* \"./VestedToken.sol\":4252:4304  require(amount > 0, \"Amount must be greater than 0\") */\n      tag_286\n      jumpi\n      mload(0x40)\n      0x08c379a000000000000000000000000000000000000000000000000000000000\n      dup2\n      mstore\n      0x04\n      add\n      tag_287\n      swap1\n      tag_288\n      jump\t// in\n    tag_287:\n      mload(0x40)\n      dup1\n      swap2\n      sub\n      swap1\n      revert\n    tag_286:\n        /* \"./VestedToken.sol\":4347:4353  amount */\n      dup1\n        /* \"./VestedToken.sol\":4315:4334  categoryAllocations */\n      0x0b\n        /* \"./VestedToken.sol\":4335:4343  category */\n      dup4\n        /* \"./VestedToken.sol\":4315:4344  categoryAllocations[category] */\n      mload(0x40)\n      tag_289\n      swap2\n      swap1\n      tag_227\n      jump\t// in\n    tag_289:\n      swap1\n      dup2\n      mstore\n      0x20\n      add\n      mload(0x40)\n      dup1\n      swap2\n      sub\n      swap1\n      keccak256\n        /* \"./VestedToken.sol\":4315:4353  categoryAllocations[category] = amount */\n      dup2\n      swap1\n      sstore\n      pop\n        /* \"./VestedToken.sol\":4368:4407  CategoryAllocationSet(category, amount) */\n      0x40595e4d22661278feeff293e3de4334b9132b0bf1c2aac89a8ec5aedb2c11a4\n        /* \"./VestedToken.sol\":4390:4398  category */\n      dup3\n        /* \"./VestedToken.sol\":4400:4406  amount */\n      dup3\n        /* \"./VestedToken.sol\":4368:4407  CategoryAllocationSet(category, amount) */\n      mload(0x40)\n      tag_290\n      swap3\n      swap2\n      swap1\n      tag_291\n      jump\t// in\n    tag_290:\n      mload(0x40)\n      dup1\n      swap2\n      sub\n      swap1\n      log1\n        /* \"./VestedToken.sol\":4079:4414  function setCategoryAllocation(string memory category, uint256 amount) external onlyOwner {... */\n      pop\n      pop\n      jump\t// out\n        /* \"@openzeppelin/contracts/token/ERC20/ERC20.sol\":3455:3595  function allowance(address owner, address spender) public view virtual returns (uint256) {... */\n    tag_149:\n        /* \"@openzeppelin/contracts/token/ERC20/ERC20.sol\":3535:3542  uint256 */\n      0x00\n        /* \"@openzeppelin/contracts/token/ERC20/ERC20.sol\":3561:3572  _allowances */\n      0x01\n        /* \"@openzeppelin/contracts/token/ERC20/ERC20.sol\":3561:3579  _allowances[owner] */\n      0x00\n        /* \"@openzeppelin/contracts/token/ERC20/ERC20.sol\":3573:3578  owner */\n      dup5\n        /* \"@openzeppelin/contracts/token/ERC20/ERC20.sol\":3561:3579  _allowances[owner] */\n      0xffffffffffffffffffffffffffffffffffffffff\n      and\n      0xffffffffffffffffffffffffffffffffffffffff\n      and\n      dup2\n      mstore\n      0x20\n      add\n      swap1\n      dup2\n      mstore\n      0x20\n      add\n      0x00\n      keccak256\n        /* \"@openzeppelin/contracts/token/ERC20/ERC20.sol\":3561:3588  _allowances[owner][spender] */\n      0x00\n        /* \"@openzeppelin/contracts/token/ERC20/ERC20.sol\":3580:3587  spender */\n      dup4\n        /* \"@openzeppelin/contracts/token/ERC20/ERC20.sol\":3561:3588  _allowances[owner][spender] */\n      0xffffffffffffffffffffffffffffffffffffffff\n      and\n      0xffffffffffffffffffffffffffffffffffffffff\n      and\n      dup2\n      mstore\n      0x20\n      add\n      swap1\n      dup2\n      mstore\n      0x20\n      add\n      0x00\n      keccak256\n      sload\n        /* \"@openzeppelin/contracts/token/ERC20/ERC20.sol\":3554:3588  return _allowances[owner][spender] */\n      swap1\n      pop\n        /* \"@openzeppelin/contracts/token/ERC20/ERC20.sol\":3455:3595  function allowance(address owner, address spender) public view virtual returns (uint256) {... */\n      swap3\n      swap2\n      pop\n      pop\n      jump\t// out\n        /* \"./VestedToken.sol\":5117:5528  function mintWithVesting(... */\n    tag_154:\n        /* \"@openzeppelin/contracts/access/Ownable.sol\":1531:1544  _checkOwner() */\n      tag_294\n        /* \"@openzeppelin/contracts/access/Ownable.sol\":1531:1542  _checkOwner */\n      tag_173\n        /* \"@openzeppelin/contracts/access/Ownable.sol\":1531:1544  _checkOwner() */\n      jump\t// in\n    tag_294:\n        /* \"./VestedToken.sol\":5276:5277  0 */\n      0x00\n        /* \"./VestedToken.sol\":5262:5278  to != address(0) */\n      0xffffffffffffffffffffffffffffffffffffffff\n      and\n        /* \"./VestedToken.sol\":5262:5264  to */\n      dup4\n        /* \"./VestedToken.sol\":5262:5278  to != address(0) */\n      0xffffffffffffffffffffffffffffffffffffffff\n      and\n      sub\n        /* \"./VestedToken.sol\":5254:5300  require(to != address(0), \"Invalid recipient\") */\n      tag_296\n      jumpi\n      mload(0x40)\n      0x08c379a000000000000000000000000000000000000000000000000000000000\n      dup2\n      mstore\n      0x04\n      add\n      tag_297\n      swap1\n      tag_298\n      jump\t// in\n    tag_297:\n      mload(0x40)\n      dup1\n      swap2\n      sub\n      swap1\n      revert\n    tag_296:\n        /* \"./VestedToken.sol\":5327:5328  0 */\n      0x00\n        /* \"./VestedToken.sol\":5318:5324  amount */\n      dup3\n        /* \"./VestedToken.sol\":5318:5328  amount > 0 */\n      gt\n        /* \"./VestedToken.sol\":5310:5362  require(amount > 0, \"Amount must be greater than 0\") */\n      tag_299\n      jumpi\n      mload(0x40)\n      0x08c379a000000000000000000000000000000000000000000000000000000000\n      dup2\n      mstore\n      0x04\n      add\n      tag_300\n      swap1\n      tag_288\n      jump\t// in\n    tag_300:\n      mload(0x40)\n      dup1\n      swap2\n      sub\n      swap1\n      revert\n    tag_299:\n        /* \"./VestedToken.sol\":5380:5396  vestingContracts */\n      0x0a\n        /* \"./VestedToken.sol\":5380:5413  vestingContracts[vestingContract] */\n      0x00\n        /* \"./VestedToken.sol\":5397:5412  vestingContract */\n      dup3\n        /* \"./VestedToken.sol\":5380:5413  vestingContracts[vestingContract] */\n      0xffffffffffffffffffffffffffffffffffffffff\n      and\n      0xffffffffffffffffffffffffffffffffffffffff\n      and\n      dup2\n      mstore\n      0x20\n      add\n      swap1\n      dup2\n      mstore\n      0x20\n      add\n      0x00\n      keccak256\n      0x00\n      swap1\n      sload\n      swap1\n      0x0100\n      exp\n      swap1\n      div\n      0xff\n      and\n        /* \"./VestedToken.sol\":5372:5442  require(vestingContracts[vestingContract], \"Invalid vesting contract\") */\n      tag_301\n      jumpi\n      mload(0x40)\n      0x08c379a000000000000000000000000000000000000000000000000000000000\n      dup2\n      mstore\n      0x04\n      add\n      tag_302\n      swap1\n      tag_245\n      jump\t// in\n    tag_302:\n      mload(0x40)\n      dup1\n      swap2\n      sub\n      swap1\n      revert\n    tag_301:\n        /* \"./VestedToken.sol\":5475:5481  amount */\n      dup2\n        /* \"./VestedToken.sol\":5453:5467  vestedBalances */\n      0x09\n        /* \"./VestedToken.sol\":5453:5471  vestedBalances[to] */\n      0x00\n        /* \"./VestedToken.sol\":5468:5470  to */\n      dup6\n        /* \"./VestedToken.sol\":5453:5471  vestedBalances[to] */\n      0xffffffffffffffffffffffffffffffffffffffff\n      and\n      0xffffffffffffffffffffffffffffffffffffffff\n      and\n      dup2\n      mstore\n      0x20\n      add\n      swap1\n      dup2\n      mstore\n      0x20\n      add\n      0x00\n      keccak256\n      0x00\n        /* \"./VestedToken.sol\":5453:5481  vestedBalances[to] += amount */\n      dup3\n      dup3\n      sload\n      tag_303\n      swap2\n      swap1\n      tag_304\n      jump\t// in\n    tag_303:\n      swap3\n      pop\n      pop\n      dup2\n      swap1\n      sstore\n      pop\n        /* \"./VestedToken.sol\":5491:5521  _mint(vestingContract, amount) */\n      tag_305\n        /* \"./VestedToken.sol\":5497:5512  vestingContract */\n      dup2\n        /* \"./VestedToken.sol\":5514:5520  amount */\n      dup4\n        /* \"./VestedToken.sol\":5491:5496  _mint */\n      tag_278\n        /* \"./VestedToken.sol\":5491:5521  _mint(vestingContract, amount) */\n      jump\t// in\n    tag_305:\n        /* \"./VestedToken.sol\":5117:5528  function mintWithVesting(... */\n      pop\n      pop\n      pop\n      jump\t// out\n        /* \"@openzeppelin/contracts/access/Ownable.sol\":2543:2758  function transferOwnership(address newOwner) public virtual onlyOwner {... */\n    tag_157:\n        /* \"@openzeppelin/contracts/access/Ownable.sol\":1531:1544  _checkOwner() */\n      tag_307\n        /* \"@openzeppelin/contracts/access/Ownable.sol\":1531:1542  _checkOwner */\n      tag_173\n        /* \"@openzeppelin/contracts/access/Ownable.sol\":1531:1544  _checkOwner() */\n      jump\t// in\n    tag_307:\n        /* \"@openzeppelin/contracts/access/Ownable.sol\":2647:2648  0 */\n      0x00\n        /* \"@openzeppelin/contracts/access/Ownable.sol\":2627:2649  newOwner == address(0) */\n      0xffffffffffffffffffffffffffffffffffffffff\n      and\n        /* \"@openzeppelin/contracts/access/Ownable.sol\":2627:2635  newOwner */\n      dup2\n        /* \"@openzeppelin/contracts/access/Ownable.sol\":2627:2649  newOwner == address(0) */\n      0xffffffffffffffffffffffffffffffffffffffff\n      and\n      sub\n        /* \"@openzeppelin/contracts/access/Ownable.sol\":2623:2714  if (newOwner == address(0)) {... */\n      tag_309\n      jumpi\n        /* \"@openzeppelin/contracts/access/Ownable.sol\":2700:2701  0 */\n      0x00\n        /* \"@openzeppelin/contracts/access/Ownable.sol\":2672:2703  OwnableInvalidOwner(address(0)) */\n      mload(0x40)\n      0x1e4fbdf700000000000000000000000000000000000000000000000000000000\n      dup2\n      mstore\n      0x04\n      add\n      tag_310\n      swap2\n      swap1\n      tag_120\n      jump\t// in\n    tag_310:\n      mload(0x40)\n      dup1\n      swap2\n      sub\n      swap1\n      revert\n        /* \"@openzeppelin/contracts/access/Ownable.sol\":2623:2714  if (newOwner == address(0)) {... */\n    tag_309:\n        /* \"@openzeppelin/contracts/access/Ownable.sol\":2723:2751  _transferOwnership(newOwner) */\n      tag_311\n        /* \"@openzeppelin/contracts/access/Ownable.sol\":2742:2750  newOwner */\n      dup2\n        /* \"@openzeppelin/contracts/access/Ownable.sol\":2723:2741  _transferOwnership */\n      tag_219\n        /* \"@openzeppelin/contracts/access/Ownable.sol\":2723:2751  _transferOwnership(newOwner) */\n      jump\t// in\n    tag_311:\n        /* \"@openzeppelin/contracts/access/Ownable.sol\":2543:2758  function transferOwnership(address newOwner) public virtual onlyOwner {... */\n      pop\n      jump\t// out\n        /* \"@openzeppelin/contracts/utils/Context.sol\":656:752  function _msgSender() internal view virtual returns (address) {... */\n    tag_167:\n        /* \"@openzeppelin/contracts/utils/Context.sol\":709:716  address */\n      0x00\n        /* \"@openzeppelin/contracts/utils/Context.sol\":735:745  msg.sender */\n      caller\n        /* \"@openzeppelin/contracts/utils/Context.sol\":728:745  return msg.sender */\n      swap1\n      pop\n        /* \"@openzeppelin/contracts/utils/Context.sol\":656:752  function _msgSender() internal view virtual returns (address) {... */\n      swap1\n      jump\t// out\n        /* \"@openzeppelin/contracts/token/ERC20/ERC20.sol\":8630:8758  function _approve(address owner, address spender, uint256 value) internal {... */\n    tag_169:\n        /* \"@openzeppelin/contracts/token/ERC20/ERC20.sol\":8714:8751  _approve(owner, spender, value, true) */\n      tag_314\n        /* \"@openzeppelin/contracts/token/ERC20/ERC20.sol\":8723:8728  owner */\n      dup4\n        /* \"@openzeppelin/contracts/token/ERC20/ERC20.sol\":8730:8737  spender */\n      dup4\n        /* \"@openzeppelin/contracts/token/ERC20/ERC20.sol\":8739:8744  value */\n      dup4\n        /* \"@openzeppelin/contracts/token/ERC20/ERC20.sol\":8746:8750  true */\n      0x01\n        /* \"@openzeppelin/contracts/token/ERC20/ERC20.sol\":8714:8722  _approve */\n      tag_315\n        /* \"@openzeppelin/contracts/token/ERC20/ERC20.sol\":8714:8751  _approve(owner, spender, value, true) */\n      jump\t// in\n    tag_314:\n        /* \"@openzeppelin/contracts/token/ERC20/ERC20.sol\":8630:8758  function _approve(address owner, address spender, uint256 value) internal {... */\n      pop\n      pop\n      pop\n      jump\t// out\n        /* \"@openzeppelin/contracts/access/Ownable.sol\":1796:1958  function _checkOwner() internal view virtual {... */\n    tag_173:\n        /* \"@openzeppelin/contracts/access/Ownable.sol\":1866:1878  _msgSender() */\n      tag_317\n        /* \"@openzeppelin/contracts/access/Ownable.sol\":1866:1876  _msgSender */\n      tag_167\n        /* \"@openzeppelin/contracts/access/Ownable.sol\":1866:1878  _msgSender() */\n      jump\t// in\n    tag_317:\n        /* \"@openzeppelin/contracts/access/Ownable.sol\":1855:1878  owner() != _msgSender() */\n      0xffffffffffffffffffffffffffffffffffffffff\n      and\n        /* \"@openzeppelin/contracts/access/Ownable.sol\":1855:1862  owner() */\n      tag_318\n        /* \"@openzeppelin/contracts/access/Ownable.sol\":1855:1860  owner */\n      tag_118\n        /* \"@openzeppelin/contracts/access/Ownable.sol\":1855:1862  owner() */\n      jump\t// in\n    tag_318:\n        /* \"@openzeppelin/contracts/access/Ownable.sol\":1855:1878  owner() != _msgSender() */\n      0xffffffffffffffffffffffffffffffffffffffff\n      and\n      eq\n        /* \"@openzeppelin/contracts/access/Ownable.sol\":1851:1952  if (owner() != _msgSender()) {... */\n      tag_319\n      jumpi\n        /* \"@openzeppelin/contracts/access/Ownable.sol\":1928:1940  _msgSender() */\n      tag_320\n        /* \"@openzeppelin/contracts/access/Ownable.sol\":1928:1938  _msgSender */\n      tag_167\n        /* \"@openzeppelin/contracts/access/Ownable.sol\":1928:1940  _msgSender() */\n      jump\t// in\n    tag_320:\n        /* \"@openzeppelin/contracts/access/Ownable.sol\":1901:1941  OwnableUnauthorizedAccount(_msgSender()) */\n      mload(0x40)\n      0x118cdaa700000000000000000000000000000000000000000000000000000000\n      dup2\n      mstore\n      0x04\n      add\n      tag_321\n      swap2\n      swap1\n      tag_120\n      jump\t// in\n    tag_321:\n      mload(0x40)\n      dup1\n      swap2\n      sub\n      swap1\n      revert\n        /* \"@openzeppelin/contracts/access/Ownable.sol\":1851:1952  if (owner() != _msgSender()) {... */\n    tag_319:\n        /* \"@openzeppelin/contracts/access/Ownable.sol\":1796:1958  function _checkOwner() internal view virtual {... */\n      jump\t// out\n        /* \"@openzeppelin/contracts/token/ERC20/ERC20.sol\":10319:10795  function _spendAllowance(address owner, address spender, uint256 value) internal virtual {... */\n    tag_187:\n        /* \"@openzeppelin/contracts/token/ERC20/ERC20.sol\":10418:10442  uint256 currentAllowance */\n      0x00\n        /* \"@openzeppelin/contracts/token/ERC20/ERC20.sol\":10445:10470  allowance(owner, spender) */\n      tag_323\n        /* \"@openzeppelin/contracts/token/ERC20/ERC20.sol\":10455:10460  owner */\n      dup5\n        /* \"@openzeppelin/contracts/token/ERC20/ERC20.sol\":10462:10469  spender */\n      dup5\n        /* \"@openzeppelin/contracts/token/ERC20/ERC20.sol\":10445:10454  allowance */\n      tag_149\n        /* \"@openzeppelin/contracts/token/ERC20/ERC20.sol\":10445:10470  allowance(owner, spender) */\n      jump\t// in\n    tag_323:\n        /* \"@openzeppelin/contracts/token/ERC20/ERC20.sol\":10418:10470  uint256 currentAllowance = allowance(owner, spender) */\n      swap1\n      pop\n        /* \"@openzeppelin/contracts/token/ERC20/ERC20.sol\":10503:10520  type(uint256).max */\n      0xffffffffffffffffffffffffffffffffffffffffffffffffffffffffffffffff\n        /* \"@openzeppelin/contracts/token/ERC20/ERC20.sol\":10484:10500  currentAllowance */\n      dup2\n        /* \"@openzeppelin/contracts/token/ERC20/ERC20.sol\":10484:10520  currentAllowance < type(uint256).max */\n      lt\n        /* \"@openzeppelin/contracts/token/ERC20/ERC20.sol\":10480:10789  if (currentAllowance < type(uint256).max) {... */\n      iszero\n      tag_324\n      jumpi\n        /* \"@openzeppelin/contracts/token/ERC20/ERC20.sol\":10559:10564  value */\n      dup2\n        /* \"@openzeppelin/contracts/token/ERC20/ERC20.sol\":10540:10556  currentAllowance */\n      dup2\n        /* \"@openzeppelin/contracts/token/ERC20/ERC20.sol\":10540:10564  currentAllowance < value */\n      lt\n        /* \"@openzeppelin/contracts/token/ERC20/ERC20.sol\":10536:10666  if (currentAllowance < value) {... */\n      iszero\n      tag_325\n      jumpi\n        /* \"@openzeppelin/contracts/token/ERC20/ERC20.sol\":10618:10625  spender */\n      dup3\n        /* \"@openzeppelin/contracts/token/ERC20/ERC20.sol\":10627:10643  currentAllowance */\n      dup2\n        /* \"@openzeppelin/contracts/token/ERC20/ERC20.sol\":10645:10650  value */\n      dup4\n        /* \"@openzeppelin/contracts/token/ERC20/ERC20.sol\":10591:10651  ERC20InsufficientAllowance(spender, currentAllowance, value) */\n      mload(0x40)\n      0xfb8f41b200000000000000000000000000000000000000000000000000000000\n      dup2\n      mstore\n      0x04\n      add\n      tag_326\n      swap4\n      swap3\n      swap2\n      swap1\n      tag_327\n      jump\t// in\n    tag_326:\n      mload(0x40)\n      dup1\n      swap2\n      sub\n      swap1\n      revert\n        /* \"@openzeppelin/contracts/token/ERC20/ERC20.sol\":10536:10666  if (currentAllowance < value) {... */\n    tag_325:\n        /* \"@openzeppelin/contracts/token/ERC20/ERC20.sol\":10707:10764  _approve(owner, spender, currentAllowance - value, false) */\n      tag_328\n        /* \"@openzeppelin/contracts/token/ERC20/ERC20.sol\":10716:10721  owner */\n      dup5\n        /* \"@openzeppelin/contracts/token/ERC20/ERC20.sol\":10723:10730  spender */\n      dup5\n        /* \"@openzeppelin/contracts/token/ERC20/ERC20.sol\":10751:10756  value */\n      dup5\n        /* \"@openzeppelin/contracts/token/ERC20/ERC20.sol\":10732:10748  currentAllowance */\n      dup5\n        /* \"@openzeppelin/contracts/token/ERC20/ERC20.sol\":10732:10756  currentAllowance - value */\n      sub\n        /* \"@openzeppelin/contracts/token/ERC20/ERC20.sol\":10758:10763  false */\n      0x00\n        /* \"@openzeppelin/contracts/token/ERC20/ERC20.sol\":10707:10715  _approve */\n      tag_315\n        /* \"@openzeppelin/contracts/token/ERC20/ERC20.sol\":10707:10764  _approve(owner, spender, currentAllowance - value, false) */\n      jump\t// in\n    tag_328:\n        /* \"@openzeppelin/contracts/token/ERC20/ERC20.sol\":10480:10789  if (currentAllowance < type(uint256).max) {... */\n    tag_324:\n        /* \"@openzeppelin/contracts/token/ERC20/ERC20.sol\":10408:10795  {... */\n      pop\n        /* \"@openzeppelin/contracts/token/ERC20/ERC20.sol\":10319:10795  function _spendAllowance(address owner, address spender, uint256 value) internal virtual {... */\n      pop\n      pop\n      pop\n      jump\t// out\n        /* \"@openzeppelin/contracts/token/ERC20/ERC20.sol\":5297:5597  function _transfer(address from, address to, uint256 value) internal {... */\n    tag_189:\n        /* \"@openzeppelin/contracts/token/ERC20/ERC20.sol\":5396:5397  0 */\n      0x00\n        /* \"@openzeppelin/contracts/token/ERC20/ERC20.sol\":5380:5398  from == address(0) */\n      0xffffffffffffffffffffffffffffffffffffffff\n      and\n        /* \"@openzeppelin/contracts/token/ERC20/ERC20.sol\":5380:5384  from */\n      dup4\n        /* \"@openzeppelin/contracts/token/ERC20/ERC20.sol\":5380:5398  from == address(0) */\n      0xffffffffffffffffffffffffffffffffffffffff\n      and\n      sub\n        /* \"@openzeppelin/contracts/token/ERC20/ERC20.sol\":5376:5462  if (from == address(0)) {... */\n      tag_330\n      jumpi\n        /* \"@openzeppelin/contracts/token/ERC20/ERC20.sol\":5448:5449  0 */\n      0x00\n        /* \"@openzeppelin/contracts/token/ERC20/ERC20.sol\":5421:5451  ERC20InvalidSender(address(0)) */\n      mload(0x40)\n      0x96c6fd1e00000000000000000000000000000000000000000000000000000000\n      dup2\n      mstore\n      0x04\n      add\n      tag_331\n      swap2\n      swap1\n      tag_120\n      jump\t// in\n    tag_331:\n      mload(0x40)\n      dup1\n      swap2\n      sub\n      swap1\n      revert\n        /* \"@openzeppelin/contracts/token/ERC20/ERC20.sol\":5376:5462  if (from == address(0)) {... */\n    tag_330:\n        /* \"@openzeppelin/contracts/token/ERC20/ERC20.sol\":5489:5490  0 */\n      0x00\n        /* \"@openzeppelin/contracts/token/ERC20/ERC20.sol\":5475:5491  to == address(0) */\n      0xffffffffffffffffffffffffffffffffffffffff\n      and\n        /* \"@openzeppelin/contracts/token/ERC20/ERC20.sol\":5475:5477  to */\n      dup3\n        /* \"@openzeppelin/contracts/token/ERC20/ERC20.sol\":5475:5491  to == address(0) */\n      0xffffffffffffffffffffffffffffffffffffffff\n      and\n      sub\n        /* \"@openzeppelin/contracts/token/ERC20/ERC20.sol\":5471:5557  if (to == address(0)) {... */\n      tag_332\n      jumpi\n        /* \"@openzeppelin/contracts/token/ERC20/ERC20.sol\":5543:5544  0 */\n      0x00\n        /* \"@openzeppelin/contracts/token/ERC20/ERC20.sol\":5514:5546  ERC20InvalidReceiver(address(0)) */\n      mload(0x40)\n      0xec442f0500000000000000000000000000000000000000000000000000000000\n      dup2\n      mstore\n      0x04\n      add\n      tag_333\n      swap2\n      swap1\n      tag_120\n      jump\t// in\n    tag_333:\n      mload(0x40)\n      dup1\n      swap2\n      sub\n      swap1\n      revert\n        /* \"@openzeppelin/contracts/token/ERC20/ERC20.sol\":5471:5557  if (to == address(0)) {... */\n    tag_332:\n        /* \"@openzeppelin/contracts/token/ERC20/ERC20.sol\":5566:5590  _update(from, to, value) */\n      tag_334\n        /* \"@openzeppelin/contracts/token/ERC20/ERC20.sol\":5574:5578  from */\n      dup4\n        /* \"@openzeppelin/contracts/token/ERC20/ERC20.sol\":5580:5582  to */\n      dup4\n        /* \"@openzeppelin/contracts/token/ERC20/ERC20.sol\":5584:5589  value */\n      dup4\n        /* \"@openzeppelin/contracts/token/ERC20/ERC20.sol\":5566:5573  _update */\n      tag_335\n        /* \"@openzeppelin/contracts/token/ERC20/ERC20.sol\":5566:5590  _update(from, to, value) */\n      jump\t// in\n    tag_334:\n        /* \"@openzeppelin/contracts/token/ERC20/ERC20.sol\":5297:5597  function _transfer(address from, address to, uint256 value) internal {... */\n      pop\n      pop\n      pop\n      jump\t// out\n        /* \"@openzeppelin/contracts/security/Pausable.sol\":2433:2550  function _unpause() internal virtual whenPaused {... */\n    tag_196:\n        /* \"@openzeppelin/contracts/security/Pausable.sol\":1486:1502  _requirePaused() */\n      tag_337\n        /* \"@openzeppelin/contracts/security/Pausable.sol\":1486:1500  _requirePaused */\n      tag_338\n        /* \"@openzeppelin/contracts/security/Pausable.sol\":1486:1502  _requirePaused() */\n      jump\t// in\n    tag_337:\n        /* \"@openzeppelin/contracts/security/Pausable.sol\":2501:2506  false */\n      0x00\n        /* \"@openzeppelin/contracts/security/Pausable.sol\":2491:2498  _paused */\n      0x05\n      0x14\n        /* \"@openzeppelin/contracts/security/Pausable.sol\":2491:2506  _paused = false */\n      0x0100\n      exp\n      dup2\n      sload\n      dup2\n      0xff\n      mul\n      not\n      and\n      swap1\n      dup4\n      iszero\n      iszero\n      mul\n      or\n      swap1\n      sstore\n      pop\n        /* \"@openzeppelin/contracts/security/Pausable.sol\":2521:2543  Unpaused(_msgSender()) */\n      0x5db9ee0a495bf2e6ff9c91a7834c1ba4fdd244a5e8aa4e537bd38aeae4b073aa\n        /* \"@openzeppelin/contracts/security/Pausable.sol\":2530:2542  _msgSender() */\n      tag_340\n        /* \"@openzeppelin/contracts/security/Pausable.sol\":2530:2540  _msgSender */\n      tag_167\n        /* \"@openzeppelin/contracts/security/Pausable.sol\":2530:2542  _msgSender() */\n      jump\t// in\n    tag_340:\n        /* \"@openzeppelin/contracts/security/Pausable.sol\":2521:2543  Unpaused(_msgSender()) */\n      mload(0x40)\n      tag_341\n      swap2\n      swap1\n      tag_120\n      jump\t// in\n    tag_341:\n      mload(0x40)\n      dup1\n      swap2\n      sub\n      swap1\n      log1\n        /* \"@openzeppelin/contracts/security/Pausable.sol\":2433:2550  function _unpause() internal virtual whenPaused {... */\n      jump\t// out\n        /* \"@openzeppelin/contracts/token/ERC20/ERC20.sol\":7888:8094  function _burn(address account, uint256 value) internal {... */\n    tag_201:\n        /* \"@openzeppelin/contracts/token/ERC20/ERC20.sol\":7977:7978  0 */\n      0x00\n        /* \"@openzeppelin/contracts/token/ERC20/ERC20.sol\":7958:7979  account == address(0) */\n      0xffffffffffffffffffffffffffffffffffffffff\n      and\n        /* \"@openzeppelin/contracts/token/ERC20/ERC20.sol\":7958:7965  account */\n      dup3\n        /* \"@openzeppelin/contracts/token/ERC20/ERC20.sol\":7958:7979  account == address(0) */\n      0xffffffffffffffffffffffffffffffffffffffff\n      and\n      sub\n        /* \"@openzeppelin/contracts/token/ERC20/ERC20.sol\":7954:8043  if (account == address(0)) {... */\n      tag_343\n      jumpi\n        /* \"@openzeppelin/contracts/token/ERC20/ERC20.sol\":8029:8030  0 */\n      0x00\n        /* \"@openzeppelin/contracts/token/ERC20/ERC20.sol\":8002:8032  ERC20InvalidSender(address(0)) */\n      mload(0x40)\n      0x96c6fd1e00000000000000000000000000000000000000000000000000000000\n      dup2\n      mstore\n      0x04\n      add\n      tag_344\n      swap2\n      swap1\n      tag_120\n      jump\t// in\n    tag_344:\n      mload(0x40)\n      dup1\n      swap2\n      sub\n      swap1\n      revert\n        /* \"@openzeppelin/contracts/token/ERC20/ERC20.sol\":7954:8043  if (account == address(0)) {... */\n    tag_343:\n        /* \"@openzeppelin/contracts/token/ERC20/ERC20.sol\":8052:8087  _update(account, address(0), value) */\n      tag_345\n        /* \"@openzeppelin/contracts/token/ERC20/ERC20.sol\":8060:8067  account */\n      dup3\n        /* \"@openzeppelin/contracts/token/ERC20/ERC20.sol\":8077:8078  0 */\n      0x00\n        /* \"@openzeppelin/contracts/token/ERC20/ERC20.sol\":8081:8086  value */\n      dup4\n        /* \"@openzeppelin/contracts/token/ERC20/ERC20.sol\":8052:8059  _update */\n      tag_335\n        /* \"@openzeppelin/contracts/token/ERC20/ERC20.sol\":8052:8087  _update(account, address(0), value) */\n      jump\t// in\n    tag_345:\n        /* \"@openzeppelin/contracts/token/ERC20/ERC20.sol\":7888:8094  function _burn(address account, uint256 value) internal {... */\n      pop\n      pop\n      jump\t// out\n        /* \"@openzeppelin/contracts/access/Ownable.sol\":2912:3099  function _transferOwnership(address newOwner) internal virtual {... */\n    tag_219:\n        /* \"@openzeppelin/contracts/access/Ownable.sol\":2985:3001  address oldOwner */\n      0x00\n        /* \"@openzeppelin/contracts/access/Ownable.sol\":3004:3010  _owner */\n      0x05\n      0x00\n      swap1\n      sload\n      swap1\n      0x0100\n      exp\n      swap1\n      div\n      0xffffffffffffffffffffffffffffffffffffffff\n      and\n        /* \"@openzeppelin/contracts/access/Ownable.sol\":2985:3010  address oldOwner = _owner */\n      swap1\n      pop\n        /* \"@openzeppelin/contracts/access/Ownable.sol\":3029:3037  newOwner */\n      dup2\n        /* \"@openzeppelin/contracts/access/Ownable.sol\":3020:3026  _owner */\n      0x05\n      0x00\n        /* \"@openzeppelin/contracts/access/Ownable.sol\":3020:3037  _owner = newOwner */\n      0x0100\n      exp\n      dup2\n      sload\n      dup2\n      0xffffffffffffffffffffffffffffffffffffffff\n      mul\n      not\n      and\n      swap1\n      dup4\n      0xffffffffffffffffffffffffffffffffffffffff\n      and\n      mul\n      or\n      swap1\n      sstore\n      pop\n        /* \"@openzeppelin/contracts/access/Ownable.sol\":3083:3091  newOwner */\n      dup2\n        /* \"@openzeppelin/contracts/access/Ownable.sol\":3052:3092  OwnershipTransferred(oldOwner, newOwner) */\n      0xffffffffffffffffffffffffffffffffffffffff\n      and\n        /* \"@openzeppelin/contracts/access/Ownable.sol\":3073:3081  oldOwner */\n      dup2\n        /* \"@openzeppelin/contracts/access/Ownable.sol\":3052:3092  OwnershipTransferred(oldOwner, newOwner) */\n      0xffffffffffffffffffffffffffffffffffffffff\n      and\n      0x8be0079c531659141344cd1fd0a4f28419497f9722a3daafe3b4186f6b6457e0\n      mload(0x40)\n      mload(0x40)\n      dup1\n      swap2\n      sub\n      swap1\n      log3\n        /* \"@openzeppelin/contracts/access/Ownable.sol\":2975:3099  {... */\n      pop\n        /* \"@openzeppelin/contracts/access/Ownable.sol\":2912:3099  function _transferOwnership(address newOwner) internal virtual {... */\n      pop\n      jump\t// out\n        /* \"@openzeppelin/contracts/security/Pausable.sol\":2186:2301  function _pause() internal virtual whenNotPaused {... */\n    tag_232:\n        /* \"@openzeppelin/contracts/security/Pausable.sol\":1239:1258  _requireNotPaused() */\n      tag_348\n        /* \"@openzeppelin/contracts/security/Pausable.sol\":1239:1256  _requireNotPaused */\n      tag_349\n        /* \"@openzeppelin/contracts/security/Pausable.sol\":1239:1258  _requireNotPaused() */\n      jump\t// in\n    tag_348:\n        /* \"@openzeppelin/contracts/security/Pausable.sol\":2255:2259  true */\n      0x01\n        /* \"@openzeppelin/contracts/security/Pausable.sol\":2245:2252  _paused */\n      0x05\n      0x14\n        /* \"@openzeppelin/contracts/security/Pausable.sol\":2245:2259  _paused = true */\n      0x0100\n      exp\n      dup2\n      sload\n      dup2\n      0xff\n      mul\n      not\n      and\n      swap1\n      dup4\n      iszero\n      iszero\n      mul\n      or\n      swap1\n      sstore\n      pop\n        /* \"@openzeppelin/contracts/security/Pausable.sol\":2274:2294  Paused(_msgSender()) */\n      0x62e78cea01bee320cd4e420270b5ea74000d11b0c9f74754ebdbfc544b05a258\n        /* \"@openzeppelin/contracts/security/Pausable.sol\":2281:2293  _msgSender() */\n      tag_351\n        /* \"@openzeppelin/contracts/security/Pausable.sol\":2281:2291  _msgSender */\n      tag_167\n        /* \"@openzeppelin/contracts/security/Pausable.sol\":2281:2293  _msgSender() */\n      jump\t// in\n    tag_351:\n        /* \"@openzeppelin/contracts/security/Pausable.sol\":2274:2294  Paused(_msgSender()) */\n      mload(0x40)\n      tag_352\n      swap2\n      swap1\n      tag_120\n      jump\t// in\n    tag_352:\n      mload(0x40)\n      dup1\n      swap2\n      sub\n      swap1\n      log1\n        /* \"@openzeppelin/contracts/security/Pausable.sol\":2186:2301  function _pause() internal virtual whenNotPaused {... */\n      jump\t// out\n        /* \"@openzeppelin/contracts/token/ERC20/ERC20.sol\":7362:7570  function _mint(address account, uint256 value) internal {... */\n    tag_278:\n        /* \"@openzeppelin/contracts/token/ERC20/ERC20.sol\":7451:7452  0 */\n      0x00\n        /* \"@openzeppelin/contracts/token/ERC20/ERC20.sol\":7432:7453  account == address(0) */\n      0xffffffffffffffffffffffffffffffffffffffff\n      and\n        /* \"@openzeppelin/contracts/token/ERC20/ERC20.sol\":7432:7439  account */\n      dup3\n        /* \"@openzeppelin/contracts/token/ERC20/ERC20.sol\":7432:7453  account == address(0) */\n      0xffffffffffffffffffffffffffffffffffffffff\n      and\n      sub\n        /* \"@openzeppelin/contracts/token/ERC20/ERC20.sol\":7428:7519  if (account == address(0)) {... */\n      tag_354\n      jumpi\n        /* \"@openzeppelin/contracts/token/ERC20/ERC20.sol\":7505:7506  0 */\n      0x00\n        /* \"@openzeppelin/contracts/token/ERC20/ERC20.sol\":7476:7508  ERC20InvalidReceiver(address(0)) */\n      mload(0x40)\n      0xec442f0500000000000000000000000000000000000000000000000000000000\n      dup2\n      mstore\n      0x04\n      add\n      tag_355\n      swap2\n      swap1\n      tag_120\n      jump\t// in\n    tag_355:\n      mload(0x40)\n      dup1\n      swap2\n      sub\n      swap1\n      revert\n        /* \"@openzeppelin/contracts/token/ERC20/ERC20.sol\":7428:7519  if (account == address(0)) {... */\n    tag_354:\n        /* \"@openzeppelin/contracts/token/ERC20/ERC20.sol\":7528:7563  _update(address(0), account, value) */\n      tag_356\n        /* \"@openzeppelin/contracts/token/ERC20/ERC20.sol\":7544:7545  0 */\n      0x00\n        /* \"@openzeppelin/contracts/token/ERC20/ERC20.sol\":7548:7555  account */\n      dup4\n        /* \"@openzeppelin/contracts/token/ERC20/ERC20.sol\":7557:7562  value */\n      dup4\n        /* \"@openzeppelin/contracts/token/ERC20/ERC20.sol\":7528:7535  _update */\n      tag_335\n        /* \"@openzeppelin/contracts/token/ERC20/ERC20.sol\":7528:7563  _update(address(0), account, value) */\n      jump\t// in\n    tag_356:\n        /* \"@openzeppelin/contracts/token/ERC20/ERC20.sol\":7362:7570  function _mint(address account, uint256 value) internal {... */\n      pop\n      pop\n      jump\t// out\n        /* \"@openzeppelin/contracts/token/ERC20/ERC20.sol\":9605:10037  function _approve(address owner, address spender, uint256 value, bool emitEvent) internal virtual {... */\n    tag_315:\n        /* \"@openzeppelin/contracts/token/ERC20/ERC20.sol\":9734:9735  0 */\n      0x00\n        /* \"@openzeppelin/contracts/token/ERC20/ERC20.sol\":9717:9736  owner == address(0) */\n      0xffffffffffffffffffffffffffffffffffffffff\n      and\n        /* \"@openzeppelin/contracts/token/ERC20/ERC20.sol\":9717:9722  owner */\n      dup5\n        /* \"@openzeppelin/contracts/token/ERC20/ERC20.sol\":9717:9736  owner == address(0) */\n      0xffffffffffffffffffffffffffffffffffffffff\n      and\n      sub\n        /* \"@openzeppelin/contracts/token/ERC20/ERC20.sol\":9713:9802  if (owner == address(0)) {... */\n      tag_358\n      jumpi\n        /* \"@openzeppelin/contracts/token/ERC20/ERC20.sol\":9788:9789  0 */\n      0x00\n        /* \"@openzeppelin/contracts/token/ERC20/ERC20.sol\":9759:9791  ERC20InvalidApprover(address(0)) */\n      mload(0x40)\n      0xe602df0500000000000000000000000000000000000000000000000000000000\n      dup2\n      mstore\n      0x04\n      add\n      tag_359\n      swap2\n      swap1\n      tag_120\n      jump\t// in\n    tag_359:\n      mload(0x40)\n      dup1\n      swap2\n      sub\n      swap1\n      revert\n        /* \"@openzeppelin/contracts/token/ERC20/ERC20.sol\":9713:9802  if (owner == address(0)) {... */\n    tag_358:\n        /* \"@openzeppelin/contracts/token/ERC20/ERC20.sol\":9834:9835  0 */\n      0x00\n        /* \"@openzeppelin/contracts/token/ERC20/ERC20.sol\":9815:9836  spender == address(0) */\n      0xffffffffffffffffffffffffffffffffffffffff\n      and\n        /* \"@openzeppelin/contracts/token/ERC20/ERC20.sol\":9815:9822  spender */\n      dup4\n        /* \"@openzeppelin/contracts/token/ERC20/ERC20.sol\":9815:9836  spender == address(0) */\n      0xffffffffffffffffffffffffffffffffffffffff\n      and\n      sub\n        /* \"@openzeppelin/contracts/token/ERC20/ERC20.sol\":9811:9901  if (spender == address(0)) {... */\n      tag_360\n      jumpi\n        /* \"@openzeppelin/contracts/token/ERC20/ERC20.sol\":9887:9888  0 */\n      0x00\n        /* \"@openzeppelin/contracts/token/ERC20/ERC20.sol\":9859:9890  ERC20InvalidSpender(address(0)) */\n      mload(0x40)\n      0x94280d6200000000000000000000000000000000000000000000000000000000\n      dup2\n      mstore\n      0x04\n      add\n      tag_361\n      swap2\n      swap1\n      tag_120\n      jump\t// in\n    tag_361:\n      mload(0x40)\n      dup1\n      swap2\n      sub\n      swap1\n      revert\n        /* \"@openzeppelin/contracts/token/ERC20/ERC20.sol\":9811:9901  if (spender == address(0)) {... */\n    tag_360:\n        /* \"@openzeppelin/contracts/token/ERC20/ERC20.sol\":9940:9945  value */\n      dup2\n        /* \"@openzeppelin/contracts/token/ERC20/ERC20.sol\":9910:9921  _allowances */\n      0x01\n        /* \"@openzeppelin/contracts/token/ERC20/ERC20.sol\":9910:9928  _allowances[owner] */\n      0x00\n        /* \"@openzeppelin/contracts/token/ERC20/ERC20.sol\":9922:9927  owner */\n      dup7\n        /* \"@openzeppelin/contracts/token/ERC20/ERC20.sol\":9910:9928  _allowances[owner] */\n      0xffffffffffffffffffffffffffffffffffffffff\n      and\n      0xffffffffffffffffffffffffffffffffffffffff\n      and\n      dup2\n      mstore\n      0x20\n      add\n      swap1\n      dup2\n      mstore\n      0x20\n      add\n      0x00\n      keccak256\n        /* \"@openzeppelin/contracts/token/ERC20/ERC20.sol\":9910:9937  _allowances[owner][spender] */\n      0x00\n        /* \"@openzeppelin/contracts/token/ERC20/ERC20.sol\":9929:9936  spender */\n      dup6\n        /* \"@openzeppelin/contracts/token/ERC20/ERC20.sol\":9910:9937  _allowances[owner][spender] */\n      0xffffffffffffffffffffffffffffffffffffffff\n      and\n      0xffffffffffffffffffffffffffffffffffffffff\n      and\n      dup2\n      mstore\n      0x20\n      add\n      swap1\n      dup2\n      mstore\n      0x20\n      add\n      0x00\n      keccak256\n        /* \"@openzeppelin/contracts/token/ERC20/ERC20.sol\":9910:9945  _allowances[owner][spender] = value */\n      dup2\n      swap1\n      sstore\n      pop\n        /* \"@openzeppelin/contracts/token/ERC20/ERC20.sol\":9959:9968  emitEvent */\n      dup1\n        /* \"@openzeppelin/contracts/token/ERC20/ERC20.sol\":9955:10031  if (emitEvent) {... */\n      iszero\n      tag_362\n      jumpi\n        /* \"@openzeppelin/contracts/token/ERC20/ERC20.sol\":10005:10012  spender */\n      dup3\n        /* \"@openzeppelin/contracts/token/ERC20/ERC20.sol\":9989:10020  Approval(owner, spender, value) */\n      0xffffffffffffffffffffffffffffffffffffffff\n      and\n        /* \"@openzeppelin/contracts/token/ERC20/ERC20.sol\":9998:10003  owner */\n      dup5\n        /* \"@openzeppelin/contracts/token/ERC20/ERC20.sol\":9989:10020  Approval(owner, spender, value) */\n      0xffffffffffffffffffffffffffffffffffffffff\n      and\n      0x8c5be1e5ebec7d5bd14f71427d1e84f3dd0314c0f7b2291e5b200ac8c7c3b925\n        /* \"@openzeppelin/contracts/token/ERC20/ERC20.sol\":10014:10019  value */\n      dup5\n        /* \"@openzeppelin/contracts/token/ERC20/ERC20.sol\":9989:10020  Approval(owner, spender, value) */\n      mload(0x40)\n      tag_363\n      swap2\n      swap1\n      tag_54\n      jump\t// in\n    tag_363:\n      mload(0x40)\n      dup1\n      swap2\n      sub\n      swap1\n      log3\n        /* \"@openzeppelin/contracts/token/ERC20/ERC20.sol\":9955:10031  if (emitEvent) {... */\n    tag_362:\n        /* \"@openzeppelin/contracts/token/ERC20/ERC20.sol\":9605:10037  function _approve(address owner, address spender, uint256 value, bool emitEvent) internal virtual {... */\n      pop\n      pop\n      pop\n      pop\n      jump\t// out\n        /* \"@openzeppelin/contracts/token/ERC20/ERC20.sol\":5912:7019  function _update(address from, address to, uint256 value) internal virtual {... */\n    tag_335:\n        /* \"@openzeppelin/contracts/token/ERC20/ERC20.sol\":6017:6018  0 */\n      0x00\n        /* \"@openzeppelin/contracts/token/ERC20/ERC20.sol\":6001:6019  from == address(0) */\n      0xffffffffffffffffffffffffffffffffffffffff\n      and\n        /* \"@openzeppelin/contracts/token/ERC20/ERC20.sol\":6001:6005  from */\n      dup4\n        /* \"@openzeppelin/contracts/token/ERC20/ERC20.sol\":6001:6019  from == address(0) */\n      0xffffffffffffffffffffffffffffffffffffffff\n      and\n      sub\n        /* \"@openzeppelin/contracts/token/ERC20/ERC20.sol\":5997:6537  if (from == address(0)) {... */\n      tag_365\n      jumpi\n        /* \"@openzeppelin/contracts/token/ERC20/ERC20.sol\":6153:6158  value */\n      dup1\n        /* \"@openzeppelin/contracts/token/ERC20/ERC20.sol\":6137:6149  _totalSupply */\n      0x02\n      0x00\n        /* \"@openzeppelin/contracts/token/ERC20/ERC20.sol\":6137:6158  _totalSupply += value */\n      dup3\n      dup3\n      sload\n      tag_366\n      swap2\n      swap1\n      tag_304\n      jump\t// in\n    tag_366:\n      swap3\n      pop\n      pop\n      dup2\n      swap1\n      sstore\n      pop\n        /* \"@openzeppelin/contracts/token/ERC20/ERC20.sol\":5997:6537  if (from == address(0)) {... */\n      jump(tag_367)\n    tag_365:\n        /* \"@openzeppelin/contracts/token/ERC20/ERC20.sol\":6189:6208  uint256 fromBalance */\n      0x00\n        /* \"@openzeppelin/contracts/token/ERC20/ERC20.sol\":6211:6220  _balances */\n      dup1\n        /* \"@openzeppelin/contracts/token/ERC20/ERC20.sol\":6211:6226  _balances[from] */\n      0x00\n        /* \"@openzeppelin/contracts/token/ERC20/ERC20.sol\":6221:6225  from */\n      dup6\n        /* \"@openzeppelin/contracts/token/ERC20/ERC20.sol\":6211:6226  _balances[from] */\n      0xffffffffffffffffffffffffffffffffffffffff\n      and\n      0xffffffffffffffffffffffffffffffffffffffff\n      and\n      dup2\n      mstore\n      0x20\n      add\n      swap1\n      dup2\n      mstore\n      0x20\n      add\n      0x00\n      keccak256\n      sload\n        /* \"@openzeppelin/contracts/token/ERC20/ERC20.sol\":6189:6226  uint256 fromBalance = _balances[from] */\n      swap1\n      pop\n        /* \"@openzeppelin/contracts/token/ERC20/ERC20.sol\":6258:6263  value */\n      dup2\n        /* \"@openzeppelin/contracts/token/ERC20/ERC20.sol\":6244:6255  fromBalance */\n      dup2\n        /* \"@openzeppelin/contracts/token/ERC20/ERC20.sol\":6244:6263  fromBalance < value */\n      lt\n        /* \"@openzeppelin/contracts/token/ERC20/ERC20.sol\":6240:6355  if (fromBalance < value) {... */\n      iszero\n      tag_368\n      jumpi\n        /* \"@openzeppelin/contracts/token/ERC20/ERC20.sol\":6315:6319  from */\n      dup4\n        /* \"@openzeppelin/contracts/token/ERC20/ERC20.sol\":6321:6332  fromBalance */\n      dup2\n        /* \"@openzeppelin/contracts/token/ERC20/ERC20.sol\":6334:6339  value */\n      dup4\n        /* \"@openzeppelin/contracts/token/ERC20/ERC20.sol\":6290:6340  ERC20InsufficientBalance(from, fromBalance, value) */\n      mload(0x40)\n      0xe450d38c00000000000000000000000000000000000000000000000000000000\n      dup2\n      mstore\n      0x04\n      add\n      tag_369\n      swap4\n      swap3\n      swap2\n      swap1\n      tag_327\n      jump\t// in\n    tag_369:\n      mload(0x40)\n      dup1\n      swap2\n      sub\n      swap1\n      revert\n        /* \"@openzeppelin/contracts/token/ERC20/ERC20.sol\":6240:6355  if (fromBalance < value) {... */\n    tag_368:\n        /* \"@openzeppelin/contracts/token/ERC20/ERC20.sol\":6507:6512  value */\n      dup2\n        /* \"@openzeppelin/contracts/token/ERC20/ERC20.sol\":6493:6504  fromBalance */\n      dup2\n        /* \"@openzeppelin/contracts/token/ERC20/ERC20.sol\":6493:6512  fromBalance - value */\n      sub\n        /* \"@openzeppelin/contracts/token/ERC20/ERC20.sol\":6475:6484  _balances */\n      0x00\n        /* \"@openzeppelin/contracts/token/ERC20/ERC20.sol\":6475:6490  _balances[from] */\n      dup1\n        /* \"@openzeppelin/contracts/token/ERC20/ERC20.sol\":6485:6489  from */\n      dup7\n        /* \"@openzeppelin/contracts/token/ERC20/ERC20.sol\":6475:6490  _balances[from] */\n      0xffffffffffffffffffffffffffffffffffffffff\n      and\n      0xffffffffffffffffffffffffffffffffffffffff\n      and\n      dup2\n      mstore\n      0x20\n      add\n      swap1\n      dup2\n      mstore\n      0x20\n      add\n      0x00\n      keccak256\n        /* \"@openzeppelin/contracts/token/ERC20/ERC20.sol\":6475:6512  _balances[from] = fromBalance - value */\n      dup2\n      swap1\n      sstore\n      pop\n        /* \"@openzeppelin/contracts/token/ERC20/ERC20.sol\":6175:6537  {... */\n      pop\n        /* \"@openzeppelin/contracts/token/ERC20/ERC20.sol\":5997:6537  if (from == address(0)) {... */\n    tag_367:\n        /* \"@openzeppelin/contracts/token/ERC20/ERC20.sol\":6565:6566  0 */\n      0x00\n        /* \"@openzeppelin/contracts/token/ERC20/ERC20.sol\":6551:6567  to == address(0) */\n      0xffffffffffffffffffffffffffffffffffffffff\n      and\n        /* \"@openzeppelin/contracts/token/ERC20/ERC20.sol\":6551:6553  to */\n      dup3\n        /* \"@openzeppelin/contracts/token/ERC20/ERC20.sol\":6551:6567  to == address(0) */\n      0xffffffffffffffffffffffffffffffffffffffff\n      and\n      sub\n        /* \"@openzeppelin/contracts/token/ERC20/ERC20.sol\":6547:6972  if (to == address(0)) {... */\n      tag_370\n      jumpi\n        /* \"@openzeppelin/contracts/token/ERC20/ERC20.sol\":6730:6735  value */\n      dup1\n        /* \"@openzeppelin/contracts/token/ERC20/ERC20.sol\":6714:6726  _totalSupply */\n      0x02\n      0x00\n        /* \"@openzeppelin/contracts/token/ERC20/ERC20.sol\":6714:6735  _totalSupply -= value */\n      dup3\n      dup3\n      sload\n      sub\n      swap3\n      pop\n      pop\n      dup2\n      swap1\n      sstore\n      pop\n        /* \"@openzeppelin/contracts/token/ERC20/ERC20.sol\":6547:6972  if (to == address(0)) {... */\n      jump(tag_371)\n    tag_370:\n        /* \"@openzeppelin/contracts/token/ERC20/ERC20.sol\":6942:6947  value */\n      dup1\n        /* \"@openzeppelin/contracts/token/ERC20/ERC20.sol\":6925:6934  _balances */\n      0x00\n        /* \"@openzeppelin/contracts/token/ERC20/ERC20.sol\":6925:6938  _balances[to] */\n      dup1\n        /* \"@openzeppelin/contracts/token/ERC20/ERC20.sol\":6935:6937  to */\n      dup5\n        /* \"@openzeppelin/contracts/token/ERC20/ERC20.sol\":6925:6938  _balances[to] */\n      0xffffffffffffffffffffffffffffffffffffffff\n      and\n      0xffffffffffffffffffffffffffffffffffffffff\n      and\n      dup2\n      mstore\n      0x20\n      add\n      swap1\n      dup2\n      mstore\n      0x20\n      add\n      0x00\n      keccak256\n      0x00\n        /* \"@openzeppelin/contracts/token/ERC20/ERC20.sol\":6925:6947  _balances[to] += value */\n      dup3\n      dup3\n      sload\n      add\n      swap3\n      pop\n      pop\n      dup2\n      swap1\n      sstore\n      pop\n        /* \"@openzeppelin/contracts/token/ERC20/ERC20.sol\":6547:6972  if (to == address(0)) {... */\n    tag_371:\n        /* \"@openzeppelin/contracts/token/ERC20/ERC20.sol\":7002:7004  to */\n      dup2\n        /* \"@openzeppelin/contracts/token/ERC20/ERC20.sol\":6987:7012  Transfer(from, to, value) */\n      0xffffffffffffffffffffffffffffffffffffffff\n      and\n        /* \"@openzeppelin/contracts/token/ERC20/ERC20.sol\":6996:7000  from */\n      dup4\n        /* \"@openzeppelin/contracts/token/ERC20/ERC20.sol\":6987:7012  Transfer(from, to, value) */\n      0xffffffffffffffffffffffffffffffffffffffff\n      and\n      0xddf252ad1be2c89b69c2b068fc378daa952ba7f163c4a11628f55a4df523b3ef\n        /* \"@openzeppelin/contracts/token/ERC20/ERC20.sol\":7006:7011  value */\n      dup4\n        /* \"@openzeppelin/contracts/token/ERC20/ERC20.sol\":6987:7012  Transfer(from, to, value) */\n      mload(0x40)\n      tag_372\n      swap2\n      swap1\n      tag_54\n      jump\t// in\n    tag_372:\n      mload(0x40)\n      dup1\n      swap2\n      sub\n      swap1\n      log3\n        /* \"@openzeppelin/contracts/token/ERC20/ERC20.sol\":5912:7019  function _update(address from, address to, uint256 value) internal virtual {... */\n      pop\n      pop\n      pop\n      jump\t// out\n        /* \"@openzeppelin/contracts/security/Pausable.sol\":1945:2051  function _requirePaused() internal view virtual {... */\n    tag_338:\n        /* \"@openzeppelin/contracts/security/Pausable.sol\":2011:2019  paused() */\n      tag_374\n        /* \"@openzeppelin/contracts/security/Pausable.sol\":2011:2017  paused */\n      tag_91\n        /* \"@openzeppelin/contracts/security/Pausable.sol\":2011:2019  paused() */\n      jump\t// in\n    tag_374:\n        /* \"@openzeppelin/contracts/security/Pausable.sol\":2003:2044  require(paused(), \"Pausable: not paused\") */\n      tag_375\n      jumpi\n      mload(0x40)\n      0x08c379a000000000000000000000000000000000000000000000000000000000\n      dup2\n      mstore\n      0x04\n      add\n      tag_376\n      swap1\n      tag_377\n      jump\t// in\n    tag_376:\n      mload(0x40)\n      dup1\n      swap2\n      sub\n      swap1\n      revert\n    tag_375:\n        /* \"@openzeppelin/contracts/security/Pausable.sol\":1945:2051  function _requirePaused() internal view virtual {... */\n      jump\t// out\n        /* \"@openzeppelin/contracts/security/Pausable.sol\":1767:1873  function _requireNotPaused() internal view virtual {... */\n    tag_349:\n        /* \"@openzeppelin/contracts/security/Pausable.sol\":1837:1845  paused() */\n      tag_379\n        /* \"@openzeppelin/contracts/security/Pausable.sol\":1837:1843  paused */\n      tag_91\n        /* \"@openzeppelin/contracts/security/Pausable.sol\":1837:1845  paused() */\n      jump\t// in\n    tag_379:\n        /* \"@openzeppelin/contracts/security/Pausable.sol\":1836:1845  !paused() */\n      iszero\n        /* \"@openzeppelin/contracts/security/Pausable.sol\":1828:1866  require(!paused(), \"Pausable: paused\") */\n      tag_380\n      jumpi\n      mload(0x40)\n      0x08c379a000000000000000000000000000000000000000000000000000000000\n      dup2\n      mstore\n      0x04\n      add\n      tag_381\n      swap1\n      tag_382\n      jump\t// in\n    tag_381:\n      mload(0x40)\n      dup1\n      swap2\n      sub\n      swap1\n      revert\n    tag_380:\n        /* \"@openzeppelin/contracts/security/Pausable.sol\":1767:1873  function _requireNotPaused() internal view virtual {... */\n      jump\t// out\n        /* \"#utility.yul\":7:106   */\n    tag_383:\n        /* \"#utility.yul\":59:65   */\n      0x00\n        /* \"#utility.yul\":93:98   */\n      dup2\n        /* \"#utility.yul\":87:99   */\n      mload\n        /* \"#utility.yul\":77:99   */\n      swap1\n      pop\n        /* \"#utility.yul\":7:106   */\n      swap2\n      swap1\n      pop\n      jump\t// out\n        /* \"#utility.yul\":112:281   */\n    tag_384:\n        /* \"#utility.yul\":196:207   */\n      0x00\n        /* \"#utility.yul\":230:236   */\n      dup3\n        /* \"#utility.yul\":225:228   */\n      dup3\n        /* \"#utility.yul\":218:237   */\n      mstore\n        /* \"#utility.yul\":270:274   */\n      0x20\n        /* \"#utility.yul\":265:268   */\n      dup3\n        /* \"#utility.yul\":261:275   */\n      add\n        /* \"#utility.yul\":246:275   */\n      swap1\n      pop\n        /* \"#utility.yul\":112:281   */\n      swap3\n      swap2\n      pop\n      pop\n      jump\t// out\n        /* \"#utility.yul\":287:533   */\n    tag_385:\n        /* \"#utility.yul\":368:369   */\n      0x00\n        /* \"#utility.yul\":378:491   */\n    tag_464:\n        /* \"#utility.yul\":392:398   */\n      dup4\n        /* \"#utility.yul\":389:390   */\n      dup2\n        /* \"#utility.yul\":386:399   */\n      lt\n        /* \"#utility.yul\":378:491   */\n      iszero\n      tag_466\n      jumpi\n        /* \"#utility.yul\":477:478   */\n      dup1\n        /* \"#utility.yul\":472:475   */\n      dup3\n        /* \"#utility.yul\":468:479   */\n      add\n        /* \"#utility.yul\":462:480   */\n      mload\n        /* \"#utility.yul\":458:459   */\n      dup2\n        /* \"#utility.yul\":453:456   */\n      dup5\n        /* \"#utility.yul\":449:460   */\n      add\n        /* \"#utility.yul\":442:481   */\n      mstore\n        /* \"#utility.yul\":414:416   */\n      0x20\n        /* \"#utility.yul\":411:412   */\n      dup2\n        /* \"#utility.yul\":407:417   */\n      add\n        /* \"#utility.yul\":402:417   */\n      swap1\n      pop\n        /* \"#utility.yul\":378:491   */\n      jump(tag_464)\n    tag_466:\n        /* \"#utility.yul\":525:526   */\n      0x00\n        /* \"#utility.yul\":516:522   */\n      dup5\n        /* \"#utility.yul\":511:514   */\n      dup5\n        /* \"#utility.yul\":507:523   */\n      add\n        /* \"#utility.yul\":500:527   */\n      mstore\n        /* \"#utility.yul\":349:533   */\n      pop\n        /* \"#utility.yul\":287:533   */\n      pop\n      pop\n      pop\n      jump\t// out\n        /* \"#utility.yul\":539:641   */\n    tag_386:\n        /* \"#utility.yul\":580:586   */\n      0x00\n        /* \"#utility.yul\":631:633   */\n      0x1f\n        /* \"#utility.yul\":627:634   */\n      not\n        /* \"#utility.yul\":622:624   */\n      0x1f\n        /* \"#utility.yul\":615:620   */\n      dup4\n        /* \"#utility.yul\":611:625   */\n      add\n        /* \"#utility.yul\":607:635   */\n      and\n        /* \"#utility.yul\":597:635   */\n      swap1\n      pop\n        /* \"#utility.yul\":539:641   */\n      swap2\n      swap1\n      pop\n      jump\t// out\n        /* \"#utility.yul\":647:1024   */\n    tag_387:\n        /* \"#utility.yul\":735:738   */\n      0x00\n        /* \"#utility.yul\":763:802   */\n      tag_469\n        /* \"#utility.yul\":796:801   */\n      dup3\n        /* \"#utility.yul\":763:802   */\n      tag_383\n      jump\t// in\n    tag_469:\n        /* \"#utility.yul\":818:889   */\n      tag_470\n        /* \"#utility.yul\":882:888   */\n      dup2\n        /* \"#utility.yul\":877:880   */\n      dup6\n        /* \"#utility.yul\":818:889   */\n      tag_384\n      jump\t// in\n    tag_470:\n        /* \"#utility.yul\":811:889   */\n      swap4\n      pop\n        /* \"#utility.yul\":898:963   */\n      tag_471\n        /* \"#utility.yul\":956:962   */\n      dup2\n        /* \"#utility.yul\":951:954   */\n      dup6\n        /* \"#utility.yul\":944:948   */\n      0x20\n        /* \"#utility.yul\":937:942   */\n      dup7\n        /* \"#utility.yul\":933:949   */\n      add\n        /* \"#utility.yul\":898:963   */\n      tag_385\n      jump\t// in\n    tag_471:\n        /* \"#utility.yul\":988:1017   */\n      tag_472\n        /* \"#utility.yul\":1010:1016   */\n      dup2\n        /* \"#utility.yul\":988:1017   */\n      tag_386\n      jump\t// in\n    tag_472:\n        /* \"#utility.yul\":983:986   */\n      dup5\n        /* \"#utility.yul\":979:1018   */\n      add\n        /* \"#utility.yul\":972:1018   */\n      swap2\n      pop\n        /* \"#utility.yul\":739:1024   */\n      pop\n        /* \"#utility.yul\":647:1024   */\n      swap3\n      swap2\n      pop\n      pop\n      jump\t// out\n        /* \"#utility.yul\":1030:1343   */\n    tag_44:\n        /* \"#utility.yul\":1143:1147   */\n      0x00\n        /* \"#utility.yul\":1181:1183   */\n      0x20\n        /* \"#utility.yul\":1170:1179   */\n      dup3\n        /* \"#utility.yul\":1166:1184   */\n      add\n        /* \"#utility.yul\":1158:1184   */\n      swap1\n      pop\n        /* \"#utility.yul\":1230:1239   */\n      dup2\n        /* \"#utility.yul\":1224:1228   */\n      dup2\n        /* \"#utility.yul\":1220:1240   */\n      sub\n        /* \"#utility.yul\":1216:1217   */\n      0x00\n        /* \"#utility.yul\":1205:1214   */\n      dup4\n        /* \"#utility.yul\":1201:1218   */\n      add\n        /* \"#utility.yul\":1194:1241   */\n      mstore\n        /* \"#utility.yul\":1258:1336   */\n      tag_474\n        /* \"#utility.yul\":1331:1335   */\n      dup2\n        /* \"#utility.yul\":1322:1328   */\n      dup5\n        /* \"#utility.yul\":1258:1336   */\n      tag_387\n      jump\t// in\n    tag_474:\n        /* \"#utility.yul\":1250:1336   */\n      swap1\n      pop\n        /* \"#utility.yul\":1030:1343   */\n      swap3\n      swap2\n      pop\n      pop\n      jump\t// out\n        /* \"#utility.yul\":1349:1424   */\n    tag_388:\n        /* \"#utility.yul\":1382:1388   */\n      0x00\n        /* \"#utility.yul\":1415:1417   */\n      0x40\n        /* \"#utility.yul\":1409:1418   */\n      mload\n        /* \"#utility.yul\":1399:1418   */\n      swap1\n      pop\n        /* \"#utility.yul\":1349:1424   */\n      swap1\n      jump\t// out\n        /* \"#utility.yul\":1430:1547   */\n    tag_389:\n        /* \"#utility.yul\":1539:1540   */\n      0x00\n        /* \"#utility.yul\":1536:1537   */\n      dup1\n        /* \"#utility.yul\":1529:1541   */\n      revert\n        /* \"#utility.yul\":1553:1670   */\n    tag_390:\n        /* \"#utility.yul\":1662:1663   */\n      0x00\n        /* \"#utility.yul\":1659:1660   */\n      dup1\n        /* \"#utility.yul\":1652:1664   */\n      revert\n        /* \"#utility.yul\":1676:1802   */\n    tag_391:\n        /* \"#utility.yul\":1713:1720   */\n      0x00\n        /* \"#utility.yul\":1753:1795   */\n      0xffffffffffffffffffffffffffffffffffffffff\n        /* \"#utility.yul\":1746:1751   */\n      dup3\n        /* \"#utility.yul\":1742:1796   */\n      and\n        /* \"#utility.yul\":1731:1796   */\n      swap1\n      pop\n        /* \"#utility.yul\":1676:1802   */\n      swap2\n      swap1\n      pop\n      jump\t// out\n        /* \"#utility.yul\":1808:1904   */\n    tag_392:\n        /* \"#utility.yul\":1845:1852   */\n      0x00\n        /* \"#utility.yul\":1874:1898   */\n      tag_480\n        /* \"#utility.yul\":1892:1897   */\n      dup3\n        /* \"#utility.yul\":1874:1898   */\n      tag_391\n      jump\t// in\n    tag_480:\n        /* \"#utility.yul\":1863:1898   */\n      swap1\n      pop\n        /* \"#utility.yul\":1808:1904   */\n      swap2\n      swap1\n      pop\n      jump\t// out\n        /* \"#utility.yul\":1910:2032   */\n    tag_393:\n        /* \"#utility.yul\":1983:2007   */\n      tag_482\n        /* \"#utility.yul\":2001:2006   */\n      dup2\n        /* \"#utility.yul\":1983:2007   */\n      tag_392\n      jump\t// in\n    tag_482:\n        /* \"#utility.yul\":1976:1981   */\n      dup2\n        /* \"#utility.yul\":1973:2008   */\n      eq\n        /* \"#utility.yul\":1963:2026   */\n      tag_483\n      jumpi\n        /* \"#utility.yul\":2022:2023   */\n      0x00\n        /* \"#utility.yul\":2019:2020   */\n      dup1\n        /* \"#utility.yul\":2012:2024   */\n      revert\n        /* \"#utility.yul\":1963:2026   */\n    tag_483:\n        /* \"#utility.yul\":1910:2032   */\n      pop\n      jump\t// out\n        /* \"#utility.yul\":2038:2177   */\n    tag_394:\n        /* \"#utility.yul\":2084:2089   */\n      0x00\n        /* \"#utility.yul\":2122:2128   */\n      dup2\n        /* \"#utility.yul\":2109:2129   */\n      calldataload\n        /* \"#utility.yul\":2100:2129   */\n      swap1\n      pop\n        /* \"#utility.yul\":2138:2171   */\n      tag_485\n        /* \"#utility.yul\":2165:2170   */\n      dup2\n        /* \"#utility.yul\":2138:2171   */\n      tag_393\n      jump\t// in\n    tag_485:\n        /* \"#utility.yul\":2038:2177   */\n      swap3\n      swap2\n      pop\n      pop\n      jump\t// out\n        /* \"#utility.yul\":2183:2260   */\n    tag_395:\n        /* \"#utility.yul\":2220:2227   */\n      0x00\n        /* \"#utility.yul\":2249:2254   */\n      dup2\n        /* \"#utility.yul\":2238:2254   */\n      swap1\n      pop\n        /* \"#utility.yul\":2183:2260   */\n      swap2\n      swap1\n      pop\n      jump\t// out\n        /* \"#utility.yul\":2266:2388   */\n    tag_396:\n        /* \"#utility.yul\":2339:2363   */\n      tag_488\n        /* \"#utility.yul\":2357:2362   */\n      dup2\n        /* \"#utility.yul\":2339:2363   */\n      tag_395\n      jump\t// in\n    tag_488:\n        /* \"#utility.yul\":2332:2337   */\n      dup2\n        /* \"#utility.yul\":2329:2364   */\n      eq\n        /* \"#utility.yul\":2319:2382   */\n      tag_489\n      jumpi\n        /* \"#utility.yul\":2378:2379   */\n      0x00\n        /* \"#utility.yul\":2375:2376   */\n      dup1\n        /* \"#utility.yul\":2368:2380   */\n      revert\n        /* \"#utility.yul\":2319:2382   */\n    tag_489:\n        /* \"#utility.yul\":2266:2388   */\n      pop\n      jump\t// out\n        /* \"#utility.yul\":2394:2533   */\n    tag_397:\n        /* \"#utility.yul\":2440:2445   */\n      0x00\n        /* \"#utility.yul\":2478:2484   */\n      dup2\n        /* \"#utility.yul\":2465:2485   */\n      calldataload\n        /* \"#utility.yul\":2456:2485   */\n      swap1\n      pop\n        /* \"#utility.yul\":2494:2527   */\n      tag_491\n        /* \"#utility.yul\":2521:2526   */\n      dup2\n        /* \"#utility.yul\":2494:2527   */\n      tag_396\n      jump\t// in\n    tag_491:\n        /* \"#utility.yul\":2394:2533   */\n      swap3\n      swap2\n      pop\n      pop\n      jump\t// out\n        /* \"#utility.yul\":2539:3013   */\n    tag_47:\n        /* \"#utility.yul\":2607:2613   */\n      0x00\n        /* \"#utility.yul\":2615:2621   */\n      dup1\n        /* \"#utility.yul\":2664:2666   */\n      0x40\n        /* \"#utility.yul\":2652:2661   */\n      dup4\n        /* \"#utility.yul\":2643:2650   */\n      dup6\n        /* \"#utility.yul\":2639:2662   */\n      sub\n        /* \"#utility.yul\":2635:2667   */\n      slt\n        /* \"#utility.yul\":2632:2751   */\n      iszero\n      tag_493\n      jumpi\n        /* \"#utility.yul\":2670:2749   */\n      tag_494\n      tag_389\n      jump\t// in\n    tag_494:\n        /* \"#utility.yul\":2632:2751   */\n    tag_493:\n        /* \"#utility.yul\":2790:2791   */\n      0x00\n        /* \"#utility.yul\":2815:2868   */\n      tag_495\n        /* \"#utility.yul\":2860:2867   */\n      dup6\n        /* \"#utility.yul\":2851:2857   */\n      dup3\n        /* \"#utility.yul\":2840:2849   */\n      dup7\n        /* \"#utility.yul\":2836:2858   */\n      add\n        /* \"#utility.yul\":2815:2868   */\n      tag_394\n      jump\t// in\n    tag_495:\n        /* \"#utility.yul\":2805:2868   */\n      swap3\n      pop\n        /* \"#utility.yul\":2761:2878   */\n      pop\n        /* \"#utility.yul\":2917:2919   */\n      0x20\n        /* \"#utility.yul\":2943:2996   */\n      tag_496\n        /* \"#utility.yul\":2988:2995   */\n      dup6\n        /* \"#utility.yul\":2979:2985   */\n      dup3\n        /* \"#utility.yul\":2968:2977   */\n      dup7\n        /* \"#utility.yul\":2964:2986   */\n      add\n        /* \"#utility.yul\":2943:2996   */\n      tag_397\n      jump\t// in\n    tag_496:\n        /* \"#utility.yul\":2933:2996   */\n      swap2\n      pop\n        /* \"#utility.yul\":2888:3006   */\n      pop\n        /* \"#utility.yul\":2539:3013   */\n      swap3\n      pop\n      swap3\n      swap1\n      pop\n      jump\t// out\n        /* \"#utility.yul\":3019:3109   */\n    tag_398:\n        /* \"#utility.yul\":3053:3060   */\n      0x00\n        /* \"#utility.yul\":3096:3101   */\n      dup2\n        /* \"#utility.yul\":3089:3102   */\n      iszero\n        /* \"#utility.yul\":3082:3103   */\n      iszero\n        /* \"#utility.yul\":3071:3103   */\n      swap1\n      pop\n        /* \"#utility.yul\":3019:3109   */\n      swap2\n      swap1\n      pop\n      jump\t// out\n        /* \"#utility.yul\":3115:3224   */\n    tag_399:\n        /* \"#utility.yul\":3196:3217   */\n      tag_499\n        /* \"#utility.yul\":3211:3216   */\n      dup2\n        /* \"#utility.yul\":3196:3217   */\n      tag_398\n      jump\t// in\n    tag_499:\n        /* \"#utility.yul\":3191:3194   */\n      dup3\n        /* \"#utility.yul\":3184:3218   */\n      mstore\n        /* \"#utility.yul\":3115:3224   */\n      pop\n      pop\n      jump\t// out\n        /* \"#utility.yul\":3230:3440   */\n    tag_50:\n        /* \"#utility.yul\":3317:3321   */\n      0x00\n        /* \"#utility.yul\":3355:3357   */\n      0x20\n        /* \"#utility.yul\":3344:3353   */\n      dup3\n        /* \"#utility.yul\":3340:3358   */\n      add\n        /* \"#utility.yul\":3332:3358   */\n      swap1\n      pop\n        /* \"#utility.yul\":3368:3433   */\n      tag_501\n        /* \"#utility.yul\":3430:3431   */\n      0x00\n        /* \"#utility.yul\":3419:3428   */\n      dup4\n        /* \"#utility.yul\":3415:3432   */\n      add\n        /* \"#utility.yul\":3406:3412   */\n      dup5\n        /* \"#utility.yul\":3368:3433   */\n      tag_399\n      jump\t// in\n    tag_501:\n        /* \"#utility.yul\":3230:3440   */\n      swap3\n      swap2\n      pop\n      pop\n      jump\t// out\n        /* \"#utility.yul\":3446:3564   */\n    tag_400:\n        /* \"#utility.yul\":3533:3557   */\n      tag_503\n        /* \"#utility.yul\":3551:3556   */\n      dup2\n        /* \"#utility.yul\":3533:3557   */\n      tag_395\n      jump\t// in\n    tag_503:\n        /* \"#utility.yul\":3528:3531   */\n      dup3\n        /* \"#utility.yul\":3521:3558   */\n      mstore\n        /* \"#utility.yul\":3446:3564   */\n      pop\n      pop\n      jump\t// out\n        /* \"#utility.yul\":3570:3792   */\n    tag_54:\n        /* \"#utility.yul\":3663:3667   */\n      0x00\n        /* \"#utility.yul\":3701:3703   */\n      0x20\n        /* \"#utility.yul\":3690:3699   */\n      dup3\n        /* \"#utility.yul\":3686:3704   */\n      add\n        /* \"#utility.yul\":3678:3704   */\n      swap1\n      pop\n        /* \"#utility.yul\":3714:3785   */\n      tag_505\n        /* \"#utility.yul\":3782:3783   */\n      0x00\n        /* \"#utility.yul\":3771:3780   */\n      dup4\n        /* \"#utility.yul\":3767:3784   */\n      add\n        /* \"#utility.yul\":3758:3764   */\n      dup5\n        /* \"#utility.yul\":3714:3785   */\n      tag_400\n      jump\t// in\n    tag_505:\n        /* \"#utility.yul\":3570:3792   */\n      swap3\n      swap2\n      pop\n      pop\n      jump\t// out\n        /* \"#utility.yul\":3798:3915   */\n    tag_401:\n        /* \"#utility.yul\":3907:3908   */\n      0x00\n        /* \"#utility.yul\":3904:3905   */\n      dup1\n        /* \"#utility.yul\":3897:3909   */\n      revert\n        /* \"#utility.yul\":3921:4038   */\n    tag_402:\n        /* \"#utility.yul\":4030:4031   */\n      0x00\n        /* \"#utility.yul\":4027:4028   */\n      dup1\n        /* \"#utility.yul\":4020:4032   */\n      revert\n        /* \"#utility.yul\":4044:4224   */\n    tag_403:\n        /* \"#utility.yul\":4092:4169   */\n      0x4e487b7100000000000000000000000000000000000000000000000000000000\n        /* \"#utility.yul\":4089:4090   */\n      0x00\n        /* \"#utility.yul\":4082:4170   */\n      mstore\n        /* \"#utility.yul\":4189:4193   */\n      0x41\n        /* \"#utility.yul\":4186:4187   */\n      0x04\n        /* \"#utility.yul\":4179:4194   */\n      mstore\n        /* \"#utility.yul\":4213:4217   */\n      0x24\n        /* \"#utility.yul\":4210:4211   */\n      0x00\n        /* \"#utility.yul\":4203:4218   */\n      revert\n        /* \"#utility.yul\":4230:4511   */\n    tag_404:\n        /* \"#utility.yul\":4313:4340   */\n      tag_510\n        /* \"#utility.yul\":4335:4339   */\n      dup3\n        /* \"#utility.yul\":4313:4340   */\n      tag_386\n      jump\t// in\n    tag_510:\n        /* \"#utility.yul\":4305:4311   */\n      dup2\n        /* \"#utility.yul\":4301:4341   */\n      add\n        /* \"#utility.yul\":4443:4449   */\n      dup2\n        /* \"#utility.yul\":4431:4441   */\n      dup2\n        /* \"#utility.yul\":4428:4450   */\n      lt\n        /* \"#utility.yul\":4407:4425   */\n      0xffffffffffffffff\n        /* \"#utility.yul\":4395:4405   */\n      dup3\n        /* \"#utility.yul\":4392:4426   */\n      gt\n        /* \"#utility.yul\":4389:4451   */\n      or\n        /* \"#utility.yul\":4386:4474   */\n      iszero\n      tag_511\n      jumpi\n        /* \"#utility.yul\":4454:4472   */\n      tag_512\n      tag_403\n      jump\t// in\n    tag_512:\n        /* \"#utility.yul\":4386:4474   */\n    tag_511:\n        /* \"#utility.yul\":4494:4504   */\n      dup1\n        /* \"#utility.yul\":4490:4492   */\n      0x40\n        /* \"#utility.yul\":4483:4505   */\n      mstore\n        /* \"#utility.yul\":4273:4511   */\n      pop\n        /* \"#utility.yul\":4230:4511   */\n      pop\n      pop\n      jump\t// out\n        /* \"#utility.yul\":4517:4646   */\n    tag_405:\n        /* \"#utility.yul\":4551:4557   */\n      0x00\n        /* \"#utility.yul\":4578:4598   */\n      tag_514\n      tag_388\n      jump\t// in\n    tag_514:\n        /* \"#utility.yul\":4568:4598   */\n      swap1\n      pop\n        /* \"#utility.yul\":4607:4640   */\n      tag_515\n        /* \"#utility.yul\":4635:4639   */\n      dup3\n        /* \"#utility.yul\":4627:4633   */\n      dup3\n        /* \"#utility.yul\":4607:4640   */\n      tag_404\n      jump\t// in\n    tag_515:\n        /* \"#utility.yul\":4517:4646   */\n      swap2\n      swap1\n      pop\n      jump\t// out\n        /* \"#utility.yul\":4652:4960   */\n    tag_406:\n        /* \"#utility.yul\":4714:4718   */\n      0x00\n        /* \"#utility.yul\":4804:4822   */\n      0xffffffffffffffff\n        /* \"#utility.yul\":4796:4802   */\n      dup3\n        /* \"#utility.yul\":4793:4823   */\n      gt\n        /* \"#utility.yul\":4790:4846   */\n      iszero\n      tag_517\n      jumpi\n        /* \"#utility.yul\":4826:4844   */\n      tag_518\n      tag_403\n      jump\t// in\n    tag_518:\n        /* \"#utility.yul\":4790:4846   */\n    tag_517:\n        /* \"#utility.yul\":4864:4893   */\n      tag_519\n        /* \"#utility.yul\":4886:4892   */\n      dup3\n        /* \"#utility.yul\":4864:4893   */\n      tag_386\n      jump\t// in\n    tag_519:\n        /* \"#utility.yul\":4856:4893   */\n      swap1\n      pop\n        /* \"#utility.yul\":4948:4952   */\n      0x20\n        /* \"#utility.yul\":4942:4946   */\n      dup2\n        /* \"#utility.yul\":4938:4953   */\n      add\n        /* \"#utility.yul\":4930:4953   */\n      swap1\n      pop\n        /* \"#utility.yul\":4652:4960   */\n      swap2\n      swap1\n      pop\n      jump\t// out\n        /* \"#utility.yul\":4966:5112   */\n    tag_407:\n        /* \"#utility.yul\":5063:5069   */\n      dup3\n        /* \"#utility.yul\":5058:5061   */\n      dup2\n        /* \"#utility.yul\":5053:5056   */\n      dup4\n        /* \"#utility.yul\":5040:5070   */\n      calldatacopy\n        /* \"#utility.yul\":5104:5105   */\n      0x00\n        /* \"#utility.yul\":5095:5101   */\n      dup4\n        /* \"#utility.yul\":5090:5093   */\n      dup4\n        /* \"#utility.yul\":5086:5102   */\n      add\n        /* \"#utility.yul\":5079:5106   */\n      mstore\n        /* \"#utility.yul\":4966:5112   */\n      pop\n      pop\n      pop\n      jump\t// out\n        /* \"#utility.yul\":5118:5543   */\n    tag_408:\n        /* \"#utility.yul\":5196:5201   */\n      0x00\n        /* \"#utility.yul\":5221:5287   */\n      tag_522\n        /* \"#utility.yul\":5237:5286   */\n      tag_523\n        /* \"#utility.yul\":5279:5285   */\n      dup5\n        /* \"#utility.yul\":5237:5286   */\n      tag_406\n      jump\t// in\n    tag_523:\n        /* \"#utility.yul\":5221:5287   */\n      tag_405\n      jump\t// in\n    tag_522:\n        /* \"#utility.yul\":5212:5287   */\n      swap1\n      pop\n        /* \"#utility.yul\":5310:5316   */\n      dup3\n        /* \"#utility.yul\":5303:5308   */\n      dup2\n        /* \"#utility.yul\":5296:5317   */\n      mstore\n        /* \"#utility.yul\":5348:5352   */\n      0x20\n        /* \"#utility.yul\":5341:5346   */\n      dup2\n        /* \"#utility.yul\":5337:5353   */\n      add\n        /* \"#utility.yul\":5386:5389   */\n      dup5\n        /* \"#utility.yul\":5377:5383   */\n      dup5\n        /* \"#utility.yul\":5372:5375   */\n      dup5\n        /* \"#utility.yul\":5368:5384   */\n      add\n        /* \"#utility.yul\":5365:5390   */\n      gt\n        /* \"#utility.yul\":5362:5474   */\n      iszero\n      tag_524\n      jumpi\n        /* \"#utility.yul\":5393:5472   */\n      tag_525\n      tag_402\n      jump\t// in\n    tag_525:\n        /* \"#utility.yul\":5362:5474   */\n    tag_524:\n        /* \"#utility.yul\":5483:5537   */\n      tag_526\n        /* \"#utility.yul\":5530:5536   */\n      dup5\n        /* \"#utility.yul\":5525:5528   */\n      dup3\n        /* \"#utility.yul\":5520:5523   */\n      dup6\n        /* \"#utility.yul\":5483:5537   */\n      tag_407\n      jump\t// in\n    tag_526:\n        /* \"#utility.yul\":5202:5543   */\n      pop\n        /* \"#utility.yul\":5118:5543   */\n      swap4\n      swap3\n      pop\n      pop\n      pop\n      jump\t// out\n        /* \"#utility.yul\":5563:5903   */\n    tag_409:\n        /* \"#utility.yul\":5619:5624   */\n      0x00\n        /* \"#utility.yul\":5668:5671   */\n      dup3\n        /* \"#utility.yul\":5661:5665   */\n      0x1f\n        /* \"#utility.yul\":5653:5659   */\n      dup4\n        /* \"#utility.yul\":5649:5666   */\n      add\n        /* \"#utility.yul\":5645:5672   */\n      slt\n        /* \"#utility.yul\":5635:5757   */\n      tag_528\n      jumpi\n        /* \"#utility.yul\":5676:5755   */\n      tag_529\n      tag_401\n      jump\t// in\n    tag_529:\n        /* \"#utility.yul\":5635:5757   */\n    tag_528:\n        /* \"#utility.yul\":5793:5799   */\n      dup2\n        /* \"#utility.yul\":5780:5800   */\n      calldataload\n        /* \"#utility.yul\":5818:5897   */\n      tag_530\n        /* \"#utility.yul\":5893:5896   */\n      dup5\n        /* \"#utility.yul\":5885:5891   */\n      dup3\n        /* \"#utility.yul\":5878:5882   */\n      0x20\n        /* \"#utility.yul\":5870:5876   */\n      dup7\n        /* \"#utility.yul\":5866:5883   */\n      add\n        /* \"#utility.yul\":5818:5897   */\n      tag_408\n      jump\t// in\n    tag_530:\n        /* \"#utility.yul\":5809:5897   */\n      swap2\n      pop\n        /* \"#utility.yul\":5625:5903   */\n      pop\n        /* \"#utility.yul\":5563:5903   */\n      swap3\n      swap2\n      pop\n      pop\n      jump\t// out\n        /* \"#utility.yul\":5909:6563   */\n    tag_57:\n        /* \"#utility.yul\":5987:5993   */\n      0x00\n        /* \"#utility.yul\":5995:6001   */\n      dup1\n        /* \"#utility.yul\":6044:6046   */\n      0x40\n        /* \"#utility.yul\":6032:6041   */\n      dup4\n        /* \"#utility.yul\":6023:6030   */\n      dup6\n        /* \"#utility.yul\":6019:6042   */\n      sub\n        /* \"#utility.yul\":6015:6047   */\n      slt\n        /* \"#utility.yul\":6012:6131   */\n      iszero\n      tag_532\n      jumpi\n        /* \"#utility.yul\":6050:6129   */\n      tag_533\n      tag_389\n      jump\t// in\n    tag_533:\n        /* \"#utility.yul\":6012:6131   */\n    tag_532:\n        /* \"#utility.yul\":6170:6171   */\n      0x00\n        /* \"#utility.yul\":6195:6248   */\n      tag_534\n        /* \"#utility.yul\":6240:6247   */\n      dup6\n        /* \"#utility.yul\":6231:6237   */\n      dup3\n        /* \"#utility.yul\":6220:6229   */\n      dup7\n        /* \"#utility.yul\":6216:6238   */\n      add\n        /* \"#utility.yul\":6195:6248   */\n      tag_394\n      jump\t// in\n    tag_534:\n        /* \"#utility.yul\":6185:6248   */\n      swap3\n      pop\n        /* \"#utility.yul\":6141:6258   */\n      pop\n        /* \"#utility.yul\":6325:6327   */\n      0x20\n        /* \"#utility.yul\":6314:6323   */\n      dup4\n        /* \"#utility.yul\":6310:6328   */\n      add\n        /* \"#utility.yul\":6297:6329   */\n      calldataload\n        /* \"#utility.yul\":6356:6374   */\n      0xffffffffffffffff\n        /* \"#utility.yul\":6348:6354   */\n      dup2\n        /* \"#utility.yul\":6345:6375   */\n      gt\n        /* \"#utility.yul\":6342:6459   */\n      iszero\n      tag_535\n      jumpi\n        /* \"#utility.yul\":6378:6457   */\n      tag_536\n      tag_390\n      jump\t// in\n    tag_536:\n        /* \"#utility.yul\":6342:6459   */\n    tag_535:\n        /* \"#utility.yul\":6483:6546   */\n      tag_537\n        /* \"#utility.yul\":6538:6545   */\n      dup6\n        /* \"#utility.yul\":6529:6535   */\n      dup3\n        /* \"#utility.yul\":6518:6527   */\n      dup7\n        /* \"#utility.yul\":6514:6536   */\n      add\n        /* \"#utility.yul\":6483:6546   */\n      tag_409\n      jump\t// in\n    tag_537:\n        /* \"#utility.yul\":6473:6546   */\n      swap2\n      pop\n        /* \"#utility.yul\":6268:6556   */\n      pop\n        /* \"#utility.yul\":5909:6563   */\n      swap3\n      pop\n      swap3\n      swap1\n      pop\n      jump\t// out\n        /* \"#utility.yul\":6569:7188   */\n    tag_61:\n        /* \"#utility.yul\":6646:6652   */\n      0x00\n        /* \"#utility.yul\":6654:6660   */\n      dup1\n        /* \"#utility.yul\":6662:6668   */\n      0x00\n        /* \"#utility.yul\":6711:6713   */\n      0x60\n        /* \"#utility.yul\":6699:6708   */\n      dup5\n        /* \"#utility.yul\":6690:6697   */\n      dup7\n        /* \"#utility.yul\":6686:6709   */\n      sub\n        /* \"#utility.yul\":6682:6714   */\n      slt\n        /* \"#utility.yul\":6679:6798   */\n      iszero\n      tag_539\n      jumpi\n        /* \"#utility.yul\":6717:6796   */\n      tag_540\n      tag_389\n      jump\t// in\n    tag_540:\n        /* \"#utility.yul\":6679:6798   */\n    tag_539:\n        /* \"#utility.yul\":6837:6838   */\n      0x00\n        /* \"#utility.yul\":6862:6915   */\n      tag_541\n        /* \"#utility.yul\":6907:6914   */\n      dup7\n        /* \"#utility.yul\":6898:6904   */\n      dup3\n        /* \"#utility.yul\":6887:6896   */\n      dup8\n        /* \"#utility.yul\":6883:6905   */\n      add\n        /* \"#utility.yul\":6862:6915   */\n      tag_394\n      jump\t// in\n    tag_541:\n        /* \"#utility.yul\":6852:6915   */\n      swap4\n      pop\n        /* \"#utility.yul\":6808:6925   */\n      pop\n        /* \"#utility.yul\":6964:6966   */\n      0x20\n        /* \"#utility.yul\":6990:7043   */\n      tag_542\n        /* \"#utility.yul\":7035:7042   */\n      dup7\n        /* \"#utility.yul\":7026:7032   */\n      dup3\n        /* \"#utility.yul\":7015:7024   */\n      dup8\n        /* \"#utility.yul\":7011:7033   */\n      add\n        /* \"#utility.yul\":6990:7043   */\n      tag_394\n      jump\t// in\n    tag_542:\n        /* \"#utility.yul\":6980:7043   */\n      swap3\n      pop\n        /* \"#utility.yul\":6935:7053   */\n      pop\n        /* \"#utility.yul\":7092:7094   */\n      0x40\n        /* \"#utility.yul\":7118:7171   */\n      tag_543\n        /* \"#utility.yul\":7163:7170   */\n      dup7\n        /* \"#utility.yul\":7154:7160   */\n      dup3\n        /* \"#utility.yul\":7143:7152   */\n      dup8\n        /* \"#utility.yul\":7139:7161   */\n      add\n        /* \"#utility.yul\":7118:7171   */\n      tag_397\n      jump\t// in\n    tag_543:\n        /* \"#utility.yul\":7108:7171   */\n      swap2\n      pop\n        /* \"#utility.yul\":7063:7181   */\n      pop\n        /* \"#utility.yul\":6569:7188   */\n      swap3\n      pop\n      swap3\n      pop\n      swap3\n      jump\t// out\n        /* \"#utility.yul\":7194:7280   */\n    tag_410:\n        /* \"#utility.yul\":7229:7236   */\n      0x00\n        /* \"#utility.yul\":7269:7273   */\n      0xff\n        /* \"#utility.yul\":7262:7267   */\n      dup3\n        /* \"#utility.yul\":7258:7274   */\n      and\n        /* \"#utility.yul\":7247:7274   */\n      swap1\n      pop\n        /* \"#utility.yul\":7194:7280   */\n      swap2\n      swap1\n      pop\n      jump\t// out\n        /* \"#utility.yul\":7286:7398   */\n    tag_411:\n        /* \"#utility.yul\":7369:7391   */\n      tag_546\n        /* \"#utility.yul\":7385:7390   */\n      dup2\n        /* \"#utility.yul\":7369:7391   */\n      tag_410\n      jump\t// in\n    tag_546:\n        /* \"#utility.yul\":7364:7367   */\n      dup3\n        /* \"#utility.yul\":7357:7392   */\n      mstore\n        /* \"#utility.yul\":7286:7398   */\n      pop\n      pop\n      jump\t// out\n        /* \"#utility.yul\":7404:7618   */\n    tag_67:\n        /* \"#utility.yul\":7493:7497   */\n      0x00\n        /* \"#utility.yul\":7531:7533   */\n      0x20\n        /* \"#utility.yul\":7520:7529   */\n      dup3\n        /* \"#utility.yul\":7516:7534   */\n      add\n        /* \"#utility.yul\":7508:7534   */\n      swap1\n      pop\n        /* \"#utility.yul\":7544:7611   */\n      tag_548\n        /* \"#utility.yul\":7608:7609   */\n      0x00\n        /* \"#utility.yul\":7597:7606   */\n      dup4\n        /* \"#utility.yul\":7593:7610   */\n      add\n        /* \"#utility.yul\":7584:7590   */\n      dup5\n        /* \"#utility.yul\":7544:7611   */\n      tag_411\n      jump\t// in\n    tag_548:\n        /* \"#utility.yul\":7404:7618   */\n      swap3\n      swap2\n      pop\n      pop\n      jump\t// out\n        /* \"#utility.yul\":7624:7953   */\n    tag_70:\n        /* \"#utility.yul\":7683:7689   */\n      0x00\n        /* \"#utility.yul\":7732:7734   */\n      0x20\n        /* \"#utility.yul\":7720:7729   */\n      dup3\n        /* \"#utility.yul\":7711:7718   */\n      dup5\n        /* \"#utility.yul\":7707:7730   */\n      sub\n        /* \"#utility.yul\":7703:7735   */\n      slt\n        /* \"#utility.yul\":7700:7819   */\n      iszero\n      tag_550\n      jumpi\n        /* \"#utility.yul\":7738:7817   */\n      tag_551\n      tag_389\n      jump\t// in\n    tag_551:\n        /* \"#utility.yul\":7700:7819   */\n    tag_550:\n        /* \"#utility.yul\":7858:7859   */\n      0x00\n        /* \"#utility.yul\":7883:7936   */\n      tag_552\n        /* \"#utility.yul\":7928:7935   */\n      dup5\n        /* \"#utility.yul\":7919:7925   */\n      dup3\n        /* \"#utility.yul\":7908:7917   */\n      dup6\n        /* \"#utility.yul\":7904:7926   */\n      add\n        /* \"#utility.yul\":7883:7936   */\n      tag_394\n      jump\t// in\n    tag_552:\n        /* \"#utility.yul\":7873:7936   */\n      swap2\n      pop\n        /* \"#utility.yul\":7829:7946   */\n      pop\n        /* \"#utility.yul\":7624:7953   */\n      swap3\n      swap2\n      pop\n      pop\n      jump\t// out\n        /* \"#utility.yul\":7959:8288   */\n    tag_80:\n        /* \"#utility.yul\":8018:8024   */\n      0x00\n        /* \"#utility.yul\":8067:8069   */\n      0x20\n        /* \"#utility.yul\":8055:8064   */\n      dup3\n        /* \"#utility.yul\":8046:8053   */\n      dup5\n        /* \"#utility.yul\":8042:8065   */\n      sub\n        /* \"#utility.yul\":8038:8070   */\n      slt\n        /* \"#utility.yul\":8035:8154   */\n      iszero\n      tag_554\n      jumpi\n        /* \"#utility.yul\":8073:8152   */\n      tag_555\n      tag_389\n      jump\t// in\n    tag_555:\n        /* \"#utility.yul\":8035:8154   */\n    tag_554:\n        /* \"#utility.yul\":8193:8194   */\n      0x00\n        /* \"#utility.yul\":8218:8271   */\n      tag_556\n        /* \"#utility.yul\":8263:8270   */\n      dup5\n        /* \"#utility.yul\":8254:8260   */\n      dup3\n        /* \"#utility.yul\":8243:8252   */\n      dup6\n        /* \"#utility.yul\":8239:8261   */\n      add\n        /* \"#utility.yul\":8218:8271   */\n      tag_397\n      jump\t// in\n    tag_556:\n        /* \"#utility.yul\":8208:8271   */\n      swap2\n      pop\n        /* \"#utility.yul\":8164:8281   */\n      pop\n        /* \"#utility.yul\":7959:8288   */\n      swap3\n      swap2\n      pop\n      pop\n      jump\t// out\n        /* \"#utility.yul\":8294:8803   */\n    tag_95:\n        /* \"#utility.yul\":8363:8369   */\n      0x00\n        /* \"#utility.yul\":8412:8414   */\n      0x20\n        /* \"#utility.yul\":8400:8409   */\n      dup3\n        /* \"#utility.yul\":8391:8398   */\n      dup5\n        /* \"#utility.yul\":8387:8410   */\n      sub\n        /* \"#utility.yul\":8383:8415   */\n      slt\n        /* \"#utility.yul\":8380:8499   */\n      iszero\n      tag_558\n      jumpi\n        /* \"#utility.yul\":8418:8497   */\n      tag_559\n      tag_389\n      jump\t// in\n    tag_559:\n        /* \"#utility.yul\":8380:8499   */\n    tag_558:\n        /* \"#utility.yul\":8566:8567   */\n      0x00\n        /* \"#utility.yul\":8555:8564   */\n      dup3\n        /* \"#utility.yul\":8551:8568   */\n      add\n        /* \"#utility.yul\":8538:8569   */\n      calldataload\n        /* \"#utility.yul\":8596:8614   */\n      0xffffffffffffffff\n        /* \"#utility.yul\":8588:8594   */\n      dup2\n        /* \"#utility.yul\":8585:8615   */\n      gt\n        /* \"#utility.yul\":8582:8699   */\n      iszero\n      tag_560\n      jumpi\n        /* \"#utility.yul\":8618:8697   */\n      tag_561\n      tag_390\n      jump\t// in\n    tag_561:\n        /* \"#utility.yul\":8582:8699   */\n    tag_560:\n        /* \"#utility.yul\":8723:8786   */\n      tag_562\n        /* \"#utility.yul\":8778:8785   */\n      dup5\n        /* \"#utility.yul\":8769:8775   */\n      dup3\n        /* \"#utility.yul\":8758:8767   */\n      dup6\n        /* \"#utility.yul\":8754:8776   */\n      add\n        /* \"#utility.yul\":8723:8786   */\n      tag_409\n      jump\t// in\n    tag_562:\n        /* \"#utility.yul\":8713:8786   */\n      swap2\n      pop\n        /* \"#utility.yul\":8509:8796   */\n      pop\n        /* \"#utility.yul\":8294:8803   */\n      swap3\n      swap2\n      pop\n      pop\n      jump\t// out\n        /* \"#utility.yul\":8809:8927   */\n    tag_412:\n        /* \"#utility.yul\":8896:8920   */\n      tag_564\n        /* \"#utility.yul\":8914:8919   */\n      dup2\n        /* \"#utility.yul\":8896:8920   */\n      tag_392\n      jump\t// in\n    tag_564:\n        /* \"#utility.yul\":8891:8894   */\n      dup3\n        /* \"#utility.yul\":8884:8921   */\n      mstore\n        /* \"#utility.yul\":8809:8927   */\n      pop\n      pop\n      jump\t// out\n        /* \"#utility.yul\":8933:9155   */\n    tag_120:\n        /* \"#utility.yul\":9026:9030   */\n      0x00\n        /* \"#utility.yul\":9064:9066   */\n      0x20\n        /* \"#utility.yul\":9053:9062   */\n      dup3\n        /* \"#utility.yul\":9049:9067   */\n      add\n        /* \"#utility.yul\":9041:9067   */\n      swap1\n      pop\n        /* \"#utility.yul\":9077:9148   */\n      tag_566\n        /* \"#utility.yul\":9145:9146   */\n      0x00\n        /* \"#utility.yul\":9134:9143   */\n      dup4\n        /* \"#utility.yul\":9130:9147   */\n      add\n        /* \"#utility.yul\":9121:9127   */\n      dup5\n        /* \"#utility.yul\":9077:9148   */\n      tag_412\n      jump\t// in\n    tag_566:\n        /* \"#utility.yul\":8933:9155   */\n      swap3\n      swap2\n      pop\n      pop\n      jump\t// out\n        /* \"#utility.yul\":9161:10286   */\n    tag_136:\n        /* \"#utility.yul\":9267:9273   */\n      0x00\n        /* \"#utility.yul\":9275:9281   */\n      dup1\n        /* \"#utility.yul\":9283:9289   */\n      0x00\n        /* \"#utility.yul\":9291:9297   */\n      dup1\n        /* \"#utility.yul\":9340:9343   */\n      0x80\n        /* \"#utility.yul\":9328:9337   */\n      dup6\n        /* \"#utility.yul\":9319:9326   */\n      dup8\n        /* \"#utility.yul\":9315:9338   */\n      sub\n        /* \"#utility.yul\":9311:9344   */\n      slt\n        /* \"#utility.yul\":9308:9428   */\n      iszero\n      tag_568\n      jumpi\n        /* \"#utility.yul\":9347:9426   */\n      tag_569\n      tag_389\n      jump\t// in\n    tag_569:\n        /* \"#utility.yul\":9308:9428   */\n    tag_568:\n        /* \"#utility.yul\":9495:9496   */\n      0x00\n        /* \"#utility.yul\":9484:9493   */\n      dup6\n        /* \"#utility.yul\":9480:9497   */\n      add\n        /* \"#utility.yul\":9467:9498   */\n      calldataload\n        /* \"#utility.yul\":9525:9543   */\n      0xffffffffffffffff\n        /* \"#utility.yul\":9517:9523   */\n      dup2\n        /* \"#utility.yul\":9514:9544   */\n      gt\n        /* \"#utility.yul\":9511:9628   */\n      iszero\n      tag_570\n      jumpi\n        /* \"#utility.yul\":9547:9626   */\n      tag_571\n      tag_390\n      jump\t// in\n    tag_571:\n        /* \"#utility.yul\":9511:9628   */\n    tag_570:\n        /* \"#utility.yul\":9652:9715   */\n      tag_572\n        /* \"#utility.yul\":9707:9714   */\n      dup8\n        /* \"#utility.yul\":9698:9704   */\n      dup3\n        /* \"#utility.yul\":9687:9696   */\n      dup9\n        /* \"#utility.yul\":9683:9705   */\n      add\n        /* \"#utility.yul\":9652:9715   */\n      tag_409\n      jump\t// in\n    tag_572:\n        /* \"#utility.yul\":9642:9715   */\n      swap5\n      pop\n        /* \"#utility.yul\":9438:9725   */\n      pop\n        /* \"#utility.yul\":9792:9794   */\n      0x20\n        /* \"#utility.yul\":9781:9790   */\n      dup6\n        /* \"#utility.yul\":9777:9795   */\n      add\n        /* \"#utility.yul\":9764:9796   */\n      calldataload\n        /* \"#utility.yul\":9823:9841   */\n      0xffffffffffffffff\n        /* \"#utility.yul\":9815:9821   */\n      dup2\n        /* \"#utility.yul\":9812:9842   */\n      gt\n        /* \"#utility.yul\":9809:9926   */\n      iszero\n      tag_573\n      jumpi\n        /* \"#utility.yul\":9845:9924   */\n      tag_574\n      tag_390\n      jump\t// in\n    tag_574:\n        /* \"#utility.yul\":9809:9926   */\n    tag_573:\n        /* \"#utility.yul\":9950:10013   */\n      tag_575\n        /* \"#utility.yul\":10005:10012   */\n      dup8\n        /* \"#utility.yul\":9996:10002   */\n      dup3\n        /* \"#utility.yul\":9985:9994   */\n      dup9\n        /* \"#utility.yul\":9981:10003   */\n      add\n        /* \"#utility.yul\":9950:10013   */\n      tag_409\n      jump\t// in\n    tag_575:\n        /* \"#utility.yul\":9940:10013   */\n      swap4\n      pop\n        /* \"#utility.yul\":9735:10023   */\n      pop\n        /* \"#utility.yul\":10062:10064   */\n      0x40\n        /* \"#utility.yul\":10088:10141   */\n      tag_576\n        /* \"#utility.yul\":10133:10140   */\n      dup8\n        /* \"#utility.yul\":10124:10130   */\n      dup3\n        /* \"#utility.yul\":10113:10122   */\n      dup9\n        /* \"#utility.yul\":10109:10131   */\n      add\n        /* \"#utility.yul\":10088:10141   */\n      tag_397\n      jump\t// in\n    tag_576:\n        /* \"#utility.yul\":10078:10141   */\n      swap3\n      pop\n        /* \"#utility.yul\":10033:10151   */\n      pop\n        /* \"#utility.yul\":10190:10192   */\n      0x60\n        /* \"#utility.yul\":10216:10269   */\n      tag_577\n        /* \"#utility.yul\":10261:10268   */\n      dup8\n        /* \"#utility.yul\":10252:10258   */\n      dup3\n        /* \"#utility.yul\":10241:10250   */\n      dup9\n        /* \"#utility.yul\":10237:10259   */\n      add\n        /* \"#utility.yul\":10216:10269   */\n      tag_394\n      jump\t// in\n    tag_577:\n        /* \"#utility.yul\":10206:10269   */\n      swap2\n      pop\n        /* \"#utility.yul\":10161:10279   */\n      pop\n        /* \"#utility.yul\":9161:10286   */\n      swap3\n      swap6\n      swap2\n      swap5\n      pop\n      swap3\n      pop\n      jump\t// out\n        /* \"#utility.yul\":10292:10946   */\n    tag_144:\n        /* \"#utility.yul\":10370:10376   */\n      0x00\n        /* \"#utility.yul\":10378:10384   */\n      dup1\n        /* \"#utility.yul\":10427:10429   */\n      0x40\n        /* \"#utility.yul\":10415:10424   */\n      dup4\n        /* \"#utility.yul\":10406:10413   */\n      dup6\n        /* \"#utility.yul\":10402:10425   */\n      sub\n        /* \"#utility.yul\":10398:10430   */\n      slt\n        /* \"#utility.yul\":10395:10514   */\n      iszero\n      tag_579\n      jumpi\n        /* \"#utility.yul\":10433:10512   */\n      tag_580\n      tag_389\n      jump\t// in\n    tag_580:\n        /* \"#utility.yul\":10395:10514   */\n    tag_579:\n        /* \"#utility.yul\":10581:10582   */\n      0x00\n        /* \"#utility.yul\":10570:10579   */\n      dup4\n        /* \"#utility.yul\":10566:10583   */\n      add\n        /* \"#utility.yul\":10553:10584   */\n      calldataload\n        /* \"#utility.yul\":10611:10629   */\n      0xffffffffffffffff\n        /* \"#utility.yul\":10603:10609   */\n      dup2\n        /* \"#utility.yul\":10600:10630   */\n      gt\n        /* \"#utility.yul\":10597:10714   */\n      iszero\n      tag_581\n      jumpi\n        /* \"#utility.yul\":10633:10712   */\n      tag_582\n      tag_390\n      jump\t// in\n    tag_582:\n        /* \"#utility.yul\":10597:10714   */\n    tag_581:\n        /* \"#utility.yul\":10738:10801   */\n      tag_583\n        /* \"#utility.yul\":10793:10800   */\n      dup6\n        /* \"#utility.yul\":10784:10790   */\n      dup3\n        /* \"#utility.yul\":10773:10782   */\n      dup7\n        /* \"#utility.yul\":10769:10791   */\n      add\n        /* \"#utility.yul\":10738:10801   */\n      tag_409\n      jump\t// in\n    tag_583:\n        /* \"#utility.yul\":10728:10801   */\n      swap3\n      pop\n        /* \"#utility.yul\":10524:10811   */\n      pop\n        /* \"#utility.yul\":10850:10852   */\n      0x20\n        /* \"#utility.yul\":10876:10929   */\n      tag_584\n        /* \"#utility.yul\":10921:10928   */\n      dup6\n        /* \"#utility.yul\":10912:10918   */\n      dup3\n        /* \"#utility.yul\":10901:10910   */\n      dup7\n        /* \"#utility.yul\":10897:10919   */\n      add\n        /* \"#utility.yul\":10876:10929   */\n      tag_397\n      jump\t// in\n    tag_584:\n        /* \"#utility.yul\":10866:10929   */\n      swap2\n      pop\n        /* \"#utility.yul\":10821:10939   */\n      pop\n        /* \"#utility.yul\":10292:10946   */\n      swap3\n      pop\n      swap3\n      swap1\n      pop\n      jump\t// out\n        /* \"#utility.yul\":10952:11426   */\n    tag_148:\n        /* \"#utility.yul\":11020:11026   */\n      0x00\n        /* \"#utility.yul\":11028:11034   */\n      dup1\n        /* \"#utility.yul\":11077:11079   */\n      0x40\n        /* \"#utility.yul\":11065:11074   */\n      dup4\n        /* \"#utility.yul\":11056:11063   */\n      dup6\n        /* \"#utility.yul\":11052:11075   */\n      sub\n        /* \"#utility.yul\":11048:11080   */\n      slt\n        /* \"#utility.yul\":11045:11164   */\n      iszero\n      tag_586\n      jumpi\n        /* \"#utility.yul\":11083:11162   */\n      tag_587\n      tag_389\n      jump\t// in\n    tag_587:\n        /* \"#utility.yul\":11045:11164   */\n    tag_586:\n        /* \"#utility.yul\":11203:11204   */\n      0x00\n        /* \"#utility.yul\":11228:11281   */\n      tag_588\n        /* \"#utility.yul\":11273:11280   */\n      dup6\n        /* \"#utility.yul\":11264:11270   */\n      dup3\n        /* \"#utility.yul\":11253:11262   */\n      dup7\n        /* \"#utility.yul\":11249:11271   */\n      add\n        /* \"#utility.yul\":11228:11281   */\n      tag_394\n      jump\t// in\n    tag_588:\n        /* \"#utility.yul\":11218:11281   */\n      swap3\n      pop\n        /* \"#utility.yul\":11174:11291   */\n      pop\n        /* \"#utility.yul\":11330:11332   */\n      0x20\n        /* \"#utility.yul\":11356:11409   */\n      tag_589\n        /* \"#utility.yul\":11401:11408   */\n      dup6\n        /* \"#utility.yul\":11392:11398   */\n      dup3\n        /* \"#utility.yul\":11381:11390   */\n      dup7\n        /* \"#utility.yul\":11377:11399   */\n      add\n        /* \"#utility.yul\":11356:11409   */\n      tag_394\n      jump\t// in\n    tag_589:\n        /* \"#utility.yul\":11346:11409   */\n      swap2\n      pop\n        /* \"#utility.yul\":11301:11419   */\n      pop\n        /* \"#utility.yul\":10952:11426   */\n      swap3\n      pop\n      swap3\n      swap1\n      pop\n      jump\t// out\n        /* \"#utility.yul\":11432:12051   */\n    tag_153:\n        /* \"#utility.yul\":11509:11515   */\n      0x00\n        /* \"#utility.yul\":11517:11523   */\n      dup1\n        /* \"#utility.yul\":11525:11531   */\n      0x00\n        /* \"#utility.yul\":11574:11576   */\n      0x60\n        /* \"#utility.yul\":11562:11571   */\n      dup5\n        /* \"#utility.yul\":11553:11560   */\n      dup7\n        /* \"#utility.yul\":11549:11572   */\n      sub\n        /* \"#utility.yul\":11545:11577   */\n      slt\n        /* \"#utility.yul\":11542:11661   */\n      iszero\n      tag_591\n      jumpi\n        /* \"#utility.yul\":11580:11659   */\n      tag_592\n      tag_389\n      jump\t// in\n    tag_592:\n        /* \"#utility.yul\":11542:11661   */\n    tag_591:\n        /* \"#utility.yul\":11700:11701   */\n      0x00\n        /* \"#utility.yul\":11725:11778   */\n      tag_593\n        /* \"#utility.yul\":11770:11777   */\n      dup7\n        /* \"#utility.yul\":11761:11767   */\n      dup3\n        /* \"#utility.yul\":11750:11759   */\n      dup8\n        /* \"#utility.yul\":11746:11768   */\n      add\n        /* \"#utility.yul\":11725:11778   */\n      tag_394\n      jump\t// in\n    tag_593:\n        /* \"#utility.yul\":11715:11778   */\n      swap4\n      pop\n        /* \"#utility.yul\":11671:11788   */\n      pop\n        /* \"#utility.yul\":11827:11829   */\n      0x20\n        /* \"#utility.yul\":11853:11906   */\n      tag_594\n        /* \"#utility.yul\":11898:11905   */\n      dup7\n        /* \"#utility.yul\":11889:11895   */\n      dup3\n        /* \"#utility.yul\":11878:11887   */\n      dup8\n        /* \"#utility.yul\":11874:11896   */\n      add\n        /* \"#utility.yul\":11853:11906   */\n      tag_397\n      jump\t// in\n    tag_594:\n        /* \"#utility.yul\":11843:11906   */\n      swap3\n      pop\n        /* \"#utility.yul\":11798:11916   */\n      pop\n        /* \"#utility.yul\":11955:11957   */\n      0x40\n        /* \"#utility.yul\":11981:12034   */\n      tag_595\n        /* \"#utility.yul\":12026:12033   */\n      dup7\n        /* \"#utility.yul\":12017:12023   */\n      dup3\n        /* \"#utility.yul\":12006:12015   */\n      dup8\n        /* \"#utility.yul\":12002:12024   */\n      add\n        /* \"#utility.yul\":11981:12034   */\n      tag_394\n      jump\t// in\n    tag_595:\n        /* \"#utility.yul\":11971:12034   */\n      swap2\n      pop\n        /* \"#utility.yul\":11926:12044   */\n      pop\n        /* \"#utility.yul\":11432:12051   */\n      swap3\n      pop\n      swap3\n      pop\n      swap3\n      jump\t// out\n        /* \"#utility.yul\":12057:12237   */\n    tag_413:\n        /* \"#utility.yul\":12105:12182   */\n      0x4e487b7100000000000000000000000000000000000000000000000000000000\n        /* \"#utility.yul\":12102:12103   */\n      0x00\n        /* \"#utility.yul\":12095:12183   */\n      mstore\n        /* \"#utility.yul\":12202:12206   */\n      0x22\n        /* \"#utility.yul\":12199:12200   */\n      0x04\n        /* \"#utility.yul\":12192:12207   */\n      mstore\n        /* \"#utility.yul\":12226:12230   */\n      0x24\n        /* \"#utility.yul\":12223:12224   */\n      0x00\n        /* \"#utility.yul\":12216:12231   */\n      revert\n        /* \"#utility.yul\":12243:12563   */\n    tag_160:\n        /* \"#utility.yul\":12287:12293   */\n      0x00\n        /* \"#utility.yul\":12324:12325   */\n      0x02\n        /* \"#utility.yul\":12318:12322   */\n      dup3\n        /* \"#utility.yul\":12314:12326   */\n      div\n        /* \"#utility.yul\":12304:12326   */\n      swap1\n      pop\n        /* \"#utility.yul\":12371:12372   */\n      0x01\n        /* \"#utility.yul\":12365:12369   */\n      dup3\n        /* \"#utility.yul\":12361:12373   */\n      and\n        /* \"#utility.yul\":12392:12410   */\n      dup1\n        /* \"#utility.yul\":12382:12463   */\n      tag_598\n      jumpi\n        /* \"#utility.yul\":12448:12452   */\n      0x7f\n        /* \"#utility.yul\":12440:12446   */\n      dup3\n        /* \"#utility.yul\":12436:12453   */\n      and\n        /* \"#utility.yul\":12426:12453   */\n      swap2\n      pop\n        /* \"#utility.yul\":12382:12463   */\n    tag_598:\n        /* \"#utility.yul\":12510:12512   */\n      0x20\n        /* \"#utility.yul\":12502:12508   */\n      dup3\n        /* \"#utility.yul\":12499:12513   */\n      lt\n        /* \"#utility.yul\":12479:12497   */\n      dup2\n        /* \"#utility.yul\":12476:12514   */\n      sub\n        /* \"#utility.yul\":12473:12557   */\n      tag_599\n      jumpi\n        /* \"#utility.yul\":12529:12547   */\n      tag_600\n      tag_413\n      jump\t// in\n    tag_600:\n        /* \"#utility.yul\":12473:12557   */\n    tag_599:\n        /* \"#utility.yul\":12294:12563   */\n      pop\n        /* \"#utility.yul\":12243:12563   */\n      swap2\n      swap1\n      pop\n      jump\t// out\n        /* \"#utility.yul\":12569:12746   */\n    tag_414:\n        /* \"#utility.yul\":12709:12738   */\n      0x496e76616c69642062656e656669636961727920616464726573730000000000\n        /* \"#utility.yul\":12705:12706   */\n      0x00\n        /* \"#utility.yul\":12697:12703   */\n      dup3\n        /* \"#utility.yul\":12693:12707   */\n      add\n        /* \"#utility.yul\":12686:12739   */\n      mstore\n        /* \"#utility.yul\":12569:12746   */\n      pop\n      jump\t// out\n        /* \"#utility.yul\":12752:13118   */\n    tag_415:\n        /* \"#utility.yul\":12894:12897   */\n      0x00\n        /* \"#utility.yul\":12915:12982   */\n      tag_603\n        /* \"#utility.yul\":12979:12981   */\n      0x1b\n        /* \"#utility.yul\":12974:12977   */\n      dup4\n        /* \"#utility.yul\":12915:12982   */\n      tag_384\n      jump\t// in\n    tag_603:\n        /* \"#utility.yul\":12908:12982   */\n      swap2\n      pop\n        /* \"#utility.yul\":12991:13084   */\n      tag_604\n        /* \"#utility.yul\":13080:13083   */\n      dup3\n        /* \"#utility.yul\":12991:13084   */\n      tag_414\n      jump\t// in\n    tag_604:\n        /* \"#utility.yul\":13109:13111   */\n      0x20\n        /* \"#utility.yul\":13104:13107   */\n      dup3\n        /* \"#utility.yul\":13100:13112   */\n      add\n        /* \"#utility.yul\":13093:13112   */\n      swap1\n      pop\n        /* \"#utility.yul\":12752:13118   */\n      swap2\n      swap1\n      pop\n      jump\t// out\n        /* \"#utility.yul\":13124:13543   */\n    tag_177:\n        /* \"#utility.yul\":13290:13294   */\n      0x00\n        /* \"#utility.yul\":13328:13330   */\n      0x20\n        /* \"#utility.yul\":13317:13326   */\n      dup3\n        /* \"#utility.yul\":13313:13331   */\n      add\n        /* \"#utility.yul\":13305:13331   */\n      swap1\n      pop\n        /* \"#utility.yul\":13377:13386   */\n      dup2\n        /* \"#utility.yul\":13371:13375   */\n      dup2\n        /* \"#utility.yul\":13367:13387   */\n      sub\n        /* \"#utility.yul\":13363:13364   */\n      0x00\n        /* \"#utility.yul\":13352:13361   */\n      dup4\n        /* \"#utility.yul\":13348:13365   */\n      add\n        /* \"#utility.yul\":13341:13388   */\n      mstore\n        /* \"#utility.yul\":13405:13536   */\n      tag_606\n        /* \"#utility.yul\":13531:13535   */\n      dup2\n        /* \"#utility.yul\":13405:13536   */\n      tag_415\n      jump\t// in\n    tag_606:\n        /* \"#utility.yul\":13397:13536   */\n      swap1\n      pop\n        /* \"#utility.yul\":13124:13543   */\n      swap2\n      swap1\n      pop\n      jump\t// out\n        /* \"#utility.yul\":13549:13723   */\n    tag_416:\n        /* \"#utility.yul\":13689:13715   */\n      0x43617465676f72792063616e6e6f7420626520656d7074790000000000000000\n        /* \"#utility.yul\":13685:13686   */\n      0x00\n        /* \"#utility.yul\":13677:13683   */\n      dup3\n        /* \"#utility.yul\":13673:13687   */\n      add\n        /* \"#utility.yul\":13666:13716   */\n      mstore\n        /* \"#utility.yul\":13549:13723   */\n      pop\n      jump\t// out\n        /* \"#utility.yul\":13729:14095   */\n    tag_417:\n        /* \"#utility.yul\":13871:13874   */\n      0x00\n        /* \"#utility.yul\":13892:13959   */\n      tag_609\n        /* \"#utility.yul\":13956:13958   */\n      0x18\n        /* \"#utility.yul\":13951:13954   */\n      dup4\n        /* \"#utility.yul\":13892:13959   */\n      tag_384\n      jump\t// in\n    tag_609:\n        /* \"#utility.yul\":13885:13959   */\n      swap2\n      pop\n        /* \"#utility.yul\":13968:14061   */\n      tag_610\n        /* \"#utility.yul\":14057:14060   */\n      dup3\n        /* \"#utility.yul\":13968:14061   */\n      tag_416\n      jump\t// in\n    tag_610:\n        /* \"#utility.yul\":14086:14088   */\n      0x20\n        /* \"#utility.yul\":14081:14084   */\n      dup3\n        /* \"#utility.yul\":14077:14089   */\n      add\n        /* \"#utility.yul\":14070:14089   */\n      swap1\n      pop\n        /* \"#utility.yul\":13729:14095   */\n      swap2\n      swap1\n      pop\n      jump\t// out\n        /* \"#utility.yul\":14101:14520   */\n    tag_180:\n        /* \"#utility.yul\":14267:14271   */\n      0x00\n        /* \"#utility.yul\":14305:14307   */\n      0x20\n        /* \"#utility.yul\":14294:14303   */\n      dup3\n        /* \"#utility.yul\":14290:14308   */\n      add\n        /* \"#utility.yul\":14282:14308   */\n      swap1\n      pop\n        /* \"#utility.yul\":14354:14363   */\n      dup2\n        /* \"#utility.yul\":14348:14352   */\n      dup2\n        /* \"#utility.yul\":14344:14364   */\n      sub\n        /* \"#utility.yul\":14340:14341   */\n      0x00\n        /* \"#utility.yul\":14329:14338   */\n      dup4\n        /* \"#utility.yul\":14325:14342   */\n      add\n        /* \"#utility.yul\":14318:14365   */\n      mstore\n        /* \"#utility.yul\":14382:14513   */\n      tag_612\n        /* \"#utility.yul\":14508:14512   */\n      dup2\n        /* \"#utility.yul\":14382:14513   */\n      tag_417\n      jump\t// in\n    tag_612:\n        /* \"#utility.yul\":14374:14513   */\n      swap1\n      pop\n        /* \"#utility.yul\":14101:14520   */\n      swap2\n      swap1\n      pop\n      jump\t// out\n        /* \"#utility.yul\":14526:14667   */\n    tag_418:\n        /* \"#utility.yul\":14575:14579   */\n      0x00\n        /* \"#utility.yul\":14598:14601   */\n      dup2\n        /* \"#utility.yul\":14590:14601   */\n      swap1\n      pop\n        /* \"#utility.yul\":14621:14624   */\n      dup2\n        /* \"#utility.yul\":14618:14619   */\n      0x00\n        /* \"#utility.yul\":14611:14625   */\n      mstore\n        /* \"#utility.yul\":14655:14659   */\n      0x20\n        /* \"#utility.yul\":14652:14653   */\n      0x00\n        /* \"#utility.yul\":14642:14660   */\n      keccak256\n        /* \"#utility.yul\":14634:14660   */\n      swap1\n      pop\n        /* \"#utility.yul\":14526:14667   */\n      swap2\n      swap1\n      pop\n      jump\t// out\n        /* \"#utility.yul\":14673:14766   */\n    tag_419:\n        /* \"#utility.yul\":14710:14716   */\n      0x00\n        /* \"#utility.yul\":14757:14759   */\n      0x20\n        /* \"#utility.yul\":14752:14754   */\n      0x1f\n        /* \"#utility.yul\":14745:14750   */\n      dup4\n        /* \"#utility.yul\":14741:14755   */\n      add\n        /* \"#utility.yul\":14737:14760   */\n      div\n        /* \"#utility.yul\":14727:14760   */\n      swap1\n      pop\n        /* \"#utility.yul\":14673:14766   */\n      swap2\n      swap1\n      pop\n      jump\t// out\n        /* \"#utility.yul\":14772:14879   */\n    tag_420:\n        /* \"#utility.yul\":14816:14824   */\n      0x00\n        /* \"#utility.yul\":14866:14871   */\n      dup3\n        /* \"#utility.yul\":14860:14864   */\n      dup3\n        /* \"#utility.yul\":14856:14872   */\n      shl\n        /* \"#utility.yul\":14835:14872   */\n      swap1\n      pop\n        /* \"#utility.yul\":14772:14879   */\n      swap3\n      swap2\n      pop\n      pop\n      jump\t// out\n        /* \"#utility.yul\":14885:15278   */\n    tag_421:\n        /* \"#utility.yul\":14954:14960   */\n      0x00\n        /* \"#utility.yul\":15004:15005   */\n      0x08\n        /* \"#utility.yul\":14992:15002   */\n      dup4\n        /* \"#utility.yul\":14988:15006   */\n      mul\n        /* \"#utility.yul\":15027:15124   */\n      tag_617\n        /* \"#utility.yul\":15057:15123   */\n      0xffffffffffffffffffffffffffffffffffffffffffffffffffffffffffffffff\n        /* \"#utility.yul\":15046:15055   */\n      dup3\n        /* \"#utility.yul\":15027:15124   */\n      tag_420\n      jump\t// in\n    tag_617:\n        /* \"#utility.yul\":15145:15184   */\n      tag_618\n        /* \"#utility.yul\":15175:15183   */\n      dup7\n        /* \"#utility.yul\":15164:15173   */\n      dup4\n        /* \"#utility.yul\":15145:15184   */\n      tag_420\n      jump\t// in\n    tag_618:\n        /* \"#utility.yul\":15133:15184   */\n      swap6\n      pop\n        /* \"#utility.yul\":15217:15221   */\n      dup1\n        /* \"#utility.yul\":15213:15222   */\n      not\n        /* \"#utility.yul\":15206:15211   */\n      dup5\n        /* \"#utility.yul\":15202:15223   */\n      and\n        /* \"#utility.yul\":15193:15223   */\n      swap4\n      pop\n        /* \"#utility.yul\":15266:15270   */\n      dup1\n        /* \"#utility.yul\":15256:15264   */\n      dup7\n        /* \"#utility.yul\":15252:15271   */\n      and\n        /* \"#utility.yul\":15245:15250   */\n      dup5\n        /* \"#utility.yul\":15242:15272   */\n      or\n        /* \"#utility.yul\":15232:15272   */\n      swap3\n      pop\n        /* \"#utility.yul\":14961:15278   */\n      pop\n      pop\n        /* \"#utility.yul\":14885:15278   */\n      swap4\n      swap3\n      pop\n      pop\n      pop\n      jump\t// out\n        /* \"#utility.yul\":15284:15344   */\n    tag_422:\n        /* \"#utility.yul\":15312:15315   */\n      0x00\n        /* \"#utility.yul\":15333:15338   */\n      dup2\n        /* \"#utility.yul\":15326:15338   */\n      swap1\n      pop\n        /* \"#utility.yul\":15284:15344   */\n      swap2\n      swap1\n      pop\n      jump\t// out\n        /* \"#utility.yul\":15350:15492   */\n    tag_423:\n        /* \"#utility.yul\":15400:15409   */\n      0x00\n        /* \"#utility.yul\":15433:15486   */\n      tag_621\n        /* \"#utility.yul\":15451:15485   */\n      tag_622\n        /* \"#utility.yul\":15460:15484   */\n      tag_623\n        /* \"#utility.yul\":15478:15483   */\n      dup5\n        /* \"#utility.yul\":15460:15484   */\n      tag_395\n      jump\t// in\n    tag_623:\n        /* \"#utility.yul\":15451:15485   */\n      tag_422\n      jump\t// in\n    tag_622:\n        /* \"#utility.yul\":15433:15486   */\n      tag_395\n      jump\t// in\n    tag_621:\n        /* \"#utility.yul\":15420:15486   */\n      swap1\n      pop\n        /* \"#utility.yul\":15350:15492   */\n      swap2\n      swap1\n      pop\n      jump\t// out\n        /* \"#utility.yul\":15498:15573   */\n    tag_424:\n        /* \"#utility.yul\":15541:15544   */\n      0x00\n        /* \"#utility.yul\":15562:15567   */\n      dup2\n        /* \"#utility.yul\":15555:15567   */\n      swap1\n      pop\n        /* \"#utility.yul\":15498:15573   */\n      swap2\n      swap1\n      pop\n      jump\t// out\n        /* \"#utility.yul\":15579:15848   */\n    tag_425:\n        /* \"#utility.yul\":15689:15728   */\n      tag_626\n        /* \"#utility.yul\":15720:15727   */\n      dup4\n        /* \"#utility.yul\":15689:15728   */\n      tag_423\n      jump\t// in\n    tag_626:\n        /* \"#utility.yul\":15750:15841   */\n      tag_627\n        /* \"#utility.yul\":15799:15840   */\n      tag_628\n        /* \"#utility.yul\":15823:15839   */\n      dup3\n        /* \"#utility.yul\":15799:15840   */\n      tag_424\n      jump\t// in\n    tag_628:\n        /* \"#utility.yul\":15791:15797   */\n      dup5\n        /* \"#utility.yul\":15784:15788   */\n      dup5\n        /* \"#utility.yul\":15778:15789   */\n      sload\n        /* \"#utility.yul\":15750:15841   */\n      tag_421\n      jump\t// in\n    tag_627:\n        /* \"#utility.yul\":15744:15748   */\n      dup3\n        /* \"#utility.yul\":15737:15842   */\n      sstore\n        /* \"#utility.yul\":15655:15848   */\n      pop\n        /* \"#utility.yul\":15579:15848   */\n      pop\n      pop\n      pop\n      jump\t// out\n        /* \"#utility.yul\":15854:15927   */\n    tag_426:\n        /* \"#utility.yul\":15899:15902   */\n      0x00\n        /* \"#utility.yul\":15854:15927   */\n      swap1\n      jump\t// out\n        /* \"#utility.yul\":15933:16122   */\n    tag_427:\n        /* \"#utility.yul\":16010:16042   */\n      tag_631\n      tag_426\n      jump\t// in\n    tag_631:\n        /* \"#utility.yul\":16051:16116   */\n      tag_632\n        /* \"#utility.yul\":16109:16115   */\n      dup2\n        /* \"#utility.yul\":16101:16107   */\n      dup5\n        /* \"#utility.yul\":16095:16099   */\n      dup5\n        /* \"#utility.yul\":16051:16116   */\n      tag_425\n      jump\t// in\n    tag_632:\n        /* \"#utility.yul\":15986:16122   */\n      pop\n        /* \"#utility.yul\":15933:16122   */\n      pop\n      pop\n      jump\t// out\n        /* \"#utility.yul\":16128:16314   */\n    tag_428:\n        /* \"#utility.yul\":16188:16308   */\n    tag_634:\n        /* \"#utility.yul\":16205:16208   */\n      dup2\n        /* \"#utility.yul\":16198:16203   */\n      dup2\n        /* \"#utility.yul\":16195:16209   */\n      lt\n        /* \"#utility.yul\":16188:16308   */\n      iszero\n      tag_636\n      jumpi\n        /* \"#utility.yul\":16259:16298   */\n      tag_637\n        /* \"#utility.yul\":16296:16297   */\n      0x00\n        /* \"#utility.yul\":16289:16294   */\n      dup3\n        /* \"#utility.yul\":16259:16298   */\n      tag_427\n      jump\t// in\n    tag_637:\n        /* \"#utility.yul\":16232:16233   */\n      0x01\n        /* \"#utility.yul\":16225:16230   */\n      dup2\n        /* \"#utility.yul\":16221:16234   */\n      add\n        /* \"#utility.yul\":16212:16234   */\n      swap1\n      pop\n        /* \"#utility.yul\":16188:16308   */\n      jump(tag_634)\n    tag_636:\n        /* \"#utility.yul\":16128:16314   */\n      pop\n      pop\n      jump\t// out\n        /* \"#utility.yul\":16320:16863   */\n    tag_429:\n        /* \"#utility.yul\":16421:16423   */\n      0x1f\n        /* \"#utility.yul\":16416:16419   */\n      dup3\n        /* \"#utility.yul\":16413:16424   */\n      gt\n        /* \"#utility.yul\":16410:16856   */\n      iszero\n      tag_639\n      jumpi\n        /* \"#utility.yul\":16455:16493   */\n      tag_640\n        /* \"#utility.yul\":16487:16492   */\n      dup2\n        /* \"#utility.yul\":16455:16493   */\n      tag_418\n      jump\t// in\n    tag_640:\n        /* \"#utility.yul\":16539:16568   */\n      tag_641\n        /* \"#utility.yul\":16557:16567   */\n      dup5\n        /* \"#utility.yul\":16539:16568   */\n      tag_419\n      jump\t// in\n    tag_641:\n        /* \"#utility.yul\":16529:16537   */\n      dup2\n        /* \"#utility.yul\":16525:16569   */\n      add\n        /* \"#utility.yul\":16722:16724   */\n      0x20\n        /* \"#utility.yul\":16710:16720   */\n      dup6\n        /* \"#utility.yul\":16707:16725   */\n      lt\n        /* \"#utility.yul\":16704:16753   */\n      iszero\n      tag_642\n      jumpi\n        /* \"#utility.yul\":16743:16751   */\n      dup2\n        /* \"#utility.yul\":16728:16751   */\n      swap1\n      pop\n        /* \"#utility.yul\":16704:16753   */\n    tag_642:\n        /* \"#utility.yul\":16766:16846   */\n      tag_643\n        /* \"#utility.yul\":16822:16844   */\n      tag_644\n        /* \"#utility.yul\":16840:16843   */\n      dup6\n        /* \"#utility.yul\":16822:16844   */\n      tag_419\n      jump\t// in\n    tag_644:\n        /* \"#utility.yul\":16812:16820   */\n      dup4\n        /* \"#utility.yul\":16808:16845   */\n      add\n        /* \"#utility.yul\":16795:16806   */\n      dup3\n        /* \"#utility.yul\":16766:16846   */\n      tag_428\n      jump\t// in\n    tag_643:\n        /* \"#utility.yul\":16425:16856   */\n      pop\n      pop\n        /* \"#utility.yul\":16410:16856   */\n    tag_639:\n        /* \"#utility.yul\":16320:16863   */\n      pop\n      pop\n      pop\n      jump\t// out\n        /* \"#utility.yul\":16869:16986   */\n    tag_430:\n        /* \"#utility.yul\":16923:16931   */\n      0x00\n        /* \"#utility.yul\":16973:16978   */\n      dup3\n        /* \"#utility.yul\":16967:16971   */\n      dup3\n        /* \"#utility.yul\":16963:16979   */\n      shr\n        /* \"#utility.yul\":16942:16979   */\n      swap1\n      pop\n        /* \"#utility.yul\":16869:16986   */\n      swap3\n      swap2\n      pop\n      pop\n      jump\t// out\n        /* \"#utility.yul\":16992:17161   */\n    tag_431:\n        /* \"#utility.yul\":17036:17042   */\n      0x00\n        /* \"#utility.yul\":17069:17120   */\n      tag_647\n        /* \"#utility.yul\":17117:17118   */\n      0x00\n        /* \"#utility.yul\":17113:17119   */\n      not\n        /* \"#utility.yul\":17105:17110   */\n      dup5\n        /* \"#utility.yul\":17102:17103   */\n      0x08\n        /* \"#utility.yul\":17098:17111   */\n      mul\n        /* \"#utility.yul\":17069:17120   */\n      tag_430\n      jump\t// in\n    tag_647:\n        /* \"#utility.yul\":17065:17121   */\n      not\n        /* \"#utility.yul\":17150:17154   */\n      dup1\n        /* \"#utility.yul\":17144:17148   */\n      dup4\n        /* \"#utility.yul\":17140:17155   */\n      and\n        /* \"#utility.yul\":17130:17155   */\n      swap2\n      pop\n        /* \"#utility.yul\":17043:17161   */\n      pop\n        /* \"#utility.yul\":16992:17161   */\n      swap3\n      swap2\n      pop\n      pop\n      jump\t// out\n        /* \"#utility.yul\":17166:17461   */\n    tag_432:\n        /* \"#utility.yul\":17242:17246   */\n      0x00\n        /* \"#utility.yul\":17388:17417   */\n      tag_649\n        /* \"#utility.yul\":17413:17416   */\n      dup4\n        /* \"#utility.yul\":17407:17411   */\n      dup4\n        /* \"#utility.yul\":17388:17417   */\n      tag_431\n      jump\t// in\n    tag_649:\n        /* \"#utility.yul\":17380:17417   */\n      swap2\n      pop\n        /* \"#utility.yul\":17450:17453   */\n      dup3\n        /* \"#utility.yul\":17447:17448   */\n      0x02\n        /* \"#utility.yul\":17443:17454   */\n      mul\n        /* \"#utility.yul\":17437:17441   */\n      dup3\n        /* \"#utility.yul\":17434:17455   */\n      or\n        /* \"#utility.yul\":17426:17455   */\n      swap1\n      pop\n        /* \"#utility.yul\":17166:17461   */\n      swap3\n      swap2\n      pop\n      pop\n      jump\t// out\n        /* \"#utility.yul\":17466:18861   */\n    tag_182:\n        /* \"#utility.yul\":17583:17620   */\n      tag_651\n        /* \"#utility.yul\":17616:17619   */\n      dup3\n        /* \"#utility.yul\":17583:17620   */\n      tag_383\n      jump\t// in\n    tag_651:\n        /* \"#utility.yul\":17685:17703   */\n      0xffffffffffffffff\n        /* \"#utility.yul\":17677:17683   */\n      dup2\n        /* \"#utility.yul\":17674:17704   */\n      gt\n        /* \"#utility.yul\":17671:17727   */\n      iszero\n      tag_652\n      jumpi\n        /* \"#utility.yul\":17707:17725   */\n      tag_653\n      tag_403\n      jump\t// in\n    tag_653:\n        /* \"#utility.yul\":17671:17727   */\n    tag_652:\n        /* \"#utility.yul\":17751:17789   */\n      tag_654\n        /* \"#utility.yul\":17783:17787   */\n      dup3\n        /* \"#utility.yul\":17777:17788   */\n      sload\n        /* \"#utility.yul\":17751:17789   */\n      tag_160\n      jump\t// in\n    tag_654:\n        /* \"#utility.yul\":17836:17903   */\n      tag_655\n        /* \"#utility.yul\":17896:17902   */\n      dup3\n        /* \"#utility.yul\":17888:17894   */\n      dup3\n        /* \"#utility.yul\":17882:17886   */\n      dup6\n        /* \"#utility.yul\":17836:17903   */\n      tag_429\n      jump\t// in\n    tag_655:\n        /* \"#utility.yul\":17930:17931   */\n      0x00\n        /* \"#utility.yul\":17954:17958   */\n      0x20\n        /* \"#utility.yul\":17941:17958   */\n      swap1\n      pop\n        /* \"#utility.yul\":17986:17988   */\n      0x1f\n        /* \"#utility.yul\":17978:17984   */\n      dup4\n        /* \"#utility.yul\":17975:17989   */\n      gt\n        /* \"#utility.yul\":18003:18004   */\n      0x01\n        /* \"#utility.yul\":17998:18616   */\n      dup2\n      eq\n      tag_657\n      jumpi\n        /* \"#utility.yul\":18660:18661   */\n      0x00\n        /* \"#utility.yul\":18677:18683   */\n      dup5\n        /* \"#utility.yul\":18674:18751   */\n      iszero\n      tag_658\n      jumpi\n        /* \"#utility.yul\":18726:18735   */\n      dup3\n        /* \"#utility.yul\":18721:18724   */\n      dup8\n        /* \"#utility.yul\":18717:18736   */\n      add\n        /* \"#utility.yul\":18711:18737   */\n      mload\n        /* \"#utility.yul\":18702:18737   */\n      swap1\n      pop\n        /* \"#utility.yul\":18674:18751   */\n    tag_658:\n        /* \"#utility.yul\":18777:18844   */\n      tag_659\n        /* \"#utility.yul\":18837:18843   */\n      dup6\n        /* \"#utility.yul\":18830:18835   */\n      dup3\n        /* \"#utility.yul\":18777:18844   */\n      tag_432\n      jump\t// in\n    tag_659:\n        /* \"#utility.yul\":18771:18775   */\n      dup7\n        /* \"#utility.yul\":18764:18845   */\n      sstore\n        /* \"#utility.yul\":18633:18855   */\n      pop\n        /* \"#utility.yul\":17968:18855   */\n      jump(tag_656)\n        /* \"#utility.yul\":17998:18616   */\n    tag_657:\n        /* \"#utility.yul\":18050:18054   */\n      0x1f\n        /* \"#utility.yul\":18046:18055   */\n      not\n        /* \"#utility.yul\":18038:18044   */\n      dup5\n        /* \"#utility.yul\":18034:18056   */\n      and\n        /* \"#utility.yul\":18084:18121   */\n      tag_660\n        /* \"#utility.yul\":18116:18120   */\n      dup7\n        /* \"#utility.yul\":18084:18121   */\n      tag_418\n      jump\t// in\n    tag_660:\n        /* \"#utility.yul\":18143:18144   */\n      0x00\n        /* \"#utility.yul\":18157:18365   */\n    tag_661:\n        /* \"#utility.yul\":18171:18178   */\n      dup3\n        /* \"#utility.yul\":18168:18169   */\n      dup2\n        /* \"#utility.yul\":18165:18179   */\n      lt\n        /* \"#utility.yul\":18157:18365   */\n      iszero\n      tag_663\n      jumpi\n        /* \"#utility.yul\":18250:18259   */\n      dup5\n        /* \"#utility.yul\":18245:18248   */\n      dup10\n        /* \"#utility.yul\":18241:18260   */\n      add\n        /* \"#utility.yul\":18235:18261   */\n      mload\n        /* \"#utility.yul\":18227:18233   */\n      dup3\n        /* \"#utility.yul\":18220:18262   */\n      sstore\n        /* \"#utility.yul\":18301:18302   */\n      0x01\n        /* \"#utility.yul\":18293:18299   */\n      dup3\n        /* \"#utility.yul\":18289:18303   */\n      add\n        /* \"#utility.yul\":18279:18303   */\n      swap2\n      pop\n        /* \"#utility.yul\":18348:18350   */\n      0x20\n        /* \"#utility.yul\":18337:18346   */\n      dup6\n        /* \"#utility.yul\":18333:18351   */\n      add\n        /* \"#utility.yul\":18320:18351   */\n      swap5\n      pop\n        /* \"#utility.yul\":18194:18198   */\n      0x20\n        /* \"#utility.yul\":18191:18192   */\n      dup2\n        /* \"#utility.yul\":18187:18199   */\n      add\n        /* \"#utility.yul\":18182:18199   */\n      swap1\n      pop\n        /* \"#utility.yul\":18157:18365   */\n      jump(tag_661)\n    tag_663:\n        /* \"#utility.yul\":18393:18399   */\n      dup7\n        /* \"#utility.yul\":18384:18391   */\n      dup4\n        /* \"#utility.yul\":18381:18400   */\n      lt\n        /* \"#utility.yul\":18378:18557   */\n      iszero\n      tag_664\n      jumpi\n        /* \"#utility.yul\":18451:18460   */\n      dup5\n        /* \"#utility.yul\":18446:18449   */\n      dup10\n        /* \"#utility.yul\":18442:18461   */\n      add\n        /* \"#utility.yul\":18436:18462   */\n      mload\n        /* \"#utility.yul\":18494:18542   */\n      tag_665\n        /* \"#utility.yul\":18536:18540   */\n      0x1f\n        /* \"#utility.yul\":18528:18534   */\n      dup10\n        /* \"#utility.yul\":18524:18541   */\n      and\n        /* \"#utility.yul\":18513:18522   */\n      dup3\n        /* \"#utility.yul\":18494:18542   */\n      tag_431\n      jump\t// in\n    tag_665:\n        /* \"#utility.yul\":18486:18492   */\n      dup4\n        /* \"#utility.yul\":18479:18543   */\n      sstore\n        /* \"#utility.yul\":18401:18557   */\n      pop\n        /* \"#utility.yul\":18378:18557   */\n    tag_664:\n        /* \"#utility.yul\":18603:18604   */\n      0x01\n        /* \"#utility.yul\":18599:18600   */\n      0x02\n        /* \"#utility.yul\":18591:18597   */\n      dup9\n        /* \"#utility.yul\":18587:18601   */\n      mul\n        /* \"#utility.yul\":18583:18605   */\n      add\n        /* \"#utility.yul\":18577:18581   */\n      dup9\n        /* \"#utility.yul\":18570:18606   */\n      sstore\n        /* \"#utility.yul\":18005:18616   */\n      pop\n      pop\n      pop\n        /* \"#utility.yul\":17968:18855   */\n    tag_656:\n      pop\n        /* \"#utility.yul\":17558:18861   */\n      pop\n      pop\n      pop\n        /* \"#utility.yul\":17466:18861   */\n      pop\n      pop\n      jump\t// out\n        /* \"#utility.yul\":18867:19015   */\n    tag_433:\n        /* \"#utility.yul\":18969:18980   */\n      0x00\n        /* \"#utility.yul\":19006:19009   */\n      dup2\n        /* \"#utility.yul\":18991:19009   */\n      swap1\n      pop\n        /* \"#utility.yul\":18867:19015   */\n      swap3\n      swap2\n      pop\n      pop\n      jump\t// out\n        /* \"#utility.yul\":19021:19411   */\n    tag_434:\n        /* \"#utility.yul\":19127:19130   */\n      0x00\n        /* \"#utility.yul\":19155:19194   */\n      tag_668\n        /* \"#utility.yul\":19188:19193   */\n      dup3\n        /* \"#utility.yul\":19155:19194   */\n      tag_383\n      jump\t// in\n    tag_668:\n        /* \"#utility.yul\":19210:19299   */\n      tag_669\n        /* \"#utility.yul\":19292:19298   */\n      dup2\n        /* \"#utility.yul\":19287:19290   */\n      dup6\n        /* \"#utility.yul\":19210:19299   */\n      tag_433\n      jump\t// in\n    tag_669:\n        /* \"#utility.yul\":19203:19299   */\n      swap4\n      pop\n        /* \"#utility.yul\":19308:19373   */\n      tag_670\n        /* \"#utility.yul\":19366:19372   */\n      dup2\n        /* \"#utility.yul\":19361:19364   */\n      dup6\n        /* \"#utility.yul\":19354:19358   */\n      0x20\n        /* \"#utility.yul\":19347:19352   */\n      dup7\n        /* \"#utility.yul\":19343:19359   */\n      add\n        /* \"#utility.yul\":19308:19373   */\n      tag_385\n      jump\t// in\n    tag_670:\n        /* \"#utility.yul\":19398:19404   */\n      dup1\n        /* \"#utility.yul\":19393:19396   */\n      dup5\n        /* \"#utility.yul\":19389:19405   */\n      add\n        /* \"#utility.yul\":19382:19405   */\n      swap2\n      pop\n        /* \"#utility.yul\":19131:19411   */\n      pop\n        /* \"#utility.yul\":19021:19411   */\n      swap3\n      swap2\n      pop\n      pop\n      jump\t// out\n        /* \"#utility.yul\":19417:19692   */\n    tag_227:\n        /* \"#utility.yul\":19549:19552   */\n      0x00\n        /* \"#utility.yul\":19571:19666   */\n      tag_672\n        /* \"#utility.yul\":19662:19665   */\n      dup3\n        /* \"#utility.yul\":19653:19659   */\n      dup5\n        /* \"#utility.yul\":19571:19666   */\n      tag_434\n      jump\t// in\n    tag_672:\n        /* \"#utility.yul\":19564:19666   */\n      swap2\n      pop\n        /* \"#utility.yul\":19683:19686   */\n      dup2\n        /* \"#utility.yul\":19676:19686   */\n      swap1\n      pop\n        /* \"#utility.yul\":19417:19692   */\n      swap3\n      swap2\n      pop\n      pop\n      jump\t// out\n        /* \"#utility.yul\":19698:19872   */\n    tag_435:\n        /* \"#utility.yul\":19838:19864   */\n      0x496e76616c69642076657374696e6720636f6e74726163740000000000000000\n        /* \"#utility.yul\":19834:19835   */\n      0x00\n        /* \"#utility.yul\":19826:19832   */\n      dup3\n        /* \"#utility.yul\":19822:19836   */\n      add\n        /* \"#utility.yul\":19815:19865   */\n      mstore\n        /* \"#utility.yul\":19698:19872   */\n      pop\n      jump\t// out\n        /* \"#utility.yul\":19878:20244   */\n    tag_436:\n        /* \"#utility.yul\":20020:20023   */\n      0x00\n        /* \"#utility.yul\":20041:20108   */\n      tag_675\n        /* \"#utility.yul\":20105:20107   */\n      0x18\n        /* \"#utility.yul\":20100:20103   */\n      dup4\n        /* \"#utility.yul\":20041:20108   */\n      tag_384\n      jump\t// in\n    tag_675:\n        /* \"#utility.yul\":20034:20108   */\n      swap2\n      pop\n        /* \"#utility.yul\":20117:20210   */\n      tag_676\n        /* \"#utility.yul\":20206:20209   */\n      dup3\n        /* \"#utility.yul\":20117:20210   */\n      tag_435\n      jump\t// in\n    tag_676:\n        /* \"#utility.yul\":20235:20237   */\n      0x20\n        /* \"#utility.yul\":20230:20233   */\n      dup3\n        /* \"#utility.yul\":20226:20238   */\n      add\n        /* \"#utility.yul\":20219:20238   */\n      swap1\n      pop\n        /* \"#utility.yul\":19878:20244   */\n      swap2\n      swap1\n      pop\n      jump\t// out\n        /* \"#utility.yul\":20250:20669   */\n    tag_245:\n        /* \"#utility.yul\":20416:20420   */\n      0x00\n        /* \"#utility.yul\":20454:20456   */\n      0x20\n        /* \"#utility.yul\":20443:20452   */\n      dup3\n        /* \"#utility.yul\":20439:20457   */\n      add\n        /* \"#utility.yul\":20431:20457   */\n      swap1\n      pop\n        /* \"#utility.yul\":20503:20512   */\n      dup2\n        /* \"#utility.yul\":20497:20501   */\n      dup2\n        /* \"#utility.yul\":20493:20513   */\n      sub\n        /* \"#utility.yul\":20489:20490   */\n      0x00\n        /* \"#utility.yul\":20478:20487   */\n      dup4\n        /* \"#utility.yul\":20474:20491   */\n      add\n        /* \"#utility.yul\":20467:20514   */\n      mstore\n        /* \"#utility.yul\":20531:20662   */\n      tag_678\n        /* \"#utility.yul\":20657:20661   */\n      dup2\n        /* \"#utility.yul\":20531:20662   */\n      tag_436\n      jump\t// in\n    tag_678:\n        /* \"#utility.yul\":20523:20662   */\n      swap1\n      pop\n        /* \"#utility.yul\":20250:20669   */\n      swap2\n      swap1\n      pop\n      jump\t// out\n        /* \"#utility.yul\":20675:20855   */\n    tag_437:\n        /* \"#utility.yul\":20815:20847   */\n      0x56657374696e6720636f6e747261637420616c72656164792061646465640000\n        /* \"#utility.yul\":20811:20812   */\n      0x00\n        /* \"#utility.yul\":20803:20809   */\n      dup3\n        /* \"#utility.yul\":20799:20813   */\n      add\n        /* \"#utility.yul\":20792:20848   */\n      mstore\n        /* \"#utility.yul\":20675:20855   */\n      pop\n      jump\t// out\n        /* \"#utility.yul\":20861:21227   */\n    tag_438:\n        /* \"#utility.yul\":21003:21006   */\n      0x00\n        /* \"#utility.yul\":21024:21091   */\n      tag_681\n        /* \"#utility.yul\":21088:21090   */\n      0x1e\n        /* \"#utility.yul\":21083:21086   */\n      dup4\n        /* \"#utility.yul\":21024:21091   */\n      tag_384\n      jump\t// in\n    tag_681:\n        /* \"#utility.yul\":21017:21091   */\n      swap2\n      pop\n        /* \"#utility.yul\":21100:21193   */\n      tag_682\n        /* \"#utility.yul\":21189:21192   */\n      dup3\n        /* \"#utility.yul\":21100:21193   */\n      tag_437\n      jump\t// in\n    tag_682:\n        /* \"#utility.yul\":21218:21220   */\n      0x20\n        /* \"#utility.yul\":21213:21216   */\n      dup3\n        /* \"#utility.yul\":21209:21221   */\n      add\n        /* \"#utility.yul\":21202:21221   */\n      swap1\n      pop\n        /* \"#utility.yul\":20861:21227   */\n      swap2\n      swap1\n      pop\n      jump\t// out\n        /* \"#utility.yul\":21233:21652   */\n    tag_248:\n        /* \"#utility.yul\":21399:21403   */\n      0x00\n        /* \"#utility.yul\":21437:21439   */\n      0x20\n        /* \"#utility.yul\":21426:21435   */\n      dup3\n        /* \"#utility.yul\":21422:21440   */\n      add\n        /* \"#utility.yul\":21414:21440   */\n      swap1\n      pop\n        /* \"#utility.yul\":21486:21495   */\n      dup2\n        /* \"#utility.yul\":21480:21484   */\n      dup2\n        /* \"#utility.yul\":21476:21496   */\n      sub\n        /* \"#utility.yul\":21472:21473   */\n      0x00\n        /* \"#utility.yul\":21461:21470   */\n      dup4\n        /* \"#utility.yul\":21457:21474   */\n      add\n        /* \"#utility.yul\":21450:21497   */\n      mstore\n        /* \"#utility.yul\":21514:21645   */\n      tag_684\n        /* \"#utility.yul\":21640:21644   */\n      dup2\n        /* \"#utility.yul\":21514:21645   */\n      tag_438\n      jump\t// in\n    tag_684:\n        /* \"#utility.yul\":21506:21645   */\n      swap1\n      pop\n        /* \"#utility.yul\":21233:21652   */\n      swap2\n      swap1\n      pop\n      jump\t// out\n        /* \"#utility.yul\":21658:21834   */\n    tag_439:\n        /* \"#utility.yul\":21798:21826   */\n      0x56657374696e6720636f6e7472616374206e6f7420666f756e64000000000000\n        /* \"#utility.yul\":21794:21795   */\n      0x00\n        /* \"#utility.yul\":21786:21792   */\n      dup3\n        /* \"#utility.yul\":21782:21796   */\n      add\n        /* \"#utility.yul\":21775:21827   */\n      mstore\n        /* \"#utility.yul\":21658:21834   */\n      pop\n      jump\t// out\n        /* \"#utility.yul\":21840:22206   */\n    tag_440:\n        /* \"#utility.yul\":21982:21985   */\n      0x00\n        /* \"#utility.yul\":22003:22070   */\n      tag_687\n        /* \"#utility.yul\":22067:22069   */\n      0x1a\n        /* \"#utility.yul\":22062:22065   */\n      dup4\n        /* \"#utility.yul\":22003:22070   */\n      tag_384\n      jump\t// in\n    tag_687:\n        /* \"#utility.yul\":21996:22070   */\n      swap2\n      pop\n        /* \"#utility.yul\":22079:22172   */\n      tag_688\n        /* \"#utility.yul\":22168:22171   */\n      dup3\n        /* \"#utility.yul\":22079:22172   */\n      tag_439\n      jump\t// in\n    tag_688:\n        /* \"#utility.yul\":22197:22199   */\n      0x20\n        /* \"#utility.yul\":22192:22195   */\n      dup3\n        /* \"#utility.yul\":22188:22200   */\n      add\n        /* \"#utility.yul\":22181:22200   */\n      swap1\n      pop\n        /* \"#utility.yul\":21840:22206   */\n      swap2\n      swap1\n      pop\n      jump\t// out\n        /* \"#utility.yul\":22212:22631   */\n    tag_257:\n        /* \"#utility.yul\":22378:22382   */\n      0x00\n        /* \"#utility.yul\":22416:22418   */\n      0x20\n        /* \"#utility.yul\":22405:22414   */\n      dup3\n        /* \"#utility.yul\":22401:22419   */\n      add\n        /* \"#utility.yul\":22393:22419   */\n      swap1\n      pop\n        /* \"#utility.yul\":22465:22474   */\n      dup2\n        /* \"#utility.yul\":22459:22463   */\n      dup2\n        /* \"#utility.yul\":22455:22475   */\n      sub\n        /* \"#utility.yul\":22451:22452   */\n      0x00\n        /* \"#utility.yul\":22440:22449   */\n      dup4\n        /* \"#utility.yul\":22436:22453   */\n      add\n        /* \"#utility.yul\":22429:22476   */\n      mstore\n        /* \"#utility.yul\":22493:22624   */\n      tag_690\n        /* \"#utility.yul\":22619:22623   */\n      dup2\n        /* \"#utility.yul\":22493:22624   */\n      tag_440\n      jump\t// in\n    tag_690:\n        /* \"#utility.yul\":22485:22624   */\n      swap1\n      pop\n        /* \"#utility.yul\":22212:22631   */\n      swap2\n      swap1\n      pop\n      jump\t// out\n        /* \"#utility.yul\":22637:22806   */\n    tag_441:\n        /* \"#utility.yul\":22777:22798   */\n      0x416c726561647920696e697469616c697a656400000000000000000000000000\n        /* \"#utility.yul\":22773:22774   */\n      0x00\n        /* \"#utility.yul\":22765:22771   */\n      dup3\n        /* \"#utility.yul\":22761:22775   */\n      add\n        /* \"#utility.yul\":22754:22799   */\n      mstore\n        /* \"#utility.yul\":22637:22806   */\n      pop\n      jump\t// out\n        /* \"#utility.yul\":22812:23178   */\n    tag_442:\n        /* \"#utility.yul\":22954:22957   */\n      0x00\n        /* \"#utility.yul\":22975:23042   */\n      tag_693\n        /* \"#utility.yul\":23039:23041   */\n      0x13\n        /* \"#utility.yul\":23034:23037   */\n      dup4\n        /* \"#utility.yul\":22975:23042   */\n      tag_384\n      jump\t// in\n    tag_693:\n        /* \"#utility.yul\":22968:23042   */\n      swap2\n      pop\n        /* \"#utility.yul\":23051:23144   */\n      tag_694\n        /* \"#utility.yul\":23140:23143   */\n      dup3\n        /* \"#utility.yul\":23051:23144   */\n      tag_441\n      jump\t// in\n    tag_694:\n        /* \"#utility.yul\":23169:23171   */\n      0x20\n        /* \"#utility.yul\":23164:23167   */\n      dup3\n        /* \"#utility.yul\":23160:23172   */\n      add\n        /* \"#utility.yul\":23153:23172   */\n      swap1\n      pop\n        /* \"#utility.yul\":22812:23178   */\n      swap2\n      swap1\n      pop\n      jump\t// out\n        /* \"#utility.yul\":23184:23603   */\n    tag_261:\n        /* \"#utility.yul\":23350:23354   */\n      0x00\n        /* \"#utility.yul\":23388:23390   */\n      0x20\n        /* \"#utility.yul\":23377:23386   */\n      dup3\n        /* \"#utility.yul\":23373:23391   */\n      add\n        /* \"#utility.yul\":23365:23391   */\n      swap1\n      pop\n        /* \"#utility.yul\":23437:23446   */\n      dup2\n        /* \"#utility.yul\":23431:23435   */\n      dup2\n        /* \"#utility.yul\":23427:23447   */\n      sub\n        /* \"#utility.yul\":23423:23424   */\n      0x00\n        /* \"#utility.yul\":23412:23421   */\n      dup4\n        /* \"#utility.yul\":23408:23425   */\n      add\n        /* \"#utility.yul\":23401:23448   */\n      mstore\n        /* \"#utility.yul\":23465:23596   */\n      tag_696\n        /* \"#utility.yul\":23591:23595   */\n      dup2\n        /* \"#utility.yul\":23465:23596   */\n      tag_442\n      jump\t// in\n    tag_696:\n        /* \"#utility.yul\":23457:23596   */\n      swap1\n      pop\n        /* \"#utility.yul\":23184:23603   */\n      swap2\n      swap1\n      pop\n      jump\t// out\n        /* \"#utility.yul\":23609:23779   */\n    tag_443:\n        /* \"#utility.yul\":23749:23771   */\n      0x4e616d652063616e6e6f7420626520656d707479000000000000000000000000\n        /* \"#utility.yul\":23745:23746   */\n      0x00\n        /* \"#utility.yul\":23737:23743   */\n      dup3\n        /* \"#utility.yul\":23733:23747   */\n      add\n        /* \"#utility.yul\":23726:23772   */\n      mstore\n        /* \"#utility.yul\":23609:23779   */\n      pop\n      jump\t// out\n        /* \"#utility.yul\":23785:24151   */\n    tag_444:\n        /* \"#utility.yul\":23927:23930   */\n      0x00\n        /* \"#utility.yul\":23948:24015   */\n      tag_699\n        /* \"#utility.yul\":24012:24014   */\n      0x14\n        /* \"#utility.yul\":24007:24010   */\n      dup4\n        /* \"#utility.yul\":23948:24015   */\n      tag_384\n      jump\t// in\n    tag_699:\n        /* \"#utility.yul\":23941:24015   */\n      swap2\n      pop\n        /* \"#utility.yul\":24024:24117   */\n      tag_700\n        /* \"#utility.yul\":24113:24116   */\n      dup3\n        /* \"#utility.yul\":24024:24117   */\n      tag_443\n      jump\t// in\n    tag_700:\n        /* \"#utility.yul\":24142:24144   */\n      0x20\n        /* \"#utility.yul\":24137:24140   */\n      dup3\n        /* \"#utility.yul\":24133:24145   */\n      add\n        /* \"#utility.yul\":24126:24145   */\n      swap1\n      pop\n        /* \"#utility.yul\":23785:24151   */\n      swap2\n      swap1\n      pop\n      jump\t// out\n        /* \"#utility.yul\":24157:24576   */\n    tag_264:\n        /* \"#utility.yul\":24323:24327   */\n      0x00\n        /* \"#utility.yul\":24361:24363   */\n      0x20\n        /* \"#utility.yul\":24350:24359   */\n      dup3\n        /* \"#utility.yul\":24346:24364   */\n      add\n        /* \"#utility.yul\":24338:24364   */\n      swap1\n      pop\n        /* \"#utility.yul\":24410:24419   */\n      dup2\n        /* \"#utility.yul\":24404:24408   */\n      dup2\n        /* \"#utility.yul\":24400:24420   */\n      sub\n        /* \"#utility.yul\":24396:24397   */\n      0x00\n        /* \"#utility.yul\":24385:24394   */\n      dup4\n        /* \"#utility.yul\":24381:24398   */\n      add\n        /* \"#utility.yul\":24374:24421   */\n      mstore\n        /* \"#utility.yul\":24438:24569   */\n      tag_702\n        /* \"#utility.yul\":24564:24568   */\n      dup2\n        /* \"#utility.yul\":24438:24569   */\n      tag_444\n      jump\t// in\n    tag_702:\n        /* \"#utility.yul\":24430:24569   */\n      swap1\n      pop\n        /* \"#utility.yul\":24157:24576   */\n      swap2\n      swap1\n      pop\n      jump\t// out\n        /* \"#utility.yul\":24582:24754   */\n    tag_445:\n        /* \"#utility.yul\":24722:24746   */\n      0x53796d626f6c2063616e6e6f7420626520656d70747900000000000000000000\n        /* \"#utility.yul\":24718:24719   */\n      0x00\n        /* \"#utility.yul\":24710:24716   */\n      dup3\n        /* \"#utility.yul\":24706:24720   */\n      add\n        /* \"#utility.yul\":24699:24747   */\n      mstore\n        /* \"#utility.yul\":24582:24754   */\n      pop\n      jump\t// out\n        /* \"#utility.yul\":24760:25126   */\n    tag_446:\n        /* \"#utility.yul\":24902:24905   */\n      0x00\n        /* \"#utility.yul\":24923:24990   */\n      tag_705\n        /* \"#utility.yul\":24987:24989   */\n      0x16\n        /* \"#utility.yul\":24982:24985   */\n      dup4\n        /* \"#utility.yul\":24923:24990   */\n      tag_384\n      jump\t// in\n    tag_705:\n        /* \"#utility.yul\":24916:24990   */\n      swap2\n      pop\n        /* \"#utility.yul\":24999:25092   */\n      tag_706\n        /* \"#utility.yul\":25088:25091   */\n      dup3\n        /* \"#utility.yul\":24999:25092   */\n      tag_445\n      jump\t// in\n    tag_706:\n        /* \"#utility.yul\":25117:25119   */\n      0x20\n        /* \"#utility.yul\":25112:25115   */\n      dup3\n        /* \"#utility.yul\":25108:25120   */\n      add\n        /* \"#utility.yul\":25101:25120   */\n      swap1\n      pop\n        /* \"#utility.yul\":24760:25126   */\n      swap2\n      swap1\n      pop\n      jump\t// out\n        /* \"#utility.yul\":25132:25551   */\n    tag_267:\n        /* \"#utility.yul\":25298:25302   */\n      0x00\n        /* \"#utility.yul\":25336:25338   */\n      0x20\n        /* \"#utility.yul\":25325:25334   */\n      dup3\n        /* \"#utility.yul\":25321:25339   */\n      add\n        /* \"#utility.yul\":25313:25339   */\n      swap1\n      pop\n        /* \"#utility.yul\":25385:25394   */\n      dup2\n        /* \"#utility.yul\":25379:25383   */\n      dup2\n        /* \"#utility.yul\":25375:25395   */\n      sub\n        /* \"#utility.yul\":25371:25372   */\n      0x00\n        /* \"#utility.yul\":25360:25369   */\n      dup4\n        /* \"#utility.yul\":25356:25373   */\n      add\n        /* \"#utility.yul\":25349:25396   */\n      mstore\n        /* \"#utility.yul\":25413:25544   */\n      tag_708\n        /* \"#utility.yul\":25539:25543   */\n      dup2\n        /* \"#utility.yul\":25413:25544   */\n      tag_446\n      jump\t// in\n    tag_708:\n        /* \"#utility.yul\":25405:25544   */\n      swap1\n      pop\n        /* \"#utility.yul\":25132:25551   */\n      swap2\n      swap1\n      pop\n      jump\t// out\n        /* \"#utility.yul\":25557:25779   */\n    tag_447:\n        /* \"#utility.yul\":25697:25731   */\n      0x546f74616c20737570706c79206d757374206265206772656174657220746861\n        /* \"#utility.yul\":25693:25694   */\n      0x00\n        /* \"#utility.yul\":25685:25691   */\n      dup3\n        /* \"#utility.yul\":25681:25695   */\n      add\n        /* \"#utility.yul\":25674:25732   */\n      mstore\n        /* \"#utility.yul\":25766:25771   */\n      0x6e20300000000000000000000000000000000000000000000000000000000000\n        /* \"#utility.yul\":25761:25763   */\n      0x20\n        /* \"#utility.yul\":25753:25759   */\n      dup3\n        /* \"#utility.yul\":25749:25764   */\n      add\n        /* \"#utility.yul\":25742:25772   */\n      mstore\n        /* \"#utility.yul\":25557:25779   */\n      pop\n      jump\t// out\n        /* \"#utility.yul\":25785:26151   */\n    tag_448:\n        /* \"#utility.yul\":25927:25930   */\n      0x00\n        /* \"#utility.yul\":25948:26015   */\n      tag_711\n        /* \"#utility.yul\":26012:26014   */\n      0x23\n        /* \"#utility.yul\":26007:26010   */\n      dup4\n        /* \"#utility.yul\":25948:26015   */\n      tag_384\n      jump\t// in\n    tag_711:\n        /* \"#utility.yul\":25941:26015   */\n      swap2\n      pop\n        /* \"#utility.yul\":26024:26117   */\n      tag_712\n        /* \"#utility.yul\":26113:26116   */\n      dup3\n        /* \"#utility.yul\":26024:26117   */\n      tag_447\n      jump\t// in\n    tag_712:\n        /* \"#utility.yul\":26142:26144   */\n      0x40\n        /* \"#utility.yul\":26137:26140   */\n      dup3\n        /* \"#utility.yul\":26133:26145   */\n      add\n        /* \"#utility.yul\":26126:26145   */\n      swap1\n      pop\n        /* \"#utility.yul\":25785:26151   */\n      swap2\n      swap1\n      pop\n      jump\t// out\n        /* \"#utility.yul\":26157:26576   */\n    tag_270:\n        /* \"#utility.yul\":26323:26327   */\n      0x00\n        /* \"#utility.yul\":26361:26363   */\n      0x20\n        /* \"#utility.yul\":26350:26359   */\n      dup3\n        /* \"#utility.yul\":26346:26364   */\n      add\n        /* \"#utility.yul\":26338:26364   */\n      swap1\n      pop\n        /* \"#utility.yul\":26410:26419   */\n      dup2\n        /* \"#utility.yul\":26404:26408   */\n      dup2\n        /* \"#utility.yul\":26400:26420   */\n      sub\n        /* \"#utility.yul\":26396:26397   */\n      0x00\n        /* \"#utility.yul\":26385:26394   */\n      dup4\n        /* \"#utility.yul\":26381:26398   */\n      add\n        /* \"#utility.yul\":26374:26421   */\n      mstore\n        /* \"#utility.yul\":26438:26569   */\n      tag_714\n        /* \"#utility.yul\":26564:26568   */\n      dup2\n        /* \"#utility.yul\":26438:26569   */\n      tag_448\n      jump\t// in\n    tag_714:\n        /* \"#utility.yul\":26430:26569   */\n      swap1\n      pop\n        /* \"#utility.yul\":26157:26576   */\n      swap2\n      swap1\n      pop\n      jump\t// out\n        /* \"#utility.yul\":26582:26753   */\n    tag_449:\n        /* \"#utility.yul\":26722:26745   */\n      0x496e76616c6964206f776e657220616464726573730000000000000000000000\n        /* \"#utility.yul\":26718:26719   */\n      0x00\n        /* \"#utility.yul\":26710:26716   */\n      dup3\n        /* \"#utility.yul\":26706:26720   */\n      add\n        /* \"#utility.yul\":26699:26746   */\n      mstore\n        /* \"#utility.yul\":26582:26753   */\n      pop\n      jump\t// out\n        /* \"#utility.yul\":26759:27125   */\n    tag_450:\n        /* \"#utility.yul\":26901:26904   */\n      0x00\n        /* \"#utility.yul\":26922:26989   */\n      tag_717\n        /* \"#utility.yul\":26986:26988   */\n      0x15\n        /* \"#utility.yul\":26981:26984   */\n      dup4\n        /* \"#utility.yul\":26922:26989   */\n      tag_384\n      jump\t// in\n    tag_717:\n        /* \"#utility.yul\":26915:26989   */\n      swap2\n      pop\n        /* \"#utility.yul\":26998:27091   */\n      tag_718\n        /* \"#utility.yul\":27087:27090   */\n      dup3\n        /* \"#utility.yul\":26998:27091   */\n      tag_449\n      jump\t// in\n    tag_718:\n        /* \"#utility.yul\":27116:27118   */\n      0x20\n        /* \"#utility.yul\":27111:27114   */\n      dup3\n        /* \"#utility.yul\":27107:27119   */\n      add\n        /* \"#utility.yul\":27100:27119   */\n      swap1\n      pop\n        /* \"#utility.yul\":26759:27125   */\n      swap2\n      swap1\n      pop\n      jump\t// out\n        /* \"#utility.yul\":27131:27550   */\n    tag_273:\n        /* \"#utility.yul\":27297:27301   */\n      0x00\n        /* \"#utility.yul\":27335:27337   */\n      0x20\n        /* \"#utility.yul\":27324:27333   */\n      dup3\n        /* \"#utility.yul\":27320:27338   */\n      add\n        /* \"#utility.yul\":27312:27338   */\n      swap1\n      pop\n        /* \"#utility.yul\":27384:27393   */\n      dup2\n        /* \"#utility.yul\":27378:27382   */\n      dup2\n        /* \"#utility.yul\":27374:27394   */\n      sub\n        /* \"#utility.yul\":27370:27371   */\n      0x00\n        /* \"#utility.yul\":27359:27368   */\n      dup4\n        /* \"#utility.yul\":27355:27372   */\n      add\n        /* \"#utility.yul\":27348:27395   */\n      mstore\n        /* \"#utility.yul\":27412:27543   */\n      tag_720\n        /* \"#utility.yul\":27538:27542   */\n      dup2\n        /* \"#utility.yul\":27412:27543   */\n      tag_450\n      jump\t// in\n    tag_720:\n        /* \"#utility.yul\":27404:27543   */\n      swap1\n      pop\n        /* \"#utility.yul\":27131:27550   */\n      swap2\n      swap1\n      pop\n      jump\t// out\n        /* \"#utility.yul\":27556:28291   */\n    tag_280:\n        /* \"#utility.yul\":27773:27777   */\n      0x00\n        /* \"#utility.yul\":27811:27814   */\n      0x80\n        /* \"#utility.yul\":27800:27809   */\n      dup3\n        /* \"#utility.yul\":27796:27815   */\n      add\n        /* \"#utility.yul\":27788:27815   */\n      swap1\n      pop\n        /* \"#utility.yul\":27861:27870   */\n      dup2\n        /* \"#utility.yul\":27855:27859   */\n      dup2\n        /* \"#utility.yul\":27851:27871   */\n      sub\n        /* \"#utility.yul\":27847:27848   */\n      0x00\n        /* \"#utility.yul\":27836:27845   */\n      dup4\n        /* \"#utility.yul\":27832:27849   */\n      add\n        /* \"#utility.yul\":27825:27872   */\n      mstore\n        /* \"#utility.yul\":27889:27967   */\n      tag_722\n        /* \"#utility.yul\":27962:27966   */\n      dup2\n        /* \"#utility.yul\":27953:27959   */\n      dup8\n        /* \"#utility.yul\":27889:27967   */\n      tag_387\n      jump\t// in\n    tag_722:\n        /* \"#utility.yul\":27881:27967   */\n      swap1\n      pop\n        /* \"#utility.yul\":28014:28023   */\n      dup2\n        /* \"#utility.yul\":28008:28012   */\n      dup2\n        /* \"#utility.yul\":28004:28024   */\n      sub\n        /* \"#utility.yul\":27999:28001   */\n      0x20\n        /* \"#utility.yul\":27988:27997   */\n      dup4\n        /* \"#utility.yul\":27984:28002   */\n      add\n        /* \"#utility.yul\":27977:28025   */\n      mstore\n        /* \"#utility.yul\":28042:28120   */\n      tag_723\n        /* \"#utility.yul\":28115:28119   */\n      dup2\n        /* \"#utility.yul\":28106:28112   */\n      dup7\n        /* \"#utility.yul\":28042:28120   */\n      tag_387\n      jump\t// in\n    tag_723:\n        /* \"#utility.yul\":28034:28120   */\n      swap1\n      pop\n        /* \"#utility.yul\":28130:28202   */\n      tag_724\n        /* \"#utility.yul\":28198:28200   */\n      0x40\n        /* \"#utility.yul\":28187:28196   */\n      dup4\n        /* \"#utility.yul\":28183:28201   */\n      add\n        /* \"#utility.yul\":28174:28180   */\n      dup6\n        /* \"#utility.yul\":28130:28202   */\n      tag_400\n      jump\t// in\n    tag_724:\n        /* \"#utility.yul\":28212:28284   */\n      tag_725\n        /* \"#utility.yul\":28280:28282   */\n      0x60\n        /* \"#utility.yul\":28269:28278   */\n      dup4\n        /* \"#utility.yul\":28265:28283   */\n      add\n        /* \"#utility.yul\":28256:28262   */\n      dup5\n        /* \"#utility.yul\":28212:28284   */\n      tag_412\n      jump\t// in\n    tag_725:\n        /* \"#utility.yul\":27556:28291   */\n      swap6\n      swap5\n      pop\n      pop\n      pop\n      pop\n      pop\n      jump\t// out\n        /* \"#utility.yul\":28297:28476   */\n    tag_451:\n        /* \"#utility.yul\":28437:28468   */\n      0x416d6f756e74206d7573742062652067726561746572207468616e2030000000\n        /* \"#utility.yul\":28433:28434   */\n      0x00\n        /* \"#utility.yul\":28425:28431   */\n      dup3\n        /* \"#utility.yul\":28421:28435   */\n      add\n        /* \"#utility.yul\":28414:28469   */\n      mstore\n        /* \"#utility.yul\":28297:28476   */\n      pop\n      jump\t// out\n        /* \"#utility.yul\":28482:28848   */\n    tag_452:\n        /* \"#utility.yul\":28624:28627   */\n      0x00\n        /* \"#utility.yul\":28645:28712   */\n      tag_728\n        /* \"#utility.yul\":28709:28711   */\n      0x1d\n        /* \"#utility.yul\":28704:28707   */\n      dup4\n        /* \"#utility.yul\":28645:28712   */\n      tag_384\n      jump\t// in\n    tag_728:\n        /* \"#utility.yul\":28638:28712   */\n      swap2\n      pop\n        /* \"#utility.yul\":28721:28814   */\n      tag_729\n        /* \"#utility.yul\":28810:28813   */\n      dup3\n        /* \"#utility.yul\":28721:28814   */\n      tag_451\n      jump\t// in\n    tag_729:\n        /* \"#utility.yul\":28839:28841   */\n      0x20\n        /* \"#utility.yul\":28834:28837   */\n      dup3\n        /* \"#utility.yul\":28830:28842   */\n      add\n        /* \"#utility.yul\":28823:28842   */\n      swap1\n      pop\n        /* \"#utility.yul\":28482:28848   */\n      swap2\n      swap1\n      pop\n      jump\t// out\n        /* \"#utility.yul\":28854:29273   */\n    tag_288:\n        /* \"#utility.yul\":29020:29024   */\n      0x00\n        /* \"#utility.yul\":29058:29060   */\n      0x20\n        /* \"#utility.yul\":29047:29056   */\n      dup3\n        /* \"#utility.yul\":29043:29061   */\n      add\n        /* \"#utility.yul\":29035:29061   */\n      swap1\n      pop\n        /* \"#utility.yul\":29107:29116   */\n      dup2\n        /* \"#utility.yul\":29101:29105   */\n      dup2\n        /* \"#utility.yul\":29097:29117   */\n      sub\n        /* \"#utility.yul\":29093:29094   */\n      0x00\n        /* \"#utility.yul\":29082:29091   */\n      dup4\n        /* \"#utility.yul\":29078:29095   */\n      add\n        /* \"#utility.yul\":29071:29118   */\n      mstore\n        /* \"#utility.yul\":29135:29266   */\n      tag_731\n        /* \"#utility.yul\":29261:29265   */\n      dup2\n        /* \"#utility.yul\":29135:29266   */\n      tag_452\n      jump\t// in\n    tag_731:\n        /* \"#utility.yul\":29127:29266   */\n      swap1\n      pop\n        /* \"#utility.yul\":28854:29273   */\n      swap2\n      swap1\n      pop\n      jump\t// out\n        /* \"#utility.yul\":29279:29702   */\n    tag_291:\n        /* \"#utility.yul\":29420:29424   */\n      0x00\n        /* \"#utility.yul\":29458:29460   */\n      0x40\n        /* \"#utility.yul\":29447:29456   */\n      dup3\n        /* \"#utility.yul\":29443:29461   */\n      add\n        /* \"#utility.yul\":29435:29461   */\n      swap1\n      pop\n        /* \"#utility.yul\":29507:29516   */\n      dup2\n        /* \"#utility.yul\":29501:29505   */\n      dup2\n        /* \"#utility.yul\":29497:29517   */\n      sub\n        /* \"#utility.yul\":29493:29494   */\n      0x00\n        /* \"#utility.yul\":29482:29491   */\n      dup4\n        /* \"#utility.yul\":29478:29495   */\n      add\n        /* \"#utility.yul\":29471:29518   */\n      mstore\n        /* \"#utility.yul\":29535:29613   */\n      tag_733\n        /* \"#utility.yul\":29608:29612   */\n      dup2\n        /* \"#utility.yul\":29599:29605   */\n      dup6\n        /* \"#utility.yul\":29535:29613   */\n      tag_387\n      jump\t// in\n    tag_733:\n        /* \"#utility.yul\":29527:29613   */\n      swap1\n      pop\n        /* \"#utility.yul\":29623:29695   */\n      tag_734\n        /* \"#utility.yul\":29691:29693   */\n      0x20\n        /* \"#utility.yul\":29680:29689   */\n      dup4\n        /* \"#utility.yul\":29676:29694   */\n      add\n        /* \"#utility.yul\":29667:29673   */\n      dup5\n        /* \"#utility.yul\":29623:29695   */\n      tag_400\n      jump\t// in\n    tag_734:\n        /* \"#utility.yul\":29279:29702   */\n      swap4\n      swap3\n      pop\n      pop\n      pop\n      jump\t// out\n        /* \"#utility.yul\":29708:29875   */\n    tag_453:\n        /* \"#utility.yul\":29848:29867   */\n      0x496e76616c696420726563697069656e74000000000000000000000000000000\n        /* \"#utility.yul\":29844:29845   */\n      0x00\n        /* \"#utility.yul\":29836:29842   */\n      dup3\n        /* \"#utility.yul\":29832:29846   */\n      add\n        /* \"#utility.yul\":29825:29868   */\n      mstore\n        /* \"#utility.yul\":29708:29875   */\n      pop\n      jump\t// out\n        /* \"#utility.yul\":29881:30247   */\n    tag_454:\n        /* \"#utility.yul\":30023:30026   */\n      0x00\n        /* \"#utility.yul\":30044:30111   */\n      tag_737\n        /* \"#utility.yul\":30108:30110   */\n      0x11\n        /* \"#utility.yul\":30103:30106   */\n      dup4\n        /* \"#utility.yul\":30044:30111   */\n      tag_384\n      jump\t// in\n    tag_737:\n        /* \"#utility.yul\":30037:30111   */\n      swap2\n      pop\n        /* \"#utility.yul\":30120:30213   */\n      tag_738\n        /* \"#utility.yul\":30209:30212   */\n      dup3\n        /* \"#utility.yul\":30120:30213   */\n      tag_453\n      jump\t// in\n    tag_738:\n        /* \"#utility.yul\":30238:30240   */\n      0x20\n        /* \"#utility.yul\":30233:30236   */\n      dup3\n        /* \"#utility.yul\":30229:30241   */\n      add\n        /* \"#utility.yul\":30222:30241   */\n      swap1\n      pop\n        /* \"#utility.yul\":29881:30247   */\n      swap2\n      swap1\n      pop\n      jump\t// out\n        /* \"#utility.yul\":30253:30672   */\n    tag_298:\n        /* \"#utility.yul\":30419:30423   */\n      0x00\n        /* \"#utility.yul\":30457:30459   */\n      0x20\n        /* \"#utility.yul\":30446:30455   */\n      dup3\n        /* \"#utility.yul\":30442:30460   */\n      add\n        /* \"#utility.yul\":30434:30460   */\n      swap1\n      pop\n        /* \"#utility.yul\":30506:30515   */\n      dup2\n        /* \"#utility.yul\":30500:30504   */\n      dup2\n        /* \"#utility.yul\":30496:30516   */\n      sub\n        /* \"#utility.yul\":30492:30493   */\n      0x00\n        /* \"#utility.yul\":30481:30490   */\n      dup4\n        /* \"#utility.yul\":30477:30494   */\n      add\n        /* \"#utility.yul\":30470:30517   */\n      mstore\n        /* \"#utility.yul\":30534:30665   */\n      tag_740\n        /* \"#utility.yul\":30660:30664   */\n      dup2\n        /* \"#utility.yul\":30534:30665   */\n      tag_454\n      jump\t// in\n    tag_740:\n        /* \"#utility.yul\":30526:30665   */\n      swap1\n      pop\n        /* \"#utility.yul\":30253:30672   */\n      swap2\n      swap1\n      pop\n      jump\t// out\n        /* \"#utility.yul\":30678:30858   */\n    tag_455:\n        /* \"#utility.yul\":30726:30803   */\n      0x4e487b7100000000000000000000000000000000000000000000000000000000\n        /* \"#utility.yul\":30723:30724   */\n      0x00\n        /* \"#utility.yul\":30716:30804   */\n      mstore\n        /* \"#utility.yul\":30823:30827   */\n      0x11\n        /* \"#utility.yul\":30820:30821   */\n      0x04\n        /* \"#utility.yul\":30813:30828   */\n      mstore\n        /* \"#utility.yul\":30847:30851   */\n      0x24\n        /* \"#utility.yul\":30844:30845   */\n      0x00\n        /* \"#utility.yul\":30837:30852   */\n      revert\n        /* \"#utility.yul\":30864:31055   */\n    tag_304:\n        /* \"#utility.yul\":30904:30907   */\n      0x00\n        /* \"#utility.yul\":30923:30943   */\n      tag_743\n        /* \"#utility.yul\":30941:30942   */\n      dup3\n        /* \"#utility.yul\":30923:30943   */\n      tag_395\n      jump\t// in\n    tag_743:\n        /* \"#utility.yul\":30918:30943   */\n      swap2\n      pop\n        /* \"#utility.yul\":30957:30977   */\n      tag_744\n        /* \"#utility.yul\":30975:30976   */\n      dup4\n        /* \"#utility.yul\":30957:30977   */\n      tag_395\n      jump\t// in\n    tag_744:\n        /* \"#utility.yul\":30952:30977   */\n      swap3\n      pop\n        /* \"#utility.yul\":31000:31001   */\n      dup3\n        /* \"#utility.yul\":30997:30998   */\n      dup3\n        /* \"#utility.yul\":30993:31002   */\n      add\n        /* \"#utility.yul\":30986:31002   */\n      swap1\n      pop\n        /* \"#utility.yul\":31021:31024   */\n      dup1\n        /* \"#utility.yul\":31018:31019   */\n      dup3\n        /* \"#utility.yul\":31015:31025   */\n      gt\n        /* \"#utility.yul\":31012:31048   */\n      iszero\n      tag_745\n      jumpi\n        /* \"#utility.yul\":31028:31046   */\n      tag_746\n      tag_455\n      jump\t// in\n    tag_746:\n        /* \"#utility.yul\":31012:31048   */\n    tag_745:\n        /* \"#utility.yul\":30864:31055   */\n      swap3\n      swap2\n      pop\n      pop\n      jump\t// out\n        /* \"#utility.yul\":31061:31503   */\n    tag_327:\n        /* \"#utility.yul\":31210:31214   */\n      0x00\n        /* \"#utility.yul\":31248:31250   */\n      0x60\n        /* \"#utility.yul\":31237:31246   */\n      dup3\n        /* \"#utility.yul\":31233:31251   */\n      add\n        /* \"#utility.yul\":31225:31251   */\n      swap1\n      pop\n        /* \"#utility.yul\":31261:31332   */\n      tag_748\n        /* \"#utility.yul\":31329:31330   */\n      0x00\n        /* \"#utility.yul\":31318:31327   */\n      dup4\n        /* \"#utility.yul\":31314:31331   */\n      add\n        /* \"#utility.yul\":31305:31311   */\n      dup7\n        /* \"#utility.yul\":31261:31332   */\n      tag_412\n      jump\t// in\n    tag_748:\n        /* \"#utility.yul\":31342:31414   */\n      tag_749\n        /* \"#utility.yul\":31410:31412   */\n      0x20\n        /* \"#utility.yul\":31399:31408   */\n      dup4\n        /* \"#utility.yul\":31395:31413   */\n      add\n        /* \"#utility.yul\":31386:31392   */\n      dup6\n        /* \"#utility.yul\":31342:31414   */\n      tag_400\n      jump\t// in\n    tag_749:\n        /* \"#utility.yul\":31424:31496   */\n      tag_750\n        /* \"#utility.yul\":31492:31494   */\n      0x40\n        /* \"#utility.yul\":31481:31490   */\n      dup4\n        /* \"#utility.yul\":31477:31495   */\n      add\n        /* \"#utility.yul\":31468:31474   */\n      dup5\n        /* \"#utility.yul\":31424:31496   */\n      tag_400\n      jump\t// in\n    tag_750:\n        /* \"#utility.yul\":31061:31503   */\n      swap5\n      swap4\n      pop\n      pop\n      pop\n      pop\n      jump\t// out\n        /* \"#utility.yul\":31509:31679   */\n    tag_456:\n        /* \"#utility.yul\":31649:31671   */\n      0x5061757361626c653a206e6f7420706175736564000000000000000000000000\n        /* \"#utility.yul\":31645:31646   */\n      0x00\n        /* \"#utility.yul\":31637:31643   */\n      dup3\n        /* \"#utility.yul\":31633:31647   */\n      add\n        /* \"#utility.yul\":31626:31672   */\n      mstore\n        /* \"#utility.yul\":31509:31679   */\n      pop\n      jump\t// out\n        /* \"#utility.yul\":31685:32051   */\n    tag_457:\n        /* \"#utility.yul\":31827:31830   */\n      0x00\n        /* \"#utility.yul\":31848:31915   */\n      tag_753\n        /* \"#utility.yul\":31912:31914   */\n      0x14\n        /* \"#utility.yul\":31907:31910   */\n      dup4\n        /* \"#utility.yul\":31848:31915   */\n      tag_384\n      jump\t// in\n    tag_753:\n        /* \"#utility.yul\":31841:31915   */\n      swap2\n      pop\n        /* \"#utility.yul\":31924:32017   */\n      tag_754\n        /* \"#utility.yul\":32013:32016   */\n      dup3\n        /* \"#utility.yul\":31924:32017   */\n      tag_456\n      jump\t// in\n    tag_754:\n        /* \"#utility.yul\":32042:32044   */\n      0x20\n        /* \"#utility.yul\":32037:32040   */\n      dup3\n        /* \"#utility.yul\":32033:32045   */\n      add\n        /* \"#utility.yul\":32026:32045   */\n      swap1\n      pop\n        /* \"#utility.yul\":31685:32051   */\n      swap2\n      swap1\n      pop\n      jump\t// out\n        /* \"#utility.yul\":32057:32476   */\n    tag_377:\n        /* \"#utility.yul\":32223:32227   */\n      0x00\n        /* \"#utility.yul\":32261:32263   */\n      0x20\n        /* \"#utility.yul\":32250:32259   */\n      dup3\n        /* \"#utility.yul\":32246:32264   */\n      add\n        /* \"#utility.yul\":32238:32264   */\n      swap1\n      pop\n        /* \"#utility.yul\":32310:32319   */\n      dup2\n        /* \"#utility.yul\":32304:32308   */\n      dup2\n        /* \"#utility.yul\":32300:32320   */\n      sub\n        /* \"#utility.yul\":32296:32297   */\n      0x00\n        /* \"#utility.yul\":32285:32294   */\n      dup4\n        /* \"#utility.yul\":32281:32298   */\n      add\n        /* \"#utility.yul\":32274:32321   */\n      mstore\n        /* \"#utility.yul\":32338:32469   */\n      tag_756\n        /* \"#utility.yul\":32464:32468   */\n      dup2\n        /* \"#utility.yul\":32338:32469   */\n      tag_457\n      jump\t// in\n    tag_756:\n        /* \"#utility.yul\":32330:32469   */\n      swap1\n      pop\n        /* \"#utility.yul\":32057:32476   */\n      swap2\n      swap1\n      pop\n      jump\t// out\n        /* \"#utility.yul\":32482:32648   */\n    tag_458:\n        /* \"#utility.yul\":32622:32640   */\n      0x5061757361626c653a2070617573656400000000000000000000000000000000\n        /* \"#utility.yul\":32618:32619   */\n      0x00\n        /* \"#utility.yul\":32610:32616   */\n      dup3\n        /* \"#utility.yul\":32606:32620   */\n      add\n        /* \"#utility.yul\":32599:32641   */\n      mstore\n        /* \"#utility.yul\":32482:32648   */\n      pop\n      jump\t// out\n        /* \"#utility.yul\":32654:33020   */\n    tag_459:\n        /* \"#utility.yul\":32796:32799   */\n      0x00\n        /* \"#utility.yul\":32817:32884   */\n      tag_759\n        /* \"#utility.yul\":32881:32883   */\n      0x10\n        /* \"#utility.yul\":32876:32879   */\n      dup4\n        /* \"#utility.yul\":32817:32884   */\n      tag_384\n      jump\t// in\n    tag_759:\n        /* \"#utility.yul\":32810:32884   */\n      swap2\n      pop\n        /* \"#utility.yul\":32893:32986   */\n      tag_760\n        /* \"#utility.yul\":32982:32985   */\n      dup3\n        /* \"#utility.yul\":32893:32986   */\n      tag_458\n      jump\t// in\n    tag_760:\n        /* \"#utility.yul\":33011:33013   */\n      0x20\n        /* \"#utility.yul\":33006:33009   */\n      dup3\n        /* \"#utility.yul\":33002:33014   */\n      add\n        /* \"#utility.yul\":32995:33014   */\n      swap1\n      pop\n        /* \"#utility.yul\":32654:33020   */\n      swap2\n      swap1\n      pop\n      jump\t// out\n        /* \"#utility.yul\":33026:33445   */\n    tag_382:\n        /* \"#utility.yul\":33192:33196   */\n      0x00\n        /* \"#utility.yul\":33230:33232   */\n      0x20\n        /* \"#utility.yul\":33219:33228   */\n      dup3\n        /* \"#utility.yul\":33215:33233   */\n      add\n        /* \"#utility.yul\":33207:33233   */\n      swap1\n      pop\n        /* \"#utility.yul\":33279:33288   */\n      dup2\n        /* \"#utility.yul\":33273:33277   */\n      dup2\n        /* \"#utility.yul\":33269:33289   */\n      sub\n        /* \"#utility.yul\":33265:33266   */\n      0x00\n        /* \"#utility.yul\":33254:33263   */\n      dup4\n        /* \"#utility.yul\":33250:33267   */\n      add\n        /* \"#utility.yul\":33243:33290   */\n      mstore\n        /* \"#utility.yul\":33307:33438   */\n      tag_762\n        /* \"#utility.yul\":33433:33437   */\n      dup2\n        /* \"#utility.yul\":33307:33438   */\n      tag_459\n      jump\t// in\n    tag_762:\n        /* \"#utility.yul\":33299:33438   */\n      swap1\n      pop\n        /* \"#utility.yul\":33026:33445   */\n      swap2\n      swap1\n      pop\n      jump\t// out\n\n    auxdata: 0xa2646970667358221220c9dd87991d3dfd3269ee70b4e1b3a1856c4210a541487b49ad605b1370ba413164736f6c63430008140033\n}\n",
				"bytecode": {
					"linkReferences": {},
					"object": "608060405234801562000010575f80fd5b503360405180602001604052805f81525060405180602001604052805f815250816003908162000041919062000422565b50806004908162000053919062000422565b5050505f73ffffffffffffffffffffffffffffffffffffffff168173ffffffffffffffffffffffffffffffffffffffff1603620000c9575f6040517f1e4fbdf7000000000000000000000000000000000000000000000000000000008152600401620000c0919062000549565b60405180910390fd5b620000da81620000fb60201b60201c565b505f600560146101000a81548160ff02191690831515021790555062000564565b5f60055f9054906101000a900473ffffffffffffffffffffffffffffffffffffffff1690508160055f6101000a81548173ffffffffffffffffffffffffffffffffffffffff021916908373ffffffffffffffffffffffffffffffffffffffff1602179055508173ffffffffffffffffffffffffffffffffffffffff168173ffffffffffffffffffffffffffffffffffffffff167f8be0079c531659141344cd1fd0a4f28419497f9722a3daafe3b4186f6b6457e060405160405180910390a35050565b5f81519050919050565b7f4e487b71000000000000000000000000000000000000000000000000000000005f52604160045260245ffd5b7f4e487b71000000000000000000000000000000000000000000000000000000005f52602260045260245ffd5b5f60028204905060018216806200023a57607f821691505b60208210810362000250576200024f620001f5565b5b50919050565b5f819050815f5260205f209050919050565b5f6020601f8301049050919050565b5f82821b905092915050565b5f60088302620002b47fffffffffffffffffffffffffffffffffffffffffffffffffffffffffffffffff8262000277565b620002c0868362000277565b95508019841693508086168417925050509392505050565b5f819050919050565b5f819050919050565b5f6200030a62000304620002fe84620002d8565b620002e1565b620002d8565b9050919050565b5f819050919050565b6200032583620002ea565b6200033d620003348262000311565b84845462000283565b825550505050565b5f90565b6200035362000345565b620003608184846200031a565b505050565b5b8181101562000387576200037b5f8262000349565b60018101905062000366565b5050565b601f821115620003d657620003a08162000256565b620003ab8462000268565b81016020851015620003bb578190505b620003d3620003ca8562000268565b83018262000365565b50505b505050565b5f82821c905092915050565b5f620003f85f1984600802620003db565b1980831691505092915050565b5f620004128383620003e7565b9150826002028217905092915050565b6200042d82620001be565b67ffffffffffffffff811115620004495762000448620001c8565b5b62000455825462000222565b620004628282856200038b565b5f60209050601f83116001811462000498575f841562000483578287015190505b6200048f858262000405565b865550620004fe565b601f198416620004a88662000256565b5f5b82811015620004d157848901518255600182019150602085019450602081019050620004aa565b86831015620004f15784890151620004ed601f891682620003e7565b8355505b6001600288020188555050505b505050505050565b5f73ffffffffffffffffffffffffffffffffffffffff82169050919050565b5f620005318262000506565b9050919050565b620005438162000525565b82525050565b5f6020820190506200055e5f83018462000538565b92915050565b612e6480620005725f395ff3fe608060405234801561000f575f80fd5b50600436106101e3575f3560e01c8063715018a61161010d578063a9059cbb116100a0578063d64582851161006f578063d64582851461058f578063dd62ed3e146105ab578063ecbc5095146105db578063f2fde38b146105f7576101e3565b8063a9059cbb146104f7578063bc3bea5e14610527578063bd3a13f614610543578063cb3fdb611461055f576101e3565b80638456cb59116100dc5780638456cb59146104955780638da5cb5b1461049f57806395d89b41146104bd578063a00686f1146104db576101e3565b8063715018a61461040f57806379cc6790146104195780637f58b9d3146104355780637fb3609914610465576101e3565b8063392e53cd116101855780634ebc47f8116101545780634ebc47f8146103615780635c975abb1461039157806366368fb6146103af57806370a08231146103df576101e3565b8063392e53cd146102ed5780633f4ba83a1461030b57806342966c68146103155780634cf590b014610331576101e3565b806319eccdfd116101c157806319eccdfd1461025357806323b872dd1461026f578063313ce5671461029f57806337915874146102bd576101e3565b806306fdde03146101e7578063095ea7b31461020557806318160ddd14610235575b5f80fd5b6101ef610613565b6040516101fc9190611e81565b60405180910390f35b61021f600480360381019061021a9190611f3f565b6106a3565b60405161022c9190611f97565b60405180910390f35b61023d6106c5565b60405161024a9190611fbf565b60405180910390f35b61026d60048036038101906102689190612104565b6106ce565b005b6102896004803603810190610284919061215e565b610824565b6040516102969190611f97565b60405180910390f35b6102a7610852565b6040516102b491906121c9565b60405180910390f35b6102d760048036038101906102d291906121e2565b610867565b6040516102e49190611f97565b60405180910390f35b6102f5610884565b6040516103029190611f97565b60405180910390f35b610313610899565b005b61032f600480360381019061032a919061220d565b6108ab565b005b61034b600480360381019061034691906121e2565b6108c0565b6040516103589190611e81565b60405180910390f35b61037b600480360381019061037691906121e2565b61098d565b6040516103889190611e81565b60405180910390f35b610399610a28565b6040516103a69190611f97565b60405180910390f35b6103c960048036038101906103c49190612238565b610a3e565b6040516103d69190611fbf565b60405180910390f35b6103f960048036038101906103f491906121e2565b610a6b565b6040516104069190611fbf565b60405180910390f35b610417610ab0565b005b610433600480360381019061042e9190611f3f565b610ac3565b005b61044f600480360381019061044a91906121e2565b610ad9565b60405161045c9190611fbf565b60405180910390f35b61047f600480360381019061047a9190612238565b610b1f565b60405161048c9190611fbf565b60405180910390f35b61049d610b46565b005b6104a7610b58565b6040516104b4919061228e565b60405180910390f35b6104c5610b80565b6040516104d29190611e81565b60405180910390f35b6104f560048036038101906104f091906121e2565b610c10565b005b610511600480360381019061050c9190611f3f565b610dab565b60405161051e9190611f97565b60405180910390f35b610541600480360381019061053c91906121e2565b610dcd565b005b61055d600480360381019061055891906122a7565b610ef8565b005b610579600480360381019061057491906121e2565b611128565b6040516105869190611fbf565b60405180910390f35b6105a960048036038101906105a49190612343565b61113d565b005b6105c560048036038101906105c0919061239d565b61122a565b6040516105d29190611fbf565b60405180910390f35b6105f560048036038101906105f091906123db565b6112ac565b005b610611600480360381019061060c91906121e2565b61144f565b005b60606006805461062290612458565b80601f016020809104026020016040519081016040528092919081815260200182805461064e90612458565b80156106995780601f1061067057610100808354040283529160200191610699565b820191905f5260205f20905b81548152906001019060200180831161067c57829003601f168201915b5050505050905090565b5f806106ad6114d3565b90506106ba8185856114da565b600191505092915050565b5f600254905090565b6106d66114ec565b5f73ffffffffffffffffffffffffffffffffffffffff168273ffffffffffffffffffffffffffffffffffffffff1603610744576040517f08c379a000000000000000000000000000000000000000000000000000000000815260040161073b906124d2565b60405180910390fd5b5f815111610787576040517f08c379a000000000000000000000000000000000000000000000000000000000815260040161077e9061253a565b60405180910390fd5b80600c5f8473ffffffffffffffffffffffffffffffffffffffff1673ffffffffffffffffffffffffffffffffffffffff1681526020019081526020015f2090816107d191906126f5565b508173ffffffffffffffffffffffffffffffffffffffff167fa110b2daa9b9328e235e98c75405f18d092b0d0edd4574cc8d80a41908fbf0bf826040516108189190611e81565b60405180910390a25050565b5f8061082e6114d3565b905061083b858285611573565b610846858585611606565b60019150509392505050565b5f60085f9054906101000a900460ff16905090565b600a602052805f5260405f205f915054906101000a900460ff1681565b5f600d5f9054906101000a900460ff16905090565b6108a16114ec565b6108a96116f6565b565b6108b36114ec565b6108bd3382611758565b50565b6060600c5f8373ffffffffffffffffffffffffffffffffffffffff1673ffffffffffffffffffffffffffffffffffffffff1681526020019081526020015f20805461090a90612458565b80601f016020809104026020016040519081016040528092919081815260200182805461093690612458565b80156109815780601f1061095857610100808354040283529160200191610981565b820191905f5260205f20905b81548152906001019060200180831161096457829003601f168201915b50505050509050919050565b600c602052805f5260405f205f9150905080546109a990612458565b80601f01602080910402602001604051908101604052809291908181526020018280546109d590612458565b8015610a205780601f106109f757610100808354040283529160200191610a20565b820191905f5260205f20905b815481529060010190602001808311610a0357829003601f168201915b505050505081565b5f600560149054906101000a900460ff16905090565b600b818051602081018201805184825260208301602085012081835280955050505050505f915090505481565b5f805f8373ffffffffffffffffffffffffffffffffffffffff1673ffffffffffffffffffffffffffffffffffffffff1681526020019081526020015f20549050919050565b610ab86114ec565b610ac15f6117d7565b565b610acb6114ec565b610ad58282611758565b5050565b5f60095f8373ffffffffffffffffffffffffffffffffffffffff1673ffffffffffffffffffffffffffffffffffffffff1681526020019081526020015f20549050919050565b5f600b82604051610b3091906127fe565b9081526020016040518091039020549050919050565b610b4e6114ec565b610b5661189a565b565b5f60055f9054906101000a900473ffffffffffffffffffffffffffffffffffffffff16905090565b606060078054610b8f90612458565b80601f0160208091040260200160405190810160405280929190818152602001828054610bbb90612458565b8015610c065780601f10610bdd57610100808354040283529160200191610c06565b820191905f5260205f20905b815481529060010190602001808311610be957829003601f168201915b5050505050905090565b610c186114ec565b5f73ffffffffffffffffffffffffffffffffffffffff168173ffffffffffffffffffffffffffffffffffffffff1603610c86576040517f08c379a0000000000000000000000000000000000000000000000000000000008152600401610c7d9061285e565b60405180910390fd5b600a5f8273ffffffffffffffffffffffffffffffffffffffff1673ffffffffffffffffffffffffffffffffffffffff1681526020019081526020015f205f9054906101000a900460ff1615610d10576040517f08c379a0000000000000000000000000000000000000000000000000000000008152600401610d07906128c6565b60405180910390fd5b6001600a5f8373ffffffffffffffffffffffffffffffffffffffff1673ffffffffffffffffffffffffffffffffffffffff1681526020019081526020015f205f6101000a81548160ff0219169083151502179055508073ffffffffffffffffffffffffffffffffffffffff167f6a45208724d4b6f6774a21924d8ada0231f197811681096d5fd6b5f22e6e73d360405160405180910390a250565b5f80610db56114d3565b9050610dc2818585611606565b600191505092915050565b610dd56114ec565b600a5f8273ffffffffffffffffffffffffffffffffffffffff1673ffffffffffffffffffffffffffffffffffffffff1681526020019081526020015f205f9054906101000a900460ff16610e5e576040517f08c379a0000000000000000000000000000000000000000000000000000000008152600401610e559061292e565b60405180910390fd5b5f600a5f8373ffffffffffffffffffffffffffffffffffffffff1673ffffffffffffffffffffffffffffffffffffffff1681526020019081526020015f205f6101000a81548160ff0219169083151502179055508073ffffffffffffffffffffffffffffffffffffffff167f93c4daca93fe23045ea63d803db724ccff33790f1b2434276479f728a4e38f9960405160405180910390a250565b600d5f9054906101000a900460ff1615610f47576040517f08c379a0000000000000000000000000000000000000000000000000000000008152600401610f3e90612996565b60405180910390fd5b5f845111610f8a576040517f08c379a0000000000000000000000000000000000000000000000000000000008152600401610f81906129fe565b60405180910390fd5b5f835111610fcd576040517f08c379a0000000000000000000000000000000000000000000000000000000008152600401610fc490612a66565b60405180910390fd5b5f821161100f576040517f08c379a000000000000000000000000000000000000000000000000000000000815260040161100690612af4565b60405180910390fd5b5f73ffffffffffffffffffffffffffffffffffffffff168173ffffffffffffffffffffffffffffffffffffffff160361107d576040517f08c379a000000000000000000000000000000000000000000000000000000000815260040161107490612b5c565b60405180910390fd5b836006908161108c91906126f5565b50826007908161109c91906126f5565b50601260085f6101000a81548160ff021916908360ff1602179055506110c1816117d7565b6110cb81836118fd565b6001600d5f6101000a81548160ff0219169083151502179055507f12bdfd2f29cf0194cd626fbd8a4b8fd1de36748d1a1b936eac39fe35845c585a8484848460405161111a9493929190612b7a565b60405180910390a150505050565b6009602052805f5260405f205f915090505481565b6111456114ec565b5f825111611188576040517f08c379a000000000000000000000000000000000000000000000000000000000815260040161117f9061253a565b60405180910390fd5b5f81116111ca576040517f08c379a00000000000000000000000000000000000000000000000000000000081526004016111c190612c15565b60405180910390fd5b80600b836040516111db91906127fe565b9081526020016040518091039020819055507f40595e4d22661278feeff293e3de4334b9132b0bf1c2aac89a8ec5aedb2c11a4828260405161121e929190612c33565b60405180910390a15050565b5f60015f8473ffffffffffffffffffffffffffffffffffffffff1673ffffffffffffffffffffffffffffffffffffffff1681526020019081526020015f205f8373ffffffffffffffffffffffffffffffffffffffff1673ffffffffffffffffffffffffffffffffffffffff1681526020019081526020015f2054905092915050565b6112b46114ec565b5f73ffffffffffffffffffffffffffffffffffffffff168373ffffffffffffffffffffffffffffffffffffffff1603611322576040517f08c379a000000000000000000000000000000000000000000000000000000000815260040161131990612cab565b60405180910390fd5b5f8211611364576040517f08c379a000000000000000000000000000000000000000000000000000000000815260040161135b90612c15565b60405180910390fd5b600a5f8273ffffffffffffffffffffffffffffffffffffffff1673ffffffffffffffffffffffffffffffffffffffff1681526020019081526020015f205f9054906101000a900460ff166113ed576040517f08c379a00000000000000000000000000000000000000000000000000000000081526004016113e49061285e565b60405180910390fd5b8160095f8573ffffffffffffffffffffffffffffffffffffffff1673ffffffffffffffffffffffffffffffffffffffff1681526020019081526020015f205f8282546114399190612cf6565b9250508190555061144a81836118fd565b505050565b6114576114ec565b5f73ffffffffffffffffffffffffffffffffffffffff168173ffffffffffffffffffffffffffffffffffffffff16036114c7575f6040517f1e4fbdf70000000000000000000000000000000000000000000000000000000081526004016114be919061228e565b60405180910390fd5b6114d0816117d7565b50565b5f33905090565b6114e7838383600161197c565b505050565b6114f46114d3565b73ffffffffffffffffffffffffffffffffffffffff16611512610b58565b73ffffffffffffffffffffffffffffffffffffffff1614611571576115356114d3565b6040517f118cdaa7000000000000000000000000000000000000000000000000000000008152600401611568919061228e565b60405180910390fd5b565b5f61157e848461122a565b90507fffffffffffffffffffffffffffffffffffffffffffffffffffffffffffffffff81101561160057818110156115f1578281836040517ffb8f41b20000000000000000000000000000000000000000000000000000000081526004016115e893929190612d29565b60405180910390fd5b6115ff84848484035f61197c565b5b50505050565b5f73ffffffffffffffffffffffffffffffffffffffff168373ffffffffffffffffffffffffffffffffffffffff1603611676575f6040517f96c6fd1e00000000000000000000000000000000000000000000000000000000815260040161166d919061228e565b60405180910390fd5b5f73ffffffffffffffffffffffffffffffffffffffff168273ffffffffffffffffffffffffffffffffffffffff16036116e6575f6040517fec442f050000000000000000000000000000000000000000000000000000000081526004016116dd919061228e565b60405180910390fd5b6116f1838383611b4b565b505050565b6116fe611d64565b5f600560146101000a81548160ff0219169083151502179055507f5db9ee0a495bf2e6ff9c91a7834c1ba4fdd244a5e8aa4e537bd38aeae4b073aa6117416114d3565b60405161174e919061228e565b60405180910390a1565b5f73ffffffffffffffffffffffffffffffffffffffff168273ffffffffffffffffffffffffffffffffffffffff16036117c8575f6040517f96c6fd1e0000000000000000000000000000000000000000000000000000000081526004016117bf919061228e565b60405180910390fd5b6117d3825f83611b4b565b5050565b5f60055f9054906101000a900473ffffffffffffffffffffffffffffffffffffffff1690508160055f6101000a81548173ffffffffffffffffffffffffffffffffffffffff021916908373ffffffffffffffffffffffffffffffffffffffff1602179055508173ffffffffffffffffffffffffffffffffffffffff168173ffffffffffffffffffffffffffffffffffffffff167f8be0079c531659141344cd1fd0a4f28419497f9722a3daafe3b4186f6b6457e060405160405180910390a35050565b6118a2611dad565b6001600560146101000a81548160ff0219169083151502179055507f62e78cea01bee320cd4e420270b5ea74000d11b0c9f74754ebdbfc544b05a2586118e66114d3565b6040516118f3919061228e565b60405180910390a1565b5f73ffffffffffffffffffffffffffffffffffffffff168273ffffffffffffffffffffffffffffffffffffffff160361196d575f6040517fec442f05000000000000000000000000000000000000000000000000000000008152600401611964919061228e565b60405180910390fd5b6119785f8383611b4b565b5050565b5f73ffffffffffffffffffffffffffffffffffffffff168473ffffffffffffffffffffffffffffffffffffffff16036119ec575f6040517fe602df050000000000000000000000000000000000000000000000000000000081526004016119e3919061228e565b60405180910390fd5b5f73ffffffffffffffffffffffffffffffffffffffff168373ffffffffffffffffffffffffffffffffffffffff1603611a5c575f6040517f94280d62000000000000000000000000000000000000000000000000000000008152600401611a53919061228e565b60405180910390fd5b8160015f8673ffffffffffffffffffffffffffffffffffffffff1673ffffffffffffffffffffffffffffffffffffffff1681526020019081526020015f205f8573ffffffffffffffffffffffffffffffffffffffff1673ffffffffffffffffffffffffffffffffffffffff1681526020019081526020015f20819055508015611b45578273ffffffffffffffffffffffffffffffffffffffff168473ffffffffffffffffffffffffffffffffffffffff167f8c5be1e5ebec7d5bd14f71427d1e84f3dd0314c0f7b2291e5b200ac8c7c3b92584604051611b3c9190611fbf565b60405180910390a35b50505050565b5f73ffffffffffffffffffffffffffffffffffffffff168373ffffffffffffffffffffffffffffffffffffffff1603611b9b578060025f828254611b8f9190612cf6565b92505081905550611c69565b5f805f8573ffffffffffffffffffffffffffffffffffffffff1673ffffffffffffffffffffffffffffffffffffffff1681526020019081526020015f2054905081811015611c24578381836040517fe450d38c000000000000000000000000000000000000000000000000000000008152600401611c1b93929190612d29565b60405180910390fd5b8181035f808673ffffffffffffffffffffffffffffffffffffffff1673ffffffffffffffffffffffffffffffffffffffff1681526020019081526020015f2081905550505b5f73ffffffffffffffffffffffffffffffffffffffff168273ffffffffffffffffffffffffffffffffffffffff1603611cb0578060025f8282540392505081905550611cfa565b805f808473ffffffffffffffffffffffffffffffffffffffff1673ffffffffffffffffffffffffffffffffffffffff1681526020019081526020015f205f82825401925050819055505b8173ffffffffffffffffffffffffffffffffffffffff168373ffffffffffffffffffffffffffffffffffffffff167fddf252ad1be2c89b69c2b068fc378daa952ba7f163c4a11628f55a4df523b3ef83604051611d579190611fbf565b60405180910390a3505050565b611d6c610a28565b611dab576040517f08c379a0000000000000000000000000000000000000000000000000000000008152600401611da290612da8565b60405180910390fd5b565b611db5610a28565b15611df5576040517f08c379a0000000000000000000000000000000000000000000000000000000008152600401611dec90612e10565b60405180910390fd5b565b5f81519050919050565b5f82825260208201905092915050565b5f5b83811015611e2e578082015181840152602081019050611e13565b5f8484015250505050565b5f601f19601f8301169050919050565b5f611e5382611df7565b611e5d8185611e01565b9350611e6d818560208601611e11565b611e7681611e39565b840191505092915050565b5f6020820190508181035f830152611e998184611e49565b905092915050565b5f604051905090565b5f80fd5b5f80fd5b5f73ffffffffffffffffffffffffffffffffffffffff82169050919050565b5f611edb82611eb2565b9050919050565b611eeb81611ed1565b8114611ef5575f80fd5b50565b5f81359050611f0681611ee2565b92915050565b5f819050919050565b611f1e81611f0c565b8114611f28575f80fd5b50565b5f81359050611f3981611f15565b92915050565b5f8060408385031215611f5557611f54611eaa565b5b5f611f6285828601611ef8565b9250506020611f7385828601611f2b565b9150509250929050565b5f8115159050919050565b611f9181611f7d565b82525050565b5f602082019050611faa5f830184611f88565b92915050565b611fb981611f0c565b82525050565b5f602082019050611fd25f830184611fb0565b92915050565b5f80fd5b5f80fd5b7f4e487b71000000000000000000000000000000000000000000000000000000005f52604160045260245ffd5b61201682611e39565b810181811067ffffffffffffffff8211171561203557612034611fe0565b5b80604052505050565b5f612047611ea1565b9050612053828261200d565b919050565b5f67ffffffffffffffff82111561207257612071611fe0565b5b61207b82611e39565b9050602081019050919050565b828183375f83830152505050565b5f6120a86120a384612058565b61203e565b9050828152602081018484840111156120c4576120c3611fdc565b5b6120cf848285612088565b509392505050565b5f82601f8301126120eb576120ea611fd8565b5b81356120fb848260208601612096565b91505092915050565b5f806040838503121561211a57612119611eaa565b5b5f61212785828601611ef8565b925050602083013567ffffffffffffffff81111561214857612147611eae565b5b612154858286016120d7565b9150509250929050565b5f805f6060848603121561217557612174611eaa565b5b5f61218286828701611ef8565b935050602061219386828701611ef8565b92505060406121a486828701611f2b565b9150509250925092565b5f60ff82169050919050565b6121c3816121ae565b82525050565b5f6020820190506121dc5f8301846121ba565b92915050565b5f602082840312156121f7576121f6611eaa565b5b5f61220484828501611ef8565b91505092915050565b5f6020828403121561222257612221611eaa565b5b5f61222f84828501611f2b565b91505092915050565b5f6020828403121561224d5761224c611eaa565b5b5f82013567ffffffffffffffff81111561226a57612269611eae565b5b612276848285016120d7565b91505092915050565b61228881611ed1565b82525050565b5f6020820190506122a15f83018461227f565b92915050565b5f805f80608085870312156122bf576122be611eaa565b5b5f85013567ffffffffffffffff8111156122dc576122db611eae565b5b6122e8878288016120d7565b945050602085013567ffffffffffffffff81111561230957612308611eae565b5b612315878288016120d7565b935050604061232687828801611f2b565b925050606061233787828801611ef8565b91505092959194509250565b5f806040838503121561235957612358611eaa565b5b5f83013567ffffffffffffffff81111561237657612375611eae565b5b612382858286016120d7565b925050602061239385828601611f2b565b9150509250929050565b5f80604083850312156123b3576123b2611eaa565b5b5f6123c085828601611ef8565b92505060206123d185828601611ef8565b9150509250929050565b5f805f606084860312156123f2576123f1611eaa565b5b5f6123ff86828701611ef8565b935050602061241086828701611f2b565b925050604061242186828701611ef8565b9150509250925092565b7f4e487b71000000000000000000000000000000000000000000000000000000005f52602260045260245ffd5b5f600282049050600182168061246f57607f821691505b6020821081036124825761248161242b565b5b50919050565b7f496e76616c69642062656e6566696369617279206164647265737300000000005f82015250565b5f6124bc601b83611e01565b91506124c782612488565b602082019050919050565b5f6020820190508181035f8301526124e9816124b0565b9050919050565b7f43617465676f72792063616e6e6f7420626520656d70747900000000000000005f82015250565b5f612524601883611e01565b915061252f826124f0565b602082019050919050565b5f6020820190508181035f83015261255181612518565b9050919050565b5f819050815f5260205f209050919050565b5f6020601f8301049050919050565b5f82821b905092915050565b5f600883026125b47fffffffffffffffffffffffffffffffffffffffffffffffffffffffffffffffff82612579565b6125be8683612579565b95508019841693508086168417925050509392505050565b5f819050919050565b5f6125f96125f46125ef84611f0c565b6125d6565b611f0c565b9050919050565b5f819050919050565b612612836125df565b61262661261e82612600565b848454612585565b825550505050565b5f90565b61263a61262e565b612645818484612609565b505050565b5b818110156126685761265d5f82612632565b60018101905061264b565b5050565b601f8211156126ad5761267e81612558565b6126878461256a565b81016020851015612696578190505b6126aa6126a28561256a565b83018261264a565b50505b505050565b5f82821c905092915050565b5f6126cd5f19846008026126b2565b1980831691505092915050565b5f6126e583836126be565b9150826002028217905092915050565b6126fe82611df7565b67ffffffffffffffff81111561271757612716611fe0565b5b6127218254612458565b61272c82828561266c565b5f60209050601f83116001811461275d575f841561274b578287015190505b61275585826126da565b8655506127bc565b601f19841661276b86612558565b5f5b828110156127925784890151825560018201915060208501945060208101905061276d565b868310156127af57848901516127ab601f8916826126be565b8355505b6001600288020188555050505b505050505050565b5f81905092915050565b5f6127d882611df7565b6127e281856127c4565b93506127f2818560208601611e11565b80840191505092915050565b5f61280982846127ce565b915081905092915050565b7f496e76616c69642076657374696e6720636f6e747261637400000000000000005f82015250565b5f612848601883611e01565b915061285382612814565b602082019050919050565b5f6020820190508181035f8301526128758161283c565b9050919050565b7f56657374696e6720636f6e747261637420616c726561647920616464656400005f82015250565b5f6128b0601e83611e01565b91506128bb8261287c565b602082019050919050565b5f6020820190508181035f8301526128dd816128a4565b9050919050565b7f56657374696e6720636f6e7472616374206e6f7420666f756e640000000000005f82015250565b5f612918601a83611e01565b9150612923826128e4565b602082019050919050565b5f6020820190508181035f8301526129458161290c565b9050919050565b7f416c726561647920696e697469616c697a6564000000000000000000000000005f82015250565b5f612980601383611e01565b915061298b8261294c565b602082019050919050565b5f6020820190508181035f8301526129ad81612974565b9050919050565b7f4e616d652063616e6e6f7420626520656d7074790000000000000000000000005f82015250565b5f6129e8601483611e01565b91506129f3826129b4565b602082019050919050565b5f6020820190508181035f830152612a15816129dc565b9050919050565b7f53796d626f6c2063616e6e6f7420626520656d707479000000000000000000005f82015250565b5f612a50601683611e01565b9150612a5b82612a1c565b602082019050919050565b5f6020820190508181035f830152612a7d81612a44565b9050919050565b7f546f74616c20737570706c79206d7573742062652067726561746572207468615f8201527f6e20300000000000000000000000000000000000000000000000000000000000602082015250565b5f612ade602383611e01565b9150612ae982612a84565b604082019050919050565b5f6020820190508181035f830152612b0b81612ad2565b9050919050565b7f496e76616c6964206f776e6572206164647265737300000000000000000000005f82015250565b5f612b46601583611e01565b9150612b5182612b12565b602082019050919050565b5f6020820190508181035f830152612b7381612b3a565b9050919050565b5f6080820190508181035f830152612b928187611e49565b90508181036020830152612ba68186611e49565b9050612bb56040830185611fb0565b612bc2606083018461227f565b95945050505050565b7f416d6f756e74206d7573742062652067726561746572207468616e20300000005f82015250565b5f612bff601d83611e01565b9150612c0a82612bcb565b602082019050919050565b5f6020820190508181035f830152612c2c81612bf3565b9050919050565b5f6040820190508181035f830152612c4b8185611e49565b9050612c5a6020830184611fb0565b9392505050565b7f496e76616c696420726563697069656e740000000000000000000000000000005f82015250565b5f612c95601183611e01565b9150612ca082612c61565b602082019050919050565b5f6020820190508181035f830152612cc281612c89565b9050919050565b7f4e487b71000000000000000000000000000000000000000000000000000000005f52601160045260245ffd5b5f612d0082611f0c565b9150612d0b83611f0c565b9250828201905080821115612d2357612d22612cc9565b5b92915050565b5f606082019050612d3c5f83018661227f565b612d496020830185611fb0565b612d566040830184611fb0565b949350505050565b7f5061757361626c653a206e6f74207061757365640000000000000000000000005f82015250565b5f612d92601483611e01565b9150612d9d82612d5e565b602082019050919050565b5f6020820190508181035f830152612dbf81612d86565b9050919050565b7f5061757361626c653a20706175736564000000000000000000000000000000005f82015250565b5f612dfa601083611e01565b9150612e0582612dc6565b602082019050919050565b5f6020820190508181035f830152612e2781612dee565b905091905056fea2646970667358221220c9dd87991d3dfd3269ee70b4e1b3a1856c4210a541487b49ad605b1370ba413164736f6c63430008140033",
					"opcodes": "PUSH1 0x80 PUSH1 0x40 MSTORE CALLVALUE DUP1 ISZERO PUSH3 0x10 JUMPI PUSH0 DUP1 REVERT JUMPDEST POP CALLER PUSH1 0x40 MLOAD DUP1 PUSH1 0x20 ADD PUSH1 0x40 MSTORE DUP1 PUSH0 DUP2 MSTORE POP PUSH1 0x40 MLOAD DUP1 PUSH1 0x20 ADD PUSH1 0x40 MSTORE DUP1 PUSH0 DUP2 MSTORE POP DUP2 PUSH1 0x3 SWAP1 DUP2 PUSH3 0x41 SWAP2 SWAP1 PUSH3 0x422 JUMP JUMPDEST POP DUP1 PUSH1 0x4 SWAP1 DUP2 PUSH3 0x53 SWAP2 SWAP1 PUSH3 0x422 JUMP JUMPDEST POP POP POP PUSH0 PUSH20 0xFFFFFFFFFFFFFFFFFFFFFFFFFFFFFFFFFFFFFFFF AND DUP2 PUSH20 0xFFFFFFFFFFFFFFFFFFFFFFFFFFFFFFFFFFFFFFFF AND SUB PUSH3 0xC9 JUMPI PUSH0 PUSH1 0x40 MLOAD PUSH32 0x1E4FBDF700000000000000000000000000000000000000000000000000000000 DUP2 MSTORE PUSH1 0x4 ADD PUSH3 0xC0 SWAP2 SWAP1 PUSH3 0x549 JUMP JUMPDEST PUSH1 0x40 MLOAD DUP1 SWAP2 SUB SWAP1 REVERT JUMPDEST PUSH3 0xDA DUP2 PUSH3 0xFB PUSH1 0x20 SHL PUSH1 0x20 SHR JUMP JUMPDEST POP PUSH0 PUSH1 0x5 PUSH1 0x14 PUSH2 0x100 EXP DUP2 SLOAD DUP2 PUSH1 0xFF MUL NOT AND SWAP1 DUP4 ISZERO ISZERO MUL OR SWAP1 SSTORE POP PUSH3 0x564 JUMP JUMPDEST PUSH0 PUSH1 0x5 PUSH0 SWAP1 SLOAD SWAP1 PUSH2 0x100 EXP SWAP1 DIV PUSH20 0xFFFFFFFFFFFFFFFFFFFFFFFFFFFFFFFFFFFFFFFF AND SWAP1 POP DUP2 PUSH1 0x5 PUSH0 PUSH2 0x100 EXP DUP2 SLOAD DUP2 PUSH20 0xFFFFFFFFFFFFFFFFFFFFFFFFFFFFFFFFFFFFFFFF MUL NOT AND SWAP1 DUP4 PUSH20 0xFFFFFFFFFFFFFFFFFFFFFFFFFFFFFFFFFFFFFFFF AND MUL OR SWAP1 SSTORE POP DUP2 PUSH20 0xFFFFFFFFFFFFFFFFFFFFFFFFFFFFFFFFFFFFFFFF AND DUP2 PUSH20 0xFFFFFFFFFFFFFFFFFFFFFFFFFFFFFFFFFFFFFFFF AND PUSH32 0x8BE0079C531659141344CD1FD0A4F28419497F9722A3DAAFE3B4186F6B6457E0 PUSH1 0x40 MLOAD PUSH1 0x40 MLOAD DUP1 SWAP2 SUB SWAP1 LOG3 POP POP JUMP JUMPDEST PUSH0 DUP2 MLOAD SWAP1 POP SWAP2 SWAP1 POP JUMP JUMPDEST PUSH32 0x4E487B7100000000000000000000000000000000000000000000000000000000 PUSH0 MSTORE PUSH1 0x41 PUSH1 0x4 MSTORE PUSH1 0x24 PUSH0 REVERT JUMPDEST PUSH32 0x4E487B7100000000000000000000000000000000000000000000000000000000 PUSH0 MSTORE PUSH1 0x22 PUSH1 0x4 MSTORE PUSH1 0x24 PUSH0 REVERT JUMPDEST PUSH0 PUSH1 0x2 DUP3 DIV SWAP1 POP PUSH1 0x1 DUP3 AND DUP1 PUSH3 0x23A JUMPI PUSH1 0x7F DUP3 AND SWAP2 POP JUMPDEST PUSH1 0x20 DUP3 LT DUP2 SUB PUSH3 0x250 JUMPI PUSH3 0x24F PUSH3 0x1F5 JUMP JUMPDEST JUMPDEST POP SWAP2 SWAP1 POP JUMP JUMPDEST PUSH0 DUP2 SWAP1 POP DUP2 PUSH0 MSTORE PUSH1 0x20 PUSH0 KECCAK256 SWAP1 POP SWAP2 SWAP1 POP JUMP JUMPDEST PUSH0 PUSH1 0x20 PUSH1 0x1F DUP4 ADD DIV SWAP1 POP SWAP2 SWAP1 POP JUMP JUMPDEST PUSH0 DUP3 DUP3 SHL SWAP1 POP SWAP3 SWAP2 POP POP JUMP JUMPDEST PUSH0 PUSH1 0x8 DUP4 MUL PUSH3 0x2B4 PUSH32 0xFFFFFFFFFFFFFFFFFFFFFFFFFFFFFFFFFFFFFFFFFFFFFFFFFFFFFFFFFFFFFFFF DUP3 PUSH3 0x277 JUMP JUMPDEST PUSH3 0x2C0 DUP7 DUP4 PUSH3 0x277 JUMP JUMPDEST SWAP6 POP DUP1 NOT DUP5 AND SWAP4 POP DUP1 DUP7 AND DUP5 OR SWAP3 POP POP POP SWAP4 SWAP3 POP POP POP JUMP JUMPDEST PUSH0 DUP2 SWAP1 POP SWAP2 SWAP1 POP JUMP JUMPDEST PUSH0 DUP2 SWAP1 POP SWAP2 SWAP1 POP JUMP JUMPDEST PUSH0 PUSH3 0x30A PUSH3 0x304 PUSH3 0x2FE DUP5 PUSH3 0x2D8 JUMP JUMPDEST PUSH3 0x2E1 JUMP JUMPDEST PUSH3 0x2D8 JUMP JUMPDEST SWAP1 POP SWAP2 SWAP1 POP JUMP JUMPDEST PUSH0 DUP2 SWAP1 POP SWAP2 SWAP1 POP JUMP JUMPDEST PUSH3 0x325 DUP4 PUSH3 0x2EA JUMP JUMPDEST PUSH3 0x33D PUSH3 0x334 DUP3 PUSH3 0x311 JUMP JUMPDEST DUP5 DUP5 SLOAD PUSH3 0x283 JUMP JUMPDEST DUP3 SSTORE POP POP POP POP JUMP JUMPDEST PUSH0 SWAP1 JUMP JUMPDEST PUSH3 0x353 PUSH3 0x345 JUMP JUMPDEST PUSH3 0x360 DUP2 DUP5 DUP5 PUSH3 0x31A JUMP JUMPDEST POP POP POP JUMP JUMPDEST JUMPDEST DUP2 DUP2 LT ISZERO PUSH3 0x387 JUMPI PUSH3 0x37B PUSH0 DUP3 PUSH3 0x349 JUMP JUMPDEST PUSH1 0x1 DUP2 ADD SWAP1 POP PUSH3 0x366 JUMP JUMPDEST POP POP JUMP JUMPDEST PUSH1 0x1F DUP3 GT ISZERO PUSH3 0x3D6 JUMPI PUSH3 0x3A0 DUP2 PUSH3 0x256 JUMP JUMPDEST PUSH3 0x3AB DUP5 PUSH3 0x268 JUMP JUMPDEST DUP2 ADD PUSH1 0x20 DUP6 LT ISZERO PUSH3 0x3BB JUMPI DUP2 SWAP1 POP JUMPDEST PUSH3 0x3D3 PUSH3 0x3CA DUP6 PUSH3 0x268 JUMP JUMPDEST DUP4 ADD DUP3 PUSH3 0x365 JUMP JUMPDEST POP POP JUMPDEST POP POP POP JUMP JUMPDEST PUSH0 DUP3 DUP3 SHR SWAP1 POP SWAP3 SWAP2 POP POP JUMP JUMPDEST PUSH0 PUSH3 0x3F8 PUSH0 NOT DUP5 PUSH1 0x8 MUL PUSH3 0x3DB JUMP JUMPDEST NOT DUP1 DUP4 AND SWAP2 POP POP SWAP3 SWAP2 POP POP JUMP JUMPDEST PUSH0 PUSH3 0x412 DUP4 DUP4 PUSH3 0x3E7 JUMP JUMPDEST SWAP2 POP DUP3 PUSH1 0x2 MUL DUP3 OR SWAP1 POP SWAP3 SWAP2 POP POP JUMP JUMPDEST PUSH3 0x42D DUP3 PUSH3 0x1BE JUMP JUMPDEST PUSH8 0xFFFFFFFFFFFFFFFF DUP2 GT ISZERO PUSH3 0x449 JUMPI PUSH3 0x448 PUSH3 0x1C8 JUMP JUMPDEST JUMPDEST PUSH3 0x455 DUP3 SLOAD PUSH3 0x222 JUMP JUMPDEST PUSH3 0x462 DUP3 DUP3 DUP6 PUSH3 0x38B JUMP JUMPDEST PUSH0 PUSH1 0x20 SWAP1 POP PUSH1 0x1F DUP4 GT PUSH1 0x1 DUP2 EQ PUSH3 0x498 JUMPI PUSH0 DUP5 ISZERO PUSH3 0x483 JUMPI DUP3 DUP8 ADD MLOAD SWAP1 POP JUMPDEST PUSH3 0x48F DUP6 DUP3 PUSH3 0x405 JUMP JUMPDEST DUP7 SSTORE POP PUSH3 0x4FE JUMP JUMPDEST PUSH1 0x1F NOT DUP5 AND PUSH3 0x4A8 DUP7 PUSH3 0x256 JUMP JUMPDEST PUSH0 JUMPDEST DUP3 DUP2 LT ISZERO PUSH3 0x4D1 JUMPI DUP5 DUP10 ADD MLOAD DUP3 SSTORE PUSH1 0x1 DUP3 ADD SWAP2 POP PUSH1 0x20 DUP6 ADD SWAP5 POP PUSH1 0x20 DUP2 ADD SWAP1 POP PUSH3 0x4AA JUMP JUMPDEST DUP7 DUP4 LT ISZERO PUSH3 0x4F1 JUMPI DUP5 DUP10 ADD MLOAD PUSH3 0x4ED PUSH1 0x1F DUP10 AND DUP3 PUSH3 0x3E7 JUMP JUMPDEST DUP4 SSTORE POP JUMPDEST PUSH1 0x1 PUSH1 0x2 DUP9 MUL ADD DUP9 SSTORE POP POP POP JUMPDEST POP POP POP POP POP POP JUMP JUMPDEST PUSH0 PUSH20 0xFFFFFFFFFFFFFFFFFFFFFFFFFFFFFFFFFFFFFFFF DUP3 AND SWAP1 POP SWAP2 SWAP1 POP JUMP JUMPDEST PUSH0 PUSH3 0x531 DUP3 PUSH3 0x506 JUMP JUMPDEST SWAP1 POP SWAP2 SWAP1 POP JUMP JUMPDEST PUSH3 0x543 DUP2 PUSH3 0x525 JUMP JUMPDEST DUP3 MSTORE POP POP JUMP JUMPDEST PUSH0 PUSH1 0x20 DUP3 ADD SWAP1 POP PUSH3 0x55E PUSH0 DUP4 ADD DUP5 PUSH3 0x538 JUMP JUMPDEST SWAP3 SWAP2 POP POP JUMP JUMPDEST PUSH2 0x2E64 DUP1 PUSH3 0x572 PUSH0 CODECOPY PUSH0 RETURN INVALID PUSH1 0x80 PUSH1 0x40 MSTORE CALLVALUE DUP1 ISZERO PUSH2 0xF JUMPI PUSH0 DUP1 REVERT JUMPDEST POP PUSH1 0x4 CALLDATASIZE LT PUSH2 0x1E3 JUMPI PUSH0 CALLDATALOAD PUSH1 0xE0 SHR DUP1 PUSH4 0x715018A6 GT PUSH2 0x10D JUMPI DUP1 PUSH4 0xA9059CBB GT PUSH2 0xA0 JUMPI DUP1 PUSH4 0xD6458285 GT PUSH2 0x6F JUMPI DUP1 PUSH4 0xD6458285 EQ PUSH2 0x58F JUMPI DUP1 PUSH4 0xDD62ED3E EQ PUSH2 0x5AB JUMPI DUP1 PUSH4 0xECBC5095 EQ PUSH2 0x5DB JUMPI DUP1 PUSH4 0xF2FDE38B EQ PUSH2 0x5F7 JUMPI PUSH2 0x1E3 JUMP JUMPDEST DUP1 PUSH4 0xA9059CBB EQ PUSH2 0x4F7 JUMPI DUP1 PUSH4 0xBC3BEA5E EQ PUSH2 0x527 JUMPI DUP1 PUSH4 0xBD3A13F6 EQ PUSH2 0x543 JUMPI DUP1 PUSH4 0xCB3FDB61 EQ PUSH2 0x55F JUMPI PUSH2 0x1E3 JUMP JUMPDEST DUP1 PUSH4 0x8456CB59 GT PUSH2 0xDC JUMPI DUP1 PUSH4 0x8456CB59 EQ PUSH2 0x495 JUMPI DUP1 PUSH4 0x8DA5CB5B EQ PUSH2 0x49F JUMPI DUP1 PUSH4 0x95D89B41 EQ PUSH2 0x4BD JUMPI DUP1 PUSH4 0xA00686F1 EQ PUSH2 0x4DB JUMPI PUSH2 0x1E3 JUMP JUMPDEST DUP1 PUSH4 0x715018A6 EQ PUSH2 0x40F JUMPI DUP1 PUSH4 0x79CC6790 EQ PUSH2 0x419 JUMPI DUP1 PUSH4 0x7F58B9D3 EQ PUSH2 0x435 JUMPI DUP1 PUSH4 0x7FB36099 EQ PUSH2 0x465 JUMPI PUSH2 0x1E3 JUMP JUMPDEST DUP1 PUSH4 0x392E53CD GT PUSH2 0x185 JUMPI DUP1 PUSH4 0x4EBC47F8 GT PUSH2 0x154 JUMPI DUP1 PUSH4 0x4EBC47F8 EQ PUSH2 0x361 JUMPI DUP1 PUSH4 0x5C975ABB EQ PUSH2 0x391 JUMPI DUP1 PUSH4 0x66368FB6 EQ PUSH2 0x3AF JUMPI DUP1 PUSH4 0x70A08231 EQ PUSH2 0x3DF JUMPI PUSH2 0x1E3 JUMP JUMPDEST DUP1 PUSH4 0x392E53CD EQ PUSH2 0x2ED JUMPI DUP1 PUSH4 0x3F4BA83A EQ PUSH2 0x30B JUMPI DUP1 PUSH4 0x42966C68 EQ PUSH2 0x315 JUMPI DUP1 PUSH4 0x4CF590B0 EQ PUSH2 0x331 JUMPI PUSH2 0x1E3 JUMP JUMPDEST DUP1 PUSH4 0x19ECCDFD GT PUSH2 0x1C1 JUMPI DUP1 PUSH4 0x19ECCDFD EQ PUSH2 0x253 JUMPI DUP1 PUSH4 0x23B872DD EQ PUSH2 0x26F JUMPI DUP1 PUSH4 0x313CE567 EQ PUSH2 0x29F JUMPI DUP1 PUSH4 0x37915874 EQ PUSH2 0x2BD JUMPI PUSH2 0x1E3 JUMP JUMPDEST DUP1 PUSH4 0x6FDDE03 EQ PUSH2 0x1E7 JUMPI DUP1 PUSH4 0x95EA7B3 EQ PUSH2 0x205 JUMPI DUP1 PUSH4 0x18160DDD EQ PUSH2 0x235 JUMPI JUMPDEST PUSH0 DUP1 REVERT JUMPDEST PUSH2 0x1EF PUSH2 0x613 JUMP JUMPDEST PUSH1 0x40 MLOAD PUSH2 0x1FC SWAP2 SWAP1 PUSH2 0x1E81 JUMP JUMPDEST PUSH1 0x40 MLOAD DUP1 SWAP2 SUB SWAP1 RETURN JUMPDEST PUSH2 0x21F PUSH1 0x4 DUP1 CALLDATASIZE SUB DUP2 ADD SWAP1 PUSH2 0x21A SWAP2 SWAP1 PUSH2 0x1F3F JUMP JUMPDEST PUSH2 0x6A3 JUMP JUMPDEST PUSH1 0x40 MLOAD PUSH2 0x22C SWAP2 SWAP1 PUSH2 0x1F97 JUMP JUMPDEST PUSH1 0x40 MLOAD DUP1 SWAP2 SUB SWAP1 RETURN JUMPDEST PUSH2 0x23D PUSH2 0x6C5 JUMP JUMPDEST PUSH1 0x40 MLOAD PUSH2 0x24A SWAP2 SWAP1 PUSH2 0x1FBF JUMP JUMPDEST PUSH1 0x40 MLOAD DUP1 SWAP2 SUB SWAP1 RETURN JUMPDEST PUSH2 0x26D PUSH1 0x4 DUP1 CALLDATASIZE SUB DUP2 ADD SWAP1 PUSH2 0x268 SWAP2 SWAP1 PUSH2 0x2104 JUMP JUMPDEST PUSH2 0x6CE JUMP JUMPDEST STOP JUMPDEST PUSH2 0x289 PUSH1 0x4 DUP1 CALLDATASIZE SUB DUP2 ADD SWAP1 PUSH2 0x284 SWAP2 SWAP1 PUSH2 0x215E JUMP JUMPDEST PUSH2 0x824 JUMP JUMPDEST PUSH1 0x40 MLOAD PUSH2 0x296 SWAP2 SWAP1 PUSH2 0x1F97 JUMP JUMPDEST PUSH1 0x40 MLOAD DUP1 SWAP2 SUB SWAP1 RETURN JUMPDEST PUSH2 0x2A7 PUSH2 0x852 JUMP JUMPDEST PUSH1 0x40 MLOAD PUSH2 0x2B4 SWAP2 SWAP1 PUSH2 0x21C9 JUMP JUMPDEST PUSH1 0x40 MLOAD DUP1 SWAP2 SUB SWAP1 RETURN JUMPDEST PUSH2 0x2D7 PUSH1 0x4 DUP1 CALLDATASIZE SUB DUP2 ADD SWAP1 PUSH2 0x2D2 SWAP2 SWAP1 PUSH2 0x21E2 JUMP JUMPDEST PUSH2 0x867 JUMP JUMPDEST PUSH1 0x40 MLOAD PUSH2 0x2E4 SWAP2 SWAP1 PUSH2 0x1F97 JUMP JUMPDEST PUSH1 0x40 MLOAD DUP1 SWAP2 SUB SWAP1 RETURN JUMPDEST PUSH2 0x2F5 PUSH2 0x884 JUMP JUMPDEST PUSH1 0x40 MLOAD PUSH2 0x302 SWAP2 SWAP1 PUSH2 0x1F97 JUMP JUMPDEST PUSH1 0x40 MLOAD DUP1 SWAP2 SUB SWAP1 RETURN JUMPDEST PUSH2 0x313 PUSH2 0x899 JUMP JUMPDEST STOP JUMPDEST PUSH2 0x32F PUSH1 0x4 DUP1 CALLDATASIZE SUB DUP2 ADD SWAP1 PUSH2 0x32A SWAP2 SWAP1 PUSH2 0x220D JUMP JUMPDEST PUSH2 0x8AB JUMP JUMPDEST STOP JUMPDEST PUSH2 0x34B PUSH1 0x4 DUP1 CALLDATASIZE SUB DUP2 ADD SWAP1 PUSH2 0x346 SWAP2 SWAP1 PUSH2 0x21E2 JUMP JUMPDEST PUSH2 0x8C0 JUMP JUMPDEST PUSH1 0x40 MLOAD PUSH2 0x358 SWAP2 SWAP1 PUSH2 0x1E81 JUMP JUMPDEST PUSH1 0x40 MLOAD DUP1 SWAP2 SUB SWAP1 RETURN JUMPDEST PUSH2 0x37B PUSH1 0x4 DUP1 CALLDATASIZE SUB DUP2 ADD SWAP1 PUSH2 0x376 SWAP2 SWAP1 PUSH2 0x21E2 JUMP JUMPDEST PUSH2 0x98D JUMP JUMPDEST PUSH1 0x40 MLOAD PUSH2 0x388 SWAP2 SWAP1 PUSH2 0x1E81 JUMP JUMPDEST PUSH1 0x40 MLOAD DUP1 SWAP2 SUB SWAP1 RETURN JUMPDEST PUSH2 0x399 PUSH2 0xA28 JUMP JUMPDEST PUSH1 0x40 MLOAD PUSH2 0x3A6 SWAP2 SWAP1 PUSH2 0x1F97 JUMP JUMPDEST PUSH1 0x40 MLOAD DUP1 SWAP2 SUB SWAP1 RETURN JUMPDEST PUSH2 0x3C9 PUSH1 0x4 DUP1 CALLDATASIZE SUB DUP2 ADD SWAP1 PUSH2 0x3C4 SWAP2 SWAP1 PUSH2 0x2238 JUMP JUMPDEST PUSH2 0xA3E JUMP JUMPDEST PUSH1 0x40 MLOAD PUSH2 0x3D6 SWAP2 SWAP1 PUSH2 0x1FBF JUMP JUMPDEST PUSH1 0x40 MLOAD DUP1 SWAP2 SUB SWAP1 RETURN JUMPDEST PUSH2 0x3F9 PUSH1 0x4 DUP1 CALLDATASIZE SUB DUP2 ADD SWAP1 PUSH2 0x3F4 SWAP2 SWAP1 PUSH2 0x21E2 JUMP JUMPDEST PUSH2 0xA6B JUMP JUMPDEST PUSH1 0x40 MLOAD PUSH2 0x406 SWAP2 SWAP1 PUSH2 0x1FBF JUMP JUMPDEST PUSH1 0x40 MLOAD DUP1 SWAP2 SUB SWAP1 RETURN JUMPDEST PUSH2 0x417 PUSH2 0xAB0 JUMP JUMPDEST STOP JUMPDEST PUSH2 0x433 PUSH1 0x4 DUP1 CALLDATASIZE SUB DUP2 ADD SWAP1 PUSH2 0x42E SWAP2 SWAP1 PUSH2 0x1F3F JUMP JUMPDEST PUSH2 0xAC3 JUMP JUMPDEST STOP JUMPDEST PUSH2 0x44F PUSH1 0x4 DUP1 CALLDATASIZE SUB DUP2 ADD SWAP1 PUSH2 0x44A SWAP2 SWAP1 PUSH2 0x21E2 JUMP JUMPDEST PUSH2 0xAD9 JUMP JUMPDEST PUSH1 0x40 MLOAD PUSH2 0x45C SWAP2 SWAP1 PUSH2 0x1FBF JUMP JUMPDEST PUSH1 0x40 MLOAD DUP1 SWAP2 SUB SWAP1 RETURN JUMPDEST PUSH2 0x47F PUSH1 0x4 DUP1 CALLDATASIZE SUB DUP2 ADD SWAP1 PUSH2 0x47A SWAP2 SWAP1 PUSH2 0x2238 JUMP JUMPDEST PUSH2 0xB1F JUMP JUMPDEST PUSH1 0x40 MLOAD PUSH2 0x48C SWAP2 SWAP1 PUSH2 0x1FBF JUMP JUMPDEST PUSH1 0x40 MLOAD DUP1 SWAP2 SUB SWAP1 RETURN JUMPDEST PUSH2 0x49D PUSH2 0xB46 JUMP JUMPDEST STOP JUMPDEST PUSH2 0x4A7 PUSH2 0xB58 JUMP JUMPDEST PUSH1 0x40 MLOAD PUSH2 0x4B4 SWAP2 SWAP1 PUSH2 0x228E JUMP JUMPDEST PUSH1 0x40 MLOAD DUP1 SWAP2 SUB SWAP1 RETURN JUMPDEST PUSH2 0x4C5 PUSH2 0xB80 JUMP JUMPDEST PUSH1 0x40 MLOAD PUSH2 0x4D2 SWAP2 SWAP1 PUSH2 0x1E81 JUMP JUMPDEST PUSH1 0x40 MLOAD DUP1 SWAP2 SUB SWAP1 RETURN JUMPDEST PUSH2 0x4F5 PUSH1 0x4 DUP1 CALLDATASIZE SUB DUP2 ADD SWAP1 PUSH2 0x4F0 SWAP2 SWAP1 PUSH2 0x21E2 JUMP JUMPDEST PUSH2 0xC10 JUMP JUMPDEST STOP JUMPDEST PUSH2 0x511 PUSH1 0x4 DUP1 CALLDATASIZE SUB DUP2 ADD SWAP1 PUSH2 0x50C SWAP2 SWAP1 PUSH2 0x1F3F JUMP JUMPDEST PUSH2 0xDAB JUMP JUMPDEST PUSH1 0x40 MLOAD PUSH2 0x51E SWAP2 SWAP1 PUSH2 0x1F97 JUMP JUMPDEST PUSH1 0x40 MLOAD DUP1 SWAP2 SUB SWAP1 RETURN JUMPDEST PUSH2 0x541 PUSH1 0x4 DUP1 CALLDATASIZE SUB DUP2 ADD SWAP1 PUSH2 0x53C SWAP2 SWAP1 PUSH2 0x21E2 JUMP JUMPDEST PUSH2 0xDCD JUMP JUMPDEST STOP JUMPDEST PUSH2 0x55D PUSH1 0x4 DUP1 CALLDATASIZE SUB DUP2 ADD SWAP1 PUSH2 0x558 SWAP2 SWAP1 PUSH2 0x22A7 JUMP JUMPDEST PUSH2 0xEF8 JUMP JUMPDEST STOP JUMPDEST PUSH2 0x579 PUSH1 0x4 DUP1 CALLDATASIZE SUB DUP2 ADD SWAP1 PUSH2 0x574 SWAP2 SWAP1 PUSH2 0x21E2 JUMP JUMPDEST PUSH2 0x1128 JUMP JUMPDEST PUSH1 0x40 MLOAD PUSH2 0x586 SWAP2 SWAP1 PUSH2 0x1FBF JUMP JUMPDEST PUSH1 0x40 MLOAD DUP1 SWAP2 SUB SWAP1 RETURN JUMPDEST PUSH2 0x5A9 PUSH1 0x4 DUP1 CALLDATASIZE SUB DUP2 ADD SWAP1 PUSH2 0x5A4 SWAP2 SWAP1 PUSH2 0x2343 JUMP JUMPDEST PUSH2 0x113D JUMP JUMPDEST STOP JUMPDEST PUSH2 0x5C5 PUSH1 0x4 DUP1 CALLDATASIZE SUB DUP2 ADD SWAP1 PUSH2 0x5C0 SWAP2 SWAP1 PUSH2 0x239D JUMP JUMPDEST PUSH2 0x122A JUMP JUMPDEST PUSH1 0x40 MLOAD PUSH2 0x5D2 SWAP2 SWAP1 PUSH2 0x1FBF JUMP JUMPDEST PUSH1 0x40 MLOAD DUP1 SWAP2 SUB SWAP1 RETURN JUMPDEST PUSH2 0x5F5 PUSH1 0x4 DUP1 CALLDATASIZE SUB DUP2 ADD SWAP1 PUSH2 0x5F0 SWAP2 SWAP1 PUSH2 0x23DB JUMP JUMPDEST PUSH2 0x12AC JUMP JUMPDEST STOP JUMPDEST PUSH2 0x611 PUSH1 0x4 DUP1 CALLDATASIZE SUB DUP2 ADD SWAP1 PUSH2 0x60C SWAP2 SWAP1 PUSH2 0x21E2 JUMP JUMPDEST PUSH2 0x144F JUMP JUMPDEST STOP JUMPDEST PUSH1 0x60 PUSH1 0x6 DUP1 SLOAD PUSH2 0x622 SWAP1 PUSH2 0x2458 JUMP JUMPDEST DUP1 PUSH1 0x1F ADD PUSH1 0x20 DUP1 SWAP2 DIV MUL PUSH1 0x20 ADD PUSH1 0x40 MLOAD SWAP1 DUP2 ADD PUSH1 0x40 MSTORE DUP1 SWAP3 SWAP2 SWAP1 DUP2 DUP2 MSTORE PUSH1 0x20 ADD DUP3 DUP1 SLOAD PUSH2 0x64E SWAP1 PUSH2 0x2458 JUMP JUMPDEST DUP1 ISZERO PUSH2 0x699 JUMPI DUP1 PUSH1 0x1F LT PUSH2 0x670 JUMPI PUSH2 0x100 DUP1 DUP4 SLOAD DIV MUL DUP4 MSTORE SWAP2 PUSH1 0x20 ADD SWAP2 PUSH2 0x699 JUMP JUMPDEST DUP3 ADD SWAP2 SWAP1 PUSH0 MSTORE PUSH1 0x20 PUSH0 KECCAK256 SWAP1 JUMPDEST DUP2 SLOAD DUP2 MSTORE SWAP1 PUSH1 0x1 ADD SWAP1 PUSH1 0x20 ADD DUP1 DUP4 GT PUSH2 0x67C JUMPI DUP3 SWAP1 SUB PUSH1 0x1F AND DUP3 ADD SWAP2 JUMPDEST POP POP POP POP POP SWAP1 POP SWAP1 JUMP JUMPDEST PUSH0 DUP1 PUSH2 0x6AD PUSH2 0x14D3 JUMP JUMPDEST SWAP1 POP PUSH2 0x6BA DUP2 DUP6 DUP6 PUSH2 0x14DA JUMP JUMPDEST PUSH1 0x1 SWAP2 POP POP SWAP3 SWAP2 POP POP JUMP JUMPDEST PUSH0 PUSH1 0x2 SLOAD SWAP1 POP SWAP1 JUMP JUMPDEST PUSH2 0x6D6 PUSH2 0x14EC JUMP JUMPDEST PUSH0 PUSH20 0xFFFFFFFFFFFFFFFFFFFFFFFFFFFFFFFFFFFFFFFF AND DUP3 PUSH20 0xFFFFFFFFFFFFFFFFFFFFFFFFFFFFFFFFFFFFFFFF AND SUB PUSH2 0x744 JUMPI PUSH1 0x40 MLOAD PUSH32 0x8C379A000000000000000000000000000000000000000000000000000000000 DUP2 MSTORE PUSH1 0x4 ADD PUSH2 0x73B SWAP1 PUSH2 0x24D2 JUMP JUMPDEST PUSH1 0x40 MLOAD DUP1 SWAP2 SUB SWAP1 REVERT JUMPDEST PUSH0 DUP2 MLOAD GT PUSH2 0x787 JUMPI PUSH1 0x40 MLOAD PUSH32 0x8C379A000000000000000000000000000000000000000000000000000000000 DUP2 MSTORE PUSH1 0x4 ADD PUSH2 0x77E SWAP1 PUSH2 0x253A JUMP JUMPDEST PUSH1 0x40 MLOAD DUP1 SWAP2 SUB SWAP1 REVERT JUMPDEST DUP1 PUSH1 0xC PUSH0 DUP5 PUSH20 0xFFFFFFFFFFFFFFFFFFFFFFFFFFFFFFFFFFFFFFFF AND PUSH20 0xFFFFFFFFFFFFFFFFFFFFFFFFFFFFFFFFFFFFFFFF AND DUP2 MSTORE PUSH1 0x20 ADD SWAP1 DUP2 MSTORE PUSH1 0x20 ADD PUSH0 KECCAK256 SWAP1 DUP2 PUSH2 0x7D1 SWAP2 SWAP1 PUSH2 0x26F5 JUMP JUMPDEST POP DUP2 PUSH20 0xFFFFFFFFFFFFFFFFFFFFFFFFFFFFFFFFFFFFFFFF AND PUSH32 0xA110B2DAA9B9328E235E98C75405F18D092B0D0EDD4574CC8D80A41908FBF0BF DUP3 PUSH1 0x40 MLOAD PUSH2 0x818 SWAP2 SWAP1 PUSH2 0x1E81 JUMP JUMPDEST PUSH1 0x40 MLOAD DUP1 SWAP2 SUB SWAP1 LOG2 POP POP JUMP JUMPDEST PUSH0 DUP1 PUSH2 0x82E PUSH2 0x14D3 JUMP JUMPDEST SWAP1 POP PUSH2 0x83B DUP6 DUP3 DUP6 PUSH2 0x1573 JUMP JUMPDEST PUSH2 0x846 DUP6 DUP6 DUP6 PUSH2 0x1606 JUMP JUMPDEST PUSH1 0x1 SWAP2 POP POP SWAP4 SWAP3 POP POP POP JUMP JUMPDEST PUSH0 PUSH1 0x8 PUSH0 SWAP1 SLOAD SWAP1 PUSH2 0x100 EXP SWAP1 DIV PUSH1 0xFF AND SWAP1 POP SWAP1 JUMP JUMPDEST PUSH1 0xA PUSH1 0x20 MSTORE DUP1 PUSH0 MSTORE PUSH1 0x40 PUSH0 KECCAK256 PUSH0 SWAP2 POP SLOAD SWAP1 PUSH2 0x100 EXP SWAP1 DIV PUSH1 0xFF AND DUP2 JUMP JUMPDEST PUSH0 PUSH1 0xD PUSH0 SWAP1 SLOAD SWAP1 PUSH2 0x100 EXP SWAP1 DIV PUSH1 0xFF AND SWAP1 POP SWAP1 JUMP JUMPDEST PUSH2 0x8A1 PUSH2 0x14EC JUMP JUMPDEST PUSH2 0x8A9 PUSH2 0x16F6 JUMP JUMPDEST JUMP JUMPDEST PUSH2 0x8B3 PUSH2 0x14EC JUMP JUMPDEST PUSH2 0x8BD CALLER DUP3 PUSH2 0x1758 JUMP JUMPDEST POP JUMP JUMPDEST PUSH1 0x60 PUSH1 0xC PUSH0 DUP4 PUSH20 0xFFFFFFFFFFFFFFFFFFFFFFFFFFFFFFFFFFFFFFFF AND PUSH20 0xFFFFFFFFFFFFFFFFFFFFFFFFFFFFFFFFFFFFFFFF AND DUP2 MSTORE PUSH1 0x20 ADD SWAP1 DUP2 MSTORE PUSH1 0x20 ADD PUSH0 KECCAK256 DUP1 SLOAD PUSH2 0x90A SWAP1 PUSH2 0x2458 JUMP JUMPDEST DUP1 PUSH1 0x1F ADD PUSH1 0x20 DUP1 SWAP2 DIV MUL PUSH1 0x20 ADD PUSH1 0x40 MLOAD SWAP1 DUP2 ADD PUSH1 0x40 MSTORE DUP1 SWAP3 SWAP2 SWAP1 DUP2 DUP2 MSTORE PUSH1 0x20 ADD DUP3 DUP1 SLOAD PUSH2 0x936 SWAP1 PUSH2 0x2458 JUMP JUMPDEST DUP1 ISZERO PUSH2 0x981 JUMPI DUP1 PUSH1 0x1F LT PUSH2 0x958 JUMPI PUSH2 0x100 DUP1 DUP4 SLOAD DIV MUL DUP4 MSTORE SWAP2 PUSH1 0x20 ADD SWAP2 PUSH2 0x981 JUMP JUMPDEST DUP3 ADD SWAP2 SWAP1 PUSH0 MSTORE PUSH1 0x20 PUSH0 KECCAK256 SWAP1 JUMPDEST DUP2 SLOAD DUP2 MSTORE SWAP1 PUSH1 0x1 ADD SWAP1 PUSH1 0x20 ADD DUP1 DUP4 GT PUSH2 0x964 JUMPI DUP3 SWAP1 SUB PUSH1 0x1F AND DUP3 ADD SWAP2 JUMPDEST POP POP POP POP POP SWAP1 POP SWAP2 SWAP1 POP JUMP JUMPDEST PUSH1 0xC PUSH1 0x20 MSTORE DUP1 PUSH0 MSTORE PUSH1 0x40 PUSH0 KECCAK256 PUSH0 SWAP2 POP SWAP1 POP DUP1 SLOAD PUSH2 0x9A9 SWAP1 PUSH2 0x2458 JUMP JUMPDEST DUP1 PUSH1 0x1F ADD PUSH1 0x20 DUP1 SWAP2 DIV MUL PUSH1 0x20 ADD PUSH1 0x40 MLOAD SWAP1 DUP2 ADD PUSH1 0x40 MSTORE DUP1 SWAP3 SWAP2 SWAP1 DUP2 DUP2 MSTORE PUSH1 0x20 ADD DUP3 DUP1 SLOAD PUSH2 0x9D5 SWAP1 PUSH2 0x2458 JUMP JUMPDEST DUP1 ISZERO PUSH2 0xA20 JUMPI DUP1 PUSH1 0x1F LT PUSH2 0x9F7 JUMPI PUSH2 0x100 DUP1 DUP4 SLOAD DIV MUL DUP4 MSTORE SWAP2 PUSH1 0x20 ADD SWAP2 PUSH2 0xA20 JUMP JUMPDEST DUP3 ADD SWAP2 SWAP1 PUSH0 MSTORE PUSH1 0x20 PUSH0 KECCAK256 SWAP1 JUMPDEST DUP2 SLOAD DUP2 MSTORE SWAP1 PUSH1 0x1 ADD SWAP1 PUSH1 0x20 ADD DUP1 DUP4 GT PUSH2 0xA03 JUMPI DUP3 SWAP1 SUB PUSH1 0x1F AND DUP3 ADD SWAP2 JUMPDEST POP POP POP POP POP DUP2 JUMP JUMPDEST PUSH0 PUSH1 0x5 PUSH1 0x14 SWAP1 SLOAD SWAP1 PUSH2 0x100 EXP SWAP1 DIV PUSH1 0xFF AND SWAP1 POP SWAP1 JUMP JUMPDEST PUSH1 0xB DUP2 DUP1 MLOAD PUSH1 0x20 DUP2 ADD DUP3 ADD DUP1 MLOAD DUP5 DUP3 MSTORE PUSH1 0x20 DUP4 ADD PUSH1 0x20 DUP6 ADD KECCAK256 DUP2 DUP4 MSTORE DUP1 SWAP6 POP POP POP POP POP POP PUSH0 SWAP2 POP SWAP1 POP SLOAD DUP2 JUMP JUMPDEST PUSH0 DUP1 PUSH0 DUP4 PUSH20 0xFFFFFFFFFFFFFFFFFFFFFFFFFFFFFFFFFFFFFFFF AND PUSH20 0xFFFFFFFFFFFFFFFFFFFFFFFFFFFFFFFFFFFFFFFF AND DUP2 MSTORE PUSH1 0x20 ADD SWAP1 DUP2 MSTORE PUSH1 0x20 ADD PUSH0 KECCAK256 SLOAD SWAP1 POP SWAP2 SWAP1 POP JUMP JUMPDEST PUSH2 0xAB8 PUSH2 0x14EC JUMP JUMPDEST PUSH2 0xAC1 PUSH0 PUSH2 0x17D7 JUMP JUMPDEST JUMP JUMPDEST PUSH2 0xACB PUSH2 0x14EC JUMP JUMPDEST PUSH2 0xAD5 DUP3 DUP3 PUSH2 0x1758 JUMP JUMPDEST POP POP JUMP JUMPDEST PUSH0 PUSH1 0x9 PUSH0 DUP4 PUSH20 0xFFFFFFFFFFFFFFFFFFFFFFFFFFFFFFFFFFFFFFFF AND PUSH20 0xFFFFFFFFFFFFFFFFFFFFFFFFFFFFFFFFFFFFFFFF AND DUP2 MSTORE PUSH1 0x20 ADD SWAP1 DUP2 MSTORE PUSH1 0x20 ADD PUSH0 KECCAK256 SLOAD SWAP1 POP SWAP2 SWAP1 POP JUMP JUMPDEST PUSH0 PUSH1 0xB DUP3 PUSH1 0x40 MLOAD PUSH2 0xB30 SWAP2 SWAP1 PUSH2 0x27FE JUMP JUMPDEST SWAP1 DUP2 MSTORE PUSH1 0x20 ADD PUSH1 0x40 MLOAD DUP1 SWAP2 SUB SWAP1 KECCAK256 SLOAD SWAP1 POP SWAP2 SWAP1 POP JUMP JUMPDEST PUSH2 0xB4E PUSH2 0x14EC JUMP JUMPDEST PUSH2 0xB56 PUSH2 0x189A JUMP JUMPDEST JUMP JUMPDEST PUSH0 PUSH1 0x5 PUSH0 SWAP1 SLOAD SWAP1 PUSH2 0x100 EXP SWAP1 DIV PUSH20 0xFFFFFFFFFFFFFFFFFFFFFFFFFFFFFFFFFFFFFFFF AND SWAP1 POP SWAP1 JUMP JUMPDEST PUSH1 0x60 PUSH1 0x7 DUP1 SLOAD PUSH2 0xB8F SWAP1 PUSH2 0x2458 JUMP JUMPDEST DUP1 PUSH1 0x1F ADD PUSH1 0x20 DUP1 SWAP2 DIV MUL PUSH1 0x20 ADD PUSH1 0x40 MLOAD SWAP1 DUP2 ADD PUSH1 0x40 MSTORE DUP1 SWAP3 SWAP2 SWAP1 DUP2 DUP2 MSTORE PUSH1 0x20 ADD DUP3 DUP1 SLOAD PUSH2 0xBBB SWAP1 PUSH2 0x2458 JUMP JUMPDEST DUP1 ISZERO PUSH2 0xC06 JUMPI DUP1 PUSH1 0x1F LT PUSH2 0xBDD JUMPI PUSH2 0x100 DUP1 DUP4 SLOAD DIV MUL DUP4 MSTORE SWAP2 PUSH1 0x20 ADD SWAP2 PUSH2 0xC06 JUMP JUMPDEST DUP3 ADD SWAP2 SWAP1 PUSH0 MSTORE PUSH1 0x20 PUSH0 KECCAK256 SWAP1 JUMPDEST DUP2 SLOAD DUP2 MSTORE SWAP1 PUSH1 0x1 ADD SWAP1 PUSH1 0x20 ADD DUP1 DUP4 GT PUSH2 0xBE9 JUMPI DUP3 SWAP1 SUB PUSH1 0x1F AND DUP3 ADD SWAP2 JUMPDEST POP POP POP POP POP SWAP1 POP SWAP1 JUMP JUMPDEST PUSH2 0xC18 PUSH2 0x14EC JUMP JUMPDEST PUSH0 PUSH20 0xFFFFFFFFFFFFFFFFFFFFFFFFFFFFFFFFFFFFFFFF AND DUP2 PUSH20 0xFFFFFFFFFFFFFFFFFFFFFFFFFFFFFFFFFFFFFFFF AND SUB PUSH2 0xC86 JUMPI PUSH1 0x40 MLOAD PUSH32 0x8C379A000000000000000000000000000000000000000000000000000000000 DUP2 MSTORE PUSH1 0x4 ADD PUSH2 0xC7D SWAP1 PUSH2 0x285E JUMP JUMPDEST PUSH1 0x40 MLOAD DUP1 SWAP2 SUB SWAP1 REVERT JUMPDEST PUSH1 0xA PUSH0 DUP3 PUSH20 0xFFFFFFFFFFFFFFFFFFFFFFFFFFFFFFFFFFFFFFFF AND PUSH20 0xFFFFFFFFFFFFFFFFFFFFFFFFFFFFFFFFFFFFFFFF AND DUP2 MSTORE PUSH1 0x20 ADD SWAP1 DUP2 MSTORE PUSH1 0x20 ADD PUSH0 KECCAK256 PUSH0 SWAP1 SLOAD SWAP1 PUSH2 0x100 EXP SWAP1 DIV PUSH1 0xFF AND ISZERO PUSH2 0xD10 JUMPI PUSH1 0x40 MLOAD PUSH32 0x8C379A000000000000000000000000000000000000000000000000000000000 DUP2 MSTORE PUSH1 0x4 ADD PUSH2 0xD07 SWAP1 PUSH2 0x28C6 JUMP JUMPDEST PUSH1 0x40 MLOAD DUP1 SWAP2 SUB SWAP1 REVERT JUMPDEST PUSH1 0x1 PUSH1 0xA PUSH0 DUP4 PUSH20 0xFFFFFFFFFFFFFFFFFFFFFFFFFFFFFFFFFFFFFFFF AND PUSH20 0xFFFFFFFFFFFFFFFFFFFFFFFFFFFFFFFFFFFFFFFF AND DUP2 MSTORE PUSH1 0x20 ADD SWAP1 DUP2 MSTORE PUSH1 0x20 ADD PUSH0 KECCAK256 PUSH0 PUSH2 0x100 EXP DUP2 SLOAD DUP2 PUSH1 0xFF MUL NOT AND SWAP1 DUP4 ISZERO ISZERO MUL OR SWAP1 SSTORE POP DUP1 PUSH20 0xFFFFFFFFFFFFFFFFFFFFFFFFFFFFFFFFFFFFFFFF AND PUSH32 0x6A45208724D4B6F6774A21924D8ADA0231F197811681096D5FD6B5F22E6E73D3 PUSH1 0x40 MLOAD PUSH1 0x40 MLOAD DUP1 SWAP2 SUB SWAP1 LOG2 POP JUMP JUMPDEST PUSH0 DUP1 PUSH2 0xDB5 PUSH2 0x14D3 JUMP JUMPDEST SWAP1 POP PUSH2 0xDC2 DUP2 DUP6 DUP6 PUSH2 0x1606 JUMP JUMPDEST PUSH1 0x1 SWAP2 POP POP SWAP3 SWAP2 POP POP JUMP JUMPDEST PUSH2 0xDD5 PUSH2 0x14EC JUMP JUMPDEST PUSH1 0xA PUSH0 DUP3 PUSH20 0xFFFFFFFFFFFFFFFFFFFFFFFFFFFFFFFFFFFFFFFF AND PUSH20 0xFFFFFFFFFFFFFFFFFFFFFFFFFFFFFFFFFFFFFFFF AND DUP2 MSTORE PUSH1 0x20 ADD SWAP1 DUP2 MSTORE PUSH1 0x20 ADD PUSH0 KECCAK256 PUSH0 SWAP1 SLOAD SWAP1 PUSH2 0x100 EXP SWAP1 DIV PUSH1 0xFF AND PUSH2 0xE5E JUMPI PUSH1 0x40 MLOAD PUSH32 0x8C379A000000000000000000000000000000000000000000000000000000000 DUP2 MSTORE PUSH1 0x4 ADD PUSH2 0xE55 SWAP1 PUSH2 0x292E JUMP JUMPDEST PUSH1 0x40 MLOAD DUP1 SWAP2 SUB SWAP1 REVERT JUMPDEST PUSH0 PUSH1 0xA PUSH0 DUP4 PUSH20 0xFFFFFFFFFFFFFFFFFFFFFFFFFFFFFFFFFFFFFFFF AND PUSH20 0xFFFFFFFFFFFFFFFFFFFFFFFFFFFFFFFFFFFFFFFF AND DUP2 MSTORE PUSH1 0x20 ADD SWAP1 DUP2 MSTORE PUSH1 0x20 ADD PUSH0 KECCAK256 PUSH0 PUSH2 0x100 EXP DUP2 SLOAD DUP2 PUSH1 0xFF MUL NOT AND SWAP1 DUP4 ISZERO ISZERO MUL OR SWAP1 SSTORE POP DUP1 PUSH20 0xFFFFFFFFFFFFFFFFFFFFFFFFFFFFFFFFFFFFFFFF AND PUSH32 0x93C4DACA93FE23045EA63D803DB724CCFF33790F1B2434276479F728A4E38F99 PUSH1 0x40 MLOAD PUSH1 0x40 MLOAD DUP1 SWAP2 SUB SWAP1 LOG2 POP JUMP JUMPDEST PUSH1 0xD PUSH0 SWAP1 SLOAD SWAP1 PUSH2 0x100 EXP SWAP1 DIV PUSH1 0xFF AND ISZERO PUSH2 0xF47 JUMPI PUSH1 0x40 MLOAD PUSH32 0x8C379A000000000000000000000000000000000000000000000000000000000 DUP2 MSTORE PUSH1 0x4 ADD PUSH2 0xF3E SWAP1 PUSH2 0x2996 JUMP JUMPDEST PUSH1 0x40 MLOAD DUP1 SWAP2 SUB SWAP1 REVERT JUMPDEST PUSH0 DUP5 MLOAD GT PUSH2 0xF8A JUMPI PUSH1 0x40 MLOAD PUSH32 0x8C379A000000000000000000000000000000000000000000000000000000000 DUP2 MSTORE PUSH1 0x4 ADD PUSH2 0xF81 SWAP1 PUSH2 0x29FE JUMP JUMPDEST PUSH1 0x40 MLOAD DUP1 SWAP2 SUB SWAP1 REVERT JUMPDEST PUSH0 DUP4 MLOAD GT PUSH2 0xFCD JUMPI PUSH1 0x40 MLOAD PUSH32 0x8C379A000000000000000000000000000000000000000000000000000000000 DUP2 MSTORE PUSH1 0x4 ADD PUSH2 0xFC4 SWAP1 PUSH2 0x2A66 JUMP JUMPDEST PUSH1 0x40 MLOAD DUP1 SWAP2 SUB SWAP1 REVERT JUMPDEST PUSH0 DUP3 GT PUSH2 0x100F JUMPI PUSH1 0x40 MLOAD PUSH32 0x8C379A000000000000000000000000000000000000000000000000000000000 DUP2 MSTORE PUSH1 0x4 ADD PUSH2 0x1006 SWAP1 PUSH2 0x2AF4 JUMP JUMPDEST PUSH1 0x40 MLOAD DUP1 SWAP2 SUB SWAP1 REVERT JUMPDEST PUSH0 PUSH20 0xFFFFFFFFFFFFFFFFFFFFFFFFFFFFFFFFFFFFFFFF AND DUP2 PUSH20 0xFFFFFFFFFFFFFFFFFFFFFFFFFFFFFFFFFFFFFFFF AND SUB PUSH2 0x107D JUMPI PUSH1 0x40 MLOAD PUSH32 0x8C379A000000000000000000000000000000000000000000000000000000000 DUP2 MSTORE PUSH1 0x4 ADD PUSH2 0x1074 SWAP1 PUSH2 0x2B5C JUMP JUMPDEST PUSH1 0x40 MLOAD DUP1 SWAP2 SUB SWAP1 REVERT JUMPDEST DUP4 PUSH1 0x6 SWAP1 DUP2 PUSH2 0x108C SWAP2 SWAP1 PUSH2 0x26F5 JUMP JUMPDEST POP DUP3 PUSH1 0x7 SWAP1 DUP2 PUSH2 0x109C SWAP2 SWAP1 PUSH2 0x26F5 JUMP JUMPDEST POP PUSH1 0x12 PUSH1 0x8 PUSH0 PUSH2 0x100 EXP DUP2 SLOAD DUP2 PUSH1 0xFF MUL NOT AND SWAP1 DUP4 PUSH1 0xFF AND MUL OR SWAP1 SSTORE POP PUSH2 0x10C1 DUP2 PUSH2 0x17D7 JUMP JUMPDEST PUSH2 0x10CB DUP2 DUP4 PUSH2 0x18FD JUMP JUMPDEST PUSH1 0x1 PUSH1 0xD PUSH0 PUSH2 0x100 EXP DUP2 SLOAD DUP2 PUSH1 0xFF MUL NOT AND SWAP1 DUP4 ISZERO ISZERO MUL OR SWAP1 SSTORE POP PUSH32 0x12BDFD2F29CF0194CD626FBD8A4B8FD1DE36748D1A1B936EAC39FE35845C585A DUP5 DUP5 DUP5 DUP5 PUSH1 0x40 MLOAD PUSH2 0x111A SWAP5 SWAP4 SWAP3 SWAP2 SWAP1 PUSH2 0x2B7A JUMP JUMPDEST PUSH1 0x40 MLOAD DUP1 SWAP2 SUB SWAP1 LOG1 POP POP POP POP JUMP JUMPDEST PUSH1 0x9 PUSH1 0x20 MSTORE DUP1 PUSH0 MSTORE PUSH1 0x40 PUSH0 KECCAK256 PUSH0 SWAP2 POP SWAP1 POP SLOAD DUP2 JUMP JUMPDEST PUSH2 0x1145 PUSH2 0x14EC JUMP JUMPDEST PUSH0 DUP3 MLOAD GT PUSH2 0x1188 JUMPI PUSH1 0x40 MLOAD PUSH32 0x8C379A000000000000000000000000000000000000000000000000000000000 DUP2 MSTORE PUSH1 0x4 ADD PUSH2 0x117F SWAP1 PUSH2 0x253A JUMP JUMPDEST PUSH1 0x40 MLOAD DUP1 SWAP2 SUB SWAP1 REVERT JUMPDEST PUSH0 DUP2 GT PUSH2 0x11CA JUMPI PUSH1 0x40 MLOAD PUSH32 0x8C379A000000000000000000000000000000000000000000000000000000000 DUP2 MSTORE PUSH1 0x4 ADD PUSH2 0x11C1 SWAP1 PUSH2 0x2C15 JUMP JUMPDEST PUSH1 0x40 MLOAD DUP1 SWAP2 SUB SWAP1 REVERT JUMPDEST DUP1 PUSH1 0xB DUP4 PUSH1 0x40 MLOAD PUSH2 0x11DB SWAP2 SWAP1 PUSH2 0x27FE JUMP JUMPDEST SWAP1 DUP2 MSTORE PUSH1 0x20 ADD PUSH1 0x40 MLOAD DUP1 SWAP2 SUB SWAP1 KECCAK256 DUP2 SWAP1 SSTORE POP PUSH32 0x40595E4D22661278FEEFF293E3DE4334B9132B0BF1C2AAC89A8EC5AEDB2C11A4 DUP3 DUP3 PUSH1 0x40 MLOAD PUSH2 0x121E SWAP3 SWAP2 SWAP1 PUSH2 0x2C33 JUMP JUMPDEST PUSH1 0x40 MLOAD DUP1 SWAP2 SUB SWAP1 LOG1 POP POP JUMP JUMPDEST PUSH0 PUSH1 0x1 PUSH0 DUP5 PUSH20 0xFFFFFFFFFFFFFFFFFFFFFFFFFFFFFFFFFFFFFFFF AND PUSH20 0xFFFFFFFFFFFFFFFFFFFFFFFFFFFFFFFFFFFFFFFF AND DUP2 MSTORE PUSH1 0x20 ADD SWAP1 DUP2 MSTORE PUSH1 0x20 ADD PUSH0 KECCAK256 PUSH0 DUP4 PUSH20 0xFFFFFFFFFFFFFFFFFFFFFFFFFFFFFFFFFFFFFFFF AND PUSH20 0xFFFFFFFFFFFFFFFFFFFFFFFFFFFFFFFFFFFFFFFF AND DUP2 MSTORE PUSH1 0x20 ADD SWAP1 DUP2 MSTORE PUSH1 0x20 ADD PUSH0 KECCAK256 SLOAD SWAP1 POP SWAP3 SWAP2 POP POP JUMP JUMPDEST PUSH2 0x12B4 PUSH2 0x14EC JUMP JUMPDEST PUSH0 PUSH20 0xFFFFFFFFFFFFFFFFFFFFFFFFFFFFFFFFFFFFFFFF AND DUP4 PUSH20 0xFFFFFFFFFFFFFFFFFFFFFFFFFFFFFFFFFFFFFFFF AND SUB PUSH2 0x1322 JUMPI PUSH1 0x40 MLOAD PUSH32 0x8C379A000000000000000000000000000000000000000000000000000000000 DUP2 MSTORE PUSH1 0x4 ADD PUSH2 0x1319 SWAP1 PUSH2 0x2CAB JUMP JUMPDEST PUSH1 0x40 MLOAD DUP1 SWAP2 SUB SWAP1 REVERT JUMPDEST PUSH0 DUP3 GT PUSH2 0x1364 JUMPI PUSH1 0x40 MLOAD PUSH32 0x8C379A000000000000000000000000000000000000000000000000000000000 DUP2 MSTORE PUSH1 0x4 ADD PUSH2 0x135B SWAP1 PUSH2 0x2C15 JUMP JUMPDEST PUSH1 0x40 MLOAD DUP1 SWAP2 SUB SWAP1 REVERT JUMPDEST PUSH1 0xA PUSH0 DUP3 PUSH20 0xFFFFFFFFFFFFFFFFFFFFFFFFFFFFFFFFFFFFFFFF AND PUSH20 0xFFFFFFFFFFFFFFFFFFFFFFFFFFFFFFFFFFFFFFFF AND DUP2 MSTORE PUSH1 0x20 ADD SWAP1 DUP2 MSTORE PUSH1 0x20 ADD PUSH0 KECCAK256 PUSH0 SWAP1 SLOAD SWAP1 PUSH2 0x100 EXP SWAP1 DIV PUSH1 0xFF AND PUSH2 0x13ED JUMPI PUSH1 0x40 MLOAD PUSH32 0x8C379A000000000000000000000000000000000000000000000000000000000 DUP2 MSTORE PUSH1 0x4 ADD PUSH2 0x13E4 SWAP1 PUSH2 0x285E JUMP JUMPDEST PUSH1 0x40 MLOAD DUP1 SWAP2 SUB SWAP1 REVERT JUMPDEST DUP2 PUSH1 0x9 PUSH0 DUP6 PUSH20 0xFFFFFFFFFFFFFFFFFFFFFFFFFFFFFFFFFFFFFFFF AND PUSH20 0xFFFFFFFFFFFFFFFFFFFFFFFFFFFFFFFFFFFFFFFF AND DUP2 MSTORE PUSH1 0x20 ADD SWAP1 DUP2 MSTORE PUSH1 0x20 ADD PUSH0 KECCAK256 PUSH0 DUP3 DUP3 SLOAD PUSH2 0x1439 SWAP2 SWAP1 PUSH2 0x2CF6 JUMP JUMPDEST SWAP3 POP POP DUP2 SWAP1 SSTORE POP PUSH2 0x144A DUP2 DUP4 PUSH2 0x18FD JUMP JUMPDEST POP POP POP JUMP JUMPDEST PUSH2 0x1457 PUSH2 0x14EC JUMP JUMPDEST PUSH0 PUSH20 0xFFFFFFFFFFFFFFFFFFFFFFFFFFFFFFFFFFFFFFFF AND DUP2 PUSH20 0xFFFFFFFFFFFFFFFFFFFFFFFFFFFFFFFFFFFFFFFF AND SUB PUSH2 0x14C7 JUMPI PUSH0 PUSH1 0x40 MLOAD PUSH32 0x1E4FBDF700000000000000000000000000000000000000000000000000000000 DUP2 MSTORE PUSH1 0x4 ADD PUSH2 0x14BE SWAP2 SWAP1 PUSH2 0x228E JUMP JUMPDEST PUSH1 0x40 MLOAD DUP1 SWAP2 SUB SWAP1 REVERT JUMPDEST PUSH2 0x14D0 DUP2 PUSH2 0x17D7 JUMP JUMPDEST POP JUMP JUMPDEST PUSH0 CALLER SWAP1 POP SWAP1 JUMP JUMPDEST PUSH2 0x14E7 DUP4 DUP4 DUP4 PUSH1 0x1 PUSH2 0x197C JUMP JUMPDEST POP POP POP JUMP JUMPDEST PUSH2 0x14F4 PUSH2 0x14D3 JUMP JUMPDEST PUSH20 0xFFFFFFFFFFFFFFFFFFFFFFFFFFFFFFFFFFFFFFFF AND PUSH2 0x1512 PUSH2 0xB58 JUMP JUMPDEST PUSH20 0xFFFFFFFFFFFFFFFFFFFFFFFFFFFFFFFFFFFFFFFF AND EQ PUSH2 0x1571 JUMPI PUSH2 0x1535 PUSH2 0x14D3 JUMP JUMPDEST PUSH1 0x40 MLOAD PUSH32 0x118CDAA700000000000000000000000000000000000000000000000000000000 DUP2 MSTORE PUSH1 0x4 ADD PUSH2 0x1568 SWAP2 SWAP1 PUSH2 0x228E JUMP JUMPDEST PUSH1 0x40 MLOAD DUP1 SWAP2 SUB SWAP1 REVERT JUMPDEST JUMP JUMPDEST PUSH0 PUSH2 0x157E DUP5 DUP5 PUSH2 0x122A JUMP JUMPDEST SWAP1 POP PUSH32 0xFFFFFFFFFFFFFFFFFFFFFFFFFFFFFFFFFFFFFFFFFFFFFFFFFFFFFFFFFFFFFFFF DUP2 LT ISZERO PUSH2 0x1600 JUMPI DUP2 DUP2 LT ISZERO PUSH2 0x15F1 JUMPI DUP3 DUP2 DUP4 PUSH1 0x40 MLOAD PUSH32 0xFB8F41B200000000000000000000000000000000000000000000000000000000 DUP2 MSTORE PUSH1 0x4 ADD PUSH2 0x15E8 SWAP4 SWAP3 SWAP2 SWAP1 PUSH2 0x2D29 JUMP JUMPDEST PUSH1 0x40 MLOAD DUP1 SWAP2 SUB SWAP1 REVERT JUMPDEST PUSH2 0x15FF DUP5 DUP5 DUP5 DUP5 SUB PUSH0 PUSH2 0x197C JUMP JUMPDEST JUMPDEST POP POP POP POP JUMP JUMPDEST PUSH0 PUSH20 0xFFFFFFFFFFFFFFFFFFFFFFFFFFFFFFFFFFFFFFFF AND DUP4 PUSH20 0xFFFFFFFFFFFFFFFFFFFFFFFFFFFFFFFFFFFFFFFF AND SUB PUSH2 0x1676 JUMPI PUSH0 PUSH1 0x40 MLOAD PUSH32 0x96C6FD1E00000000000000000000000000000000000000000000000000000000 DUP2 MSTORE PUSH1 0x4 ADD PUSH2 0x166D SWAP2 SWAP1 PUSH2 0x228E JUMP JUMPDEST PUSH1 0x40 MLOAD DUP1 SWAP2 SUB SWAP1 REVERT JUMPDEST PUSH0 PUSH20 0xFFFFFFFFFFFFFFFFFFFFFFFFFFFFFFFFFFFFFFFF AND DUP3 PUSH20 0xFFFFFFFFFFFFFFFFFFFFFFFFFFFFFFFFFFFFFFFF AND SUB PUSH2 0x16E6 JUMPI PUSH0 PUSH1 0x40 MLOAD PUSH32 0xEC442F0500000000000000000000000000000000000000000000000000000000 DUP2 MSTORE PUSH1 0x4 ADD PUSH2 0x16DD SWAP2 SWAP1 PUSH2 0x228E JUMP JUMPDEST PUSH1 0x40 MLOAD DUP1 SWAP2 SUB SWAP1 REVERT JUMPDEST PUSH2 0x16F1 DUP4 DUP4 DUP4 PUSH2 0x1B4B JUMP JUMPDEST POP POP POP JUMP JUMPDEST PUSH2 0x16FE PUSH2 0x1D64 JUMP JUMPDEST PUSH0 PUSH1 0x5 PUSH1 0x14 PUSH2 0x100 EXP DUP2 SLOAD DUP2 PUSH1 0xFF MUL NOT AND SWAP1 DUP4 ISZERO ISZERO MUL OR SWAP1 SSTORE POP PUSH32 0x5DB9EE0A495BF2E6FF9C91A7834C1BA4FDD244A5E8AA4E537BD38AEAE4B073AA PUSH2 0x1741 PUSH2 0x14D3 JUMP JUMPDEST PUSH1 0x40 MLOAD PUSH2 0x174E SWAP2 SWAP1 PUSH2 0x228E JUMP JUMPDEST PUSH1 0x40 MLOAD DUP1 SWAP2 SUB SWAP1 LOG1 JUMP JUMPDEST PUSH0 PUSH20 0xFFFFFFFFFFFFFFFFFFFFFFFFFFFFFFFFFFFFFFFF AND DUP3 PUSH20 0xFFFFFFFFFFFFFFFFFFFFFFFFFFFFFFFFFFFFFFFF AND SUB PUSH2 0x17C8 JUMPI PUSH0 PUSH1 0x40 MLOAD PUSH32 0x96C6FD1E00000000000000000000000000000000000000000000000000000000 DUP2 MSTORE PUSH1 0x4 ADD PUSH2 0x17BF SWAP2 SWAP1 PUSH2 0x228E JUMP JUMPDEST PUSH1 0x40 MLOAD DUP1 SWAP2 SUB SWAP1 REVERT JUMPDEST PUSH2 0x17D3 DUP3 PUSH0 DUP4 PUSH2 0x1B4B JUMP JUMPDEST POP POP JUMP JUMPDEST PUSH0 PUSH1 0x5 PUSH0 SWAP1 SLOAD SWAP1 PUSH2 0x100 EXP SWAP1 DIV PUSH20 0xFFFFFFFFFFFFFFFFFFFFFFFFFFFFFFFFFFFFFFFF AND SWAP1 POP DUP2 PUSH1 0x5 PUSH0 PUSH2 0x100 EXP DUP2 SLOAD DUP2 PUSH20 0xFFFFFFFFFFFFFFFFFFFFFFFFFFFFFFFFFFFFFFFF MUL NOT AND SWAP1 DUP4 PUSH20 0xFFFFFFFFFFFFFFFFFFFFFFFFFFFFFFFFFFFFFFFF AND MUL OR SWAP1 SSTORE POP DUP2 PUSH20 0xFFFFFFFFFFFFFFFFFFFFFFFFFFFFFFFFFFFFFFFF AND DUP2 PUSH20 0xFFFFFFFFFFFFFFFFFFFFFFFFFFFFFFFFFFFFFFFF AND PUSH32 0x8BE0079C531659141344CD1FD0A4F28419497F9722A3DAAFE3B4186F6B6457E0 PUSH1 0x40 MLOAD PUSH1 0x40 MLOAD DUP1 SWAP2 SUB SWAP1 LOG3 POP POP JUMP JUMPDEST PUSH2 0x18A2 PUSH2 0x1DAD JUMP JUMPDEST PUSH1 0x1 PUSH1 0x5 PUSH1 0x14 PUSH2 0x100 EXP DUP2 SLOAD DUP2 PUSH1 0xFF MUL NOT AND SWAP1 DUP4 ISZERO ISZERO MUL OR SWAP1 SSTORE POP PUSH32 0x62E78CEA01BEE320CD4E420270B5EA74000D11B0C9F74754EBDBFC544B05A258 PUSH2 0x18E6 PUSH2 0x14D3 JUMP JUMPDEST PUSH1 0x40 MLOAD PUSH2 0x18F3 SWAP2 SWAP1 PUSH2 0x228E JUMP JUMPDEST PUSH1 0x40 MLOAD DUP1 SWAP2 SUB SWAP1 LOG1 JUMP JUMPDEST PUSH0 PUSH20 0xFFFFFFFFFFFFFFFFFFFFFFFFFFFFFFFFFFFFFFFF AND DUP3 PUSH20 0xFFFFFFFFFFFFFFFFFFFFFFFFFFFFFFFFFFFFFFFF AND SUB PUSH2 0x196D JUMPI PUSH0 PUSH1 0x40 MLOAD PUSH32 0xEC442F0500000000000000000000000000000000000000000000000000000000 DUP2 MSTORE PUSH1 0x4 ADD PUSH2 0x1964 SWAP2 SWAP1 PUSH2 0x228E JUMP JUMPDEST PUSH1 0x40 MLOAD DUP1 SWAP2 SUB SWAP1 REVERT JUMPDEST PUSH2 0x1978 PUSH0 DUP4 DUP4 PUSH2 0x1B4B JUMP JUMPDEST POP POP JUMP JUMPDEST PUSH0 PUSH20 0xFFFFFFFFFFFFFFFFFFFFFFFFFFFFFFFFFFFFFFFF AND DUP5 PUSH20 0xFFFFFFFFFFFFFFFFFFFFFFFFFFFFFFFFFFFFFFFF AND SUB PUSH2 0x19EC JUMPI PUSH0 PUSH1 0x40 MLOAD PUSH32 0xE602DF0500000000000000000000000000000000000000000000000000000000 DUP2 MSTORE PUSH1 0x4 ADD PUSH2 0x19E3 SWAP2 SWAP1 PUSH2 0x228E JUMP JUMPDEST PUSH1 0x40 MLOAD DUP1 SWAP2 SUB SWAP1 REVERT JUMPDEST PUSH0 PUSH20 0xFFFFFFFFFFFFFFFFFFFFFFFFFFFFFFFFFFFFFFFF AND DUP4 PUSH20 0xFFFFFFFFFFFFFFFFFFFFFFFFFFFFFFFFFFFFFFFF AND SUB PUSH2 0x1A5C JUMPI PUSH0 PUSH1 0x40 MLOAD PUSH32 0x94280D6200000000000000000000000000000000000000000000000000000000 DUP2 MSTORE PUSH1 0x4 ADD PUSH2 0x1A53 SWAP2 SWAP1 PUSH2 0x228E JUMP JUMPDEST PUSH1 0x40 MLOAD DUP1 SWAP2 SUB SWAP1 REVERT JUMPDEST DUP2 PUSH1 0x1 PUSH0 DUP7 PUSH20 0xFFFFFFFFFFFFFFFFFFFFFFFFFFFFFFFFFFFFFFFF AND PUSH20 0xFFFFFFFFFFFFFFFFFFFFFFFFFFFFFFFFFFFFFFFF AND DUP2 MSTORE PUSH1 0x20 ADD SWAP1 DUP2 MSTORE PUSH1 0x20 ADD PUSH0 KECCAK256 PUSH0 DUP6 PUSH20 0xFFFFFFFFFFFFFFFFFFFFFFFFFFFFFFFFFFFFFFFF AND PUSH20 0xFFFFFFFFFFFFFFFFFFFFFFFFFFFFFFFFFFFFFFFF AND DUP2 MSTORE PUSH1 0x20 ADD SWAP1 DUP2 MSTORE PUSH1 0x20 ADD PUSH0 KECCAK256 DUP2 SWAP1 SSTORE POP DUP1 ISZERO PUSH2 0x1B45 JUMPI DUP3 PUSH20 0xFFFFFFFFFFFFFFFFFFFFFFFFFFFFFFFFFFFFFFFF AND DUP5 PUSH20 0xFFFFFFFFFFFFFFFFFFFFFFFFFFFFFFFFFFFFFFFF AND PUSH32 0x8C5BE1E5EBEC7D5BD14F71427D1E84F3DD0314C0F7B2291E5B200AC8C7C3B925 DUP5 PUSH1 0x40 MLOAD PUSH2 0x1B3C SWAP2 SWAP1 PUSH2 0x1FBF JUMP JUMPDEST PUSH1 0x40 MLOAD DUP1 SWAP2 SUB SWAP1 LOG3 JUMPDEST POP POP POP POP JUMP JUMPDEST PUSH0 PUSH20 0xFFFFFFFFFFFFFFFFFFFFFFFFFFFFFFFFFFFFFFFF AND DUP4 PUSH20 0xFFFFFFFFFFFFFFFFFFFFFFFFFFFFFFFFFFFFFFFF AND SUB PUSH2 0x1B9B JUMPI DUP1 PUSH1 0x2 PUSH0 DUP3 DUP3 SLOAD PUSH2 0x1B8F SWAP2 SWAP1 PUSH2 0x2CF6 JUMP JUMPDEST SWAP3 POP POP DUP2 SWAP1 SSTORE POP PUSH2 0x1C69 JUMP JUMPDEST PUSH0 DUP1 PUSH0 DUP6 PUSH20 0xFFFFFFFFFFFFFFFFFFFFFFFFFFFFFFFFFFFFFFFF AND PUSH20 0xFFFFFFFFFFFFFFFFFFFFFFFFFFFFFFFFFFFFFFFF AND DUP2 MSTORE PUSH1 0x20 ADD SWAP1 DUP2 MSTORE PUSH1 0x20 ADD PUSH0 KECCAK256 SLOAD SWAP1 POP DUP2 DUP2 LT ISZERO PUSH2 0x1C24 JUMPI DUP4 DUP2 DUP4 PUSH1 0x40 MLOAD PUSH32 0xE450D38C00000000000000000000000000000000000000000000000000000000 DUP2 MSTORE PUSH1 0x4 ADD PUSH2 0x1C1B SWAP4 SWAP3 SWAP2 SWAP1 PUSH2 0x2D29 JUMP JUMPDEST PUSH1 0x40 MLOAD DUP1 SWAP2 SUB SWAP1 REVERT JUMPDEST DUP2 DUP2 SUB PUSH0 DUP1 DUP7 PUSH20 0xFFFFFFFFFFFFFFFFFFFFFFFFFFFFFFFFFFFFFFFF AND PUSH20 0xFFFFFFFFFFFFFFFFFFFFFFFFFFFFFFFFFFFFFFFF AND DUP2 MSTORE PUSH1 0x20 ADD SWAP1 DUP2 MSTORE PUSH1 0x20 ADD PUSH0 KECCAK256 DUP2 SWAP1 SSTORE POP POP JUMPDEST PUSH0 PUSH20 0xFFFFFFFFFFFFFFFFFFFFFFFFFFFFFFFFFFFFFFFF AND DUP3 PUSH20 0xFFFFFFFFFFFFFFFFFFFFFFFFFFFFFFFFFFFFFFFF AND SUB PUSH2 0x1CB0 JUMPI DUP1 PUSH1 0x2 PUSH0 DUP3 DUP3 SLOAD SUB SWAP3 POP POP DUP2 SWAP1 SSTORE POP PUSH2 0x1CFA JUMP JUMPDEST DUP1 PUSH0 DUP1 DUP5 PUSH20 0xFFFFFFFFFFFFFFFFFFFFFFFFFFFFFFFFFFFFFFFF AND PUSH20 0xFFFFFFFFFFFFFFFFFFFFFFFFFFFFFFFFFFFFFFFF AND DUP2 MSTORE PUSH1 0x20 ADD SWAP1 DUP2 MSTORE PUSH1 0x20 ADD PUSH0 KECCAK256 PUSH0 DUP3 DUP3 SLOAD ADD SWAP3 POP POP DUP2 SWAP1 SSTORE POP JUMPDEST DUP2 PUSH20 0xFFFFFFFFFFFFFFFFFFFFFFFFFFFFFFFFFFFFFFFF AND DUP4 PUSH20 0xFFFFFFFFFFFFFFFFFFFFFFFFFFFFFFFFFFFFFFFF AND PUSH32 0xDDF252AD1BE2C89B69C2B068FC378DAA952BA7F163C4A11628F55A4DF523B3EF DUP4 PUSH1 0x40 MLOAD PUSH2 0x1D57 SWAP2 SWAP1 PUSH2 0x1FBF JUMP JUMPDEST PUSH1 0x40 MLOAD DUP1 SWAP2 SUB SWAP1 LOG3 POP POP POP JUMP JUMPDEST PUSH2 0x1D6C PUSH2 0xA28 JUMP JUMPDEST PUSH2 0x1DAB JUMPI PUSH1 0x40 MLOAD PUSH32 0x8C379A000000000000000000000000000000000000000000000000000000000 DUP2 MSTORE PUSH1 0x4 ADD PUSH2 0x1DA2 SWAP1 PUSH2 0x2DA8 JUMP JUMPDEST PUSH1 0x40 MLOAD DUP1 SWAP2 SUB SWAP1 REVERT JUMPDEST JUMP JUMPDEST PUSH2 0x1DB5 PUSH2 0xA28 JUMP JUMPDEST ISZERO PUSH2 0x1DF5 JUMPI PUSH1 0x40 MLOAD PUSH32 0x8C379A000000000000000000000000000000000000000000000000000000000 DUP2 MSTORE PUSH1 0x4 ADD PUSH2 0x1DEC SWAP1 PUSH2 0x2E10 JUMP JUMPDEST PUSH1 0x40 MLOAD DUP1 SWAP2 SUB SWAP1 REVERT JUMPDEST JUMP JUMPDEST PUSH0 DUP2 MLOAD SWAP1 POP SWAP2 SWAP1 POP JUMP JUMPDEST PUSH0 DUP3 DUP3 MSTORE PUSH1 0x20 DUP3 ADD SWAP1 POP SWAP3 SWAP2 POP POP JUMP JUMPDEST PUSH0 JUMPDEST DUP4 DUP2 LT ISZERO PUSH2 0x1E2E JUMPI DUP1 DUP3 ADD MLOAD DUP2 DUP5 ADD MSTORE PUSH1 0x20 DUP2 ADD SWAP1 POP PUSH2 0x1E13 JUMP JUMPDEST PUSH0 DUP5 DUP5 ADD MSTORE POP POP POP POP JUMP JUMPDEST PUSH0 PUSH1 0x1F NOT PUSH1 0x1F DUP4 ADD AND SWAP1 POP SWAP2 SWAP1 POP JUMP JUMPDEST PUSH0 PUSH2 0x1E53 DUP3 PUSH2 0x1DF7 JUMP JUMPDEST PUSH2 0x1E5D DUP2 DUP6 PUSH2 0x1E01 JUMP JUMPDEST SWAP4 POP PUSH2 0x1E6D DUP2 DUP6 PUSH1 0x20 DUP7 ADD PUSH2 0x1E11 JUMP JUMPDEST PUSH2 0x1E76 DUP2 PUSH2 0x1E39 JUMP JUMPDEST DUP5 ADD SWAP2 POP POP SWAP3 SWAP2 POP POP JUMP JUMPDEST PUSH0 PUSH1 0x20 DUP3 ADD SWAP1 POP DUP2 DUP2 SUB PUSH0 DUP4 ADD MSTORE PUSH2 0x1E99 DUP2 DUP5 PUSH2 0x1E49 JUMP JUMPDEST SWAP1 POP SWAP3 SWAP2 POP POP JUMP JUMPDEST PUSH0 PUSH1 0x40 MLOAD SWAP1 POP SWAP1 JUMP JUMPDEST PUSH0 DUP1 REVERT JUMPDEST PUSH0 DUP1 REVERT JUMPDEST PUSH0 PUSH20 0xFFFFFFFFFFFFFFFFFFFFFFFFFFFFFFFFFFFFFFFF DUP3 AND SWAP1 POP SWAP2 SWAP1 POP JUMP JUMPDEST PUSH0 PUSH2 0x1EDB DUP3 PUSH2 0x1EB2 JUMP JUMPDEST SWAP1 POP SWAP2 SWAP1 POP JUMP JUMPDEST PUSH2 0x1EEB DUP2 PUSH2 0x1ED1 JUMP JUMPDEST DUP2 EQ PUSH2 0x1EF5 JUMPI PUSH0 DUP1 REVERT JUMPDEST POP JUMP JUMPDEST PUSH0 DUP2 CALLDATALOAD SWAP1 POP PUSH2 0x1F06 DUP2 PUSH2 0x1EE2 JUMP JUMPDEST SWAP3 SWAP2 POP POP JUMP JUMPDEST PUSH0 DUP2 SWAP1 POP SWAP2 SWAP1 POP JUMP JUMPDEST PUSH2 0x1F1E DUP2 PUSH2 0x1F0C JUMP JUMPDEST DUP2 EQ PUSH2 0x1F28 JUMPI PUSH0 DUP1 REVERT JUMPDEST POP JUMP JUMPDEST PUSH0 DUP2 CALLDATALOAD SWAP1 POP PUSH2 0x1F39 DUP2 PUSH2 0x1F15 JUMP JUMPDEST SWAP3 SWAP2 POP POP JUMP JUMPDEST PUSH0 DUP1 PUSH1 0x40 DUP4 DUP6 SUB SLT ISZERO PUSH2 0x1F55 JUMPI PUSH2 0x1F54 PUSH2 0x1EAA JUMP JUMPDEST JUMPDEST PUSH0 PUSH2 0x1F62 DUP6 DUP3 DUP7 ADD PUSH2 0x1EF8 JUMP JUMPDEST SWAP3 POP POP PUSH1 0x20 PUSH2 0x1F73 DUP6 DUP3 DUP7 ADD PUSH2 0x1F2B JUMP JUMPDEST SWAP2 POP POP SWAP3 POP SWAP3 SWAP1 POP JUMP JUMPDEST PUSH0 DUP2 ISZERO ISZERO SWAP1 POP SWAP2 SWAP1 POP JUMP JUMPDEST PUSH2 0x1F91 DUP2 PUSH2 0x1F7D JUMP JUMPDEST DUP3 MSTORE POP POP JUMP JUMPDEST PUSH0 PUSH1 0x20 DUP3 ADD SWAP1 POP PUSH2 0x1FAA PUSH0 DUP4 ADD DUP5 PUSH2 0x1F88 JUMP JUMPDEST SWAP3 SWAP2 POP POP JUMP JUMPDEST PUSH2 0x1FB9 DUP2 PUSH2 0x1F0C JUMP JUMPDEST DUP3 MSTORE POP POP JUMP JUMPDEST PUSH0 PUSH1 0x20 DUP3 ADD SWAP1 POP PUSH2 0x1FD2 PUSH0 DUP4 ADD DUP5 PUSH2 0x1FB0 JUMP JUMPDEST SWAP3 SWAP2 POP POP JUMP JUMPDEST PUSH0 DUP1 REVERT JUMPDEST PUSH0 DUP1 REVERT JUMPDEST PUSH32 0x4E487B7100000000000000000000000000000000000000000000000000000000 PUSH0 MSTORE PUSH1 0x41 PUSH1 0x4 MSTORE PUSH1 0x24 PUSH0 REVERT JUMPDEST PUSH2 0x2016 DUP3 PUSH2 0x1E39 JUMP JUMPDEST DUP2 ADD DUP2 DUP2 LT PUSH8 0xFFFFFFFFFFFFFFFF DUP3 GT OR ISZERO PUSH2 0x2035 JUMPI PUSH2 0x2034 PUSH2 0x1FE0 JUMP JUMPDEST JUMPDEST DUP1 PUSH1 0x40 MSTORE POP POP POP JUMP JUMPDEST PUSH0 PUSH2 0x2047 PUSH2 0x1EA1 JUMP JUMPDEST SWAP1 POP PUSH2 0x2053 DUP3 DUP3 PUSH2 0x200D JUMP JUMPDEST SWAP2 SWAP1 POP JUMP JUMPDEST PUSH0 PUSH8 0xFFFFFFFFFFFFFFFF DUP3 GT ISZERO PUSH2 0x2072 JUMPI PUSH2 0x2071 PUSH2 0x1FE0 JUMP JUMPDEST JUMPDEST PUSH2 0x207B DUP3 PUSH2 0x1E39 JUMP JUMPDEST SWAP1 POP PUSH1 0x20 DUP2 ADD SWAP1 POP SWAP2 SWAP1 POP JUMP JUMPDEST DUP3 DUP2 DUP4 CALLDATACOPY PUSH0 DUP4 DUP4 ADD MSTORE POP POP POP JUMP JUMPDEST PUSH0 PUSH2 0x20A8 PUSH2 0x20A3 DUP5 PUSH2 0x2058 JUMP JUMPDEST PUSH2 0x203E JUMP JUMPDEST SWAP1 POP DUP3 DUP2 MSTORE PUSH1 0x20 DUP2 ADD DUP5 DUP5 DUP5 ADD GT ISZERO PUSH2 0x20C4 JUMPI PUSH2 0x20C3 PUSH2 0x1FDC JUMP JUMPDEST JUMPDEST PUSH2 0x20CF DUP5 DUP3 DUP6 PUSH2 0x2088 JUMP JUMPDEST POP SWAP4 SWAP3 POP POP POP JUMP JUMPDEST PUSH0 DUP3 PUSH1 0x1F DUP4 ADD SLT PUSH2 0x20EB JUMPI PUSH2 0x20EA PUSH2 0x1FD8 JUMP JUMPDEST JUMPDEST DUP2 CALLDATALOAD PUSH2 0x20FB DUP5 DUP3 PUSH1 0x20 DUP7 ADD PUSH2 0x2096 JUMP JUMPDEST SWAP2 POP POP SWAP3 SWAP2 POP POP JUMP JUMPDEST PUSH0 DUP1 PUSH1 0x40 DUP4 DUP6 SUB SLT ISZERO PUSH2 0x211A JUMPI PUSH2 0x2119 PUSH2 0x1EAA JUMP JUMPDEST JUMPDEST PUSH0 PUSH2 0x2127 DUP6 DUP3 DUP7 ADD PUSH2 0x1EF8 JUMP JUMPDEST SWAP3 POP POP PUSH1 0x20 DUP4 ADD CALLDATALOAD PUSH8 0xFFFFFFFFFFFFFFFF DUP2 GT ISZERO PUSH2 0x2148 JUMPI PUSH2 0x2147 PUSH2 0x1EAE JUMP JUMPDEST JUMPDEST PUSH2 0x2154 DUP6 DUP3 DUP7 ADD PUSH2 0x20D7 JUMP JUMPDEST SWAP2 POP POP SWAP3 POP SWAP3 SWAP1 POP JUMP JUMPDEST PUSH0 DUP1 PUSH0 PUSH1 0x60 DUP5 DUP7 SUB SLT ISZERO PUSH2 0x2175 JUMPI PUSH2 0x2174 PUSH2 0x1EAA JUMP JUMPDEST JUMPDEST PUSH0 PUSH2 0x2182 DUP7 DUP3 DUP8 ADD PUSH2 0x1EF8 JUMP JUMPDEST SWAP4 POP POP PUSH1 0x20 PUSH2 0x2193 DUP7 DUP3 DUP8 ADD PUSH2 0x1EF8 JUMP JUMPDEST SWAP3 POP POP PUSH1 0x40 PUSH2 0x21A4 DUP7 DUP3 DUP8 ADD PUSH2 0x1F2B JUMP JUMPDEST SWAP2 POP POP SWAP3 POP SWAP3 POP SWAP3 JUMP JUMPDEST PUSH0 PUSH1 0xFF DUP3 AND SWAP1 POP SWAP2 SWAP1 POP JUMP JUMPDEST PUSH2 0x21C3 DUP2 PUSH2 0x21AE JUMP JUMPDEST DUP3 MSTORE POP POP JUMP JUMPDEST PUSH0 PUSH1 0x20 DUP3 ADD SWAP1 POP PUSH2 0x21DC PUSH0 DUP4 ADD DUP5 PUSH2 0x21BA JUMP JUMPDEST SWAP3 SWAP2 POP POP JUMP JUMPDEST PUSH0 PUSH1 0x20 DUP3 DUP5 SUB SLT ISZERO PUSH2 0x21F7 JUMPI PUSH2 0x21F6 PUSH2 0x1EAA JUMP JUMPDEST JUMPDEST PUSH0 PUSH2 0x2204 DUP5 DUP3 DUP6 ADD PUSH2 0x1EF8 JUMP JUMPDEST SWAP2 POP POP SWAP3 SWAP2 POP POP JUMP JUMPDEST PUSH0 PUSH1 0x20 DUP3 DUP5 SUB SLT ISZERO PUSH2 0x2222 JUMPI PUSH2 0x2221 PUSH2 0x1EAA JUMP JUMPDEST JUMPDEST PUSH0 PUSH2 0x222F DUP5 DUP3 DUP6 ADD PUSH2 0x1F2B JUMP JUMPDEST SWAP2 POP POP SWAP3 SWAP2 POP POP JUMP JUMPDEST PUSH0 PUSH1 0x20 DUP3 DUP5 SUB SLT ISZERO PUSH2 0x224D JUMPI PUSH2 0x224C PUSH2 0x1EAA JUMP JUMPDEST JUMPDEST PUSH0 DUP3 ADD CALLDATALOAD PUSH8 0xFFFFFFFFFFFFFFFF DUP2 GT ISZERO PUSH2 0x226A JUMPI PUSH2 0x2269 PUSH2 0x1EAE JUMP JUMPDEST JUMPDEST PUSH2 0x2276 DUP5 DUP3 DUP6 ADD PUSH2 0x20D7 JUMP JUMPDEST SWAP2 POP POP SWAP3 SWAP2 POP POP JUMP JUMPDEST PUSH2 0x2288 DUP2 PUSH2 0x1ED1 JUMP JUMPDEST DUP3 MSTORE POP POP JUMP JUMPDEST PUSH0 PUSH1 0x20 DUP3 ADD SWAP1 POP PUSH2 0x22A1 PUSH0 DUP4 ADD DUP5 PUSH2 0x227F JUMP JUMPDEST SWAP3 SWAP2 POP POP JUMP JUMPDEST PUSH0 DUP1 PUSH0 DUP1 PUSH1 0x80 DUP6 DUP8 SUB SLT ISZERO PUSH2 0x22BF JUMPI PUSH2 0x22BE PUSH2 0x1EAA JUMP JUMPDEST JUMPDEST PUSH0 DUP6 ADD CALLDATALOAD PUSH8 0xFFFFFFFFFFFFFFFF DUP2 GT ISZERO PUSH2 0x22DC JUMPI PUSH2 0x22DB PUSH2 0x1EAE JUMP JUMPDEST JUMPDEST PUSH2 0x22E8 DUP8 DUP3 DUP9 ADD PUSH2 0x20D7 JUMP JUMPDEST SWAP5 POP POP PUSH1 0x20 DUP6 ADD CALLDATALOAD PUSH8 0xFFFFFFFFFFFFFFFF DUP2 GT ISZERO PUSH2 0x2309 JUMPI PUSH2 0x2308 PUSH2 0x1EAE JUMP JUMPDEST JUMPDEST PUSH2 0x2315 DUP8 DUP3 DUP9 ADD PUSH2 0x20D7 JUMP JUMPDEST SWAP4 POP POP PUSH1 0x40 PUSH2 0x2326 DUP8 DUP3 DUP9 ADD PUSH2 0x1F2B JUMP JUMPDEST SWAP3 POP POP PUSH1 0x60 PUSH2 0x2337 DUP8 DUP3 DUP9 ADD PUSH2 0x1EF8 JUMP JUMPDEST SWAP2 POP POP SWAP3 SWAP6 SWAP2 SWAP5 POP SWAP3 POP JUMP JUMPDEST PUSH0 DUP1 PUSH1 0x40 DUP4 DUP6 SUB SLT ISZERO PUSH2 0x2359 JUMPI PUSH2 0x2358 PUSH2 0x1EAA JUMP JUMPDEST JUMPDEST PUSH0 DUP4 ADD CALLDATALOAD PUSH8 0xFFFFFFFFFFFFFFFF DUP2 GT ISZERO PUSH2 0x2376 JUMPI PUSH2 0x2375 PUSH2 0x1EAE JUMP JUMPDEST JUMPDEST PUSH2 0x2382 DUP6 DUP3 DUP7 ADD PUSH2 0x20D7 JUMP JUMPDEST SWAP3 POP POP PUSH1 0x20 PUSH2 0x2393 DUP6 DUP3 DUP7 ADD PUSH2 0x1F2B JUMP JUMPDEST SWAP2 POP POP SWAP3 POP SWAP3 SWAP1 POP JUMP JUMPDEST PUSH0 DUP1 PUSH1 0x40 DUP4 DUP6 SUB SLT ISZERO PUSH2 0x23B3 JUMPI PUSH2 0x23B2 PUSH2 0x1EAA JUMP JUMPDEST JUMPDEST PUSH0 PUSH2 0x23C0 DUP6 DUP3 DUP7 ADD PUSH2 0x1EF8 JUMP JUMPDEST SWAP3 POP POP PUSH1 0x20 PUSH2 0x23D1 DUP6 DUP3 DUP7 ADD PUSH2 0x1EF8 JUMP JUMPDEST SWAP2 POP POP SWAP3 POP SWAP3 SWAP1 POP JUMP JUMPDEST PUSH0 DUP1 PUSH0 PUSH1 0x60 DUP5 DUP7 SUB SLT ISZERO PUSH2 0x23F2 JUMPI PUSH2 0x23F1 PUSH2 0x1EAA JUMP JUMPDEST JUMPDEST PUSH0 PUSH2 0x23FF DUP7 DUP3 DUP8 ADD PUSH2 0x1EF8 JUMP JUMPDEST SWAP4 POP POP PUSH1 0x20 PUSH2 0x2410 DUP7 DUP3 DUP8 ADD PUSH2 0x1F2B JUMP JUMPDEST SWAP3 POP POP PUSH1 0x40 PUSH2 0x2421 DUP7 DUP3 DUP8 ADD PUSH2 0x1EF8 JUMP JUMPDEST SWAP2 POP POP SWAP3 POP SWAP3 POP SWAP3 JUMP JUMPDEST PUSH32 0x4E487B7100000000000000000000000000000000000000000000000000000000 PUSH0 MSTORE PUSH1 0x22 PUSH1 0x4 MSTORE PUSH1 0x24 PUSH0 REVERT JUMPDEST PUSH0 PUSH1 0x2 DUP3 DIV SWAP1 POP PUSH1 0x1 DUP3 AND DUP1 PUSH2 0x246F JUMPI PUSH1 0x7F DUP3 AND SWAP2 POP JUMPDEST PUSH1 0x20 DUP3 LT DUP2 SUB PUSH2 0x2482 JUMPI PUSH2 0x2481 PUSH2 0x242B JUMP JUMPDEST JUMPDEST POP SWAP2 SWAP1 POP JUMP JUMPDEST PUSH32 0x496E76616C69642062656E656669636961727920616464726573730000000000 PUSH0 DUP3 ADD MSTORE POP JUMP JUMPDEST PUSH0 PUSH2 0x24BC PUSH1 0x1B DUP4 PUSH2 0x1E01 JUMP JUMPDEST SWAP2 POP PUSH2 0x24C7 DUP3 PUSH2 0x2488 JUMP JUMPDEST PUSH1 0x20 DUP3 ADD SWAP1 POP SWAP2 SWAP1 POP JUMP JUMPDEST PUSH0 PUSH1 0x20 DUP3 ADD SWAP1 POP DUP2 DUP2 SUB PUSH0 DUP4 ADD MSTORE PUSH2 0x24E9 DUP2 PUSH2 0x24B0 JUMP JUMPDEST SWAP1 POP SWAP2 SWAP1 POP JUMP JUMPDEST PUSH32 0x43617465676F72792063616E6E6F7420626520656D7074790000000000000000 PUSH0 DUP3 ADD MSTORE POP JUMP JUMPDEST PUSH0 PUSH2 0x2524 PUSH1 0x18 DUP4 PUSH2 0x1E01 JUMP JUMPDEST SWAP2 POP PUSH2 0x252F DUP3 PUSH2 0x24F0 JUMP JUMPDEST PUSH1 0x20 DUP3 ADD SWAP1 POP SWAP2 SWAP1 POP JUMP JUMPDEST PUSH0 PUSH1 0x20 DUP3 ADD SWAP1 POP DUP2 DUP2 SUB PUSH0 DUP4 ADD MSTORE PUSH2 0x2551 DUP2 PUSH2 0x2518 JUMP JUMPDEST SWAP1 POP SWAP2 SWAP1 POP JUMP JUMPDEST PUSH0 DUP2 SWAP1 POP DUP2 PUSH0 MSTORE PUSH1 0x20 PUSH0 KECCAK256 SWAP1 POP SWAP2 SWAP1 POP JUMP JUMPDEST PUSH0 PUSH1 0x20 PUSH1 0x1F DUP4 ADD DIV SWAP1 POP SWAP2 SWAP1 POP JUMP JUMPDEST PUSH0 DUP3 DUP3 SHL SWAP1 POP SWAP3 SWAP2 POP POP JUMP JUMPDEST PUSH0 PUSH1 0x8 DUP4 MUL PUSH2 0x25B4 PUSH32 0xFFFFFFFFFFFFFFFFFFFFFFFFFFFFFFFFFFFFFFFFFFFFFFFFFFFFFFFFFFFFFFFF DUP3 PUSH2 0x2579 JUMP JUMPDEST PUSH2 0x25BE DUP7 DUP4 PUSH2 0x2579 JUMP JUMPDEST SWAP6 POP DUP1 NOT DUP5 AND SWAP4 POP DUP1 DUP7 AND DUP5 OR SWAP3 POP POP POP SWAP4 SWAP3 POP POP POP JUMP JUMPDEST PUSH0 DUP2 SWAP1 POP SWAP2 SWAP1 POP JUMP JUMPDEST PUSH0 PUSH2 0x25F9 PUSH2 0x25F4 PUSH2 0x25EF DUP5 PUSH2 0x1F0C JUMP JUMPDEST PUSH2 0x25D6 JUMP JUMPDEST PUSH2 0x1F0C JUMP JUMPDEST SWAP1 POP SWAP2 SWAP1 POP JUMP JUMPDEST PUSH0 DUP2 SWAP1 POP SWAP2 SWAP1 POP JUMP JUMPDEST PUSH2 0x2612 DUP4 PUSH2 0x25DF JUMP JUMPDEST PUSH2 0x2626 PUSH2 0x261E DUP3 PUSH2 0x2600 JUMP JUMPDEST DUP5 DUP5 SLOAD PUSH2 0x2585 JUMP JUMPDEST DUP3 SSTORE POP POP POP POP JUMP JUMPDEST PUSH0 SWAP1 JUMP JUMPDEST PUSH2 0x263A PUSH2 0x262E JUMP JUMPDEST PUSH2 0x2645 DUP2 DUP5 DUP5 PUSH2 0x2609 JUMP JUMPDEST POP POP POP JUMP JUMPDEST JUMPDEST DUP2 DUP2 LT ISZERO PUSH2 0x2668 JUMPI PUSH2 0x265D PUSH0 DUP3 PUSH2 0x2632 JUMP JUMPDEST PUSH1 0x1 DUP2 ADD SWAP1 POP PUSH2 0x264B JUMP JUMPDEST POP POP JUMP JUMPDEST PUSH1 0x1F DUP3 GT ISZERO PUSH2 0x26AD JUMPI PUSH2 0x267E DUP2 PUSH2 0x2558 JUMP JUMPDEST PUSH2 0x2687 DUP5 PUSH2 0x256A JUMP JUMPDEST DUP2 ADD PUSH1 0x20 DUP6 LT ISZERO PUSH2 0x2696 JUMPI DUP2 SWAP1 POP JUMPDEST PUSH2 0x26AA PUSH2 0x26A2 DUP6 PUSH2 0x256A JUMP JUMPDEST DUP4 ADD DUP3 PUSH2 0x264A JUMP JUMPDEST POP POP JUMPDEST POP POP POP JUMP JUMPDEST PUSH0 DUP3 DUP3 SHR SWAP1 POP SWAP3 SWAP2 POP POP JUMP JUMPDEST PUSH0 PUSH2 0x26CD PUSH0 NOT DUP5 PUSH1 0x8 MUL PUSH2 0x26B2 JUMP JUMPDEST NOT DUP1 DUP4 AND SWAP2 POP POP SWAP3 SWAP2 POP POP JUMP JUMPDEST PUSH0 PUSH2 0x26E5 DUP4 DUP4 PUSH2 0x26BE JUMP JUMPDEST SWAP2 POP DUP3 PUSH1 0x2 MUL DUP3 OR SWAP1 POP SWAP3 SWAP2 POP POP JUMP JUMPDEST PUSH2 0x26FE DUP3 PUSH2 0x1DF7 JUMP JUMPDEST PUSH8 0xFFFFFFFFFFFFFFFF DUP2 GT ISZERO PUSH2 0x2717 JUMPI PUSH2 0x2716 PUSH2 0x1FE0 JUMP JUMPDEST JUMPDEST PUSH2 0x2721 DUP3 SLOAD PUSH2 0x2458 JUMP JUMPDEST PUSH2 0x272C DUP3 DUP3 DUP6 PUSH2 0x266C JUMP JUMPDEST PUSH0 PUSH1 0x20 SWAP1 POP PUSH1 0x1F DUP4 GT PUSH1 0x1 DUP2 EQ PUSH2 0x275D JUMPI PUSH0 DUP5 ISZERO PUSH2 0x274B JUMPI DUP3 DUP8 ADD MLOAD SWAP1 POP JUMPDEST PUSH2 0x2755 DUP6 DUP3 PUSH2 0x26DA JUMP JUMPDEST DUP7 SSTORE POP PUSH2 0x27BC JUMP JUMPDEST PUSH1 0x1F NOT DUP5 AND PUSH2 0x276B DUP7 PUSH2 0x2558 JUMP JUMPDEST PUSH0 JUMPDEST DUP3 DUP2 LT ISZERO PUSH2 0x2792 JUMPI DUP5 DUP10 ADD MLOAD DUP3 SSTORE PUSH1 0x1 DUP3 ADD SWAP2 POP PUSH1 0x20 DUP6 ADD SWAP5 POP PUSH1 0x20 DUP2 ADD SWAP1 POP PUSH2 0x276D JUMP JUMPDEST DUP7 DUP4 LT ISZERO PUSH2 0x27AF JUMPI DUP5 DUP10 ADD MLOAD PUSH2 0x27AB PUSH1 0x1F DUP10 AND DUP3 PUSH2 0x26BE JUMP JUMPDEST DUP4 SSTORE POP JUMPDEST PUSH1 0x1 PUSH1 0x2 DUP9 MUL ADD DUP9 SSTORE POP POP POP JUMPDEST POP POP POP POP POP POP JUMP JUMPDEST PUSH0 DUP2 SWAP1 POP SWAP3 SWAP2 POP POP JUMP JUMPDEST PUSH0 PUSH2 0x27D8 DUP3 PUSH2 0x1DF7 JUMP JUMPDEST PUSH2 0x27E2 DUP2 DUP6 PUSH2 0x27C4 JUMP JUMPDEST SWAP4 POP PUSH2 0x27F2 DUP2 DUP6 PUSH1 0x20 DUP7 ADD PUSH2 0x1E11 JUMP JUMPDEST DUP1 DUP5 ADD SWAP2 POP POP SWAP3 SWAP2 POP POP JUMP JUMPDEST PUSH0 PUSH2 0x2809 DUP3 DUP5 PUSH2 0x27CE JUMP JUMPDEST SWAP2 POP DUP2 SWAP1 POP SWAP3 SWAP2 POP POP JUMP JUMPDEST PUSH32 0x496E76616C69642076657374696E6720636F6E74726163740000000000000000 PUSH0 DUP3 ADD MSTORE POP JUMP JUMPDEST PUSH0 PUSH2 0x2848 PUSH1 0x18 DUP4 PUSH2 0x1E01 JUMP JUMPDEST SWAP2 POP PUSH2 0x2853 DUP3 PUSH2 0x2814 JUMP JUMPDEST PUSH1 0x20 DUP3 ADD SWAP1 POP SWAP2 SWAP1 POP JUMP JUMPDEST PUSH0 PUSH1 0x20 DUP3 ADD SWAP1 POP DUP2 DUP2 SUB PUSH0 DUP4 ADD MSTORE PUSH2 0x2875 DUP2 PUSH2 0x283C JUMP JUMPDEST SWAP1 POP SWAP2 SWAP1 POP JUMP JUMPDEST PUSH32 0x56657374696E6720636F6E747261637420616C72656164792061646465640000 PUSH0 DUP3 ADD MSTORE POP JUMP JUMPDEST PUSH0 PUSH2 0x28B0 PUSH1 0x1E DUP4 PUSH2 0x1E01 JUMP JUMPDEST SWAP2 POP PUSH2 0x28BB DUP3 PUSH2 0x287C JUMP JUMPDEST PUSH1 0x20 DUP3 ADD SWAP1 POP SWAP2 SWAP1 POP JUMP JUMPDEST PUSH0 PUSH1 0x20 DUP3 ADD SWAP1 POP DUP2 DUP2 SUB PUSH0 DUP4 ADD MSTORE PUSH2 0x28DD DUP2 PUSH2 0x28A4 JUMP JUMPDEST SWAP1 POP SWAP2 SWAP1 POP JUMP JUMPDEST PUSH32 0x56657374696E6720636F6E7472616374206E6F7420666F756E64000000000000 PUSH0 DUP3 ADD MSTORE POP JUMP JUMPDEST PUSH0 PUSH2 0x2918 PUSH1 0x1A DUP4 PUSH2 0x1E01 JUMP JUMPDEST SWAP2 POP PUSH2 0x2923 DUP3 PUSH2 0x28E4 JUMP JUMPDEST PUSH1 0x20 DUP3 ADD SWAP1 POP SWAP2 SWAP1 POP JUMP JUMPDEST PUSH0 PUSH1 0x20 DUP3 ADD SWAP1 POP DUP2 DUP2 SUB PUSH0 DUP4 ADD MSTORE PUSH2 0x2945 DUP2 PUSH2 0x290C JUMP JUMPDEST SWAP1 POP SWAP2 SWAP1 POP JUMP JUMPDEST PUSH32 0x416C726561647920696E697469616C697A656400000000000000000000000000 PUSH0 DUP3 ADD MSTORE POP JUMP JUMPDEST PUSH0 PUSH2 0x2980 PUSH1 0x13 DUP4 PUSH2 0x1E01 JUMP JUMPDEST SWAP2 POP PUSH2 0x298B DUP3 PUSH2 0x294C JUMP JUMPDEST PUSH1 0x20 DUP3 ADD SWAP1 POP SWAP2 SWAP1 POP JUMP JUMPDEST PUSH0 PUSH1 0x20 DUP3 ADD SWAP1 POP DUP2 DUP2 SUB PUSH0 DUP4 ADD MSTORE PUSH2 0x29AD DUP2 PUSH2 0x2974 JUMP JUMPDEST SWAP1 POP SWAP2 SWAP1 POP JUMP JUMPDEST PUSH32 0x4E616D652063616E6E6F7420626520656D707479000000000000000000000000 PUSH0 DUP3 ADD MSTORE POP JUMP JUMPDEST PUSH0 PUSH2 0x29E8 PUSH1 0x14 DUP4 PUSH2 0x1E01 JUMP JUMPDEST SWAP2 POP PUSH2 0x29F3 DUP3 PUSH2 0x29B4 JUMP JUMPDEST PUSH1 0x20 DUP3 ADD SWAP1 POP SWAP2 SWAP1 POP JUMP JUMPDEST PUSH0 PUSH1 0x20 DUP3 ADD SWAP1 POP DUP2 DUP2 SUB PUSH0 DUP4 ADD MSTORE PUSH2 0x2A15 DUP2 PUSH2 0x29DC JUMP JUMPDEST SWAP1 POP SWAP2 SWAP1 POP JUMP JUMPDEST PUSH32 0x53796D626F6C2063616E6E6F7420626520656D70747900000000000000000000 PUSH0 DUP3 ADD MSTORE POP JUMP JUMPDEST PUSH0 PUSH2 0x2A50 PUSH1 0x16 DUP4 PUSH2 0x1E01 JUMP JUMPDEST SWAP2 POP PUSH2 0x2A5B DUP3 PUSH2 0x2A1C JUMP JUMPDEST PUSH1 0x20 DUP3 ADD SWAP1 POP SWAP2 SWAP1 POP JUMP JUMPDEST PUSH0 PUSH1 0x20 DUP3 ADD SWAP1 POP DUP2 DUP2 SUB PUSH0 DUP4 ADD MSTORE PUSH2 0x2A7D DUP2 PUSH2 0x2A44 JUMP JUMPDEST SWAP1 POP SWAP2 SWAP1 POP JUMP JUMPDEST PUSH32 0x546F74616C20737570706C79206D757374206265206772656174657220746861 PUSH0 DUP3 ADD MSTORE PUSH32 0x6E20300000000000000000000000000000000000000000000000000000000000 PUSH1 0x20 DUP3 ADD MSTORE POP JUMP JUMPDEST PUSH0 PUSH2 0x2ADE PUSH1 0x23 DUP4 PUSH2 0x1E01 JUMP JUMPDEST SWAP2 POP PUSH2 0x2AE9 DUP3 PUSH2 0x2A84 JUMP JUMPDEST PUSH1 0x40 DUP3 ADD SWAP1 POP SWAP2 SWAP1 POP JUMP JUMPDEST PUSH0 PUSH1 0x20 DUP3 ADD SWAP1 POP DUP2 DUP2 SUB PUSH0 DUP4 ADD MSTORE PUSH2 0x2B0B DUP2 PUSH2 0x2AD2 JUMP JUMPDEST SWAP1 POP SWAP2 SWAP1 POP JUMP JUMPDEST PUSH32 0x496E76616C6964206F776E657220616464726573730000000000000000000000 PUSH0 DUP3 ADD MSTORE POP JUMP JUMPDEST PUSH0 PUSH2 0x2B46 PUSH1 0x15 DUP4 PUSH2 0x1E01 JUMP JUMPDEST SWAP2 POP PUSH2 0x2B51 DUP3 PUSH2 0x2B12 JUMP JUMPDEST PUSH1 0x20 DUP3 ADD SWAP1 POP SWAP2 SWAP1 POP JUMP JUMPDEST PUSH0 PUSH1 0x20 DUP3 ADD SWAP1 POP DUP2 DUP2 SUB PUSH0 DUP4 ADD MSTORE PUSH2 0x2B73 DUP2 PUSH2 0x2B3A JUMP JUMPDEST SWAP1 POP SWAP2 SWAP1 POP JUMP JUMPDEST PUSH0 PUSH1 0x80 DUP3 ADD SWAP1 POP DUP2 DUP2 SUB PUSH0 DUP4 ADD MSTORE PUSH2 0x2B92 DUP2 DUP8 PUSH2 0x1E49 JUMP JUMPDEST SWAP1 POP DUP2 DUP2 SUB PUSH1 0x20 DUP4 ADD MSTORE PUSH2 0x2BA6 DUP2 DUP7 PUSH2 0x1E49 JUMP JUMPDEST SWAP1 POP PUSH2 0x2BB5 PUSH1 0x40 DUP4 ADD DUP6 PUSH2 0x1FB0 JUMP JUMPDEST PUSH2 0x2BC2 PUSH1 0x60 DUP4 ADD DUP5 PUSH2 0x227F JUMP JUMPDEST SWAP6 SWAP5 POP POP POP POP POP JUMP JUMPDEST PUSH32 0x416D6F756E74206D7573742062652067726561746572207468616E2030000000 PUSH0 DUP3 ADD MSTORE POP JUMP JUMPDEST PUSH0 PUSH2 0x2BFF PUSH1 0x1D DUP4 PUSH2 0x1E01 JUMP JUMPDEST SWAP2 POP PUSH2 0x2C0A DUP3 PUSH2 0x2BCB JUMP JUMPDEST PUSH1 0x20 DUP3 ADD SWAP1 POP SWAP2 SWAP1 POP JUMP JUMPDEST PUSH0 PUSH1 0x20 DUP3 ADD SWAP1 POP DUP2 DUP2 SUB PUSH0 DUP4 ADD MSTORE PUSH2 0x2C2C DUP2 PUSH2 0x2BF3 JUMP JUMPDEST SWAP1 POP SWAP2 SWAP1 POP JUMP JUMPDEST PUSH0 PUSH1 0x40 DUP3 ADD SWAP1 POP DUP2 DUP2 SUB PUSH0 DUP4 ADD MSTORE PUSH2 0x2C4B DUP2 DUP6 PUSH2 0x1E49 JUMP JUMPDEST SWAP1 POP PUSH2 0x2C5A PUSH1 0x20 DUP4 ADD DUP5 PUSH2 0x1FB0 JUMP JUMPDEST SWAP4 SWAP3 POP POP POP JUMP JUMPDEST PUSH32 0x496E76616C696420726563697069656E74000000000000000000000000000000 PUSH0 DUP3 ADD MSTORE POP JUMP JUMPDEST PUSH0 PUSH2 0x2C95 PUSH1 0x11 DUP4 PUSH2 0x1E01 JUMP JUMPDEST SWAP2 POP PUSH2 0x2CA0 DUP3 PUSH2 0x2C61 JUMP JUMPDEST PUSH1 0x20 DUP3 ADD SWAP1 POP SWAP2 SWAP1 POP JUMP JUMPDEST PUSH0 PUSH1 0x20 DUP3 ADD SWAP1 POP DUP2 DUP2 SUB PUSH0 DUP4 ADD MSTORE PUSH2 0x2CC2 DUP2 PUSH2 0x2C89 JUMP JUMPDEST SWAP1 POP SWAP2 SWAP1 POP JUMP JUMPDEST PUSH32 0x4E487B7100000000000000000000000000000000000000000000000000000000 PUSH0 MSTORE PUSH1 0x11 PUSH1 0x4 MSTORE PUSH1 0x24 PUSH0 REVERT JUMPDEST PUSH0 PUSH2 0x2D00 DUP3 PUSH2 0x1F0C JUMP JUMPDEST SWAP2 POP PUSH2 0x2D0B DUP4 PUSH2 0x1F0C JUMP JUMPDEST SWAP3 POP DUP3 DUP3 ADD SWAP1 POP DUP1 DUP3 GT ISZERO PUSH2 0x2D23 JUMPI PUSH2 0x2D22 PUSH2 0x2CC9 JUMP JUMPDEST JUMPDEST SWAP3 SWAP2 POP POP JUMP JUMPDEST PUSH0 PUSH1 0x60 DUP3 ADD SWAP1 POP PUSH2 0x2D3C PUSH0 DUP4 ADD DUP7 PUSH2 0x227F JUMP JUMPDEST PUSH2 0x2D49 PUSH1 0x20 DUP4 ADD DUP6 PUSH2 0x1FB0 JUMP JUMPDEST PUSH2 0x2D56 PUSH1 0x40 DUP4 ADD DUP5 PUSH2 0x1FB0 JUMP JUMPDEST SWAP5 SWAP4 POP POP POP POP JUMP JUMPDEST PUSH32 0x5061757361626C653A206E6F7420706175736564000000000000000000000000 PUSH0 DUP3 ADD MSTORE POP JUMP JUMPDEST PUSH0 PUSH2 0x2D92 PUSH1 0x14 DUP4 PUSH2 0x1E01 JUMP JUMPDEST SWAP2 POP PUSH2 0x2D9D DUP3 PUSH2 0x2D5E JUMP JUMPDEST PUSH1 0x20 DUP3 ADD SWAP1 POP SWAP2 SWAP1 POP JUMP JUMPDEST PUSH0 PUSH1 0x20 DUP3 ADD SWAP1 POP DUP2 DUP2 SUB PUSH0 DUP4 ADD MSTORE PUSH2 0x2DBF DUP2 PUSH2 0x2D86 JUMP JUMPDEST SWAP1 POP SWAP2 SWAP1 POP JUMP JUMPDEST PUSH32 0x5061757361626C653A2070617573656400000000000000000000000000000000 PUSH0 DUP3 ADD MSTORE POP JUMP JUMPDEST PUSH0 PUSH2 0x2DFA PUSH1 0x10 DUP4 PUSH2 0x1E01 JUMP JUMPDEST SWAP2 POP PUSH2 0x2E05 DUP3 PUSH2 0x2DC6 JUMP JUMPDEST PUSH1 0x20 DUP3 ADD SWAP1 POP SWAP2 SWAP1 POP JUMP JUMPDEST PUSH0 PUSH1 0x20 DUP3 ADD SWAP1 POP DUP2 DUP2 SUB PUSH0 DUP4 ADD MSTORE PUSH2 0x2E27 DUP2 PUSH2 0x2DEE JUMP JUMPDEST SWAP1 POP SWAP2 SWAP1 POP JUMP INVALID LOG2 PUSH5 0x6970667358 0x22 SLT KECCAK256 0xC9 0xDD DUP8 SWAP10 SAR RETURNDATASIZE REVERT ORIGIN PUSH10 0xEE70B4E1B3A1856C4210 0xA5 COINBASE BASEFEE PUSH28 0x49AD605B1370BA413164736F6C634300081400330000000000000000 "
				},
				"gasEstimates": {
					"creation": {
						"codeDepositCost": "2375200",
						"executionCost": "infinite",
						"totalCost": "infinite"
					},
					"external": {
						"addVestingContract(address)": "infinite",
						"allowance(address,address)": "infinite",
						"approve(address,uint256)": "infinite",
						"balanceOf(address)": "2940",
						"beneficiaryCategories(address)": "infinite",
						"burn(uint256)": "infinite",
						"burnFrom(address,uint256)": "infinite",
						"categoryAllocations(string)": "infinite",
						"decimals()": "2563",
						"getBeneficiaryCategory(address)": "infinite",
						"getCategoryAllocation(string)": "infinite",
						"getVestedBalance(address)": "2919",
						"initialize(string,string,uint256,address)": "infinite",
						"isInitialized()": "2519",
						"mintWithVesting(address,uint256,address)": "infinite",
						"name()": "infinite",
						"owner()": "2582",
						"pause()": "infinite",
						"paused()": "2591",
						"removeVestingContract(address)": "infinite",
						"renounceOwnership()": "infinite",
						"setBeneficiaryCategory(address,string)": "infinite",
						"setCategoryAllocation(string,uint256)": "infinite",
						"symbol()": "infinite",
						"totalSupply()": "2523",
						"transfer(address,uint256)": "infinite",
						"transferFrom(address,address,uint256)": "infinite",
						"transferOwnership(address)": "infinite",
						"unpause()": "infinite",
						"vestedBalances(address)": "2913",
						"vestingContracts(address)": "2945"
					}
				},
				"methodIdentifiers": {
					"addVestingContract(address)": "a00686f1",
					"allowance(address,address)": "dd62ed3e",
					"approve(address,uint256)": "095ea7b3",
					"balanceOf(address)": "70a08231",
					"beneficiaryCategories(address)": "4ebc47f8",
					"burn(uint256)": "42966c68",
					"burnFrom(address,uint256)": "79cc6790",
					"categoryAllocations(string)": "66368fb6",
					"decimals()": "313ce567",
					"getBeneficiaryCategory(address)": "4cf590b0",
					"getCategoryAllocation(string)": "7fb36099",
					"getVestedBalance(address)": "7f58b9d3",
					"initialize(string,string,uint256,address)": "bd3a13f6",
					"isInitialized()": "392e53cd",
					"mintWithVesting(address,uint256,address)": "ecbc5095",
					"name()": "06fdde03",
					"owner()": "8da5cb5b",
					"pause()": "8456cb59",
					"paused()": "5c975abb",
					"removeVestingContract(address)": "bc3bea5e",
					"renounceOwnership()": "715018a6",
					"setBeneficiaryCategory(address,string)": "19eccdfd",
					"setCategoryAllocation(string,uint256)": "d6458285",
					"symbol()": "95d89b41",
					"totalSupply()": "18160ddd",
					"transfer(address,uint256)": "a9059cbb",
					"transferFrom(address,address,uint256)": "23b872dd",
					"transferOwnership(address)": "f2fde38b",
					"unpause()": "3f4ba83a",
					"vestedBalances(address)": "cb3fdb61",
					"vestingContracts(address)": "37915874"
				}
			},
			"storageLayout": {
				"storage": [
					{
						"astId": 907,
						"contract": "./VestedToken.sol:VestedToken",
						"label": "_balances",
						"offset": 0,
						"slot": "0",
						"type": "t_mapping(t_address,t_uint256)"
					},
					{
						"astId": 913,
						"contract": "./VestedToken.sol:VestedToken",
						"label": "_allowances",
						"offset": 0,
						"slot": "1",
						"type": "t_mapping(t_address,t_mapping(t_address,t_uint256))"
					},
					{
						"astId": 915,
						"contract": "./VestedToken.sol:VestedToken",
						"label": "_totalSupply",
						"offset": 0,
						"slot": "2",
						"type": "t_uint256"
					},
					{
						"astId": 917,
						"contract": "./VestedToken.sol:VestedToken",
						"label": "_name",
						"offset": 0,
						"slot": "3",
						"type": "t_string_storage"
					},
					{
						"astId": 919,
						"contract": "./VestedToken.sol:VestedToken",
						"label": "_symbol",
						"offset": 0,
						"slot": "4",
						"type": "t_string_storage"
					},
					{
						"astId": 500,
						"contract": "./VestedToken.sol:VestedToken",
						"label": "_owner",
						"offset": 0,
						"slot": "5",
						"type": "t_address"
					},
					{
						"astId": 794,
						"contract": "./VestedToken.sol:VestedToken",
						"label": "_paused",
						"offset": 20,
						"slot": "5",
						"type": "t_bool"
					},
					{
						"astId": 12,
						"contract": "./VestedToken.sol:VestedToken",
						"label": "_name",
						"offset": 0,
						"slot": "6",
						"type": "t_string_storage"
					},
					{
						"astId": 14,
						"contract": "./VestedToken.sol:VestedToken",
						"label": "_symbol",
						"offset": 0,
						"slot": "7",
						"type": "t_string_storage"
					},
					{
						"astId": 16,
						"contract": "./VestedToken.sol:VestedToken",
						"label": "_decimals",
						"offset": 0,
						"slot": "8",
						"type": "t_uint8"
					},
					{
						"astId": 20,
						"contract": "./VestedToken.sol:VestedToken",
						"label": "vestedBalances",
						"offset": 0,
						"slot": "9",
						"type": "t_mapping(t_address,t_uint256)"
					},
					{
						"astId": 24,
						"contract": "./VestedToken.sol:VestedToken",
						"label": "vestingContracts",
						"offset": 0,
						"slot": "10",
						"type": "t_mapping(t_address,t_bool)"
					},
					{
						"astId": 28,
						"contract": "./VestedToken.sol:VestedToken",
						"label": "categoryAllocations",
						"offset": 0,
						"slot": "11",
						"type": "t_mapping(t_string_memory_ptr,t_uint256)"
					},
					{
						"astId": 32,
						"contract": "./VestedToken.sol:VestedToken",
						"label": "beneficiaryCategories",
						"offset": 0,
						"slot": "12",
						"type": "t_mapping(t_address,t_string_storage)"
					},
					{
						"astId": 34,
						"contract": "./VestedToken.sol:VestedToken",
						"label": "_initialized",
						"offset": 0,
						"slot": "13",
						"type": "t_bool"
					}
				],
				"types": {
					"t_address": {
						"encoding": "inplace",
						"label": "address",
						"numberOfBytes": "20"
					},
					"t_bool": {
						"encoding": "inplace",
						"label": "bool",
						"numberOfBytes": "1"
					},
					"t_mapping(t_address,t_bool)": {
						"encoding": "mapping",
						"key": "t_address",
						"label": "mapping(address => bool)",
						"numberOfBytes": "32",
						"value": "t_bool"
					},
					"t_mapping(t_address,t_mapping(t_address,t_uint256))": {
						"encoding": "mapping",
						"key": "t_address",
						"label": "mapping(address => mapping(address => uint256))",
						"numberOfBytes": "32",
						"value": "t_mapping(t_address,t_uint256)"
					},
					"t_mapping(t_address,t_string_storage)": {
						"encoding": "mapping",
						"key": "t_address",
						"label": "mapping(address => string)",
						"numberOfBytes": "32",
						"value": "t_string_storage"
					},
					"t_mapping(t_address,t_uint256)": {
						"encoding": "mapping",
						"key": "t_address",
						"label": "mapping(address => uint256)",
						"numberOfBytes": "32",
						"value": "t_uint256"
					},
					"t_mapping(t_string_memory_ptr,t_uint256)": {
						"encoding": "mapping",
						"key": "t_string_memory_ptr",
						"label": "mapping(string => uint256)",
						"numberOfBytes": "32",
						"value": "t_uint256"
					},
					"t_string_memory_ptr": {
						"encoding": "bytes",
						"label": "string",
						"numberOfBytes": "32"
					},
					"t_string_storage": {
						"encoding": "bytes",
						"label": "string",
						"numberOfBytes": "32"
					},
					"t_uint256": {
						"encoding": "inplace",
						"label": "uint256",
						"numberOfBytes": "32"
					},
					"t_uint8": {
						"encoding": "inplace",
						"label": "uint8",
						"numberOfBytes": "1"
					}
				}
			},
			"userdoc": {
				"kind": "user",
				"methods": {},
				"version": 1
			}
		}
	}
}