{
	"TokenVesting.sol": {
		"TokenVesting": {
			"abi": [
				{
					"inputs": [],
					"stateMutability": "nonpayable",
					"type": "constructor"
				},
				{
					"inputs": [
						{
							"internalType": "address",
							"name": "owner",
							"type": "address"
						}
					],
					"name": "OwnableInvalidOwner",
					"type": "error"
				},
				{
					"inputs": [
						{
							"internalType": "address",
							"name": "account",
							"type": "address"
						}
					],
					"name": "OwnableUnauthorizedAccount",
					"type": "error"
				},
				{
					"inputs": [
						{
							"internalType": "address",
							"name": "token",
							"type": "address"
						}
					],
					"name": "SafeERC20FailedOperation",
					"type": "error"
				},
				{
					"anonymous": false,
					"inputs": [
						{
							"indexed": true,
							"internalType": "address",
							"name": "previousOwner",
							"type": "address"
						},
						{
							"indexed": true,
							"internalType": "address",
							"name": "newOwner",
							"type": "address"
						}
					],
					"name": "OwnershipTransferred",
					"type": "event"
				},
				{
					"anonymous": false,
					"inputs": [
						{
							"indexed": true,
							"internalType": "address",
							"name": "beneficiary",
							"type": "address"
						},
						{
							"indexed": false,
							"internalType": "uint256",
							"name": "amount",
							"type": "uint256"
						}
					],
					"name": "TokensReleased",
					"type": "event"
				},
				{
					"anonymous": false,
					"inputs": [
						{
							"indexed": true,
							"internalType": "address",
							"name": "token",
							"type": "address"
						},
						{
							"indexed": true,
							"internalType": "address",
							"name": "beneficiary",
							"type": "address"
						},
						{
							"indexed": false,
							"internalType": "uint256",
							"name": "totalAmount",
							"type": "uint256"
						},
						{
							"indexed": false,
							"internalType": "uint256",
							"name": "cliff",
							"type": "uint256"
						},
						{
							"indexed": false,
							"internalType": "uint256",
							"name": "duration",
							"type": "uint256"
						},
						{
							"indexed": false,
							"internalType": "bool",
							"name": "revocable",
							"type": "bool"
						}
					],
					"name": "VestingInitialized",
					"type": "event"
				},
				{
					"anonymous": false,
					"inputs": [
						{
							"indexed": true,
							"internalType": "address",
							"name": "beneficiary",
							"type": "address"
						},
						{
							"indexed": false,
							"internalType": "uint256",
							"name": "unreleased",
							"type": "uint256"
						}
					],
					"name": "VestingRevoked",
					"type": "event"
				},
				{
					"inputs": [],
					"name": "beneficiary",
					"outputs": [
						{
							"internalType": "address",
							"name": "",
							"type": "address"
						}
					],
					"stateMutability": "view",
					"type": "function"
				},
				{
					"inputs": [],
					"name": "cliff",
					"outputs": [
						{
							"internalType": "uint256",
							"name": "",
							"type": "uint256"
						}
					],
					"stateMutability": "view",
					"type": "function"
				},
				{
					"inputs": [],
					"name": "cliffEnded",
					"outputs": [
						{
							"internalType": "bool",
							"name": "",
							"type": "bool"
						}
					],
					"stateMutability": "view",
					"type": "function"
				},
				{
					"inputs": [],
					"name": "duration",
					"outputs": [
						{
							"internalType": "uint256",
							"name": "",
							"type": "uint256"
						}
					],
					"stateMutability": "view",
					"type": "function"
				},
				{
					"inputs": [
						{
							"internalType": "address",
							"name": "_token",
							"type": "address"
						},
						{
							"internalType": "uint256",
							"name": "_amount",
							"type": "uint256"
						}
					],
					"name": "emergencyRecover",
					"outputs": [],
					"stateMutability": "nonpayable",
					"type": "function"
				},
				{
					"inputs": [],
					"name": "getVestingInfo",
					"outputs": [
						{
							"internalType": "address",
							"name": "_token",
							"type": "address"
						},
						{
							"internalType": "address",
							"name": "_beneficiary",
							"type": "address"
						},
						{
							"internalType": "uint256",
							"name": "_totalAmount",
							"type": "uint256"
						},
						{
							"internalType": "uint256",
							"name": "_released",
							"type": "uint256"
						},
						{
							"internalType": "uint256",
							"name": "_cliff",
							"type": "uint256"
						},
						{
							"internalType": "uint256",
							"name": "_start",
							"type": "uint256"
						},
						{
							"internalType": "uint256",
							"name": "_duration",
							"type": "uint256"
						},
						{
							"internalType": "bool",
							"name": "_revocable",
							"type": "bool"
						},
						{
							"internalType": "bool",
							"name": "_revoked",
							"type": "bool"
						}
					],
					"stateMutability": "view",
					"type": "function"
				},
				{
					"inputs": [],
					"name": "getVestingStatus",
					"outputs": [
						{
							"internalType": "uint256",
							"name": "_vestedAmount",
							"type": "uint256"
						},
						{
							"internalType": "uint256",
							"name": "_releasableAmount",
							"type": "uint256"
						},
						{
							"internalType": "uint256",
							"name": "_remainingAmount",
							"type": "uint256"
						},
						{
							"internalType": "uint256",
							"name": "_timeElapsed",
							"type": "uint256"
						},
						{
							"internalType": "uint256",
							"name": "_timeRemaining",
							"type": "uint256"
						}
					],
					"stateMutability": "view",
					"type": "function"
				},
				{
					"inputs": [],
					"name": "hasEnded",
					"outputs": [
						{
							"internalType": "bool",
							"name": "",
							"type": "bool"
						}
					],
					"stateMutability": "view",
					"type": "function"
				},
				{
					"inputs": [],
					"name": "hasStarted",
					"outputs": [
						{
							"internalType": "bool",
							"name": "",
							"type": "bool"
						}
					],
					"stateMutability": "view",
					"type": "function"
				},
				{
					"inputs": [
						{
							"internalType": "address",
							"name": "_token",
							"type": "address"
						},
						{
							"internalType": "address",
							"name": "_beneficiary",
							"type": "address"
						},
						{
							"internalType": "uint256",
							"name": "_totalAmount",
							"type": "uint256"
						},
						{
							"internalType": "uint256",
							"name": "_cliff",
							"type": "uint256"
						},
						{
							"internalType": "uint256",
							"name": "_duration",
							"type": "uint256"
						},
						{
							"internalType": "bool",
							"name": "_revocable",
							"type": "bool"
						},
						{
							"internalType": "address",
							"name": "_owner",
							"type": "address"
						}
					],
					"name": "initialize",
					"outputs": [],
					"stateMutability": "nonpayable",
					"type": "function"
				},
				{
					"inputs": [],
					"name": "isInitialized",
					"outputs": [
						{
							"internalType": "bool",
							"name": "",
							"type": "bool"
						}
					],
					"stateMutability": "view",
					"type": "function"
				},
				{
					"inputs": [],
					"name": "owner",
					"outputs": [
						{
							"internalType": "address",
							"name": "",
							"type": "address"
						}
					],
					"stateMutability": "view",
					"type": "function"
				},
				{
					"inputs": [],
					"name": "releasableAmount",
					"outputs": [
						{
							"internalType": "uint256",
							"name": "",
							"type": "uint256"
						}
					],
					"stateMutability": "view",
					"type": "function"
				},
				{
					"inputs": [],
					"name": "release",
					"outputs": [],
					"stateMutability": "nonpayable",
					"type": "function"
				},
				{
					"inputs": [],
					"name": "released",
					"outputs": [
						{
							"internalType": "uint256",
							"name": "",
							"type": "uint256"
						}
					],
					"stateMutability": "view",
					"type": "function"
				},
				{
					"inputs": [],
					"name": "renounceOwnership",
					"outputs": [],
					"stateMutability": "nonpayable",
					"type": "function"
				},
				{
					"inputs": [],
					"name": "revocable",
					"outputs": [
						{
							"internalType": "bool",
							"name": "",
							"type": "bool"
						}
					],
					"stateMutability": "view",
					"type": "function"
				},
				{
					"inputs": [],
					"name": "revoke",
					"outputs": [],
					"stateMutability": "nonpayable",
					"type": "function"
				},
				{
					"inputs": [],
					"name": "revoked",
					"outputs": [
						{
							"internalType": "bool",
							"name": "",
							"type": "bool"
						}
					],
					"stateMutability": "view",
					"type": "function"
				},
				{
					"inputs": [],
					"name": "start",
					"outputs": [
						{
							"internalType": "uint256",
							"name": "",
							"type": "uint256"
						}
					],
					"stateMutability": "view",
					"type": "function"
				},
				{
					"inputs": [],
					"name": "token",
					"outputs": [
						{
							"internalType": "contract IERC20",
							"name": "",
							"type": "address"
						}
					],
					"stateMutability": "view",
					"type": "function"
				},
				{
					"inputs": [],
					"name": "totalAmount",
					"outputs": [
						{
							"internalType": "uint256",
							"name": "",
							"type": "uint256"
						}
					],
					"stateMutability": "view",
					"type": "function"
				},
				{
					"inputs": [
						{
							"internalType": "address",
							"name": "newOwner",
							"type": "address"
						}
					],
					"name": "transferOwnership",
					"outputs": [],
					"stateMutability": "nonpayable",
					"type": "function"
				},
				{
					"inputs": [],
					"name": "vestedAmount",
					"outputs": [
						{
							"internalType": "uint256",
							"name": "",
							"type": "uint256"
						}
					],
					"stateMutability": "view",
					"type": "function"
				}
			],
			"devdoc": {
				"errors": {
					"OwnableInvalidOwner(address)": [
						{
							"details": "The owner is not a valid owner account. (eg. `address(0)`)"
						}
					],
					"OwnableUnauthorizedAccount(address)": [
						{
							"details": "The caller account is not authorized to perform an operation."
						}
					],
					"SafeERC20FailedOperation(address)": [
						{
							"details": "An operation with an ERC-20 token failed."
						}
					]
				},
				"kind": "dev",
				"methods": {
					"cliffEnded()": {
						"details": "Check if cliff period has ended",
						"returns": {
							"_0": "True if cliff period has ended"
						}
					},
					"constructor": {
						"details": "Constructor for minimal proxy pattern - should not be called directly"
					},
					"emergencyRecover(address,uint256)": {
						"details": "Emergency function to recover tokens sent to this contract by mistake",
						"params": {
							"_amount": "Amount to recover",
							"_token": "Token address to recover"
						}
					},
					"getVestingInfo()": {
						"details": "Get vesting information",
						"returns": {
							"_beneficiary": "Beneficiary address",
							"_cliff": "Cliff duration",
							"_duration": "Total duration",
							"_released": "Released amount",
							"_revocable": "Whether revocable",
							"_revoked": "Whether revoked",
							"_start": "Start time",
							"_token": "Token address",
							"_totalAmount": "Total vesting amount"
						}
					},
					"getVestingStatus()": {
						"details": "Get current vesting status",
						"returns": {
							"_releasableAmount": "Releasable amount",
							"_remainingAmount": "Remaining amount",
							"_timeElapsed": "Time elapsed since start",
							"_timeRemaining": "Time remaining until full vesting",
							"_vestedAmount": "Total vested amount"
						}
					},
					"hasEnded()": {
						"details": "Check if vesting has ended",
						"returns": {
							"_0": "True if vesting has ended"
						}
					},
					"hasStarted()": {
						"details": "Check if vesting has started",
						"returns": {
							"_0": "True if vesting has started"
						}
					},
					"initialize(address,address,uint256,uint256,uint256,bool,address)": {
						"details": "Initialize function for minimal proxy pattern",
						"params": {
							"_beneficiary": "Beneficiary address",
							"_cliff": "Cliff duration in seconds",
							"_duration": "Total vesting duration in seconds",
							"_owner": "Owner address",
							"_revocable": "Whether vesting is revocable",
							"_token": "Token contract address",
							"_totalAmount": "Total vesting amount"
						}
					},
					"isInitialized()": {
						"details": "Check if vesting contract is initialized"
					},
					"owner()": {
						"details": "Returns the address of the current owner."
					},
					"releasableAmount()": {
						"details": "Calculate the amount of tokens that can be released",
						"returns": {
							"_0": "Amount of tokens that can be released"
						}
					},
					"release()": {
						"details": "Release vested tokens to beneficiary"
					},
					"renounceOwnership()": {
						"details": "Leaves the contract without owner. It will not be possible to call `onlyOwner` functions. Can only be called by the current owner. NOTE: Renouncing ownership will leave the contract without an owner, thereby disabling any functionality that is only available to the owner."
					},
					"revoke()": {
						"details": "Revoke vesting (owner only, if revocable)"
					},
					"transferOwnership(address)": {
						"details": "Transfers ownership of the contract to a new account (`newOwner`). Can only be called by the current owner."
					},
					"vestedAmount()": {
						"details": "Calculate the total amount of tokens that have vested",
						"returns": {
							"_0": "Total vested amount"
						}
					}
				},
				"version": 1
			},
			"evm": {
				"assembly": "    /* \"TokenVesting.sol\":298:8428  contract TokenVesting is Ownable, ReentrancyGuard {... */\n  mstore(0x40, 0x80)\n    /* \"TokenVesting.sol\":1207:1382  constructor() Ownable(msg.sender) {... */\n  callvalue\n  dup1\n  iszero\n  tag_1\n  jumpi\n  0x00\n  dup1\n  revert\ntag_1:\n  pop\n    /* \"TokenVesting.sol\":1229:1239  msg.sender */\n  caller\n    /* \"@openzeppelin/contracts/access/Ownable.sol\":1297:1298  0 */\n  0x00\n    /* \"@openzeppelin/contracts/access/Ownable.sol\":1273:1299  initialOwner == address(0) */\n  0xffffffffffffffffffffffffffffffffffffffff\n  and\n    /* \"@openzeppelin/contracts/access/Ownable.sol\":1273:1285  initialOwner */\n  dup2\n    /* \"@openzeppelin/contracts/access/Ownable.sol\":1273:1299  initialOwner == address(0) */\n  0xffffffffffffffffffffffffffffffffffffffff\n  and\n  sub\n    /* \"@openzeppelin/contracts/access/Ownable.sol\":1269:1364  if (initialOwner == address(0)) {... */\n  tag_6\n  jumpi\n    /* \"@openzeppelin/contracts/access/Ownable.sol\":1350:1351  0 */\n  0x00\n    /* \"@openzeppelin/contracts/access/Ownable.sol\":1322:1353  OwnableInvalidOwner(address(0)) */\n  mload(0x40)\n  0x1e4fbdf700000000000000000000000000000000000000000000000000000000\n  dup2\n  mstore\n  0x04\n  add\n  tag_7\n  swap2\n  swap1\n  tag_8\n  jump\t// in\ntag_7:\n  mload(0x40)\n  dup1\n  swap2\n  sub\n  swap1\n  revert\n    /* \"@openzeppelin/contracts/access/Ownable.sol\":1269:1364  if (initialOwner == address(0)) {... */\ntag_6:\n    /* \"@openzeppelin/contracts/access/Ownable.sol\":1373:1405  _transferOwnership(initialOwner) */\n  tag_9\n    /* \"@openzeppelin/contracts/access/Ownable.sol\":1392:1404  initialOwner */\n  dup2\n    /* \"@openzeppelin/contracts/access/Ownable.sol\":1373:1391  _transferOwnership */\n  shl(0x20, tag_10)\n    /* \"@openzeppelin/contracts/access/Ownable.sol\":1373:1405  _transferOwnership(initialOwner) */\n  0x20\n  shr\n  jump\t// in\ntag_9:\n    /* \"@openzeppelin/contracts/access/Ownable.sol\":1225:1412  constructor(address initialOwner) {... */\n  pop\n    /* \"@openzeppelin/contracts/security/ReentrancyGuard.sol\":1716:1717  1 */\n  0x01\n    /* \"@openzeppelin/contracts/security/ReentrancyGuard.sol\":1821:1828  _status */\n  dup1\n    /* \"@openzeppelin/contracts/security/ReentrancyGuard.sol\":1821:1843  _status = _NOT_ENTERED */\n  dup2\n  swap1\n  sstore\n  pop\n    /* \"TokenVesting.sol\":298:8428  contract TokenVesting is Ownable, ReentrancyGuard {... */\n  jump(tag_13)\n    /* \"@openzeppelin/contracts/access/Ownable.sol\":2912:3099  function _transferOwnership(address newOwner) internal virtual {... */\ntag_10:\n    /* \"@openzeppelin/contracts/access/Ownable.sol\":2985:3001  address oldOwner */\n  0x00\n    /* \"@openzeppelin/contracts/access/Ownable.sol\":3004:3010  _owner */\n  dup1\n  0x00\n  swap1\n  sload\n  swap1\n  0x0100\n  exp\n  swap1\n  div\n  0xffffffffffffffffffffffffffffffffffffffff\n  and\n    /* \"@openzeppelin/contracts/access/Ownable.sol\":2985:3010  address oldOwner = _owner */\n  swap1\n  pop\n    /* \"@openzeppelin/contracts/access/Ownable.sol\":3029:3037  newOwner */\n  dup2\n    /* \"@openzeppelin/contracts/access/Ownable.sol\":3020:3026  _owner */\n  0x00\n  dup1\n    /* \"@openzeppelin/contracts/access/Ownable.sol\":3020:3037  _owner = newOwner */\n  0x0100\n  exp\n  dup2\n  sload\n  dup2\n  0xffffffffffffffffffffffffffffffffffffffff\n  mul\n  not\n  and\n  swap1\n  dup4\n  0xffffffffffffffffffffffffffffffffffffffff\n  and\n  mul\n  or\n  swap1\n  sstore\n  pop\n    /* \"@openzeppelin/contracts/access/Ownable.sol\":3083:3091  newOwner */\n  dup2\n    /* \"@openzeppelin/contracts/access/Ownable.sol\":3052:3092  OwnershipTransferred(oldOwner, newOwner) */\n  0xffffffffffffffffffffffffffffffffffffffff\n  and\n    /* \"@openzeppelin/contracts/access/Ownable.sol\":3073:3081  oldOwner */\n  dup2\n    /* \"@openzeppelin/contracts/access/Ownable.sol\":3052:3092  OwnershipTransferred(oldOwner, newOwner) */\n  0xffffffffffffffffffffffffffffffffffffffff\n  and\n  0x8be0079c531659141344cd1fd0a4f28419497f9722a3daafe3b4186f6b6457e0\n  mload(0x40)\n  mload(0x40)\n  dup1\n  swap2\n  sub\n  swap1\n  log3\n    /* \"@openzeppelin/contracts/access/Ownable.sol\":2975:3099  {... */\n  pop\n    /* \"@openzeppelin/contracts/access/Ownable.sol\":2912:3099  function _transferOwnership(address newOwner) internal virtual {... */\n  pop\n  jump\t// out\n    /* \"#utility.yul\":7:133   */\ntag_15:\n    /* \"#utility.yul\":44:51   */\n  0x00\n    /* \"#utility.yul\":84:126   */\n  0xffffffffffffffffffffffffffffffffffffffff\n    /* \"#utility.yul\":77:82   */\n  dup3\n    /* \"#utility.yul\":73:127   */\n  and\n    /* \"#utility.yul\":62:127   */\n  swap1\n  pop\n    /* \"#utility.yul\":7:133   */\n  swap2\n  swap1\n  pop\n  jump\t// out\n    /* \"#utility.yul\":139:235   */\ntag_16:\n    /* \"#utility.yul\":176:183   */\n  0x00\n    /* \"#utility.yul\":205:229   */\n  tag_21\n    /* \"#utility.yul\":223:228   */\n  dup3\n    /* \"#utility.yul\":205:229   */\n  tag_15\n  jump\t// in\ntag_21:\n    /* \"#utility.yul\":194:229   */\n  swap1\n  pop\n    /* \"#utility.yul\":139:235   */\n  swap2\n  swap1\n  pop\n  jump\t// out\n    /* \"#utility.yul\":241:359   */\ntag_17:\n    /* \"#utility.yul\":328:352   */\n  tag_23\n    /* \"#utility.yul\":346:351   */\n  dup2\n    /* \"#utility.yul\":328:352   */\n  tag_16\n  jump\t// in\ntag_23:\n    /* \"#utility.yul\":323:326   */\n  dup3\n    /* \"#utility.yul\":316:353   */\n  mstore\n    /* \"#utility.yul\":241:359   */\n  pop\n  pop\n  jump\t// out\n    /* \"#utility.yul\":365:587   */\ntag_8:\n    /* \"#utility.yul\":458:462   */\n  0x00\n    /* \"#utility.yul\":496:498   */\n  0x20\n    /* \"#utility.yul\":485:494   */\n  dup3\n    /* \"#utility.yul\":481:499   */\n  add\n    /* \"#utility.yul\":473:499   */\n  swap1\n  pop\n    /* \"#utility.yul\":509:580   */\n  tag_25\n    /* \"#utility.yul\":577:578   */\n  0x00\n    /* \"#utility.yul\":566:575   */\n  dup4\n    /* \"#utility.yul\":562:579   */\n  add\n    /* \"#utility.yul\":553:559   */\n  dup5\n    /* \"#utility.yul\":509:580   */\n  tag_17\n  jump\t// in\ntag_25:\n    /* \"#utility.yul\":365:587   */\n  swap3\n  swap2\n  pop\n  pop\n  jump\t// out\n    /* \"TokenVesting.sol\":298:8428  contract TokenVesting is Ownable, ReentrancyGuard {... */\ntag_13:\n  dataSize(sub_0)\n  dup1\n  dataOffset(sub_0)\n  0x00\n  codecopy\n  0x00\n  return\nstop\n\nsub_0: assembly {\n        /* \"TokenVesting.sol\":298:8428  contract TokenVesting is Ownable, ReentrancyGuard {... */\n      mstore(0x40, 0x80)\n      callvalue\n      dup1\n      iszero\n      tag_1\n      jumpi\n      0x00\n      dup1\n      revert\n    tag_1:\n      pop\n      jumpi(tag_2, lt(calldatasize, 0x04))\n      shr(0xe0, calldataload(0x00))\n      dup1\n      0x86d1a69f\n      gt\n      tag_27\n      jumpi\n      dup1\n      0xbe9a6555\n      gt\n      tag_28\n      jumpi\n      dup1\n      0xbe9a6555\n      eq\n      tag_21\n      jumpi\n      dup1\n      0xdc25a300\n      eq\n      tag_22\n      jumpi\n      dup1\n      0xecb70fb7\n      eq\n      tag_23\n      jumpi\n      dup1\n      0xee4a745c\n      eq\n      tag_24\n      jumpi\n      dup1\n      0xf2fde38b\n      eq\n      tag_25\n      jumpi\n      dup1\n      0xfc0c546a\n      eq\n      tag_26\n      jumpi\n      jump(tag_2)\n    tag_28:\n      dup1\n      0x86d1a69f\n      eq\n      tag_15\n      jumpi\n      dup1\n      0x872a7810\n      eq\n      tag_16\n      jumpi\n      dup1\n      0x8da5cb5b\n      eq\n      tag_17\n      jumpi\n      dup1\n      0x96132521\n      eq\n      tag_18\n      jumpi\n      dup1\n      0x9639011e\n      eq\n      tag_19\n      jumpi\n      dup1\n      0xb6549f75\n      eq\n      tag_20\n      jumpi\n      jump(tag_2)\n    tag_27:\n      dup1\n      0x44691f7e\n      gt\n      tag_29\n      jumpi\n      dup1\n      0x44691f7e\n      eq\n      tag_9\n      jumpi\n      dup1\n      0x44b1231f\n      eq\n      tag_10\n      jumpi\n      dup1\n      0x5b940081\n      eq\n      tag_11\n      jumpi\n      dup1\n      0x63d256ce\n      eq\n      tag_12\n      jumpi\n      dup1\n      0x715018a6\n      eq\n      tag_13\n      jumpi\n      dup1\n      0x841bee0d\n      eq\n      tag_14\n      jumpi\n      jump(tag_2)\n    tag_29:\n      dup1\n      0x0fb5a6b4\n      eq\n      tag_3\n      jumpi\n      dup1\n      0x13d033c0\n      eq\n      tag_4\n      jumpi\n      dup1\n      0x1a39d8ef\n      eq\n      tag_5\n      jumpi\n      dup1\n      0x253254d6\n      eq\n      tag_6\n      jumpi\n      dup1\n      0x38af3eed\n      eq\n      tag_7\n      jumpi\n      dup1\n      0x392e53cd\n      eq\n      tag_8\n      jumpi\n    tag_2:\n      0x00\n      dup1\n      revert\n        /* \"TokenVesting.sol\":522:545  uint256 public duration */\n    tag_3:\n      tag_30\n      tag_31\n      jump\t// in\n    tag_30:\n      mload(0x40)\n      tag_32\n      swap2\n      swap1\n      tag_33\n      jump\t// in\n    tag_32:\n      mload(0x40)\n      dup1\n      swap2\n      sub\n      swap1\n      return\n        /* \"TokenVesting.sol\":470:490  uint256 public cliff */\n    tag_4:\n      tag_34\n      tag_35\n      jump\t// in\n    tag_34:\n      mload(0x40)\n      tag_36\n      swap2\n      swap1\n      tag_33\n      jump\t// in\n    tag_36:\n      mload(0x40)\n      dup1\n      swap2\n      sub\n      swap1\n      return\n        /* \"TokenVesting.sol\":551:577  uint256 public totalAmount */\n    tag_5:\n      tag_37\n      tag_38\n      jump\t// in\n    tag_37:\n      mload(0x40)\n      tag_39\n      swap2\n      swap1\n      tag_33\n      jump\t// in\n    tag_39:\n      mload(0x40)\n      dup1\n      swap2\n      sub\n      swap1\n      return\n        /* \"TokenVesting.sol\":7704:7811  function cliffEnded() external view returns (bool) {... */\n    tag_6:\n      tag_40\n      tag_41\n      jump\t// in\n    tag_40:\n      mload(0x40)\n      tag_42\n      swap2\n      swap1\n      tag_43\n      jump\t// in\n    tag_42:\n      mload(0x40)\n      dup1\n      swap2\n      sub\n      swap1\n      return\n        /* \"TokenVesting.sol\":438:464  address public beneficiary */\n    tag_7:\n      tag_44\n      tag_45\n      jump\t// in\n    tag_44:\n      mload(0x40)\n      tag_46\n      swap2\n      swap1\n      tag_47\n      jump\t// in\n    tag_46:\n      mload(0x40)\n      dup1\n      swap2\n      sub\n      swap1\n      return\n        /* \"TokenVesting.sol\":3086:3176  function isInitialized() external view returns (bool) {... */\n    tag_8:\n      tag_48\n      tag_49\n      jump\t// in\n    tag_48:\n      mload(0x40)\n      tag_50\n      swap2\n      swap1\n      tag_43\n      jump\t// in\n    tag_50:\n      mload(0x40)\n      dup1\n      swap2\n      sub\n      swap1\n      return\n        /* \"TokenVesting.sol\":7493:7592  function hasStarted() external view returns (bool) {... */\n    tag_9:\n      tag_51\n      tag_52\n      jump\t// in\n    tag_51:\n      mload(0x40)\n      tag_53\n      swap2\n      swap1\n      tag_43\n      jump\t// in\n    tag_53:\n      mload(0x40)\n      dup1\n      swap2\n      sub\n      swap1\n      return\n        /* \"TokenVesting.sol\":4629:5472  function vestedAmount() public view returns (uint256) {... */\n    tag_10:\n      tag_54\n      tag_55\n      jump\t// in\n    tag_54:\n      mload(0x40)\n      tag_56\n      swap2\n      swap1\n      tag_33\n      jump\t// in\n    tag_56:\n      mload(0x40)\n      dup1\n      swap2\n      sub\n      swap1\n      return\n        /* \"TokenVesting.sol\":4399:4506  function releasableAmount() public view returns (uint256) {... */\n    tag_11:\n      tag_57\n      tag_58\n      jump\t// in\n    tag_57:\n      mload(0x40)\n      tag_59\n      swap2\n      swap1\n      tag_33\n      jump\t// in\n    tag_59:\n      mload(0x40)\n      dup1\n      swap2\n      sub\n      swap1\n      return\n        /* \"TokenVesting.sol\":639:658  bool public revoked */\n    tag_12:\n      tag_60\n      tag_61\n      jump\t// in\n    tag_60:\n      mload(0x40)\n      tag_62\n      swap2\n      swap1\n      tag_43\n      jump\t// in\n    tag_62:\n      mload(0x40)\n      dup1\n      swap2\n      sub\n      swap1\n      return\n        /* \"@openzeppelin/contracts/access/Ownable.sol\":2293:2394  function renounceOwnership() public virtual onlyOwner {... */\n    tag_13:\n      tag_63\n      tag_64\n      jump\t// in\n    tag_63:\n      stop\n        /* \"TokenVesting.sol\":1795:3011  function initialize(... */\n    tag_14:\n      tag_65\n      0x04\n      dup1\n      calldatasize\n      sub\n      dup2\n      add\n      swap1\n      tag_66\n      swap2\n      swap1\n      tag_67\n      jump\t// in\n    tag_66:\n      tag_68\n      jump\t// in\n    tag_65:\n      stop\n        /* \"TokenVesting.sol\":3247:3683  function release() external nonReentrant {... */\n    tag_15:\n      tag_69\n      tag_70\n      jump\t// in\n    tag_69:\n      stop\n        /* \"TokenVesting.sol\":612:633  bool public revocable */\n    tag_16:\n      tag_71\n      tag_72\n      jump\t// in\n    tag_71:\n      mload(0x40)\n      tag_73\n      swap2\n      swap1\n      tag_43\n      jump\t// in\n    tag_73:\n      mload(0x40)\n      dup1\n      swap2\n      sub\n      swap1\n      return\n        /* \"@openzeppelin/contracts/access/Ownable.sol\":1638:1723  function owner() public view virtual returns (address) {... */\n    tag_17:\n      tag_74\n      tag_75\n      jump\t// in\n    tag_74:\n      mload(0x40)\n      tag_76\n      swap2\n      swap1\n      tag_47\n      jump\t// in\n    tag_76:\n      mload(0x40)\n      dup1\n      swap2\n      sub\n      swap1\n      return\n        /* \"TokenVesting.sol\":583:606  uint256 public released */\n    tag_18:\n      tag_77\n      tag_78\n      jump\t// in\n    tag_77:\n      mload(0x40)\n      tag_79\n      swap2\n      swap1\n      tag_33\n      jump\t// in\n    tag_79:\n      mload(0x40)\n      dup1\n      swap2\n      sub\n      swap1\n      return\n        /* \"TokenVesting.sol\":8211:8426  function emergencyRecover(address _token, uint256 _amount) external onlyOwner {... */\n    tag_19:\n      tag_80\n      0x04\n      dup1\n      calldatasize\n      sub\n      dup2\n      add\n      swap1\n      tag_81\n      swap2\n      swap1\n      tag_82\n      jump\t// in\n    tag_81:\n      tag_83\n      jump\t// in\n    tag_80:\n      stop\n        /* \"TokenVesting.sol\":3759:4260  function revoke() external onlyOwner {... */\n    tag_20:\n      tag_84\n      tag_85\n      jump\t// in\n    tag_84:\n      stop\n        /* \"TokenVesting.sol\":496:516  uint256 public start */\n    tag_21:\n      tag_86\n      tag_87\n      jump\t// in\n    tag_86:\n      mload(0x40)\n      tag_88\n      swap2\n      swap1\n      tag_33\n      jump\t// in\n    tag_88:\n      mload(0x40)\n      dup1\n      swap2\n      sub\n      swap1\n      return\n        /* \"TokenVesting.sol\":5898:6425  function getVestingInfo() external view returns (... */\n    tag_22:\n      tag_89\n      tag_90\n      jump\t// in\n    tag_89:\n      mload(0x40)\n      tag_91\n      swap10\n      swap9\n      swap8\n      swap7\n      swap6\n      swap5\n      swap4\n      swap3\n      swap2\n      swap1\n      tag_92\n      jump\t// in\n    tag_91:\n      mload(0x40)\n      dup1\n      swap2\n      sub\n      swap1\n      return\n        /* \"TokenVesting.sol\":7913:8021  function hasEnded() external view returns (bool) {... */\n    tag_23:\n      tag_93\n      tag_94\n      jump\t// in\n    tag_93:\n      mload(0x40)\n      tag_95\n      swap2\n      swap1\n      tag_43\n      jump\t// in\n    tag_95:\n      mload(0x40)\n      dup1\n      swap2\n      sub\n      swap1\n      return\n        /* \"TokenVesting.sol\":6752:7387  function getVestingStatus() external view returns (... */\n    tag_24:\n      tag_96\n      tag_97\n      jump\t// in\n    tag_96:\n      mload(0x40)\n      tag_98\n      swap6\n      swap5\n      swap4\n      swap3\n      swap2\n      swap1\n      tag_99\n      jump\t// in\n    tag_98:\n      mload(0x40)\n      dup1\n      swap2\n      sub\n      swap1\n      return\n        /* \"@openzeppelin/contracts/access/Ownable.sol\":2543:2758  function transferOwnership(address newOwner) public virtual onlyOwner {... */\n    tag_25:\n      tag_100\n      0x04\n      dup1\n      calldatasize\n      sub\n      dup2\n      add\n      swap1\n      tag_101\n      swap2\n      swap1\n      tag_102\n      jump\t// in\n    tag_101:\n      tag_103\n      jump\t// in\n    tag_100:\n      stop\n        /* \"TokenVesting.sol\":413:432  IERC20 public token */\n    tag_26:\n      tag_104\n      tag_105\n      jump\t// in\n    tag_104:\n      mload(0x40)\n      tag_106\n      swap2\n      swap1\n      tag_107\n      jump\t// in\n    tag_106:\n      mload(0x40)\n      dup1\n      swap2\n      sub\n      swap1\n      return\n        /* \"TokenVesting.sol\":522:545  uint256 public duration */\n    tag_31:\n      sload(0x06)\n      dup2\n      jump\t// out\n        /* \"TokenVesting.sol\":470:490  uint256 public cliff */\n    tag_35:\n      sload(0x04)\n      dup2\n      jump\t// out\n        /* \"TokenVesting.sol\":551:577  uint256 public totalAmount */\n    tag_38:\n      sload(0x07)\n      dup2\n      jump\t// out\n        /* \"TokenVesting.sol\":7704:7811  function cliffEnded() external view returns (bool) {... */\n    tag_41:\n        /* \"TokenVesting.sol\":7749:7753  bool */\n      0x00\n        /* \"TokenVesting.sol\":7799:7804  cliff */\n      sload(0x04)\n        /* \"TokenVesting.sol\":7791:7796  start */\n      sload(0x05)\n        /* \"TokenVesting.sol\":7791:7804  start + cliff */\n      tag_109\n      swap2\n      swap1\n      tag_110\n      jump\t// in\n    tag_109:\n        /* \"TokenVesting.sol\":7772:7787  block.timestamp */\n      timestamp\n        /* \"TokenVesting.sol\":7772:7804  block.timestamp >= start + cliff */\n      lt\n      iszero\n        /* \"TokenVesting.sol\":7765:7804  return block.timestamp >= start + cliff */\n      swap1\n      pop\n        /* \"TokenVesting.sol\":7704:7811  function cliffEnded() external view returns (bool) {... */\n      swap1\n      jump\t// out\n        /* \"TokenVesting.sol\":438:464  address public beneficiary */\n    tag_45:\n      0x03\n      0x00\n      swap1\n      sload\n      swap1\n      0x0100\n      exp\n      swap1\n      div\n      0xffffffffffffffffffffffffffffffffffffffff\n      and\n      dup2\n      jump\t// out\n        /* \"TokenVesting.sol\":3086:3176  function isInitialized() external view returns (bool) {... */\n    tag_49:\n        /* \"TokenVesting.sol\":3134:3138  bool */\n      0x00\n        /* \"TokenVesting.sol\":3157:3169  _initialized */\n      0x09\n      0x02\n      swap1\n      sload\n      swap1\n      0x0100\n      exp\n      swap1\n      div\n      0xff\n      and\n        /* \"TokenVesting.sol\":3150:3169  return _initialized */\n      swap1\n      pop\n        /* \"TokenVesting.sol\":3086:3176  function isInitialized() external view returns (bool) {... */\n      swap1\n      jump\t// out\n        /* \"TokenVesting.sol\":7493:7592  function hasStarted() external view returns (bool) {... */\n    tag_52:\n        /* \"TokenVesting.sol\":7538:7542  bool */\n      0x00\n        /* \"TokenVesting.sol\":7580:7585  start */\n      sload(0x05)\n        /* \"TokenVesting.sol\":7561:7576  block.timestamp */\n      timestamp\n        /* \"TokenVesting.sol\":7561:7585  block.timestamp >= start */\n      lt\n      iszero\n        /* \"TokenVesting.sol\":7554:7585  return block.timestamp >= start */\n      swap1\n      pop\n        /* \"TokenVesting.sol\":7493:7592  function hasStarted() external view returns (bool) {... */\n      swap1\n      jump\t// out\n        /* \"TokenVesting.sol\":4629:5472  function vestedAmount() public view returns (uint256) {... */\n    tag_55:\n        /* \"TokenVesting.sol\":4674:4681  uint256 */\n      0x00\n        /* \"TokenVesting.sol\":4697:4704  revoked */\n      0x09\n      0x01\n      swap1\n      sload\n      swap1\n      0x0100\n      exp\n      swap1\n      div\n      0xff\n      and\n        /* \"TokenVesting.sol\":4693:4739  if (revoked) {... */\n      iszero\n      tag_114\n      jumpi\n        /* \"TokenVesting.sol\":4727:4728  0 */\n      0x00\n        /* \"TokenVesting.sol\":4720:4728  return 0 */\n      swap1\n      pop\n      jump(tag_113)\n        /* \"TokenVesting.sol\":4693:4739  if (revoked) {... */\n    tag_114:\n        /* \"TokenVesting.sol\":4749:4768  uint256 currentTime */\n      0x00\n        /* \"TokenVesting.sol\":4771:4786  block.timestamp */\n      timestamp\n        /* \"TokenVesting.sol\":4749:4786  uint256 currentTime = block.timestamp */\n      swap1\n      pop\n        /* \"TokenVesting.sol\":4882:4887  cliff */\n      sload(0x04)\n        /* \"TokenVesting.sol\":4874:4879  start */\n      sload(0x05)\n        /* \"TokenVesting.sol\":4874:4887  start + cliff */\n      tag_115\n      swap2\n      swap1\n      tag_110\n      jump\t// in\n    tag_115:\n        /* \"TokenVesting.sol\":4860:4871  currentTime */\n      dup2\n        /* \"TokenVesting.sol\":4860:4887  currentTime < start + cliff */\n      lt\n        /* \"TokenVesting.sol\":4856:4922  if (currentTime < start + cliff) {... */\n      iszero\n      tag_116\n      jumpi\n        /* \"TokenVesting.sol\":4910:4911  0 */\n      0x00\n        /* \"TokenVesting.sol\":4903:4911  return 0 */\n      swap2\n      pop\n      pop\n      jump(tag_113)\n        /* \"TokenVesting.sol\":4856:4922  if (currentTime < start + cliff) {... */\n    tag_116:\n        /* \"TokenVesting.sol\":5016:5024  duration */\n      sload(0x06)\n        /* \"TokenVesting.sol\":5008:5013  start */\n      sload(0x05)\n        /* \"TokenVesting.sol\":5008:5024  start + duration */\n      tag_117\n      swap2\n      swap1\n      tag_110\n      jump\t// in\n    tag_117:\n        /* \"TokenVesting.sol\":4993:5004  currentTime */\n      dup2\n        /* \"TokenVesting.sol\":4993:5024  currentTime >= start + duration */\n      lt\n        /* \"TokenVesting.sol\":4989:5069  if (currentTime >= start + duration) {... */\n      tag_118\n      jumpi\n        /* \"TokenVesting.sol\":5047:5058  totalAmount */\n      sload(0x07)\n        /* \"TokenVesting.sol\":5040:5058  return totalAmount */\n      swap2\n      pop\n      pop\n      jump(tag_113)\n        /* \"TokenVesting.sol\":4989:5069  if (currentTime >= start + duration) {... */\n    tag_118:\n        /* \"TokenVesting.sol\":5156:5175  uint256 timeElapsed */\n      0x00\n        /* \"TokenVesting.sol\":5200:5205  cliff */\n      sload(0x04)\n        /* \"TokenVesting.sol\":5192:5197  start */\n      sload(0x05)\n        /* \"TokenVesting.sol\":5178:5189  currentTime */\n      dup4\n        /* \"TokenVesting.sol\":5178:5197  currentTime - start */\n      tag_119\n      swap2\n      swap1\n      tag_120\n      jump\t// in\n    tag_119:\n        /* \"TokenVesting.sol\":5178:5205  currentTime - start - cliff */\n      tag_121\n      swap2\n      swap1\n      tag_120\n      jump\t// in\n    tag_121:\n        /* \"TokenVesting.sol\":5156:5205  uint256 timeElapsed = currentTime - start - cliff */\n      swap1\n      pop\n        /* \"TokenVesting.sol\":5215:5238  uint256 vestingDuration */\n      0x00\n        /* \"TokenVesting.sol\":5252:5257  cliff */\n      sload(0x04)\n        /* \"TokenVesting.sol\":5241:5249  duration */\n      sload(0x06)\n        /* \"TokenVesting.sol\":5241:5257  duration - cliff */\n      tag_122\n      swap2\n      swap1\n      tag_120\n      jump\t// in\n    tag_122:\n        /* \"TokenVesting.sol\":5215:5257  uint256 vestingDuration = duration - cliff */\n      swap1\n      pop\n        /* \"TokenVesting.sol\":5359:5379  uint256 linearAmount */\n      0x00\n        /* \"TokenVesting.sol\":5412:5427  vestingDuration */\n      dup2\n        /* \"TokenVesting.sol\":5397:5408  timeElapsed */\n      dup4\n        /* \"TokenVesting.sol\":5383:5394  totalAmount */\n      sload(0x07)\n        /* \"TokenVesting.sol\":5383:5408  totalAmount * timeElapsed */\n      tag_123\n      swap2\n      swap1\n      tag_124\n      jump\t// in\n    tag_123:\n        /* \"TokenVesting.sol\":5382:5427  (totalAmount * timeElapsed) / vestingDuration */\n      tag_125\n      swap2\n      swap1\n      tag_126\n      jump\t// in\n    tag_125:\n        /* \"TokenVesting.sol\":5359:5427  uint256 linearAmount = (totalAmount * timeElapsed) / vestingDuration */\n      swap1\n      pop\n        /* \"TokenVesting.sol\":5453:5465  linearAmount */\n      dup1\n        /* \"TokenVesting.sol\":5446:5465  return linearAmount */\n      swap5\n      pop\n      pop\n      pop\n      pop\n      pop\n        /* \"TokenVesting.sol\":4629:5472  function vestedAmount() public view returns (uint256) {... */\n    tag_113:\n      swap1\n      jump\t// out\n        /* \"TokenVesting.sol\":4399:4506  function releasableAmount() public view returns (uint256) {... */\n    tag_58:\n        /* \"TokenVesting.sol\":4448:4455  uint256 */\n      0x00\n        /* \"TokenVesting.sol\":4491:4499  released */\n      sload(0x08)\n        /* \"TokenVesting.sol\":4474:4488  vestedAmount() */\n      tag_128\n        /* \"TokenVesting.sol\":4474:4486  vestedAmount */\n      tag_55\n        /* \"TokenVesting.sol\":4474:4488  vestedAmount() */\n      jump\t// in\n    tag_128:\n        /* \"TokenVesting.sol\":4474:4499  vestedAmount() - released */\n      tag_129\n      swap2\n      swap1\n      tag_120\n      jump\t// in\n    tag_129:\n        /* \"TokenVesting.sol\":4467:4499  return vestedAmount() - released */\n      swap1\n      pop\n        /* \"TokenVesting.sol\":4399:4506  function releasableAmount() public view returns (uint256) {... */\n      swap1\n      jump\t// out\n        /* \"TokenVesting.sol\":639:658  bool public revoked */\n    tag_61:\n      0x09\n      0x01\n      swap1\n      sload\n      swap1\n      0x0100\n      exp\n      swap1\n      div\n      0xff\n      and\n      dup2\n      jump\t// out\n        /* \"@openzeppelin/contracts/access/Ownable.sol\":2293:2394  function renounceOwnership() public virtual onlyOwner {... */\n    tag_64:\n        /* \"@openzeppelin/contracts/access/Ownable.sol\":1531:1544  _checkOwner() */\n      tag_131\n        /* \"@openzeppelin/contracts/access/Ownable.sol\":1531:1542  _checkOwner */\n      tag_132\n        /* \"@openzeppelin/contracts/access/Ownable.sol\":1531:1544  _checkOwner() */\n      jump\t// in\n    tag_131:\n        /* \"@openzeppelin/contracts/access/Ownable.sol\":2357:2387  _transferOwnership(address(0)) */\n      tag_134\n        /* \"@openzeppelin/contracts/access/Ownable.sol\":2384:2385  0 */\n      0x00\n        /* \"@openzeppelin/contracts/access/Ownable.sol\":2357:2375  _transferOwnership */\n      tag_135\n        /* \"@openzeppelin/contracts/access/Ownable.sol\":2357:2387  _transferOwnership(address(0)) */\n      jump\t// in\n    tag_134:\n        /* \"@openzeppelin/contracts/access/Ownable.sol\":2293:2394  function renounceOwnership() public virtual onlyOwner {... */\n      jump\t// out\n        /* \"TokenVesting.sol\":1795:3011  function initialize(... */\n    tag_68:\n        /* \"TokenVesting.sol\":2033:2045  _initialized */\n      0x09\n      0x02\n      swap1\n      sload\n      swap1\n      0x0100\n      exp\n      swap1\n      div\n      0xff\n      and\n        /* \"TokenVesting.sol\":2032:2045  !_initialized */\n      iszero\n        /* \"TokenVesting.sol\":2024:2069  require(!_initialized, \"Already initialized\") */\n      tag_137\n      jumpi\n      mload(0x40)\n      0x08c379a000000000000000000000000000000000000000000000000000000000\n      dup2\n      mstore\n      0x04\n      add\n      tag_138\n      swap1\n      tag_139\n      jump\t// in\n    tag_138:\n      mload(0x40)\n      dup1\n      swap2\n      sub\n      swap1\n      revert\n    tag_137:\n        /* \"TokenVesting.sol\":2105:2106  0 */\n      0x00\n        /* \"TokenVesting.sol\":2087:2107  _token != address(0) */\n      0xffffffffffffffffffffffffffffffffffffffff\n      and\n        /* \"TokenVesting.sol\":2087:2093  _token */\n      dup8\n        /* \"TokenVesting.sol\":2087:2107  _token != address(0) */\n      0xffffffffffffffffffffffffffffffffffffffff\n      and\n      sub\n        /* \"TokenVesting.sol\":2079:2133  require(_token != address(0), \"Invalid token address\") */\n      tag_140\n      jumpi\n      mload(0x40)\n      0x08c379a000000000000000000000000000000000000000000000000000000000\n      dup2\n      mstore\n      0x04\n      add\n      tag_141\n      swap1\n      tag_142\n      jump\t// in\n    tag_141:\n      mload(0x40)\n      dup1\n      swap2\n      sub\n      swap1\n      revert\n    tag_140:\n        /* \"TokenVesting.sol\":2175:2176  0 */\n      0x00\n        /* \"TokenVesting.sol\":2151:2177  _beneficiary != address(0) */\n      0xffffffffffffffffffffffffffffffffffffffff\n      and\n        /* \"TokenVesting.sol\":2151:2163  _beneficiary */\n      dup7\n        /* \"TokenVesting.sol\":2151:2177  _beneficiary != address(0) */\n      0xffffffffffffffffffffffffffffffffffffffff\n      and\n      sub\n        /* \"TokenVesting.sol\":2143:2209  require(_beneficiary != address(0), \"Invalid beneficiary address\") */\n      tag_143\n      jumpi\n      mload(0x40)\n      0x08c379a000000000000000000000000000000000000000000000000000000000\n      dup2\n      mstore\n      0x04\n      add\n      tag_144\n      swap1\n      tag_145\n      jump\t// in\n    tag_144:\n      mload(0x40)\n      dup1\n      swap2\n      sub\n      swap1\n      revert\n    tag_143:\n        /* \"TokenVesting.sol\":2242:2243  0 */\n      0x00\n        /* \"TokenVesting.sol\":2227:2239  _totalAmount */\n      dup6\n        /* \"TokenVesting.sol\":2227:2243  _totalAmount > 0 */\n      gt\n        /* \"TokenVesting.sol\":2219:2283  require(_totalAmount > 0, \"Total amount must be greater than 0\") */\n      tag_146\n      jumpi\n      mload(0x40)\n      0x08c379a000000000000000000000000000000000000000000000000000000000\n      dup2\n      mstore\n      0x04\n      add\n      tag_147\n      swap1\n      tag_148\n      jump\t// in\n    tag_147:\n      mload(0x40)\n      dup1\n      swap2\n      sub\n      swap1\n      revert\n    tag_146:\n        /* \"TokenVesting.sol\":2313:2314  0 */\n      0x00\n        /* \"TokenVesting.sol\":2301:2310  _duration */\n      dup4\n        /* \"TokenVesting.sol\":2301:2314  _duration > 0 */\n      gt\n        /* \"TokenVesting.sol\":2293:2350  require(_duration > 0, \"Duration must be greater than 0\") */\n      tag_149\n      jumpi\n      mload(0x40)\n      0x08c379a000000000000000000000000000000000000000000000000000000000\n      dup2\n      mstore\n      0x04\n      add\n      tag_150\n      swap1\n      tag_151\n      jump\t// in\n    tag_150:\n      mload(0x40)\n      dup1\n      swap2\n      sub\n      swap1\n      revert\n    tag_149:\n        /* \"TokenVesting.sol\":2378:2387  _duration */\n      dup3\n        /* \"TokenVesting.sol\":2368:2374  _cliff */\n      dup5\n        /* \"TokenVesting.sol\":2368:2387  _cliff <= _duration */\n      gt\n      iszero\n        /* \"TokenVesting.sol\":2360:2420  require(_cliff <= _duration, \"Cliff cannot exceed duration\") */\n      tag_152\n      jumpi\n      mload(0x40)\n      0x08c379a000000000000000000000000000000000000000000000000000000000\n      dup2\n      mstore\n      0x04\n      add\n      tag_153\n      swap1\n      tag_154\n      jump\t// in\n    tag_153:\n      mload(0x40)\n      dup1\n      swap2\n      sub\n      swap1\n      revert\n    tag_152:\n        /* \"TokenVesting.sol\":2456:2457  0 */\n      0x00\n        /* \"TokenVesting.sol\":2438:2458  _owner != address(0) */\n      0xffffffffffffffffffffffffffffffffffffffff\n      and\n        /* \"TokenVesting.sol\":2438:2444  _owner */\n      dup2\n        /* \"TokenVesting.sol\":2438:2458  _owner != address(0) */\n      0xffffffffffffffffffffffffffffffffffffffff\n      and\n      sub\n        /* \"TokenVesting.sol\":2430:2484  require(_owner != address(0), \"Invalid owner address\") */\n      tag_155\n      jumpi\n      mload(0x40)\n      0x08c379a000000000000000000000000000000000000000000000000000000000\n      dup2\n      mstore\n      0x04\n      add\n      tag_156\n      swap1\n      tag_157\n      jump\t// in\n    tag_156:\n      mload(0x40)\n      dup1\n      swap2\n      sub\n      swap1\n      revert\n    tag_155:\n        /* \"TokenVesting.sol\":2510:2516  _token */\n      dup7\n        /* \"TokenVesting.sol\":2495:2500  token */\n      0x02\n      0x00\n        /* \"TokenVesting.sol\":2495:2517  token = IERC20(_token) */\n      0x0100\n      exp\n      dup2\n      sload\n      dup2\n      0xffffffffffffffffffffffffffffffffffffffff\n      mul\n      not\n      and\n      swap1\n      dup4\n      0xffffffffffffffffffffffffffffffffffffffff\n      and\n      mul\n      or\n      swap1\n      sstore\n      pop\n        /* \"TokenVesting.sol\":2541:2553  _beneficiary */\n      dup6\n        /* \"TokenVesting.sol\":2527:2538  beneficiary */\n      0x03\n      0x00\n        /* \"TokenVesting.sol\":2527:2553  beneficiary = _beneficiary */\n      0x0100\n      exp\n      dup2\n      sload\n      dup2\n      0xffffffffffffffffffffffffffffffffffffffff\n      mul\n      not\n      and\n      swap1\n      dup4\n      0xffffffffffffffffffffffffffffffffffffffff\n      and\n      mul\n      or\n      swap1\n      sstore\n      pop\n        /* \"TokenVesting.sol\":2577:2589  _totalAmount */\n      dup5\n        /* \"TokenVesting.sol\":2563:2574  totalAmount */\n      0x07\n        /* \"TokenVesting.sol\":2563:2589  totalAmount = _totalAmount */\n      dup2\n      swap1\n      sstore\n      pop\n        /* \"TokenVesting.sol\":2607:2613  _cliff */\n      dup4\n        /* \"TokenVesting.sol\":2599:2604  cliff */\n      0x04\n        /* \"TokenVesting.sol\":2599:2613  cliff = _cliff */\n      dup2\n      swap1\n      sstore\n      pop\n        /* \"TokenVesting.sol\":2634:2643  _duration */\n      dup3\n        /* \"TokenVesting.sol\":2623:2631  duration */\n      0x06\n        /* \"TokenVesting.sol\":2623:2643  duration = _duration */\n      dup2\n      swap1\n      sstore\n      pop\n        /* \"TokenVesting.sol\":2665:2675  _revocable */\n      dup2\n        /* \"TokenVesting.sol\":2653:2662  revocable */\n      0x09\n      0x00\n        /* \"TokenVesting.sol\":2653:2675  revocable = _revocable */\n      0x0100\n      exp\n      dup2\n      sload\n      dup2\n      0xff\n      mul\n      not\n      and\n      swap1\n      dup4\n      iszero\n      iszero\n      mul\n      or\n      swap1\n      sstore\n      pop\n        /* \"TokenVesting.sol\":2693:2708  block.timestamp */\n      timestamp\n        /* \"TokenVesting.sol\":2685:2690  start */\n      0x05\n        /* \"TokenVesting.sol\":2685:2708  start = block.timestamp */\n      dup2\n      swap1\n      sstore\n      pop\n        /* \"TokenVesting.sol\":2729:2730  0 */\n      0x00\n        /* \"TokenVesting.sol\":2718:2726  released */\n      0x08\n        /* \"TokenVesting.sol\":2718:2730  released = 0 */\n      dup2\n      swap1\n      sstore\n      pop\n        /* \"TokenVesting.sol\":2750:2755  false */\n      0x00\n        /* \"TokenVesting.sol\":2740:2747  revoked */\n      0x09\n      0x01\n        /* \"TokenVesting.sol\":2740:2755  revoked = false */\n      0x0100\n      exp\n      dup2\n      sload\n      dup2\n      0xff\n      mul\n      not\n      and\n      swap1\n      dup4\n      iszero\n      iszero\n      mul\n      or\n      swap1\n      sstore\n      pop\n        /* \"TokenVesting.sol\":2780:2784  true */\n      0x01\n        /* \"TokenVesting.sol\":2765:2777  _initialized */\n      0x09\n      0x02\n        /* \"TokenVesting.sol\":2765:2784  _initialized = true */\n      0x0100\n      exp\n      dup2\n      sload\n      dup2\n      0xff\n      mul\n      not\n      and\n      swap1\n      dup4\n      iszero\n      iszero\n      mul\n      or\n      swap1\n      sstore\n      pop\n        /* \"TokenVesting.sol\":2795:2821  _transferOwnership(_owner) */\n      tag_158\n        /* \"TokenVesting.sol\":2814:2820  _owner */\n      dup2\n        /* \"TokenVesting.sol\":2795:2813  _transferOwnership */\n      tag_135\n        /* \"TokenVesting.sol\":2795:2821  _transferOwnership(_owner) */\n      jump\t// in\n    tag_158:\n        /* \"TokenVesting.sol\":2889:2901  _beneficiary */\n      dup6\n        /* \"TokenVesting.sol\":2837:3004  VestingInitialized(... */\n      0xffffffffffffffffffffffffffffffffffffffff\n      and\n        /* \"TokenVesting.sol\":2869:2875  _token */\n      dup8\n        /* \"TokenVesting.sol\":2837:3004  VestingInitialized(... */\n      0xffffffffffffffffffffffffffffffffffffffff\n      and\n      0x14fc8ad8c19c2f708dda1e872c93f682d7a3cae234bdc2712270269f8e1d00c2\n        /* \"TokenVesting.sol\":2915:2927  _totalAmount */\n      dup8\n        /* \"TokenVesting.sol\":2941:2947  _cliff */\n      dup8\n        /* \"TokenVesting.sol\":2961:2970  _duration */\n      dup8\n        /* \"TokenVesting.sol\":2984:2994  _revocable */\n      dup8\n        /* \"TokenVesting.sol\":2837:3004  VestingInitialized(... */\n      mload(0x40)\n      tag_159\n      swap5\n      swap4\n      swap3\n      swap2\n      swap1\n      tag_160\n      jump\t// in\n    tag_159:\n      mload(0x40)\n      dup1\n      swap2\n      sub\n      swap1\n      log3\n        /* \"TokenVesting.sol\":1795:3011  function initialize(... */\n      pop\n      pop\n      pop\n      pop\n      pop\n      pop\n      pop\n      jump\t// out\n        /* \"TokenVesting.sol\":3247:3683  function release() external nonReentrant {... */\n    tag_70:\n        /* \"@openzeppelin/contracts/security/ReentrancyGuard.sol\":2261:2282  _nonReentrantBefore() */\n      tag_162\n        /* \"@openzeppelin/contracts/security/ReentrancyGuard.sol\":2261:2280  _nonReentrantBefore */\n      tag_163\n        /* \"@openzeppelin/contracts/security/ReentrancyGuard.sol\":2261:2282  _nonReentrantBefore() */\n      jump\t// in\n    tag_162:\n        /* \"TokenVesting.sol\":3307:3314  revoked */\n      0x09\n      0x01\n      swap1\n      sload\n      swap1\n      0x0100\n      exp\n      swap1\n      div\n      0xff\n      and\n        /* \"TokenVesting.sol\":3306:3314  !revoked */\n      iszero\n        /* \"TokenVesting.sol\":3298:3343  require(!revoked, \"Vesting has been revoked\") */\n      tag_165\n      jumpi\n      mload(0x40)\n      0x08c379a000000000000000000000000000000000000000000000000000000000\n      dup2\n      mstore\n      0x04\n      add\n      tag_166\n      swap1\n      tag_167\n      jump\t// in\n    tag_166:\n      mload(0x40)\n      dup1\n      swap2\n      sub\n      swap1\n      revert\n    tag_165:\n        /* \"TokenVesting.sol\":3375:3386  beneficiary */\n      0x03\n      0x00\n      swap1\n      sload\n      swap1\n      0x0100\n      exp\n      swap1\n      div\n      0xffffffffffffffffffffffffffffffffffffffff\n      and\n        /* \"TokenVesting.sol\":3361:3386  msg.sender == beneficiary */\n      0xffffffffffffffffffffffffffffffffffffffff\n      and\n        /* \"TokenVesting.sol\":3361:3371  msg.sender */\n      caller\n        /* \"TokenVesting.sol\":3361:3386  msg.sender == beneficiary */\n      0xffffffffffffffffffffffffffffffffffffffff\n      and\n      eq\n        /* \"TokenVesting.sol\":3361:3411  msg.sender == beneficiary || msg.sender == owner() */\n      dup1\n      tag_168\n      jumpi\n      pop\n        /* \"TokenVesting.sol\":3404:3411  owner() */\n      tag_169\n        /* \"TokenVesting.sol\":3404:3409  owner */\n      tag_75\n        /* \"TokenVesting.sol\":3404:3411  owner() */\n      jump\t// in\n    tag_169:\n        /* \"TokenVesting.sol\":3390:3411  msg.sender == owner() */\n      0xffffffffffffffffffffffffffffffffffffffff\n      and\n        /* \"TokenVesting.sol\":3390:3400  msg.sender */\n      caller\n        /* \"TokenVesting.sol\":3390:3411  msg.sender == owner() */\n      0xffffffffffffffffffffffffffffffffffffffff\n      and\n      eq\n        /* \"TokenVesting.sol\":3361:3411  msg.sender == beneficiary || msg.sender == owner() */\n    tag_168:\n        /* \"TokenVesting.sol\":3353:3428  require(msg.sender == beneficiary || msg.sender == owner(), \"Unauthorized\") */\n      tag_170\n      jumpi\n      mload(0x40)\n      0x08c379a000000000000000000000000000000000000000000000000000000000\n      dup2\n      mstore\n      0x04\n      add\n      tag_171\n      swap1\n      tag_172\n      jump\t// in\n    tag_171:\n      mload(0x40)\n      dup1\n      swap2\n      sub\n      swap1\n      revert\n    tag_170:\n        /* \"TokenVesting.sol\":3439:3457  uint256 unreleased */\n      0x00\n        /* \"TokenVesting.sol\":3460:3478  releasableAmount() */\n      tag_173\n        /* \"TokenVesting.sol\":3460:3476  releasableAmount */\n      tag_58\n        /* \"TokenVesting.sol\":3460:3478  releasableAmount() */\n      jump\t// in\n    tag_173:\n        /* \"TokenVesting.sol\":3439:3478  uint256 unreleased = releasableAmount() */\n      swap1\n      pop\n        /* \"TokenVesting.sol\":3509:3510  0 */\n      0x00\n        /* \"TokenVesting.sol\":3496:3506  unreleased */\n      dup2\n        /* \"TokenVesting.sol\":3496:3510  unreleased > 0 */\n      gt\n        /* \"TokenVesting.sol\":3488:3535  require(unreleased > 0, \"No tokens to release\") */\n      tag_174\n      jumpi\n      mload(0x40)\n      0x08c379a000000000000000000000000000000000000000000000000000000000\n      dup2\n      mstore\n      0x04\n      add\n      tag_175\n      swap1\n      tag_176\n      jump\t// in\n    tag_175:\n      mload(0x40)\n      dup1\n      swap2\n      sub\n      swap1\n      revert\n    tag_174:\n        /* \"TokenVesting.sol\":3558:3568  unreleased */\n      dup1\n        /* \"TokenVesting.sol\":3546:3554  released */\n      0x08\n      0x00\n        /* \"TokenVesting.sol\":3546:3568  released += unreleased */\n      dup3\n      dup3\n      sload\n      tag_177\n      swap2\n      swap1\n      tag_110\n      jump\t// in\n    tag_177:\n      swap3\n      pop\n      pop\n      dup2\n      swap1\n      sstore\n      pop\n        /* \"TokenVesting.sol\":3578:3621  token.safeTransfer(beneficiary, unreleased) */\n      tag_178\n        /* \"TokenVesting.sol\":3597:3608  beneficiary */\n      0x03\n      0x00\n      swap1\n      sload\n      swap1\n      0x0100\n      exp\n      swap1\n      div\n      0xffffffffffffffffffffffffffffffffffffffff\n      and\n        /* \"TokenVesting.sol\":3610:3620  unreleased */\n      dup3\n        /* \"TokenVesting.sol\":3578:3583  token */\n      0x02\n      0x00\n      swap1\n      sload\n      swap1\n      0x0100\n      exp\n      swap1\n      div\n      0xffffffffffffffffffffffffffffffffffffffff\n      and\n        /* \"TokenVesting.sol\":3578:3596  token.safeTransfer */\n      0xffffffffffffffffffffffffffffffffffffffff\n      and\n      tag_179\n      swap1\n        /* \"TokenVesting.sol\":3578:3621  token.safeTransfer(beneficiary, unreleased) */\n      swap3\n      swap2\n      swap1\n      0xffffffff\n      and\n      jump\t// in\n    tag_178:\n        /* \"TokenVesting.sol\":3652:3663  beneficiary */\n      0x03\n      0x00\n      swap1\n      sload\n      swap1\n      0x0100\n      exp\n      swap1\n      div\n      0xffffffffffffffffffffffffffffffffffffffff\n      and\n        /* \"TokenVesting.sol\":3637:3676  TokensReleased(beneficiary, unreleased) */\n      0xffffffffffffffffffffffffffffffffffffffff\n      and\n      0xc7798891864187665ac6dd119286e44ec13f014527aeeb2b8eb3fd413df93179\n        /* \"TokenVesting.sol\":3665:3675  unreleased */\n      dup3\n        /* \"TokenVesting.sol\":3637:3676  TokensReleased(beneficiary, unreleased) */\n      mload(0x40)\n      tag_180\n      swap2\n      swap1\n      tag_33\n      jump\t// in\n    tag_180:\n      mload(0x40)\n      dup1\n      swap2\n      sub\n      swap1\n      log2\n        /* \"TokenVesting.sol\":3288:3683  {... */\n      pop\n        /* \"@openzeppelin/contracts/security/ReentrancyGuard.sol\":2303:2323  _nonReentrantAfter() */\n      tag_181\n        /* \"@openzeppelin/contracts/security/ReentrancyGuard.sol\":2303:2321  _nonReentrantAfter */\n      tag_182\n        /* \"@openzeppelin/contracts/security/ReentrancyGuard.sol\":2303:2323  _nonReentrantAfter() */\n      jump\t// in\n    tag_181:\n        /* \"TokenVesting.sol\":3247:3683  function release() external nonReentrant {... */\n      jump\t// out\n        /* \"TokenVesting.sol\":612:633  bool public revocable */\n    tag_72:\n      0x09\n      0x00\n      swap1\n      sload\n      swap1\n      0x0100\n      exp\n      swap1\n      div\n      0xff\n      and\n      dup2\n      jump\t// out\n        /* \"@openzeppelin/contracts/access/Ownable.sol\":1638:1723  function owner() public view virtual returns (address) {... */\n    tag_75:\n        /* \"@openzeppelin/contracts/access/Ownable.sol\":1684:1691  address */\n      0x00\n        /* \"@openzeppelin/contracts/access/Ownable.sol\":1710:1716  _owner */\n      dup1\n      0x00\n      swap1\n      sload\n      swap1\n      0x0100\n      exp\n      swap1\n      div\n      0xffffffffffffffffffffffffffffffffffffffff\n      and\n        /* \"@openzeppelin/contracts/access/Ownable.sol\":1703:1716  return _owner */\n      swap1\n      pop\n        /* \"@openzeppelin/contracts/access/Ownable.sol\":1638:1723  function owner() public view virtual returns (address) {... */\n      swap1\n      jump\t// out\n        /* \"TokenVesting.sol\":583:606  uint256 public released */\n    tag_78:\n      sload(0x08)\n      dup2\n      jump\t// out\n        /* \"TokenVesting.sol\":8211:8426  function emergencyRecover(address _token, uint256 _amount) external onlyOwner {... */\n    tag_83:\n        /* \"@openzeppelin/contracts/access/Ownable.sol\":1531:1544  _checkOwner() */\n      tag_185\n        /* \"@openzeppelin/contracts/access/Ownable.sol\":1531:1542  _checkOwner */\n      tag_132\n        /* \"@openzeppelin/contracts/access/Ownable.sol\":1531:1544  _checkOwner() */\n      jump\t// in\n    tag_185:\n        /* \"TokenVesting.sol\":8325:8330  token */\n      0x02\n      0x00\n      swap1\n      sload\n      swap1\n      0x0100\n      exp\n      swap1\n      div\n      0xffffffffffffffffffffffffffffffffffffffff\n      and\n        /* \"TokenVesting.sol\":8307:8331  _token != address(token) */\n      0xffffffffffffffffffffffffffffffffffffffff\n      and\n        /* \"TokenVesting.sol\":8307:8313  _token */\n      dup3\n        /* \"TokenVesting.sol\":8307:8331  _token != address(token) */\n      0xffffffffffffffffffffffffffffffffffffffff\n      and\n      sub\n        /* \"TokenVesting.sol\":8299:8364  require(_token != address(token), \"Cannot recover vesting token\") */\n      tag_187\n      jumpi\n      mload(0x40)\n      0x08c379a000000000000000000000000000000000000000000000000000000000\n      dup2\n      mstore\n      0x04\n      add\n      tag_188\n      swap1\n      tag_189\n      jump\t// in\n    tag_188:\n      mload(0x40)\n      dup1\n      swap2\n      sub\n      swap1\n      revert\n    tag_187:\n        /* \"TokenVesting.sol\":8374:8419  IERC20(_token).safeTransfer(owner(), _amount) */\n      tag_190\n        /* \"TokenVesting.sol\":8402:8409  owner() */\n      tag_191\n        /* \"TokenVesting.sol\":8402:8407  owner */\n      tag_75\n        /* \"TokenVesting.sol\":8402:8409  owner() */\n      jump\t// in\n    tag_191:\n        /* \"TokenVesting.sol\":8411:8418  _amount */\n      dup3\n        /* \"TokenVesting.sol\":8381:8387  _token */\n      dup5\n        /* \"TokenVesting.sol\":8374:8401  IERC20(_token).safeTransfer */\n      0xffffffffffffffffffffffffffffffffffffffff\n      and\n      tag_179\n      swap1\n        /* \"TokenVesting.sol\":8374:8419  IERC20(_token).safeTransfer(owner(), _amount) */\n      swap3\n      swap2\n      swap1\n      0xffffffff\n      and\n      jump\t// in\n    tag_190:\n        /* \"TokenVesting.sol\":8211:8426  function emergencyRecover(address _token, uint256 _amount) external onlyOwner {... */\n      pop\n      pop\n      jump\t// out\n        /* \"TokenVesting.sol\":3759:4260  function revoke() external onlyOwner {... */\n    tag_85:\n        /* \"@openzeppelin/contracts/access/Ownable.sol\":1531:1544  _checkOwner() */\n      tag_193\n        /* \"@openzeppelin/contracts/access/Ownable.sol\":1531:1542  _checkOwner */\n      tag_132\n        /* \"@openzeppelin/contracts/access/Ownable.sol\":1531:1544  _checkOwner() */\n      jump\t// in\n    tag_193:\n        /* \"TokenVesting.sol\":3814:3823  revocable */\n      0x09\n      0x00\n      swap1\n      sload\n      swap1\n      0x0100\n      exp\n      swap1\n      div\n      0xff\n      and\n        /* \"TokenVesting.sol\":3806:3852  require(revocable, \"Vesting is not revocable\") */\n      tag_195\n      jumpi\n      mload(0x40)\n      0x08c379a000000000000000000000000000000000000000000000000000000000\n      dup2\n      mstore\n      0x04\n      add\n      tag_196\n      swap1\n      tag_197\n      jump\t// in\n    tag_196:\n      mload(0x40)\n      dup1\n      swap2\n      sub\n      swap1\n      revert\n    tag_195:\n        /* \"TokenVesting.sol\":3871:3878  revoked */\n      0x09\n      0x01\n      swap1\n      sload\n      swap1\n      0x0100\n      exp\n      swap1\n      div\n      0xff\n      and\n        /* \"TokenVesting.sol\":3870:3878  !revoked */\n      iszero\n        /* \"TokenVesting.sol\":3862:3906  require(!revoked, \"Vesting already revoked\") */\n      tag_198\n      jumpi\n      mload(0x40)\n      0x08c379a000000000000000000000000000000000000000000000000000000000\n      dup2\n      mstore\n      0x04\n      add\n      tag_199\n      swap1\n      tag_200\n      jump\t// in\n    tag_199:\n      mload(0x40)\n      dup1\n      swap2\n      sub\n      swap1\n      revert\n    tag_198:\n        /* \"TokenVesting.sol\":3927:3931  true */\n      0x01\n        /* \"TokenVesting.sol\":3917:3924  revoked */\n      0x09\n      0x01\n        /* \"TokenVesting.sol\":3917:3931  revoked = true */\n      0x0100\n      exp\n      dup2\n      sload\n      dup2\n      0xff\n      mul\n      not\n      and\n      swap1\n      dup4\n      iszero\n      iszero\n      mul\n      or\n      swap1\n      sstore\n      pop\n        /* \"TokenVesting.sol\":4022:4036  uint256 vested */\n      0x00\n        /* \"TokenVesting.sol\":4039:4053  vestedAmount() */\n      tag_201\n        /* \"TokenVesting.sol\":4039:4051  vestedAmount */\n      tag_55\n        /* \"TokenVesting.sol\":4039:4053  vestedAmount() */\n      jump\t// in\n    tag_201:\n        /* \"TokenVesting.sol\":4022:4053  uint256 vested = vestedAmount() */\n      swap1\n      pop\n        /* \"TokenVesting.sol\":4063:4079  uint256 unvested */\n      0x00\n        /* \"TokenVesting.sol\":4096:4102  vested */\n      dup2\n        /* \"TokenVesting.sol\":4082:4093  totalAmount */\n      sload(0x07)\n        /* \"TokenVesting.sol\":4082:4102  totalAmount - vested */\n      tag_202\n      swap2\n      swap1\n      tag_120\n      jump\t// in\n    tag_202:\n        /* \"TokenVesting.sol\":4063:4102  uint256 unvested = totalAmount - vested */\n      swap1\n      pop\n        /* \"TokenVesting.sol\":4136:4137  0 */\n      0x00\n        /* \"TokenVesting.sol\":4125:4133  unvested */\n      dup2\n        /* \"TokenVesting.sol\":4125:4137  unvested > 0 */\n      gt\n        /* \"TokenVesting.sol\":4121:4201  if (unvested > 0) {... */\n      iszero\n      tag_203\n      jumpi\n        /* \"TokenVesting.sol\":4153:4190  token.safeTransfer(owner(), unvested) */\n      tag_204\n        /* \"TokenVesting.sol\":4172:4179  owner() */\n      tag_205\n        /* \"TokenVesting.sol\":4172:4177  owner */\n      tag_75\n        /* \"TokenVesting.sol\":4172:4179  owner() */\n      jump\t// in\n    tag_205:\n        /* \"TokenVesting.sol\":4181:4189  unvested */\n      dup3\n        /* \"TokenVesting.sol\":4153:4158  token */\n      0x02\n      0x00\n      swap1\n      sload\n      swap1\n      0x0100\n      exp\n      swap1\n      div\n      0xffffffffffffffffffffffffffffffffffffffff\n      and\n        /* \"TokenVesting.sol\":4153:4171  token.safeTransfer */\n      0xffffffffffffffffffffffffffffffffffffffff\n      and\n      tag_179\n      swap1\n        /* \"TokenVesting.sol\":4153:4190  token.safeTransfer(owner(), unvested) */\n      swap3\n      swap2\n      swap1\n      0xffffffff\n      and\n      jump\t// in\n    tag_204:\n        /* \"TokenVesting.sol\":4121:4201  if (unvested > 0) {... */\n    tag_203:\n        /* \"TokenVesting.sol\":4231:4242  beneficiary */\n      0x03\n      0x00\n      swap1\n      sload\n      swap1\n      0x0100\n      exp\n      swap1\n      div\n      0xffffffffffffffffffffffffffffffffffffffff\n      and\n        /* \"TokenVesting.sol\":4216:4253  VestingRevoked(beneficiary, unvested) */\n      0xffffffffffffffffffffffffffffffffffffffff\n      and\n      0x57c76f5e278bfbd4eeb5207d287aa5a1a9e1113c65f7eefa540e379a2774d13b\n        /* \"TokenVesting.sol\":4244:4252  unvested */\n      dup3\n        /* \"TokenVesting.sol\":4216:4253  VestingRevoked(beneficiary, unvested) */\n      mload(0x40)\n      tag_206\n      swap2\n      swap1\n      tag_33\n      jump\t// in\n    tag_206:\n      mload(0x40)\n      dup1\n      swap2\n      sub\n      swap1\n      log2\n        /* \"TokenVesting.sol\":3796:4260  {... */\n      pop\n      pop\n        /* \"TokenVesting.sol\":3759:4260  function revoke() external onlyOwner {... */\n      jump\t// out\n        /* \"TokenVesting.sol\":496:516  uint256 public start */\n    tag_87:\n      sload(0x05)\n      dup2\n      jump\t// out\n        /* \"TokenVesting.sol\":5898:6425  function getVestingInfo() external view returns (... */\n    tag_90:\n        /* \"TokenVesting.sol\":5956:5970  address _token */\n      0x00\n        /* \"TokenVesting.sol\":5980:6000  address _beneficiary */\n      dup1\n        /* \"TokenVesting.sol\":6010:6030  uint256 _totalAmount */\n      0x00\n        /* \"TokenVesting.sol\":6040:6057  uint256 _released */\n      dup1\n        /* \"TokenVesting.sol\":6067:6081  uint256 _cliff */\n      0x00\n        /* \"TokenVesting.sol\":6091:6105  uint256 _start */\n      dup1\n        /* \"TokenVesting.sol\":6115:6132  uint256 _duration */\n      0x00\n        /* \"TokenVesting.sol\":6142:6157  bool _revocable */\n      dup1\n        /* \"TokenVesting.sol\":6167:6180  bool _revoked */\n      0x00\n        /* \"TokenVesting.sol\":6226:6231  token */\n      0x02\n      0x00\n      swap1\n      sload\n      swap1\n      0x0100\n      exp\n      swap1\n      div\n      0xffffffffffffffffffffffffffffffffffffffff\n      and\n        /* \"TokenVesting.sol\":6246:6257  beneficiary */\n      0x03\n      0x00\n      swap1\n      sload\n      swap1\n      0x0100\n      exp\n      swap1\n      div\n      0xffffffffffffffffffffffffffffffffffffffff\n      and\n        /* \"TokenVesting.sol\":6271:6282  totalAmount */\n      sload(0x07)\n        /* \"TokenVesting.sol\":6296:6304  released */\n      sload(0x08)\n        /* \"TokenVesting.sol\":6318:6323  cliff */\n      sload(0x04)\n        /* \"TokenVesting.sol\":6337:6342  start */\n      sload(0x05)\n        /* \"TokenVesting.sol\":6356:6364  duration */\n      sload(0x06)\n        /* \"TokenVesting.sol\":6378:6387  revocable */\n      0x09\n      0x00\n      swap1\n      sload\n      swap1\n      0x0100\n      exp\n      swap1\n      div\n      0xff\n      and\n        /* \"TokenVesting.sol\":6401:6408  revoked */\n      0x09\n      0x01\n      swap1\n      sload\n      swap1\n      0x0100\n      exp\n      swap1\n      div\n      0xff\n      and\n        /* \"TokenVesting.sol\":6197:6418  return (... */\n      swap9\n      pop\n      swap9\n      pop\n      swap9\n      pop\n      swap9\n      pop\n      swap9\n      pop\n      swap9\n      pop\n      swap9\n      pop\n      swap9\n      pop\n      swap9\n      pop\n        /* \"TokenVesting.sol\":5898:6425  function getVestingInfo() external view returns (... */\n      swap1\n      swap2\n      swap3\n      swap4\n      swap5\n      swap6\n      swap7\n      swap8\n      swap9\n      jump\t// out\n        /* \"TokenVesting.sol\":7913:8021  function hasEnded() external view returns (bool) {... */\n    tag_94:\n        /* \"TokenVesting.sol\":7956:7960  bool */\n      0x00\n        /* \"TokenVesting.sol\":8006:8014  duration */\n      sload(0x06)\n        /* \"TokenVesting.sol\":7998:8003  start */\n      sload(0x05)\n        /* \"TokenVesting.sol\":7998:8014  start + duration */\n      tag_209\n      swap2\n      swap1\n      tag_110\n      jump\t// in\n    tag_209:\n        /* \"TokenVesting.sol\":7979:7994  block.timestamp */\n      timestamp\n        /* \"TokenVesting.sol\":7979:8014  block.timestamp >= start + duration */\n      lt\n      iszero\n        /* \"TokenVesting.sol\":7972:8014  return block.timestamp >= start + duration */\n      swap1\n      pop\n        /* \"TokenVesting.sol\":7913:8021  function hasEnded() external view returns (bool) {... */\n      swap1\n      jump\t// out\n        /* \"TokenVesting.sol\":6752:7387  function getVestingStatus() external view returns (... */\n    tag_97:\n        /* \"TokenVesting.sol\":6812:6833  uint256 _vestedAmount */\n      0x00\n        /* \"TokenVesting.sol\":6843:6868  uint256 _releasableAmount */\n      dup1\n        /* \"TokenVesting.sol\":6878:6902  uint256 _remainingAmount */\n      0x00\n        /* \"TokenVesting.sol\":6912:6932  uint256 _timeElapsed */\n      dup1\n        /* \"TokenVesting.sol\":6942:6964  uint256 _timeRemaining */\n      0x00\n        /* \"TokenVesting.sol\":6981:7000  uint256 currentTime */\n      dup1\n        /* \"TokenVesting.sol\":7003:7018  block.timestamp */\n      timestamp\n        /* \"TokenVesting.sol\":6981:7018  uint256 currentTime = block.timestamp */\n      swap1\n      pop\n        /* \"TokenVesting.sol\":7028:7047  uint256 timeElapsed */\n      0x00\n        /* \"TokenVesting.sol\":7064:7069  start */\n      sload(0x05)\n        /* \"TokenVesting.sol\":7050:7061  currentTime */\n      dup3\n        /* \"TokenVesting.sol\":7050:7069  currentTime > start */\n      gt\n        /* \"TokenVesting.sol\":7050:7095  currentTime > start ? currentTime - start : 0 */\n      tag_211\n      jumpi\n        /* \"TokenVesting.sol\":7094:7095  0 */\n      0x00\n        /* \"TokenVesting.sol\":7050:7095  currentTime > start ? currentTime - start : 0 */\n      jump(tag_212)\n    tag_211:\n        /* \"TokenVesting.sol\":7086:7091  start */\n      sload(0x05)\n        /* \"TokenVesting.sol\":7072:7083  currentTime */\n      dup3\n        /* \"TokenVesting.sol\":7072:7091  currentTime - start */\n      tag_213\n      swap2\n      swap1\n      tag_120\n      jump\t// in\n    tag_213:\n        /* \"TokenVesting.sol\":7050:7095  currentTime > start ? currentTime - start : 0 */\n    tag_212:\n        /* \"TokenVesting.sol\":7028:7095  uint256 timeElapsed = currentTime > start ? currentTime - start : 0 */\n      swap1\n      pop\n        /* \"TokenVesting.sol\":7105:7126  uint256 timeRemaining */\n      0x00\n        /* \"TokenVesting.sol\":7151:7159  duration */\n      sload(0x06)\n        /* \"TokenVesting.sol\":7143:7148  start */\n      sload(0x05)\n        /* \"TokenVesting.sol\":7143:7159  start + duration */\n      tag_214\n      swap2\n      swap1\n      tag_110\n      jump\t// in\n    tag_214:\n        /* \"TokenVesting.sol\":7129:7140  currentTime */\n      dup4\n        /* \"TokenVesting.sol\":7129:7159  currentTime < start + duration */\n      lt\n        /* \"TokenVesting.sol\":7129:7196  currentTime < start + duration ? start + duration - currentTime : 0 */\n      tag_215\n      jumpi\n        /* \"TokenVesting.sol\":7195:7196  0 */\n      0x00\n        /* \"TokenVesting.sol\":7129:7196  currentTime < start + duration ? start + duration - currentTime : 0 */\n      jump(tag_216)\n    tag_215:\n        /* \"TokenVesting.sol\":7181:7192  currentTime */\n      dup3\n        /* \"TokenVesting.sol\":7170:7178  duration */\n      sload(0x06)\n        /* \"TokenVesting.sol\":7162:7167  start */\n      sload(0x05)\n        /* \"TokenVesting.sol\":7162:7178  start + duration */\n      tag_217\n      swap2\n      swap1\n      tag_110\n      jump\t// in\n    tag_217:\n        /* \"TokenVesting.sol\":7162:7192  start + duration - currentTime */\n      tag_218\n      swap2\n      swap1\n      tag_120\n      jump\t// in\n    tag_218:\n        /* \"TokenVesting.sol\":7129:7196  currentTime < start + duration ? start + duration - currentTime : 0 */\n    tag_216:\n        /* \"TokenVesting.sol\":7105:7196  uint256 timeRemaining = currentTime < start + duration ? start + duration - currentTime : 0 */\n      swap1\n      pop\n        /* \"TokenVesting.sol\":7236:7250  vestedAmount() */\n      tag_219\n        /* \"TokenVesting.sol\":7236:7248  vestedAmount */\n      tag_55\n        /* \"TokenVesting.sol\":7236:7250  vestedAmount() */\n      jump\t// in\n    tag_219:\n        /* \"TokenVesting.sol\":7264:7282  releasableAmount() */\n      tag_220\n        /* \"TokenVesting.sol\":7264:7280  releasableAmount */\n      tag_58\n        /* \"TokenVesting.sol\":7264:7282  releasableAmount() */\n      jump\t// in\n    tag_220:\n        /* \"TokenVesting.sol\":7310:7318  released */\n      sload(0x08)\n        /* \"TokenVesting.sol\":7296:7307  totalAmount */\n      sload(0x07)\n        /* \"TokenVesting.sol\":7296:7318  totalAmount - released */\n      tag_221\n      swap2\n      swap1\n      tag_120\n      jump\t// in\n    tag_221:\n        /* \"TokenVesting.sol\":7332:7343  timeElapsed */\n      dup5\n        /* \"TokenVesting.sol\":7357:7370  timeRemaining */\n      dup5\n        /* \"TokenVesting.sol\":7215:7380  return (... */\n      swap8\n      pop\n      swap8\n      pop\n      swap8\n      pop\n      swap8\n      pop\n      swap8\n      pop\n      pop\n      pop\n      pop\n        /* \"TokenVesting.sol\":6752:7387  function getVestingStatus() external view returns (... */\n      swap1\n      swap2\n      swap3\n      swap4\n      swap5\n      jump\t// out\n        /* \"@openzeppelin/contracts/access/Ownable.sol\":2543:2758  function transferOwnership(address newOwner) public virtual onlyOwner {... */\n    tag_103:\n        /* \"@openzeppelin/contracts/access/Ownable.sol\":1531:1544  _checkOwner() */\n      tag_223\n        /* \"@openzeppelin/contracts/access/Ownable.sol\":1531:1542  _checkOwner */\n      tag_132\n        /* \"@openzeppelin/contracts/access/Ownable.sol\":1531:1544  _checkOwner() */\n      jump\t// in\n    tag_223:\n        /* \"@openzeppelin/contracts/access/Ownable.sol\":2647:2648  0 */\n      0x00\n        /* \"@openzeppelin/contracts/access/Ownable.sol\":2627:2649  newOwner == address(0) */\n      0xffffffffffffffffffffffffffffffffffffffff\n      and\n        /* \"@openzeppelin/contracts/access/Ownable.sol\":2627:2635  newOwner */\n      dup2\n        /* \"@openzeppelin/contracts/access/Ownable.sol\":2627:2649  newOwner == address(0) */\n      0xffffffffffffffffffffffffffffffffffffffff\n      and\n      sub\n        /* \"@openzeppelin/contracts/access/Ownable.sol\":2623:2714  if (newOwner == address(0)) {... */\n      tag_225\n      jumpi\n        /* \"@openzeppelin/contracts/access/Ownable.sol\":2700:2701  0 */\n      0x00\n        /* \"@openzeppelin/contracts/access/Ownable.sol\":2672:2703  OwnableInvalidOwner(address(0)) */\n      mload(0x40)\n      0x1e4fbdf700000000000000000000000000000000000000000000000000000000\n      dup2\n      mstore\n      0x04\n      add\n      tag_226\n      swap2\n      swap1\n      tag_47\n      jump\t// in\n    tag_226:\n      mload(0x40)\n      dup1\n      swap2\n      sub\n      swap1\n      revert\n        /* \"@openzeppelin/contracts/access/Ownable.sol\":2623:2714  if (newOwner == address(0)) {... */\n    tag_225:\n        /* \"@openzeppelin/contracts/access/Ownable.sol\":2723:2751  _transferOwnership(newOwner) */\n      tag_227\n        /* \"@openzeppelin/contracts/access/Ownable.sol\":2742:2750  newOwner */\n      dup2\n        /* \"@openzeppelin/contracts/access/Ownable.sol\":2723:2741  _transferOwnership */\n      tag_135\n        /* \"@openzeppelin/contracts/access/Ownable.sol\":2723:2751  _transferOwnership(newOwner) */\n      jump\t// in\n    tag_227:\n        /* \"@openzeppelin/contracts/access/Ownable.sol\":2543:2758  function transferOwnership(address newOwner) public virtual onlyOwner {... */\n      pop\n      jump\t// out\n        /* \"TokenVesting.sol\":413:432  IERC20 public token */\n    tag_105:\n      0x02\n      0x00\n      swap1\n      sload\n      swap1\n      0x0100\n      exp\n      swap1\n      div\n      0xffffffffffffffffffffffffffffffffffffffff\n      and\n      dup2\n      jump\t// out\n        /* \"@openzeppelin/contracts/access/Ownable.sol\":1796:1958  function _checkOwner() internal view virtual {... */\n    tag_132:\n        /* \"@openzeppelin/contracts/access/Ownable.sol\":1866:1878  _msgSender() */\n      tag_229\n        /* \"@openzeppelin/contracts/access/Ownable.sol\":1866:1876  _msgSender */\n      tag_230\n        /* \"@openzeppelin/contracts/access/Ownable.sol\":1866:1878  _msgSender() */\n      jump\t// in\n    tag_229:\n        /* \"@openzeppelin/contracts/access/Ownable.sol\":1855:1878  owner() != _msgSender() */\n      0xffffffffffffffffffffffffffffffffffffffff\n      and\n        /* \"@openzeppelin/contracts/access/Ownable.sol\":1855:1862  owner() */\n      tag_231\n        /* \"@openzeppelin/contracts/access/Ownable.sol\":1855:1860  owner */\n      tag_75\n        /* \"@openzeppelin/contracts/access/Ownable.sol\":1855:1862  owner() */\n      jump\t// in\n    tag_231:\n        /* \"@openzeppelin/contracts/access/Ownable.sol\":1855:1878  owner() != _msgSender() */\n      0xffffffffffffffffffffffffffffffffffffffff\n      and\n      eq\n        /* \"@openzeppelin/contracts/access/Ownable.sol\":1851:1952  if (owner() != _msgSender()) {... */\n      tag_232\n      jumpi\n        /* \"@openzeppelin/contracts/access/Ownable.sol\":1928:1940  _msgSender() */\n      tag_233\n        /* \"@openzeppelin/contracts/access/Ownable.sol\":1928:1938  _msgSender */\n      tag_230\n        /* \"@openzeppelin/contracts/access/Ownable.sol\":1928:1940  _msgSender() */\n      jump\t// in\n    tag_233:\n        /* \"@openzeppelin/contracts/access/Ownable.sol\":1901:1941  OwnableUnauthorizedAccount(_msgSender()) */\n      mload(0x40)\n      0x118cdaa700000000000000000000000000000000000000000000000000000000\n      dup2\n      mstore\n      0x04\n      add\n      tag_234\n      swap2\n      swap1\n      tag_47\n      jump\t// in\n    tag_234:\n      mload(0x40)\n      dup1\n      swap2\n      sub\n      swap1\n      revert\n        /* \"@openzeppelin/contracts/access/Ownable.sol\":1851:1952  if (owner() != _msgSender()) {... */\n    tag_232:\n        /* \"@openzeppelin/contracts/access/Ownable.sol\":1796:1958  function _checkOwner() internal view virtual {... */\n      jump\t// out\n        /* \"@openzeppelin/contracts/access/Ownable.sol\":2912:3099  function _transferOwnership(address newOwner) internal virtual {... */\n    tag_135:\n        /* \"@openzeppelin/contracts/access/Ownable.sol\":2985:3001  address oldOwner */\n      0x00\n        /* \"@openzeppelin/contracts/access/Ownable.sol\":3004:3010  _owner */\n      dup1\n      0x00\n      swap1\n      sload\n      swap1\n      0x0100\n      exp\n      swap1\n      div\n      0xffffffffffffffffffffffffffffffffffffffff\n      and\n        /* \"@openzeppelin/contracts/access/Ownable.sol\":2985:3010  address oldOwner = _owner */\n      swap1\n      pop\n        /* \"@openzeppelin/contracts/access/Ownable.sol\":3029:3037  newOwner */\n      dup2\n        /* \"@openzeppelin/contracts/access/Ownable.sol\":3020:3026  _owner */\n      0x00\n      dup1\n        /* \"@openzeppelin/contracts/access/Ownable.sol\":3020:3037  _owner = newOwner */\n      0x0100\n      exp\n      dup2\n      sload\n      dup2\n      0xffffffffffffffffffffffffffffffffffffffff\n      mul\n      not\n      and\n      swap1\n      dup4\n      0xffffffffffffffffffffffffffffffffffffffff\n      and\n      mul\n      or\n      swap1\n      sstore\n      pop\n        /* \"@openzeppelin/contracts/access/Ownable.sol\":3083:3091  newOwner */\n      dup2\n        /* \"@openzeppelin/contracts/access/Ownable.sol\":3052:3092  OwnershipTransferred(oldOwner, newOwner) */\n      0xffffffffffffffffffffffffffffffffffffffff\n      and\n        /* \"@openzeppelin/contracts/access/Ownable.sol\":3073:3081  oldOwner */\n      dup2\n        /* \"@openzeppelin/contracts/access/Ownable.sol\":3052:3092  OwnershipTransferred(oldOwner, newOwner) */\n      0xffffffffffffffffffffffffffffffffffffffff\n      and\n      0x8be0079c531659141344cd1fd0a4f28419497f9722a3daafe3b4186f6b6457e0\n      mload(0x40)\n      mload(0x40)\n      dup1\n      swap2\n      sub\n      swap1\n      log3\n        /* \"@openzeppelin/contracts/access/Ownable.sol\":2975:3099  {... */\n      pop\n        /* \"@openzeppelin/contracts/access/Ownable.sol\":2912:3099  function _transferOwnership(address newOwner) internal virtual {... */\n      pop\n      jump\t// out\n        /* \"@openzeppelin/contracts/security/ReentrancyGuard.sol\":2336:2623  function _nonReentrantBefore() private {... */\n    tag_163:\n        /* \"@openzeppelin/contracts/security/ReentrancyGuard.sol\":1759:1760  2 */\n      0x02\n        /* \"@openzeppelin/contracts/security/ReentrancyGuard.sol\":2468:2475  _status */\n      sload(0x01)\n        /* \"@openzeppelin/contracts/security/ReentrancyGuard.sol\":2468:2487  _status != _ENTERED */\n      sub\n        /* \"@openzeppelin/contracts/security/ReentrancyGuard.sol\":2460:2523  require(_status != _ENTERED, \"ReentrancyGuard: reentrant call\") */\n      tag_237\n      jumpi\n      mload(0x40)\n      0x08c379a000000000000000000000000000000000000000000000000000000000\n      dup2\n      mstore\n      0x04\n      add\n      tag_238\n      swap1\n      tag_239\n      jump\t// in\n    tag_238:\n      mload(0x40)\n      dup1\n      swap2\n      sub\n      swap1\n      revert\n    tag_237:\n        /* \"@openzeppelin/contracts/security/ReentrancyGuard.sol\":1759:1760  2 */\n      0x02\n        /* \"@openzeppelin/contracts/security/ReentrancyGuard.sol\":2598:2605  _status */\n      0x01\n        /* \"@openzeppelin/contracts/security/ReentrancyGuard.sol\":2598:2616  _status = _ENTERED */\n      dup2\n      swap1\n      sstore\n      pop\n        /* \"@openzeppelin/contracts/security/ReentrancyGuard.sol\":2336:2623  function _nonReentrantBefore() private {... */\n      jump\t// out\n        /* \"@openzeppelin/contracts/token/ERC20/utils/SafeERC20.sol\":1219:1379  function safeTransfer(IERC20 token, address to, uint256 value) internal {... */\n    tag_179:\n        /* \"@openzeppelin/contracts/token/ERC20/utils/SafeERC20.sol\":1301:1372  _callOptionalReturn(token, abi.encodeCall(token.transfer, (to, value))) */\n      tag_241\n        /* \"@openzeppelin/contracts/token/ERC20/utils/SafeERC20.sol\":1321:1326  token */\n      dup4\n        /* \"@openzeppelin/contracts/token/ERC20/utils/SafeERC20.sol\":1343:1348  token */\n      dup5\n        /* \"@openzeppelin/contracts/token/ERC20/utils/SafeERC20.sol\":1343:1357  token.transfer */\n      0xffffffffffffffffffffffffffffffffffffffff\n      and\n      0xa9059cbb\n        /* \"@openzeppelin/contracts/token/ERC20/utils/SafeERC20.sol\":1360:1362  to */\n      dup6\n        /* \"@openzeppelin/contracts/token/ERC20/utils/SafeERC20.sol\":1364:1369  value */\n      dup6\n        /* \"@openzeppelin/contracts/token/ERC20/utils/SafeERC20.sol\":1328:1371  abi.encodeCall(token.transfer, (to, value)) */\n      add(0x24, mload(0x40))\n      tag_242\n      swap3\n      swap2\n      swap1\n      tag_243\n      jump\t// in\n    tag_242:\n      mload(0x40)\n      0x20\n      dup2\n      dup4\n      sub\n      sub\n      dup2\n      mstore\n      swap1\n      0x40\n      mstore\n      swap2\n      pop\n      0xe0\n      shl\n      0x20\n      dup3\n      add\n      dup1\n      mload\n      0xffffffffffffffffffffffffffffffffffffffffffffffffffffffff\n      dup4\n      dup2\n      dup4\n      and\n      or\n      dup4\n      mstore\n      pop\n      pop\n      pop\n      pop\n        /* \"@openzeppelin/contracts/token/ERC20/utils/SafeERC20.sol\":1301:1320  _callOptionalReturn */\n      tag_244\n        /* \"@openzeppelin/contracts/token/ERC20/utils/SafeERC20.sol\":1301:1372  _callOptionalReturn(token, abi.encodeCall(token.transfer, (to, value))) */\n      jump\t// in\n    tag_241:\n        /* \"@openzeppelin/contracts/token/ERC20/utils/SafeERC20.sol\":1219:1379  function safeTransfer(IERC20 token, address to, uint256 value) internal {... */\n      pop\n      pop\n      pop\n      jump\t// out\n        /* \"@openzeppelin/contracts/security/ReentrancyGuard.sol\":2629:2838  function _nonReentrantAfter() private {... */\n    tag_182:\n        /* \"@openzeppelin/contracts/security/ReentrancyGuard.sol\":1716:1717  1 */\n      0x01\n        /* \"@openzeppelin/contracts/security/ReentrancyGuard.sol\":2809:2816  _status */\n      dup1\n        /* \"@openzeppelin/contracts/security/ReentrancyGuard.sol\":2809:2831  _status = _NOT_ENTERED */\n      dup2\n      swap1\n      sstore\n      pop\n        /* \"@openzeppelin/contracts/security/ReentrancyGuard.sol\":2629:2838  function _nonReentrantAfter() private {... */\n      jump\t// out\n        /* \"@openzeppelin/contracts/utils/Context.sol\":656:752  function _msgSender() internal view virtual returns (address) {... */\n    tag_230:\n        /* \"@openzeppelin/contracts/utils/Context.sol\":709:716  address */\n      0x00\n        /* \"@openzeppelin/contracts/utils/Context.sol\":735:745  msg.sender */\n      caller\n        /* \"@openzeppelin/contracts/utils/Context.sol\":728:745  return msg.sender */\n      swap1\n      pop\n        /* \"@openzeppelin/contracts/utils/Context.sol\":656:752  function _msgSender() internal view virtual returns (address) {... */\n      swap1\n      jump\t// out\n        /* \"@openzeppelin/contracts/token/ERC20/utils/SafeERC20.sol\":8370:9090  function _callOptionalReturn(IERC20 token, bytes memory data) private {... */\n    tag_244:\n        /* \"@openzeppelin/contracts/token/ERC20/utils/SafeERC20.sol\":8450:8468  uint256 returnSize */\n      0x00\n        /* \"@openzeppelin/contracts/token/ERC20/utils/SafeERC20.sol\":8478:8497  uint256 returnValue */\n      dup1\n        /* \"@openzeppelin/contracts/token/ERC20/utils/SafeERC20.sol\":8616:8620  0x20 */\n      0x20\n        /* \"@openzeppelin/contracts/token/ERC20/utils/SafeERC20.sol\":8613:8614  0 */\n      0x00\n        /* \"@openzeppelin/contracts/token/ERC20/utils/SafeERC20.sol\":8606:8610  data */\n      dup5\n        /* \"@openzeppelin/contracts/token/ERC20/utils/SafeERC20.sol\":8600:8611  mload(data) */\n      mload\n        /* \"@openzeppelin/contracts/token/ERC20/utils/SafeERC20.sol\":8593:8597  0x20 */\n      0x20\n        /* \"@openzeppelin/contracts/token/ERC20/utils/SafeERC20.sol\":8587:8591  data */\n      dup7\n        /* \"@openzeppelin/contracts/token/ERC20/utils/SafeERC20.sol\":8583:8598  add(data, 0x20) */\n      add\n        /* \"@openzeppelin/contracts/token/ERC20/utils/SafeERC20.sol\":8580:8581  0 */\n      0x00\n        /* \"@openzeppelin/contracts/token/ERC20/utils/SafeERC20.sol\":8573:8578  token */\n      dup9\n        /* \"@openzeppelin/contracts/token/ERC20/utils/SafeERC20.sol\":8566:8571  gas() */\n      gas\n        /* \"@openzeppelin/contracts/token/ERC20/utils/SafeERC20.sol\":8561:8621  call(gas(), token, 0, add(data, 0x20), mload(data), 0, 0x20) */\n      call\n        /* \"@openzeppelin/contracts/token/ERC20/utils/SafeERC20.sol\":8673:8680  success */\n      dup1\n        /* \"@openzeppelin/contracts/token/ERC20/utils/SafeERC20.sol\":8663:8839  if iszero(success) {... */\n      tag_248\n      jumpi\n        /* \"@openzeppelin/contracts/token/ERC20/utils/SafeERC20.sol\":8717:8721  0x40 */\n      0x40\n        /* \"@openzeppelin/contracts/token/ERC20/utils/SafeERC20.sol\":8711:8722  mload(0x40) */\n      mload\n        /* \"@openzeppelin/contracts/token/ERC20/utils/SafeERC20.sol\":8762:8778  returndatasize() */\n      returndatasize\n        /* \"@openzeppelin/contracts/token/ERC20/utils/SafeERC20.sol\":8759:8760  0 */\n      0x00\n        /* \"@openzeppelin/contracts/token/ERC20/utils/SafeERC20.sol\":8754:8757  ptr */\n      dup3\n        /* \"@openzeppelin/contracts/token/ERC20/utils/SafeERC20.sol\":8739:8779  returndatacopy(ptr, 0, returndatasize()) */\n      returndatacopy\n        /* \"@openzeppelin/contracts/token/ERC20/utils/SafeERC20.sol\":8808:8824  returndatasize() */\n      returndatasize\n        /* \"@openzeppelin/contracts/token/ERC20/utils/SafeERC20.sol\":8803:8806  ptr */\n      dup2\n        /* \"@openzeppelin/contracts/token/ERC20/utils/SafeERC20.sol\":8796:8825  revert(ptr, returndatasize()) */\n      revert\n        /* \"@openzeppelin/contracts/token/ERC20/utils/SafeERC20.sol\":8663:8839  if iszero(success) {... */\n    tag_248:\n        /* \"@openzeppelin/contracts/token/ERC20/utils/SafeERC20.sol\":8866:8882  returndatasize() */\n      returndatasize\n        /* \"@openzeppelin/contracts/token/ERC20/utils/SafeERC20.sol\":8852:8882  returnSize := returndatasize() */\n      swap3\n      pop\n        /* \"@openzeppelin/contracts/token/ERC20/utils/SafeERC20.sol\":8916:8917  0 */\n      0x00\n        /* \"@openzeppelin/contracts/token/ERC20/utils/SafeERC20.sol\":8910:8918  mload(0) */\n      mload\n        /* \"@openzeppelin/contracts/token/ERC20/utils/SafeERC20.sol\":8895:8918  returnValue := mload(0) */\n      swap2\n      pop\n        /* \"@openzeppelin/contracts/token/ERC20/utils/SafeERC20.sol\":8532:8928  {... */\n      pop\n        /* \"@openzeppelin/contracts/token/ERC20/utils/SafeERC20.sol\":8956:8957  0 */\n      0x00\n        /* \"@openzeppelin/contracts/token/ERC20/utils/SafeERC20.sol\":8942:8952  returnSize */\n      dup3\n        /* \"@openzeppelin/contracts/token/ERC20/utils/SafeERC20.sol\":8942:8957  returnSize == 0 */\n      eq\n        /* \"@openzeppelin/contracts/token/ERC20/utils/SafeERC20.sol\":8942:9010  returnSize == 0 ? address(token).code.length == 0 : returnValue != 1 */\n      tag_249\n      jumpi\n        /* \"@openzeppelin/contracts/token/ERC20/utils/SafeERC20.sol\":9009:9010  1 */\n      0x01\n        /* \"@openzeppelin/contracts/token/ERC20/utils/SafeERC20.sol\":8994:9005  returnValue */\n      dup2\n        /* \"@openzeppelin/contracts/token/ERC20/utils/SafeERC20.sol\":8994:9010  returnValue != 1 */\n      eq\n      iszero\n        /* \"@openzeppelin/contracts/token/ERC20/utils/SafeERC20.sol\":8942:9010  returnSize == 0 ? address(token).code.length == 0 : returnValue != 1 */\n      jump(tag_250)\n    tag_249:\n        /* \"@openzeppelin/contracts/token/ERC20/utils/SafeERC20.sol\":8990:8991  0 */\n      0x00\n        /* \"@openzeppelin/contracts/token/ERC20/utils/SafeERC20.sol\":8968:8973  token */\n      dup5\n        /* \"@openzeppelin/contracts/token/ERC20/utils/SafeERC20.sol\":8960:8986  address(token).code.length */\n      0xffffffffffffffffffffffffffffffffffffffff\n      and\n      extcodesize\n        /* \"@openzeppelin/contracts/token/ERC20/utils/SafeERC20.sol\":8960:8991  address(token).code.length == 0 */\n      eq\n        /* \"@openzeppelin/contracts/token/ERC20/utils/SafeERC20.sol\":8942:9010  returnSize == 0 ? address(token).code.length == 0 : returnValue != 1 */\n    tag_250:\n        /* \"@openzeppelin/contracts/token/ERC20/utils/SafeERC20.sol\":8938:9084  if (returnSize == 0 ? address(token).code.length == 0 : returnValue != 1) {... */\n      iszero\n      tag_251\n      jumpi\n        /* \"@openzeppelin/contracts/token/ERC20/utils/SafeERC20.sol\":9066:9071  token */\n      dup4\n        /* \"@openzeppelin/contracts/token/ERC20/utils/SafeERC20.sol\":9033:9073  SafeERC20FailedOperation(address(token)) */\n      mload(0x40)\n      0x5274afe700000000000000000000000000000000000000000000000000000000\n      dup2\n      mstore\n      0x04\n      add\n      tag_252\n      swap2\n      swap1\n      tag_47\n      jump\t// in\n    tag_252:\n      mload(0x40)\n      dup1\n      swap2\n      sub\n      swap1\n      revert\n        /* \"@openzeppelin/contracts/token/ERC20/utils/SafeERC20.sol\":8938:9084  if (returnSize == 0 ? address(token).code.length == 0 : returnValue != 1) {... */\n    tag_251:\n        /* \"@openzeppelin/contracts/token/ERC20/utils/SafeERC20.sol\":8440:9090  {... */\n      pop\n      pop\n        /* \"@openzeppelin/contracts/token/ERC20/utils/SafeERC20.sol\":8370:9090  function _callOptionalReturn(IERC20 token, bytes memory data) private {... */\n      pop\n      pop\n      jump\t// out\n        /* \"#utility.yul\":7:84   */\n    tag_253:\n        /* \"#utility.yul\":44:51   */\n      0x00\n        /* \"#utility.yul\":73:78   */\n      dup2\n        /* \"#utility.yul\":62:78   */\n      swap1\n      pop\n        /* \"#utility.yul\":7:84   */\n      swap2\n      swap1\n      pop\n      jump\t// out\n        /* \"#utility.yul\":90:208   */\n    tag_254:\n        /* \"#utility.yul\":177:201   */\n      tag_308\n        /* \"#utility.yul\":195:200   */\n      dup2\n        /* \"#utility.yul\":177:201   */\n      tag_253\n      jump\t// in\n    tag_308:\n        /* \"#utility.yul\":172:175   */\n      dup3\n        /* \"#utility.yul\":165:202   */\n      mstore\n        /* \"#utility.yul\":90:208   */\n      pop\n      pop\n      jump\t// out\n        /* \"#utility.yul\":214:436   */\n    tag_33:\n        /* \"#utility.yul\":307:311   */\n      0x00\n        /* \"#utility.yul\":345:347   */\n      0x20\n        /* \"#utility.yul\":334:343   */\n      dup3\n        /* \"#utility.yul\":330:348   */\n      add\n        /* \"#utility.yul\":322:348   */\n      swap1\n      pop\n        /* \"#utility.yul\":358:429   */\n      tag_310\n        /* \"#utility.yul\":426:427   */\n      0x00\n        /* \"#utility.yul\":415:424   */\n      dup4\n        /* \"#utility.yul\":411:428   */\n      add\n        /* \"#utility.yul\":402:408   */\n      dup5\n        /* \"#utility.yul\":358:429   */\n      tag_254\n      jump\t// in\n    tag_310:\n        /* \"#utility.yul\":214:436   */\n      swap3\n      swap2\n      pop\n      pop\n      jump\t// out\n        /* \"#utility.yul\":442:532   */\n    tag_255:\n        /* \"#utility.yul\":476:483   */\n      0x00\n        /* \"#utility.yul\":519:524   */\n      dup2\n        /* \"#utility.yul\":512:525   */\n      iszero\n        /* \"#utility.yul\":505:526   */\n      iszero\n        /* \"#utility.yul\":494:526   */\n      swap1\n      pop\n        /* \"#utility.yul\":442:532   */\n      swap2\n      swap1\n      pop\n      jump\t// out\n        /* \"#utility.yul\":538:647   */\n    tag_256:\n        /* \"#utility.yul\":619:640   */\n      tag_313\n        /* \"#utility.yul\":634:639   */\n      dup2\n        /* \"#utility.yul\":619:640   */\n      tag_255\n      jump\t// in\n    tag_313:\n        /* \"#utility.yul\":614:617   */\n      dup3\n        /* \"#utility.yul\":607:641   */\n      mstore\n        /* \"#utility.yul\":538:647   */\n      pop\n      pop\n      jump\t// out\n        /* \"#utility.yul\":653:863   */\n    tag_43:\n        /* \"#utility.yul\":740:744   */\n      0x00\n        /* \"#utility.yul\":778:780   */\n      0x20\n        /* \"#utility.yul\":767:776   */\n      dup3\n        /* \"#utility.yul\":763:781   */\n      add\n        /* \"#utility.yul\":755:781   */\n      swap1\n      pop\n        /* \"#utility.yul\":791:856   */\n      tag_315\n        /* \"#utility.yul\":853:854   */\n      0x00\n        /* \"#utility.yul\":842:851   */\n      dup4\n        /* \"#utility.yul\":838:855   */\n      add\n        /* \"#utility.yul\":829:835   */\n      dup5\n        /* \"#utility.yul\":791:856   */\n      tag_256\n      jump\t// in\n    tag_315:\n        /* \"#utility.yul\":653:863   */\n      swap3\n      swap2\n      pop\n      pop\n      jump\t// out\n        /* \"#utility.yul\":869:995   */\n    tag_257:\n        /* \"#utility.yul\":906:913   */\n      0x00\n        /* \"#utility.yul\":946:988   */\n      0xffffffffffffffffffffffffffffffffffffffff\n        /* \"#utility.yul\":939:944   */\n      dup3\n        /* \"#utility.yul\":935:989   */\n      and\n        /* \"#utility.yul\":924:989   */\n      swap1\n      pop\n        /* \"#utility.yul\":869:995   */\n      swap2\n      swap1\n      pop\n      jump\t// out\n        /* \"#utility.yul\":1001:1097   */\n    tag_258:\n        /* \"#utility.yul\":1038:1045   */\n      0x00\n        /* \"#utility.yul\":1067:1091   */\n      tag_318\n        /* \"#utility.yul\":1085:1090   */\n      dup3\n        /* \"#utility.yul\":1067:1091   */\n      tag_257\n      jump\t// in\n    tag_318:\n        /* \"#utility.yul\":1056:1091   */\n      swap1\n      pop\n        /* \"#utility.yul\":1001:1097   */\n      swap2\n      swap1\n      pop\n      jump\t// out\n        /* \"#utility.yul\":1103:1221   */\n    tag_259:\n        /* \"#utility.yul\":1190:1214   */\n      tag_320\n        /* \"#utility.yul\":1208:1213   */\n      dup2\n        /* \"#utility.yul\":1190:1214   */\n      tag_258\n      jump\t// in\n    tag_320:\n        /* \"#utility.yul\":1185:1188   */\n      dup3\n        /* \"#utility.yul\":1178:1215   */\n      mstore\n        /* \"#utility.yul\":1103:1221   */\n      pop\n      pop\n      jump\t// out\n        /* \"#utility.yul\":1227:1449   */\n    tag_47:\n        /* \"#utility.yul\":1320:1324   */\n      0x00\n        /* \"#utility.yul\":1358:1360   */\n      0x20\n        /* \"#utility.yul\":1347:1356   */\n      dup3\n        /* \"#utility.yul\":1343:1361   */\n      add\n        /* \"#utility.yul\":1335:1361   */\n      swap1\n      pop\n        /* \"#utility.yul\":1371:1442   */\n      tag_322\n        /* \"#utility.yul\":1439:1440   */\n      0x00\n        /* \"#utility.yul\":1428:1437   */\n      dup4\n        /* \"#utility.yul\":1424:1441   */\n      add\n        /* \"#utility.yul\":1415:1421   */\n      dup5\n        /* \"#utility.yul\":1371:1442   */\n      tag_259\n      jump\t// in\n    tag_322:\n        /* \"#utility.yul\":1227:1449   */\n      swap3\n      swap2\n      pop\n      pop\n      jump\t// out\n        /* \"#utility.yul\":1536:1653   */\n    tag_261:\n        /* \"#utility.yul\":1645:1646   */\n      0x00\n        /* \"#utility.yul\":1642:1643   */\n      dup1\n        /* \"#utility.yul\":1635:1647   */\n      revert\n        /* \"#utility.yul\":1782:1904   */\n    tag_263:\n        /* \"#utility.yul\":1855:1879   */\n      tag_327\n        /* \"#utility.yul\":1873:1878   */\n      dup2\n        /* \"#utility.yul\":1855:1879   */\n      tag_258\n      jump\t// in\n    tag_327:\n        /* \"#utility.yul\":1848:1853   */\n      dup2\n        /* \"#utility.yul\":1845:1880   */\n      eq\n        /* \"#utility.yul\":1835:1898   */\n      tag_328\n      jumpi\n        /* \"#utility.yul\":1894:1895   */\n      0x00\n        /* \"#utility.yul\":1891:1892   */\n      dup1\n        /* \"#utility.yul\":1884:1896   */\n      revert\n        /* \"#utility.yul\":1835:1898   */\n    tag_328:\n        /* \"#utility.yul\":1782:1904   */\n      pop\n      jump\t// out\n        /* \"#utility.yul\":1910:2049   */\n    tag_264:\n        /* \"#utility.yul\":1956:1961   */\n      0x00\n        /* \"#utility.yul\":1994:2000   */\n      dup2\n        /* \"#utility.yul\":1981:2001   */\n      calldataload\n        /* \"#utility.yul\":1972:2001   */\n      swap1\n      pop\n        /* \"#utility.yul\":2010:2043   */\n      tag_330\n        /* \"#utility.yul\":2037:2042   */\n      dup2\n        /* \"#utility.yul\":2010:2043   */\n      tag_263\n      jump\t// in\n    tag_330:\n        /* \"#utility.yul\":1910:2049   */\n      swap3\n      swap2\n      pop\n      pop\n      jump\t// out\n        /* \"#utility.yul\":2055:2177   */\n    tag_265:\n        /* \"#utility.yul\":2128:2152   */\n      tag_332\n        /* \"#utility.yul\":2146:2151   */\n      dup2\n        /* \"#utility.yul\":2128:2152   */\n      tag_253\n      jump\t// in\n    tag_332:\n        /* \"#utility.yul\":2121:2126   */\n      dup2\n        /* \"#utility.yul\":2118:2153   */\n      eq\n        /* \"#utility.yul\":2108:2171   */\n      tag_333\n      jumpi\n        /* \"#utility.yul\":2167:2168   */\n      0x00\n        /* \"#utility.yul\":2164:2165   */\n      dup1\n        /* \"#utility.yul\":2157:2169   */\n      revert\n        /* \"#utility.yul\":2108:2171   */\n    tag_333:\n        /* \"#utility.yul\":2055:2177   */\n      pop\n      jump\t// out\n        /* \"#utility.yul\":2183:2322   */\n    tag_266:\n        /* \"#utility.yul\":2229:2234   */\n      0x00\n        /* \"#utility.yul\":2267:2273   */\n      dup2\n        /* \"#utility.yul\":2254:2274   */\n      calldataload\n        /* \"#utility.yul\":2245:2274   */\n      swap1\n      pop\n        /* \"#utility.yul\":2283:2316   */\n      tag_335\n        /* \"#utility.yul\":2310:2315   */\n      dup2\n        /* \"#utility.yul\":2283:2316   */\n      tag_265\n      jump\t// in\n    tag_335:\n        /* \"#utility.yul\":2183:2322   */\n      swap3\n      swap2\n      pop\n      pop\n      jump\t// out\n        /* \"#utility.yul\":2328:2444   */\n    tag_267:\n        /* \"#utility.yul\":2398:2419   */\n      tag_337\n        /* \"#utility.yul\":2413:2418   */\n      dup2\n        /* \"#utility.yul\":2398:2419   */\n      tag_255\n      jump\t// in\n    tag_337:\n        /* \"#utility.yul\":2391:2396   */\n      dup2\n        /* \"#utility.yul\":2388:2420   */\n      eq\n        /* \"#utility.yul\":2378:2438   */\n      tag_338\n      jumpi\n        /* \"#utility.yul\":2434:2435   */\n      0x00\n        /* \"#utility.yul\":2431:2432   */\n      dup1\n        /* \"#utility.yul\":2424:2436   */\n      revert\n        /* \"#utility.yul\":2378:2438   */\n    tag_338:\n        /* \"#utility.yul\":2328:2444   */\n      pop\n      jump\t// out\n        /* \"#utility.yul\":2450:2583   */\n    tag_268:\n        /* \"#utility.yul\":2493:2498   */\n      0x00\n        /* \"#utility.yul\":2531:2537   */\n      dup2\n        /* \"#utility.yul\":2518:2538   */\n      calldataload\n        /* \"#utility.yul\":2509:2538   */\n      swap1\n      pop\n        /* \"#utility.yul\":2547:2577   */\n      tag_340\n        /* \"#utility.yul\":2571:2576   */\n      dup2\n        /* \"#utility.yul\":2547:2577   */\n      tag_267\n      jump\t// in\n    tag_340:\n        /* \"#utility.yul\":2450:2583   */\n      swap3\n      swap2\n      pop\n      pop\n      jump\t// out\n        /* \"#utility.yul\":2589:3786   */\n    tag_67:\n        /* \"#utility.yul\":2699:2705   */\n      0x00\n        /* \"#utility.yul\":2707:2713   */\n      dup1\n        /* \"#utility.yul\":2715:2721   */\n      0x00\n        /* \"#utility.yul\":2723:2729   */\n      dup1\n        /* \"#utility.yul\":2731:2737   */\n      0x00\n        /* \"#utility.yul\":2739:2745   */\n      dup1\n        /* \"#utility.yul\":2747:2753   */\n      0x00\n        /* \"#utility.yul\":2796:2799   */\n      0xe0\n        /* \"#utility.yul\":2784:2793   */\n      dup9\n        /* \"#utility.yul\":2775:2782   */\n      dup11\n        /* \"#utility.yul\":2771:2794   */\n      sub\n        /* \"#utility.yul\":2767:2800   */\n      slt\n        /* \"#utility.yul\":2764:2884   */\n      iszero\n      tag_342\n      jumpi\n        /* \"#utility.yul\":2803:2882   */\n      tag_343\n      tag_261\n      jump\t// in\n    tag_343:\n        /* \"#utility.yul\":2764:2884   */\n    tag_342:\n        /* \"#utility.yul\":2923:2924   */\n      0x00\n        /* \"#utility.yul\":2948:3001   */\n      tag_344\n        /* \"#utility.yul\":2993:3000   */\n      dup11\n        /* \"#utility.yul\":2984:2990   */\n      dup3\n        /* \"#utility.yul\":2973:2982   */\n      dup12\n        /* \"#utility.yul\":2969:2991   */\n      add\n        /* \"#utility.yul\":2948:3001   */\n      tag_264\n      jump\t// in\n    tag_344:\n        /* \"#utility.yul\":2938:3001   */\n      swap8\n      pop\n        /* \"#utility.yul\":2894:3011   */\n      pop\n        /* \"#utility.yul\":3050:3052   */\n      0x20\n        /* \"#utility.yul\":3076:3129   */\n      tag_345\n        /* \"#utility.yul\":3121:3128   */\n      dup11\n        /* \"#utility.yul\":3112:3118   */\n      dup3\n        /* \"#utility.yul\":3101:3110   */\n      dup12\n        /* \"#utility.yul\":3097:3119   */\n      add\n        /* \"#utility.yul\":3076:3129   */\n      tag_264\n      jump\t// in\n    tag_345:\n        /* \"#utility.yul\":3066:3129   */\n      swap7\n      pop\n        /* \"#utility.yul\":3021:3139   */\n      pop\n        /* \"#utility.yul\":3178:3180   */\n      0x40\n        /* \"#utility.yul\":3204:3257   */\n      tag_346\n        /* \"#utility.yul\":3249:3256   */\n      dup11\n        /* \"#utility.yul\":3240:3246   */\n      dup3\n        /* \"#utility.yul\":3229:3238   */\n      dup12\n        /* \"#utility.yul\":3225:3247   */\n      add\n        /* \"#utility.yul\":3204:3257   */\n      tag_266\n      jump\t// in\n    tag_346:\n        /* \"#utility.yul\":3194:3257   */\n      swap6\n      pop\n        /* \"#utility.yul\":3149:3267   */\n      pop\n        /* \"#utility.yul\":3306:3308   */\n      0x60\n        /* \"#utility.yul\":3332:3385   */\n      tag_347\n        /* \"#utility.yul\":3377:3384   */\n      dup11\n        /* \"#utility.yul\":3368:3374   */\n      dup3\n        /* \"#utility.yul\":3357:3366   */\n      dup12\n        /* \"#utility.yul\":3353:3375   */\n      add\n        /* \"#utility.yul\":3332:3385   */\n      tag_266\n      jump\t// in\n    tag_347:\n        /* \"#utility.yul\":3322:3385   */\n      swap5\n      pop\n        /* \"#utility.yul\":3277:3395   */\n      pop\n        /* \"#utility.yul\":3434:3437   */\n      0x80\n        /* \"#utility.yul\":3461:3514   */\n      tag_348\n        /* \"#utility.yul\":3506:3513   */\n      dup11\n        /* \"#utility.yul\":3497:3503   */\n      dup3\n        /* \"#utility.yul\":3486:3495   */\n      dup12\n        /* \"#utility.yul\":3482:3504   */\n      add\n        /* \"#utility.yul\":3461:3514   */\n      tag_266\n      jump\t// in\n    tag_348:\n        /* \"#utility.yul\":3451:3514   */\n      swap4\n      pop\n        /* \"#utility.yul\":3405:3524   */\n      pop\n        /* \"#utility.yul\":3563:3566   */\n      0xa0\n        /* \"#utility.yul\":3590:3640   */\n      tag_349\n        /* \"#utility.yul\":3632:3639   */\n      dup11\n        /* \"#utility.yul\":3623:3629   */\n      dup3\n        /* \"#utility.yul\":3612:3621   */\n      dup12\n        /* \"#utility.yul\":3608:3630   */\n      add\n        /* \"#utility.yul\":3590:3640   */\n      tag_268\n      jump\t// in\n    tag_349:\n        /* \"#utility.yul\":3580:3640   */\n      swap3\n      pop\n        /* \"#utility.yul\":3534:3650   */\n      pop\n        /* \"#utility.yul\":3689:3692   */\n      0xc0\n        /* \"#utility.yul\":3716:3769   */\n      tag_350\n        /* \"#utility.yul\":3761:3768   */\n      dup11\n        /* \"#utility.yul\":3752:3758   */\n      dup3\n        /* \"#utility.yul\":3741:3750   */\n      dup12\n        /* \"#utility.yul\":3737:3759   */\n      add\n        /* \"#utility.yul\":3716:3769   */\n      tag_264\n      jump\t// in\n    tag_350:\n        /* \"#utility.yul\":3706:3769   */\n      swap2\n      pop\n        /* \"#utility.yul\":3660:3779   */\n      pop\n        /* \"#utility.yul\":2589:3786   */\n      swap3\n      swap6\n      swap9\n      swap2\n      swap5\n      swap8\n      pop\n      swap3\n      swap6\n      pop\n      jump\t// out\n        /* \"#utility.yul\":3792:4266   */\n    tag_82:\n        /* \"#utility.yul\":3860:3866   */\n      0x00\n        /* \"#utility.yul\":3868:3874   */\n      dup1\n        /* \"#utility.yul\":3917:3919   */\n      0x40\n        /* \"#utility.yul\":3905:3914   */\n      dup4\n        /* \"#utility.yul\":3896:3903   */\n      dup6\n        /* \"#utility.yul\":3892:3915   */\n      sub\n        /* \"#utility.yul\":3888:3920   */\n      slt\n        /* \"#utility.yul\":3885:4004   */\n      iszero\n      tag_352\n      jumpi\n        /* \"#utility.yul\":3923:4002   */\n      tag_353\n      tag_261\n      jump\t// in\n    tag_353:\n        /* \"#utility.yul\":3885:4004   */\n    tag_352:\n        /* \"#utility.yul\":4043:4044   */\n      0x00\n        /* \"#utility.yul\":4068:4121   */\n      tag_354\n        /* \"#utility.yul\":4113:4120   */\n      dup6\n        /* \"#utility.yul\":4104:4110   */\n      dup3\n        /* \"#utility.yul\":4093:4102   */\n      dup7\n        /* \"#utility.yul\":4089:4111   */\n      add\n        /* \"#utility.yul\":4068:4121   */\n      tag_264\n      jump\t// in\n    tag_354:\n        /* \"#utility.yul\":4058:4121   */\n      swap3\n      pop\n        /* \"#utility.yul\":4014:4131   */\n      pop\n        /* \"#utility.yul\":4170:4172   */\n      0x20\n        /* \"#utility.yul\":4196:4249   */\n      tag_355\n        /* \"#utility.yul\":4241:4248   */\n      dup6\n        /* \"#utility.yul\":4232:4238   */\n      dup3\n        /* \"#utility.yul\":4221:4230   */\n      dup7\n        /* \"#utility.yul\":4217:4239   */\n      add\n        /* \"#utility.yul\":4196:4249   */\n      tag_266\n      jump\t// in\n    tag_355:\n        /* \"#utility.yul\":4186:4249   */\n      swap2\n      pop\n        /* \"#utility.yul\":4141:4259   */\n      pop\n        /* \"#utility.yul\":3792:4266   */\n      swap3\n      pop\n      swap3\n      swap1\n      pop\n      jump\t// out\n        /* \"#utility.yul\":4272:5356   */\n    tag_92:\n        /* \"#utility.yul\":4577:4581   */\n      0x00\n        /* \"#utility.yul\":4615:4618   */\n      0x0120\n        /* \"#utility.yul\":4604:4613   */\n      dup3\n        /* \"#utility.yul\":4600:4619   */\n      add\n        /* \"#utility.yul\":4592:4619   */\n      swap1\n      pop\n        /* \"#utility.yul\":4629:4700   */\n      tag_357\n        /* \"#utility.yul\":4697:4698   */\n      0x00\n        /* \"#utility.yul\":4686:4695   */\n      dup4\n        /* \"#utility.yul\":4682:4699   */\n      add\n        /* \"#utility.yul\":4673:4679   */\n      dup13\n        /* \"#utility.yul\":4629:4700   */\n      tag_259\n      jump\t// in\n    tag_357:\n        /* \"#utility.yul\":4710:4782   */\n      tag_358\n        /* \"#utility.yul\":4778:4780   */\n      0x20\n        /* \"#utility.yul\":4767:4776   */\n      dup4\n        /* \"#utility.yul\":4763:4781   */\n      add\n        /* \"#utility.yul\":4754:4760   */\n      dup12\n        /* \"#utility.yul\":4710:4782   */\n      tag_259\n      jump\t// in\n    tag_358:\n        /* \"#utility.yul\":4792:4864   */\n      tag_359\n        /* \"#utility.yul\":4860:4862   */\n      0x40\n        /* \"#utility.yul\":4849:4858   */\n      dup4\n        /* \"#utility.yul\":4845:4863   */\n      add\n        /* \"#utility.yul\":4836:4842   */\n      dup11\n        /* \"#utility.yul\":4792:4864   */\n      tag_254\n      jump\t// in\n    tag_359:\n        /* \"#utility.yul\":4874:4946   */\n      tag_360\n        /* \"#utility.yul\":4942:4944   */\n      0x60\n        /* \"#utility.yul\":4931:4940   */\n      dup4\n        /* \"#utility.yul\":4927:4945   */\n      add\n        /* \"#utility.yul\":4918:4924   */\n      dup10\n        /* \"#utility.yul\":4874:4946   */\n      tag_254\n      jump\t// in\n    tag_360:\n        /* \"#utility.yul\":4956:5029   */\n      tag_361\n        /* \"#utility.yul\":5024:5027   */\n      0x80\n        /* \"#utility.yul\":5013:5022   */\n      dup4\n        /* \"#utility.yul\":5009:5028   */\n      add\n        /* \"#utility.yul\":5000:5006   */\n      dup9\n        /* \"#utility.yul\":4956:5029   */\n      tag_254\n      jump\t// in\n    tag_361:\n        /* \"#utility.yul\":5039:5112   */\n      tag_362\n        /* \"#utility.yul\":5107:5110   */\n      0xa0\n        /* \"#utility.yul\":5096:5105   */\n      dup4\n        /* \"#utility.yul\":5092:5111   */\n      add\n        /* \"#utility.yul\":5083:5089   */\n      dup8\n        /* \"#utility.yul\":5039:5112   */\n      tag_254\n      jump\t// in\n    tag_362:\n        /* \"#utility.yul\":5122:5195   */\n      tag_363\n        /* \"#utility.yul\":5190:5193   */\n      0xc0\n        /* \"#utility.yul\":5179:5188   */\n      dup4\n        /* \"#utility.yul\":5175:5194   */\n      add\n        /* \"#utility.yul\":5166:5172   */\n      dup7\n        /* \"#utility.yul\":5122:5195   */\n      tag_254\n      jump\t// in\n    tag_363:\n        /* \"#utility.yul\":5205:5272   */\n      tag_364\n        /* \"#utility.yul\":5267:5270   */\n      0xe0\n        /* \"#utility.yul\":5256:5265   */\n      dup4\n        /* \"#utility.yul\":5252:5271   */\n      add\n        /* \"#utility.yul\":5243:5249   */\n      dup6\n        /* \"#utility.yul\":5205:5272   */\n      tag_256\n      jump\t// in\n    tag_364:\n        /* \"#utility.yul\":5282:5349   */\n      tag_365\n        /* \"#utility.yul\":5344:5347   */\n      0x0100\n        /* \"#utility.yul\":5333:5342   */\n      dup4\n        /* \"#utility.yul\":5329:5348   */\n      add\n        /* \"#utility.yul\":5320:5326   */\n      dup5\n        /* \"#utility.yul\":5282:5349   */\n      tag_256\n      jump\t// in\n    tag_365:\n        /* \"#utility.yul\":4272:5356   */\n      swap11\n      swap10\n      pop\n      pop\n      pop\n      pop\n      pop\n      pop\n      pop\n      pop\n      pop\n      pop\n      jump\t// out\n        /* \"#utility.yul\":5362:6026   */\n    tag_99:\n        /* \"#utility.yul\":5567:5571   */\n      0x00\n        /* \"#utility.yul\":5605:5608   */\n      0xa0\n        /* \"#utility.yul\":5594:5603   */\n      dup3\n        /* \"#utility.yul\":5590:5609   */\n      add\n        /* \"#utility.yul\":5582:5609   */\n      swap1\n      pop\n        /* \"#utility.yul\":5619:5690   */\n      tag_367\n        /* \"#utility.yul\":5687:5688   */\n      0x00\n        /* \"#utility.yul\":5676:5685   */\n      dup4\n        /* \"#utility.yul\":5672:5689   */\n      add\n        /* \"#utility.yul\":5663:5669   */\n      dup9\n        /* \"#utility.yul\":5619:5690   */\n      tag_254\n      jump\t// in\n    tag_367:\n        /* \"#utility.yul\":5700:5772   */\n      tag_368\n        /* \"#utility.yul\":5768:5770   */\n      0x20\n        /* \"#utility.yul\":5757:5766   */\n      dup4\n        /* \"#utility.yul\":5753:5771   */\n      add\n        /* \"#utility.yul\":5744:5750   */\n      dup8\n        /* \"#utility.yul\":5700:5772   */\n      tag_254\n      jump\t// in\n    tag_368:\n        /* \"#utility.yul\":5782:5854   */\n      tag_369\n        /* \"#utility.yul\":5850:5852   */\n      0x40\n        /* \"#utility.yul\":5839:5848   */\n      dup4\n        /* \"#utility.yul\":5835:5853   */\n      add\n        /* \"#utility.yul\":5826:5832   */\n      dup7\n        /* \"#utility.yul\":5782:5854   */\n      tag_254\n      jump\t// in\n    tag_369:\n        /* \"#utility.yul\":5864:5936   */\n      tag_370\n        /* \"#utility.yul\":5932:5934   */\n      0x60\n        /* \"#utility.yul\":5921:5930   */\n      dup4\n        /* \"#utility.yul\":5917:5935   */\n      add\n        /* \"#utility.yul\":5908:5914   */\n      dup6\n        /* \"#utility.yul\":5864:5936   */\n      tag_254\n      jump\t// in\n    tag_370:\n        /* \"#utility.yul\":5946:6019   */\n      tag_371\n        /* \"#utility.yul\":6014:6017   */\n      0x80\n        /* \"#utility.yul\":6003:6012   */\n      dup4\n        /* \"#utility.yul\":5999:6018   */\n      add\n        /* \"#utility.yul\":5990:5996   */\n      dup5\n        /* \"#utility.yul\":5946:6019   */\n      tag_254\n      jump\t// in\n    tag_371:\n        /* \"#utility.yul\":5362:6026   */\n      swap7\n      swap6\n      pop\n      pop\n      pop\n      pop\n      pop\n      pop\n      jump\t// out\n        /* \"#utility.yul\":6032:6361   */\n    tag_102:\n        /* \"#utility.yul\":6091:6097   */\n      0x00\n        /* \"#utility.yul\":6140:6142   */\n      0x20\n        /* \"#utility.yul\":6128:6137   */\n      dup3\n        /* \"#utility.yul\":6119:6126   */\n      dup5\n        /* \"#utility.yul\":6115:6138   */\n      sub\n        /* \"#utility.yul\":6111:6143   */\n      slt\n        /* \"#utility.yul\":6108:6227   */\n      iszero\n      tag_373\n      jumpi\n        /* \"#utility.yul\":6146:6225   */\n      tag_374\n      tag_261\n      jump\t// in\n    tag_374:\n        /* \"#utility.yul\":6108:6227   */\n    tag_373:\n        /* \"#utility.yul\":6266:6267   */\n      0x00\n        /* \"#utility.yul\":6291:6344   */\n      tag_375\n        /* \"#utility.yul\":6336:6343   */\n      dup5\n        /* \"#utility.yul\":6327:6333   */\n      dup3\n        /* \"#utility.yul\":6316:6325   */\n      dup6\n        /* \"#utility.yul\":6312:6334   */\n      add\n        /* \"#utility.yul\":6291:6344   */\n      tag_264\n      jump\t// in\n    tag_375:\n        /* \"#utility.yul\":6281:6344   */\n      swap2\n      pop\n        /* \"#utility.yul\":6237:6354   */\n      pop\n        /* \"#utility.yul\":6032:6361   */\n      swap3\n      swap2\n      pop\n      pop\n      jump\t// out\n        /* \"#utility.yul\":6367:6427   */\n    tag_269:\n        /* \"#utility.yul\":6395:6398   */\n      0x00\n        /* \"#utility.yul\":6416:6421   */\n      dup2\n        /* \"#utility.yul\":6409:6421   */\n      swap1\n      pop\n        /* \"#utility.yul\":6367:6427   */\n      swap2\n      swap1\n      pop\n      jump\t// out\n        /* \"#utility.yul\":6433:6575   */\n    tag_270:\n        /* \"#utility.yul\":6483:6492   */\n      0x00\n        /* \"#utility.yul\":6516:6569   */\n      tag_378\n        /* \"#utility.yul\":6534:6568   */\n      tag_379\n        /* \"#utility.yul\":6543:6567   */\n      tag_380\n        /* \"#utility.yul\":6561:6566   */\n      dup5\n        /* \"#utility.yul\":6543:6567   */\n      tag_257\n      jump\t// in\n    tag_380:\n        /* \"#utility.yul\":6534:6568   */\n      tag_269\n      jump\t// in\n    tag_379:\n        /* \"#utility.yul\":6516:6569   */\n      tag_257\n      jump\t// in\n    tag_378:\n        /* \"#utility.yul\":6503:6569   */\n      swap1\n      pop\n        /* \"#utility.yul\":6433:6575   */\n      swap2\n      swap1\n      pop\n      jump\t// out\n        /* \"#utility.yul\":6581:6707   */\n    tag_271:\n        /* \"#utility.yul\":6631:6640   */\n      0x00\n        /* \"#utility.yul\":6664:6701   */\n      tag_382\n        /* \"#utility.yul\":6695:6700   */\n      dup3\n        /* \"#utility.yul\":6664:6701   */\n      tag_270\n      jump\t// in\n    tag_382:\n        /* \"#utility.yul\":6651:6701   */\n      swap1\n      pop\n        /* \"#utility.yul\":6581:6707   */\n      swap2\n      swap1\n      pop\n      jump\t// out\n        /* \"#utility.yul\":6713:6853   */\n    tag_272:\n        /* \"#utility.yul\":6777:6786   */\n      0x00\n        /* \"#utility.yul\":6810:6847   */\n      tag_384\n        /* \"#utility.yul\":6841:6846   */\n      dup3\n        /* \"#utility.yul\":6810:6847   */\n      tag_271\n      jump\t// in\n    tag_384:\n        /* \"#utility.yul\":6797:6847   */\n      swap1\n      pop\n        /* \"#utility.yul\":6713:6853   */\n      swap2\n      swap1\n      pop\n      jump\t// out\n        /* \"#utility.yul\":6859:7018   */\n    tag_273:\n        /* \"#utility.yul\":6960:7011   */\n      tag_386\n        /* \"#utility.yul\":7005:7010   */\n      dup2\n        /* \"#utility.yul\":6960:7011   */\n      tag_272\n      jump\t// in\n    tag_386:\n        /* \"#utility.yul\":6955:6958   */\n      dup3\n        /* \"#utility.yul\":6948:7012   */\n      mstore\n        /* \"#utility.yul\":6859:7018   */\n      pop\n      pop\n      jump\t// out\n        /* \"#utility.yul\":7024:7274   */\n    tag_107:\n        /* \"#utility.yul\":7131:7135   */\n      0x00\n        /* \"#utility.yul\":7169:7171   */\n      0x20\n        /* \"#utility.yul\":7158:7167   */\n      dup3\n        /* \"#utility.yul\":7154:7172   */\n      add\n        /* \"#utility.yul\":7146:7172   */\n      swap1\n      pop\n        /* \"#utility.yul\":7182:7267   */\n      tag_388\n        /* \"#utility.yul\":7264:7265   */\n      0x00\n        /* \"#utility.yul\":7253:7262   */\n      dup4\n        /* \"#utility.yul\":7249:7266   */\n      add\n        /* \"#utility.yul\":7240:7246   */\n      dup5\n        /* \"#utility.yul\":7182:7267   */\n      tag_273\n      jump\t// in\n    tag_388:\n        /* \"#utility.yul\":7024:7274   */\n      swap3\n      swap2\n      pop\n      pop\n      jump\t// out\n        /* \"#utility.yul\":7280:7460   */\n    tag_274:\n        /* \"#utility.yul\":7328:7405   */\n      0x4e487b7100000000000000000000000000000000000000000000000000000000\n        /* \"#utility.yul\":7325:7326   */\n      0x00\n        /* \"#utility.yul\":7318:7406   */\n      mstore\n        /* \"#utility.yul\":7425:7429   */\n      0x11\n        /* \"#utility.yul\":7422:7423   */\n      0x04\n        /* \"#utility.yul\":7415:7430   */\n      mstore\n        /* \"#utility.yul\":7449:7453   */\n      0x24\n        /* \"#utility.yul\":7446:7447   */\n      0x00\n        /* \"#utility.yul\":7439:7454   */\n      revert\n        /* \"#utility.yul\":7466:7657   */\n    tag_110:\n        /* \"#utility.yul\":7506:7509   */\n      0x00\n        /* \"#utility.yul\":7525:7545   */\n      tag_391\n        /* \"#utility.yul\":7543:7544   */\n      dup3\n        /* \"#utility.yul\":7525:7545   */\n      tag_253\n      jump\t// in\n    tag_391:\n        /* \"#utility.yul\":7520:7545   */\n      swap2\n      pop\n        /* \"#utility.yul\":7559:7579   */\n      tag_392\n        /* \"#utility.yul\":7577:7578   */\n      dup4\n        /* \"#utility.yul\":7559:7579   */\n      tag_253\n      jump\t// in\n    tag_392:\n        /* \"#utility.yul\":7554:7579   */\n      swap3\n      pop\n        /* \"#utility.yul\":7602:7603   */\n      dup3\n        /* \"#utility.yul\":7599:7600   */\n      dup3\n        /* \"#utility.yul\":7595:7604   */\n      add\n        /* \"#utility.yul\":7588:7604   */\n      swap1\n      pop\n        /* \"#utility.yul\":7623:7626   */\n      dup1\n        /* \"#utility.yul\":7620:7621   */\n      dup3\n        /* \"#utility.yul\":7617:7627   */\n      gt\n        /* \"#utility.yul\":7614:7650   */\n      iszero\n      tag_393\n      jumpi\n        /* \"#utility.yul\":7630:7648   */\n      tag_394\n      tag_274\n      jump\t// in\n    tag_394:\n        /* \"#utility.yul\":7614:7650   */\n    tag_393:\n        /* \"#utility.yul\":7466:7657   */\n      swap3\n      swap2\n      pop\n      pop\n      jump\t// out\n        /* \"#utility.yul\":7663:7857   */\n    tag_120:\n        /* \"#utility.yul\":7703:7707   */\n      0x00\n        /* \"#utility.yul\":7723:7743   */\n      tag_396\n        /* \"#utility.yul\":7741:7742   */\n      dup3\n        /* \"#utility.yul\":7723:7743   */\n      tag_253\n      jump\t// in\n    tag_396:\n        /* \"#utility.yul\":7718:7743   */\n      swap2\n      pop\n        /* \"#utility.yul\":7757:7777   */\n      tag_397\n        /* \"#utility.yul\":7775:7776   */\n      dup4\n        /* \"#utility.yul\":7757:7777   */\n      tag_253\n      jump\t// in\n    tag_397:\n        /* \"#utility.yul\":7752:7777   */\n      swap3\n      pop\n        /* \"#utility.yul\":7801:7802   */\n      dup3\n        /* \"#utility.yul\":7798:7799   */\n      dup3\n        /* \"#utility.yul\":7794:7803   */\n      sub\n        /* \"#utility.yul\":7786:7803   */\n      swap1\n      pop\n        /* \"#utility.yul\":7825:7826   */\n      dup2\n        /* \"#utility.yul\":7819:7823   */\n      dup2\n        /* \"#utility.yul\":7816:7827   */\n      gt\n        /* \"#utility.yul\":7813:7850   */\n      iszero\n      tag_398\n      jumpi\n        /* \"#utility.yul\":7830:7848   */\n      tag_399\n      tag_274\n      jump\t// in\n    tag_399:\n        /* \"#utility.yul\":7813:7850   */\n    tag_398:\n        /* \"#utility.yul\":7663:7857   */\n      swap3\n      swap2\n      pop\n      pop\n      jump\t// out\n        /* \"#utility.yul\":7863:8273   */\n    tag_124:\n        /* \"#utility.yul\":7903:7910   */\n      0x00\n        /* \"#utility.yul\":7926:7946   */\n      tag_401\n        /* \"#utility.yul\":7944:7945   */\n      dup3\n        /* \"#utility.yul\":7926:7946   */\n      tag_253\n      jump\t// in\n    tag_401:\n        /* \"#utility.yul\":7921:7946   */\n      swap2\n      pop\n        /* \"#utility.yul\":7960:7980   */\n      tag_402\n        /* \"#utility.yul\":7978:7979   */\n      dup4\n        /* \"#utility.yul\":7960:7980   */\n      tag_253\n      jump\t// in\n    tag_402:\n        /* \"#utility.yul\":7955:7980   */\n      swap3\n      pop\n        /* \"#utility.yul\":8015:8016   */\n      dup3\n        /* \"#utility.yul\":8012:8013   */\n      dup3\n        /* \"#utility.yul\":8008:8017   */\n      mul\n        /* \"#utility.yul\":8037:8067   */\n      tag_403\n        /* \"#utility.yul\":8055:8066   */\n      dup2\n        /* \"#utility.yul\":8037:8067   */\n      tag_253\n      jump\t// in\n    tag_403:\n        /* \"#utility.yul\":8026:8067   */\n      swap2\n      pop\n        /* \"#utility.yul\":8216:8217   */\n      dup3\n        /* \"#utility.yul\":8207:8214   */\n      dup3\n        /* \"#utility.yul\":8203:8218   */\n      div\n        /* \"#utility.yul\":8200:8201   */\n      dup5\n        /* \"#utility.yul\":8197:8219   */\n      eq\n        /* \"#utility.yul\":8177:8178   */\n      dup4\n        /* \"#utility.yul\":8170:8179   */\n      iszero\n        /* \"#utility.yul\":8150:8233   */\n      or\n        /* \"#utility.yul\":8127:8266   */\n      tag_404\n      jumpi\n        /* \"#utility.yul\":8246:8264   */\n      tag_405\n      tag_274\n      jump\t// in\n    tag_405:\n        /* \"#utility.yul\":8127:8266   */\n    tag_404:\n        /* \"#utility.yul\":7911:8273   */\n      pop\n        /* \"#utility.yul\":7863:8273   */\n      swap3\n      swap2\n      pop\n      pop\n      jump\t// out\n        /* \"#utility.yul\":8279:8459   */\n    tag_275:\n        /* \"#utility.yul\":8327:8404   */\n      0x4e487b7100000000000000000000000000000000000000000000000000000000\n        /* \"#utility.yul\":8324:8325   */\n      0x00\n        /* \"#utility.yul\":8317:8405   */\n      mstore\n        /* \"#utility.yul\":8424:8428   */\n      0x12\n        /* \"#utility.yul\":8421:8422   */\n      0x04\n        /* \"#utility.yul\":8414:8429   */\n      mstore\n        /* \"#utility.yul\":8448:8452   */\n      0x24\n        /* \"#utility.yul\":8445:8446   */\n      0x00\n        /* \"#utility.yul\":8438:8453   */\n      revert\n        /* \"#utility.yul\":8465:8650   */\n    tag_126:\n        /* \"#utility.yul\":8505:8506   */\n      0x00\n        /* \"#utility.yul\":8522:8542   */\n      tag_408\n        /* \"#utility.yul\":8540:8541   */\n      dup3\n        /* \"#utility.yul\":8522:8542   */\n      tag_253\n      jump\t// in\n    tag_408:\n        /* \"#utility.yul\":8517:8542   */\n      swap2\n      pop\n        /* \"#utility.yul\":8556:8576   */\n      tag_409\n        /* \"#utility.yul\":8574:8575   */\n      dup4\n        /* \"#utility.yul\":8556:8576   */\n      tag_253\n      jump\t// in\n    tag_409:\n        /* \"#utility.yul\":8551:8576   */\n      swap3\n      pop\n        /* \"#utility.yul\":8595:8596   */\n      dup3\n        /* \"#utility.yul\":8585:8620   */\n      tag_410\n      jumpi\n        /* \"#utility.yul\":8600:8618   */\n      tag_411\n      tag_275\n      jump\t// in\n    tag_411:\n        /* \"#utility.yul\":8585:8620   */\n    tag_410:\n        /* \"#utility.yul\":8642:8643   */\n      dup3\n        /* \"#utility.yul\":8639:8640   */\n      dup3\n        /* \"#utility.yul\":8635:8644   */\n      div\n        /* \"#utility.yul\":8630:8644   */\n      swap1\n      pop\n        /* \"#utility.yul\":8465:8650   */\n      swap3\n      swap2\n      pop\n      pop\n      jump\t// out\n        /* \"#utility.yul\":8656:8825   */\n    tag_276:\n        /* \"#utility.yul\":8740:8751   */\n      0x00\n        /* \"#utility.yul\":8774:8780   */\n      dup3\n        /* \"#utility.yul\":8769:8772   */\n      dup3\n        /* \"#utility.yul\":8762:8781   */\n      mstore\n        /* \"#utility.yul\":8814:8818   */\n      0x20\n        /* \"#utility.yul\":8809:8812   */\n      dup3\n        /* \"#utility.yul\":8805:8819   */\n      add\n        /* \"#utility.yul\":8790:8819   */\n      swap1\n      pop\n        /* \"#utility.yul\":8656:8825   */\n      swap3\n      swap2\n      pop\n      pop\n      jump\t// out\n        /* \"#utility.yul\":8831:9000   */\n    tag_277:\n        /* \"#utility.yul\":8971:8992   */\n      0x416c726561647920696e697469616c697a656400000000000000000000000000\n        /* \"#utility.yul\":8967:8968   */\n      0x00\n        /* \"#utility.yul\":8959:8965   */\n      dup3\n        /* \"#utility.yul\":8955:8969   */\n      add\n        /* \"#utility.yul\":8948:8993   */\n      mstore\n        /* \"#utility.yul\":8831:9000   */\n      pop\n      jump\t// out\n        /* \"#utility.yul\":9006:9372   */\n    tag_278:\n        /* \"#utility.yul\":9148:9151   */\n      0x00\n        /* \"#utility.yul\":9169:9236   */\n      tag_415\n        /* \"#utility.yul\":9233:9235   */\n      0x13\n        /* \"#utility.yul\":9228:9231   */\n      dup4\n        /* \"#utility.yul\":9169:9236   */\n      tag_276\n      jump\t// in\n    tag_415:\n        /* \"#utility.yul\":9162:9236   */\n      swap2\n      pop\n        /* \"#utility.yul\":9245:9338   */\n      tag_416\n        /* \"#utility.yul\":9334:9337   */\n      dup3\n        /* \"#utility.yul\":9245:9338   */\n      tag_277\n      jump\t// in\n    tag_416:\n        /* \"#utility.yul\":9363:9365   */\n      0x20\n        /* \"#utility.yul\":9358:9361   */\n      dup3\n        /* \"#utility.yul\":9354:9366   */\n      add\n        /* \"#utility.yul\":9347:9366   */\n      swap1\n      pop\n        /* \"#utility.yul\":9006:9372   */\n      swap2\n      swap1\n      pop\n      jump\t// out\n        /* \"#utility.yul\":9378:9797   */\n    tag_139:\n        /* \"#utility.yul\":9544:9548   */\n      0x00\n        /* \"#utility.yul\":9582:9584   */\n      0x20\n        /* \"#utility.yul\":9571:9580   */\n      dup3\n        /* \"#utility.yul\":9567:9585   */\n      add\n        /* \"#utility.yul\":9559:9585   */\n      swap1\n      pop\n        /* \"#utility.yul\":9631:9640   */\n      dup2\n        /* \"#utility.yul\":9625:9629   */\n      dup2\n        /* \"#utility.yul\":9621:9641   */\n      sub\n        /* \"#utility.yul\":9617:9618   */\n      0x00\n        /* \"#utility.yul\":9606:9615   */\n      dup4\n        /* \"#utility.yul\":9602:9619   */\n      add\n        /* \"#utility.yul\":9595:9642   */\n      mstore\n        /* \"#utility.yul\":9659:9790   */\n      tag_418\n        /* \"#utility.yul\":9785:9789   */\n      dup2\n        /* \"#utility.yul\":9659:9790   */\n      tag_278\n      jump\t// in\n    tag_418:\n        /* \"#utility.yul\":9651:9790   */\n      swap1\n      pop\n        /* \"#utility.yul\":9378:9797   */\n      swap2\n      swap1\n      pop\n      jump\t// out\n        /* \"#utility.yul\":9803:9974   */\n    tag_279:\n        /* \"#utility.yul\":9943:9966   */\n      0x496e76616c696420746f6b656e20616464726573730000000000000000000000\n        /* \"#utility.yul\":9939:9940   */\n      0x00\n        /* \"#utility.yul\":9931:9937   */\n      dup3\n        /* \"#utility.yul\":9927:9941   */\n      add\n        /* \"#utility.yul\":9920:9967   */\n      mstore\n        /* \"#utility.yul\":9803:9974   */\n      pop\n      jump\t// out\n        /* \"#utility.yul\":9980:10346   */\n    tag_280:\n        /* \"#utility.yul\":10122:10125   */\n      0x00\n        /* \"#utility.yul\":10143:10210   */\n      tag_421\n        /* \"#utility.yul\":10207:10209   */\n      0x15\n        /* \"#utility.yul\":10202:10205   */\n      dup4\n        /* \"#utility.yul\":10143:10210   */\n      tag_276\n      jump\t// in\n    tag_421:\n        /* \"#utility.yul\":10136:10210   */\n      swap2\n      pop\n        /* \"#utility.yul\":10219:10312   */\n      tag_422\n        /* \"#utility.yul\":10308:10311   */\n      dup3\n        /* \"#utility.yul\":10219:10312   */\n      tag_279\n      jump\t// in\n    tag_422:\n        /* \"#utility.yul\":10337:10339   */\n      0x20\n        /* \"#utility.yul\":10332:10335   */\n      dup3\n        /* \"#utility.yul\":10328:10340   */\n      add\n        /* \"#utility.yul\":10321:10340   */\n      swap1\n      pop\n        /* \"#utility.yul\":9980:10346   */\n      swap2\n      swap1\n      pop\n      jump\t// out\n        /* \"#utility.yul\":10352:10771   */\n    tag_142:\n        /* \"#utility.yul\":10518:10522   */\n      0x00\n        /* \"#utility.yul\":10556:10558   */\n      0x20\n        /* \"#utility.yul\":10545:10554   */\n      dup3\n        /* \"#utility.yul\":10541:10559   */\n      add\n        /* \"#utility.yul\":10533:10559   */\n      swap1\n      pop\n        /* \"#utility.yul\":10605:10614   */\n      dup2\n        /* \"#utility.yul\":10599:10603   */\n      dup2\n        /* \"#utility.yul\":10595:10615   */\n      sub\n        /* \"#utility.yul\":10591:10592   */\n      0x00\n        /* \"#utility.yul\":10580:10589   */\n      dup4\n        /* \"#utility.yul\":10576:10593   */\n      add\n        /* \"#utility.yul\":10569:10616   */\n      mstore\n        /* \"#utility.yul\":10633:10764   */\n      tag_424\n        /* \"#utility.yul\":10759:10763   */\n      dup2\n        /* \"#utility.yul\":10633:10764   */\n      tag_280\n      jump\t// in\n    tag_424:\n        /* \"#utility.yul\":10625:10764   */\n      swap1\n      pop\n        /* \"#utility.yul\":10352:10771   */\n      swap2\n      swap1\n      pop\n      jump\t// out\n        /* \"#utility.yul\":10777:10954   */\n    tag_281:\n        /* \"#utility.yul\":10917:10946   */\n      0x496e76616c69642062656e656669636961727920616464726573730000000000\n        /* \"#utility.yul\":10913:10914   */\n      0x00\n        /* \"#utility.yul\":10905:10911   */\n      dup3\n        /* \"#utility.yul\":10901:10915   */\n      add\n        /* \"#utility.yul\":10894:10947   */\n      mstore\n        /* \"#utility.yul\":10777:10954   */\n      pop\n      jump\t// out\n        /* \"#utility.yul\":10960:11326   */\n    tag_282:\n        /* \"#utility.yul\":11102:11105   */\n      0x00\n        /* \"#utility.yul\":11123:11190   */\n      tag_427\n        /* \"#utility.yul\":11187:11189   */\n      0x1b\n        /* \"#utility.yul\":11182:11185   */\n      dup4\n        /* \"#utility.yul\":11123:11190   */\n      tag_276\n      jump\t// in\n    tag_427:\n        /* \"#utility.yul\":11116:11190   */\n      swap2\n      pop\n        /* \"#utility.yul\":11199:11292   */\n      tag_428\n        /* \"#utility.yul\":11288:11291   */\n      dup3\n        /* \"#utility.yul\":11199:11292   */\n      tag_281\n      jump\t// in\n    tag_428:\n        /* \"#utility.yul\":11317:11319   */\n      0x20\n        /* \"#utility.yul\":11312:11315   */\n      dup3\n        /* \"#utility.yul\":11308:11320   */\n      add\n        /* \"#utility.yul\":11301:11320   */\n      swap1\n      pop\n        /* \"#utility.yul\":10960:11326   */\n      swap2\n      swap1\n      pop\n      jump\t// out\n        /* \"#utility.yul\":11332:11751   */\n    tag_145:\n        /* \"#utility.yul\":11498:11502   */\n      0x00\n        /* \"#utility.yul\":11536:11538   */\n      0x20\n        /* \"#utility.yul\":11525:11534   */\n      dup3\n        /* \"#utility.yul\":11521:11539   */\n      add\n        /* \"#utility.yul\":11513:11539   */\n      swap1\n      pop\n        /* \"#utility.yul\":11585:11594   */\n      dup2\n        /* \"#utility.yul\":11579:11583   */\n      dup2\n        /* \"#utility.yul\":11575:11595   */\n      sub\n        /* \"#utility.yul\":11571:11572   */\n      0x00\n        /* \"#utility.yul\":11560:11569   */\n      dup4\n        /* \"#utility.yul\":11556:11573   */\n      add\n        /* \"#utility.yul\":11549:11596   */\n      mstore\n        /* \"#utility.yul\":11613:11744   */\n      tag_430\n        /* \"#utility.yul\":11739:11743   */\n      dup2\n        /* \"#utility.yul\":11613:11744   */\n      tag_282\n      jump\t// in\n    tag_430:\n        /* \"#utility.yul\":11605:11744   */\n      swap1\n      pop\n        /* \"#utility.yul\":11332:11751   */\n      swap2\n      swap1\n      pop\n      jump\t// out\n        /* \"#utility.yul\":11757:11979   */\n    tag_283:\n        /* \"#utility.yul\":11897:11931   */\n      0x546f74616c20616d6f756e74206d757374206265206772656174657220746861\n        /* \"#utility.yul\":11893:11894   */\n      0x00\n        /* \"#utility.yul\":11885:11891   */\n      dup3\n        /* \"#utility.yul\":11881:11895   */\n      add\n        /* \"#utility.yul\":11874:11932   */\n      mstore\n        /* \"#utility.yul\":11966:11971   */\n      0x6e20300000000000000000000000000000000000000000000000000000000000\n        /* \"#utility.yul\":11961:11963   */\n      0x20\n        /* \"#utility.yul\":11953:11959   */\n      dup3\n        /* \"#utility.yul\":11949:11964   */\n      add\n        /* \"#utility.yul\":11942:11972   */\n      mstore\n        /* \"#utility.yul\":11757:11979   */\n      pop\n      jump\t// out\n        /* \"#utility.yul\":11985:12351   */\n    tag_284:\n        /* \"#utility.yul\":12127:12130   */\n      0x00\n        /* \"#utility.yul\":12148:12215   */\n      tag_433\n        /* \"#utility.yul\":12212:12214   */\n      0x23\n        /* \"#utility.yul\":12207:12210   */\n      dup4\n        /* \"#utility.yul\":12148:12215   */\n      tag_276\n      jump\t// in\n    tag_433:\n        /* \"#utility.yul\":12141:12215   */\n      swap2\n      pop\n        /* \"#utility.yul\":12224:12317   */\n      tag_434\n        /* \"#utility.yul\":12313:12316   */\n      dup3\n        /* \"#utility.yul\":12224:12317   */\n      tag_283\n      jump\t// in\n    tag_434:\n        /* \"#utility.yul\":12342:12344   */\n      0x40\n        /* \"#utility.yul\":12337:12340   */\n      dup3\n        /* \"#utility.yul\":12333:12345   */\n      add\n        /* \"#utility.yul\":12326:12345   */\n      swap1\n      pop\n        /* \"#utility.yul\":11985:12351   */\n      swap2\n      swap1\n      pop\n      jump\t// out\n        /* \"#utility.yul\":12357:12776   */\n    tag_148:\n        /* \"#utility.yul\":12523:12527   */\n      0x00\n        /* \"#utility.yul\":12561:12563   */\n      0x20\n        /* \"#utility.yul\":12550:12559   */\n      dup3\n        /* \"#utility.yul\":12546:12564   */\n      add\n        /* \"#utility.yul\":12538:12564   */\n      swap1\n      pop\n        /* \"#utility.yul\":12610:12619   */\n      dup2\n        /* \"#utility.yul\":12604:12608   */\n      dup2\n        /* \"#utility.yul\":12600:12620   */\n      sub\n        /* \"#utility.yul\":12596:12597   */\n      0x00\n        /* \"#utility.yul\":12585:12594   */\n      dup4\n        /* \"#utility.yul\":12581:12598   */\n      add\n        /* \"#utility.yul\":12574:12621   */\n      mstore\n        /* \"#utility.yul\":12638:12769   */\n      tag_436\n        /* \"#utility.yul\":12764:12768   */\n      dup2\n        /* \"#utility.yul\":12638:12769   */\n      tag_284\n      jump\t// in\n    tag_436:\n        /* \"#utility.yul\":12630:12769   */\n      swap1\n      pop\n        /* \"#utility.yul\":12357:12776   */\n      swap2\n      swap1\n      pop\n      jump\t// out\n        /* \"#utility.yul\":12782:12963   */\n    tag_285:\n        /* \"#utility.yul\":12922:12955   */\n      0x4475726174696f6e206d7573742062652067726561746572207468616e203000\n        /* \"#utility.yul\":12918:12919   */\n      0x00\n        /* \"#utility.yul\":12910:12916   */\n      dup3\n        /* \"#utility.yul\":12906:12920   */\n      add\n        /* \"#utility.yul\":12899:12956   */\n      mstore\n        /* \"#utility.yul\":12782:12963   */\n      pop\n      jump\t// out\n        /* \"#utility.yul\":12969:13335   */\n    tag_286:\n        /* \"#utility.yul\":13111:13114   */\n      0x00\n        /* \"#utility.yul\":13132:13199   */\n      tag_439\n        /* \"#utility.yul\":13196:13198   */\n      0x1f\n        /* \"#utility.yul\":13191:13194   */\n      dup4\n        /* \"#utility.yul\":13132:13199   */\n      tag_276\n      jump\t// in\n    tag_439:\n        /* \"#utility.yul\":13125:13199   */\n      swap2\n      pop\n        /* \"#utility.yul\":13208:13301   */\n      tag_440\n        /* \"#utility.yul\":13297:13300   */\n      dup3\n        /* \"#utility.yul\":13208:13301   */\n      tag_285\n      jump\t// in\n    tag_440:\n        /* \"#utility.yul\":13326:13328   */\n      0x20\n        /* \"#utility.yul\":13321:13324   */\n      dup3\n        /* \"#utility.yul\":13317:13329   */\n      add\n        /* \"#utility.yul\":13310:13329   */\n      swap1\n      pop\n        /* \"#utility.yul\":12969:13335   */\n      swap2\n      swap1\n      pop\n      jump\t// out\n        /* \"#utility.yul\":13341:13760   */\n    tag_151:\n        /* \"#utility.yul\":13507:13511   */\n      0x00\n        /* \"#utility.yul\":13545:13547   */\n      0x20\n        /* \"#utility.yul\":13534:13543   */\n      dup3\n        /* \"#utility.yul\":13530:13548   */\n      add\n        /* \"#utility.yul\":13522:13548   */\n      swap1\n      pop\n        /* \"#utility.yul\":13594:13603   */\n      dup2\n        /* \"#utility.yul\":13588:13592   */\n      dup2\n        /* \"#utility.yul\":13584:13604   */\n      sub\n        /* \"#utility.yul\":13580:13581   */\n      0x00\n        /* \"#utility.yul\":13569:13578   */\n      dup4\n        /* \"#utility.yul\":13565:13582   */\n      add\n        /* \"#utility.yul\":13558:13605   */\n      mstore\n        /* \"#utility.yul\":13622:13753   */\n      tag_442\n        /* \"#utility.yul\":13748:13752   */\n      dup2\n        /* \"#utility.yul\":13622:13753   */\n      tag_286\n      jump\t// in\n    tag_442:\n        /* \"#utility.yul\":13614:13753   */\n      swap1\n      pop\n        /* \"#utility.yul\":13341:13760   */\n      swap2\n      swap1\n      pop\n      jump\t// out\n        /* \"#utility.yul\":13766:13944   */\n    tag_287:\n        /* \"#utility.yul\":13906:13936   */\n      0x436c6966662063616e6e6f7420657863656564206475726174696f6e00000000\n        /* \"#utility.yul\":13902:13903   */\n      0x00\n        /* \"#utility.yul\":13894:13900   */\n      dup3\n        /* \"#utility.yul\":13890:13904   */\n      add\n        /* \"#utility.yul\":13883:13937   */\n      mstore\n        /* \"#utility.yul\":13766:13944   */\n      pop\n      jump\t// out\n        /* \"#utility.yul\":13950:14316   */\n    tag_288:\n        /* \"#utility.yul\":14092:14095   */\n      0x00\n        /* \"#utility.yul\":14113:14180   */\n      tag_445\n        /* \"#utility.yul\":14177:14179   */\n      0x1c\n        /* \"#utility.yul\":14172:14175   */\n      dup4\n        /* \"#utility.yul\":14113:14180   */\n      tag_276\n      jump\t// in\n    tag_445:\n        /* \"#utility.yul\":14106:14180   */\n      swap2\n      pop\n        /* \"#utility.yul\":14189:14282   */\n      tag_446\n        /* \"#utility.yul\":14278:14281   */\n      dup3\n        /* \"#utility.yul\":14189:14282   */\n      tag_287\n      jump\t// in\n    tag_446:\n        /* \"#utility.yul\":14307:14309   */\n      0x20\n        /* \"#utility.yul\":14302:14305   */\n      dup3\n        /* \"#utility.yul\":14298:14310   */\n      add\n        /* \"#utility.yul\":14291:14310   */\n      swap1\n      pop\n        /* \"#utility.yul\":13950:14316   */\n      swap2\n      swap1\n      pop\n      jump\t// out\n        /* \"#utility.yul\":14322:14741   */\n    tag_154:\n        /* \"#utility.yul\":14488:14492   */\n      0x00\n        /* \"#utility.yul\":14526:14528   */\n      0x20\n        /* \"#utility.yul\":14515:14524   */\n      dup3\n        /* \"#utility.yul\":14511:14529   */\n      add\n        /* \"#utility.yul\":14503:14529   */\n      swap1\n      pop\n        /* \"#utility.yul\":14575:14584   */\n      dup2\n        /* \"#utility.yul\":14569:14573   */\n      dup2\n        /* \"#utility.yul\":14565:14585   */\n      sub\n        /* \"#utility.yul\":14561:14562   */\n      0x00\n        /* \"#utility.yul\":14550:14559   */\n      dup4\n        /* \"#utility.yul\":14546:14563   */\n      add\n        /* \"#utility.yul\":14539:14586   */\n      mstore\n        /* \"#utility.yul\":14603:14734   */\n      tag_448\n        /* \"#utility.yul\":14729:14733   */\n      dup2\n        /* \"#utility.yul\":14603:14734   */\n      tag_288\n      jump\t// in\n    tag_448:\n        /* \"#utility.yul\":14595:14734   */\n      swap1\n      pop\n        /* \"#utility.yul\":14322:14741   */\n      swap2\n      swap1\n      pop\n      jump\t// out\n        /* \"#utility.yul\":14747:14918   */\n    tag_289:\n        /* \"#utility.yul\":14887:14910   */\n      0x496e76616c6964206f776e657220616464726573730000000000000000000000\n        /* \"#utility.yul\":14883:14884   */\n      0x00\n        /* \"#utility.yul\":14875:14881   */\n      dup3\n        /* \"#utility.yul\":14871:14885   */\n      add\n        /* \"#utility.yul\":14864:14911   */\n      mstore\n        /* \"#utility.yul\":14747:14918   */\n      pop\n      jump\t// out\n        /* \"#utility.yul\":14924:15290   */\n    tag_290:\n        /* \"#utility.yul\":15066:15069   */\n      0x00\n        /* \"#utility.yul\":15087:15154   */\n      tag_451\n        /* \"#utility.yul\":15151:15153   */\n      0x15\n        /* \"#utility.yul\":15146:15149   */\n      dup4\n        /* \"#utility.yul\":15087:15154   */\n      tag_276\n      jump\t// in\n    tag_451:\n        /* \"#utility.yul\":15080:15154   */\n      swap2\n      pop\n        /* \"#utility.yul\":15163:15256   */\n      tag_452\n        /* \"#utility.yul\":15252:15255   */\n      dup3\n        /* \"#utility.yul\":15163:15256   */\n      tag_289\n      jump\t// in\n    tag_452:\n        /* \"#utility.yul\":15281:15283   */\n      0x20\n        /* \"#utility.yul\":15276:15279   */\n      dup3\n        /* \"#utility.yul\":15272:15284   */\n      add\n        /* \"#utility.yul\":15265:15284   */\n      swap1\n      pop\n        /* \"#utility.yul\":14924:15290   */\n      swap2\n      swap1\n      pop\n      jump\t// out\n        /* \"#utility.yul\":15296:15715   */\n    tag_157:\n        /* \"#utility.yul\":15462:15466   */\n      0x00\n        /* \"#utility.yul\":15500:15502   */\n      0x20\n        /* \"#utility.yul\":15489:15498   */\n      dup3\n        /* \"#utility.yul\":15485:15503   */\n      add\n        /* \"#utility.yul\":15477:15503   */\n      swap1\n      pop\n        /* \"#utility.yul\":15549:15558   */\n      dup2\n        /* \"#utility.yul\":15543:15547   */\n      dup2\n        /* \"#utility.yul\":15539:15559   */\n      sub\n        /* \"#utility.yul\":15535:15536   */\n      0x00\n        /* \"#utility.yul\":15524:15533   */\n      dup4\n        /* \"#utility.yul\":15520:15537   */\n      add\n        /* \"#utility.yul\":15513:15560   */\n      mstore\n        /* \"#utility.yul\":15577:15708   */\n      tag_454\n        /* \"#utility.yul\":15703:15707   */\n      dup2\n        /* \"#utility.yul\":15577:15708   */\n      tag_290\n      jump\t// in\n    tag_454:\n        /* \"#utility.yul\":15569:15708   */\n      swap1\n      pop\n        /* \"#utility.yul\":15296:15715   */\n      swap2\n      swap1\n      pop\n      jump\t// out\n        /* \"#utility.yul\":15721:16262   */\n    tag_160:\n        /* \"#utility.yul\":15892:15896   */\n      0x00\n        /* \"#utility.yul\":15930:15933   */\n      0x80\n        /* \"#utility.yul\":15919:15928   */\n      dup3\n        /* \"#utility.yul\":15915:15934   */\n      add\n        /* \"#utility.yul\":15907:15934   */\n      swap1\n      pop\n        /* \"#utility.yul\":15944:16015   */\n      tag_456\n        /* \"#utility.yul\":16012:16013   */\n      0x00\n        /* \"#utility.yul\":16001:16010   */\n      dup4\n        /* \"#utility.yul\":15997:16014   */\n      add\n        /* \"#utility.yul\":15988:15994   */\n      dup8\n        /* \"#utility.yul\":15944:16015   */\n      tag_254\n      jump\t// in\n    tag_456:\n        /* \"#utility.yul\":16025:16097   */\n      tag_457\n        /* \"#utility.yul\":16093:16095   */\n      0x20\n        /* \"#utility.yul\":16082:16091   */\n      dup4\n        /* \"#utility.yul\":16078:16096   */\n      add\n        /* \"#utility.yul\":16069:16075   */\n      dup7\n        /* \"#utility.yul\":16025:16097   */\n      tag_254\n      jump\t// in\n    tag_457:\n        /* \"#utility.yul\":16107:16179   */\n      tag_458\n        /* \"#utility.yul\":16175:16177   */\n      0x40\n        /* \"#utility.yul\":16164:16173   */\n      dup4\n        /* \"#utility.yul\":16160:16178   */\n      add\n        /* \"#utility.yul\":16151:16157   */\n      dup6\n        /* \"#utility.yul\":16107:16179   */\n      tag_254\n      jump\t// in\n    tag_458:\n        /* \"#utility.yul\":16189:16255   */\n      tag_459\n        /* \"#utility.yul\":16251:16253   */\n      0x60\n        /* \"#utility.yul\":16240:16249   */\n      dup4\n        /* \"#utility.yul\":16236:16254   */\n      add\n        /* \"#utility.yul\":16227:16233   */\n      dup5\n        /* \"#utility.yul\":16189:16255   */\n      tag_256\n      jump\t// in\n    tag_459:\n        /* \"#utility.yul\":15721:16262   */\n      swap6\n      swap5\n      pop\n      pop\n      pop\n      pop\n      pop\n      jump\t// out\n        /* \"#utility.yul\":16268:16442   */\n    tag_291:\n        /* \"#utility.yul\":16408:16434   */\n      0x56657374696e6720686173206265656e207265766f6b65640000000000000000\n        /* \"#utility.yul\":16404:16405   */\n      0x00\n        /* \"#utility.yul\":16396:16402   */\n      dup3\n        /* \"#utility.yul\":16392:16406   */\n      add\n        /* \"#utility.yul\":16385:16435   */\n      mstore\n        /* \"#utility.yul\":16268:16442   */\n      pop\n      jump\t// out\n        /* \"#utility.yul\":16448:16814   */\n    tag_292:\n        /* \"#utility.yul\":16590:16593   */\n      0x00\n        /* \"#utility.yul\":16611:16678   */\n      tag_462\n        /* \"#utility.yul\":16675:16677   */\n      0x18\n        /* \"#utility.yul\":16670:16673   */\n      dup4\n        /* \"#utility.yul\":16611:16678   */\n      tag_276\n      jump\t// in\n    tag_462:\n        /* \"#utility.yul\":16604:16678   */\n      swap2\n      pop\n        /* \"#utility.yul\":16687:16780   */\n      tag_463\n        /* \"#utility.yul\":16776:16779   */\n      dup3\n        /* \"#utility.yul\":16687:16780   */\n      tag_291\n      jump\t// in\n    tag_463:\n        /* \"#utility.yul\":16805:16807   */\n      0x20\n        /* \"#utility.yul\":16800:16803   */\n      dup3\n        /* \"#utility.yul\":16796:16808   */\n      add\n        /* \"#utility.yul\":16789:16808   */\n      swap1\n      pop\n        /* \"#utility.yul\":16448:16814   */\n      swap2\n      swap1\n      pop\n      jump\t// out\n        /* \"#utility.yul\":16820:17239   */\n    tag_167:\n        /* \"#utility.yul\":16986:16990   */\n      0x00\n        /* \"#utility.yul\":17024:17026   */\n      0x20\n        /* \"#utility.yul\":17013:17022   */\n      dup3\n        /* \"#utility.yul\":17009:17027   */\n      add\n        /* \"#utility.yul\":17001:17027   */\n      swap1\n      pop\n        /* \"#utility.yul\":17073:17082   */\n      dup2\n        /* \"#utility.yul\":17067:17071   */\n      dup2\n        /* \"#utility.yul\":17063:17083   */\n      sub\n        /* \"#utility.yul\":17059:17060   */\n      0x00\n        /* \"#utility.yul\":17048:17057   */\n      dup4\n        /* \"#utility.yul\":17044:17061   */\n      add\n        /* \"#utility.yul\":17037:17084   */\n      mstore\n        /* \"#utility.yul\":17101:17232   */\n      tag_465\n        /* \"#utility.yul\":17227:17231   */\n      dup2\n        /* \"#utility.yul\":17101:17232   */\n      tag_292\n      jump\t// in\n    tag_465:\n        /* \"#utility.yul\":17093:17232   */\n      swap1\n      pop\n        /* \"#utility.yul\":16820:17239   */\n      swap2\n      swap1\n      pop\n      jump\t// out\n        /* \"#utility.yul\":17245:17407   */\n    tag_293:\n        /* \"#utility.yul\":17385:17399   */\n      0x556e617574686f72697a65640000000000000000000000000000000000000000\n        /* \"#utility.yul\":17381:17382   */\n      0x00\n        /* \"#utility.yul\":17373:17379   */\n      dup3\n        /* \"#utility.yul\":17369:17383   */\n      add\n        /* \"#utility.yul\":17362:17400   */\n      mstore\n        /* \"#utility.yul\":17245:17407   */\n      pop\n      jump\t// out\n        /* \"#utility.yul\":17413:17779   */\n    tag_294:\n        /* \"#utility.yul\":17555:17558   */\n      0x00\n        /* \"#utility.yul\":17576:17643   */\n      tag_468\n        /* \"#utility.yul\":17640:17642   */\n      0x0c\n        /* \"#utility.yul\":17635:17638   */\n      dup4\n        /* \"#utility.yul\":17576:17643   */\n      tag_276\n      jump\t// in\n    tag_468:\n        /* \"#utility.yul\":17569:17643   */\n      swap2\n      pop\n        /* \"#utility.yul\":17652:17745   */\n      tag_469\n        /* \"#utility.yul\":17741:17744   */\n      dup3\n        /* \"#utility.yul\":17652:17745   */\n      tag_293\n      jump\t// in\n    tag_469:\n        /* \"#utility.yul\":17770:17772   */\n      0x20\n        /* \"#utility.yul\":17765:17768   */\n      dup3\n        /* \"#utility.yul\":17761:17773   */\n      add\n        /* \"#utility.yul\":17754:17773   */\n      swap1\n      pop\n        /* \"#utility.yul\":17413:17779   */\n      swap2\n      swap1\n      pop\n      jump\t// out\n        /* \"#utility.yul\":17785:18204   */\n    tag_172:\n        /* \"#utility.yul\":17951:17955   */\n      0x00\n        /* \"#utility.yul\":17989:17991   */\n      0x20\n        /* \"#utility.yul\":17978:17987   */\n      dup3\n        /* \"#utility.yul\":17974:17992   */\n      add\n        /* \"#utility.yul\":17966:17992   */\n      swap1\n      pop\n        /* \"#utility.yul\":18038:18047   */\n      dup2\n        /* \"#utility.yul\":18032:18036   */\n      dup2\n        /* \"#utility.yul\":18028:18048   */\n      sub\n        /* \"#utility.yul\":18024:18025   */\n      0x00\n        /* \"#utility.yul\":18013:18022   */\n      dup4\n        /* \"#utility.yul\":18009:18026   */\n      add\n        /* \"#utility.yul\":18002:18049   */\n      mstore\n        /* \"#utility.yul\":18066:18197   */\n      tag_471\n        /* \"#utility.yul\":18192:18196   */\n      dup2\n        /* \"#utility.yul\":18066:18197   */\n      tag_294\n      jump\t// in\n    tag_471:\n        /* \"#utility.yul\":18058:18197   */\n      swap1\n      pop\n        /* \"#utility.yul\":17785:18204   */\n      swap2\n      swap1\n      pop\n      jump\t// out\n        /* \"#utility.yul\":18210:18380   */\n    tag_295:\n        /* \"#utility.yul\":18350:18372   */\n      0x4e6f20746f6b656e7320746f2072656c65617365000000000000000000000000\n        /* \"#utility.yul\":18346:18347   */\n      0x00\n        /* \"#utility.yul\":18338:18344   */\n      dup3\n        /* \"#utility.yul\":18334:18348   */\n      add\n        /* \"#utility.yul\":18327:18373   */\n      mstore\n        /* \"#utility.yul\":18210:18380   */\n      pop\n      jump\t// out\n        /* \"#utility.yul\":18386:18752   */\n    tag_296:\n        /* \"#utility.yul\":18528:18531   */\n      0x00\n        /* \"#utility.yul\":18549:18616   */\n      tag_474\n        /* \"#utility.yul\":18613:18615   */\n      0x14\n        /* \"#utility.yul\":18608:18611   */\n      dup4\n        /* \"#utility.yul\":18549:18616   */\n      tag_276\n      jump\t// in\n    tag_474:\n        /* \"#utility.yul\":18542:18616   */\n      swap2\n      pop\n        /* \"#utility.yul\":18625:18718   */\n      tag_475\n        /* \"#utility.yul\":18714:18717   */\n      dup3\n        /* \"#utility.yul\":18625:18718   */\n      tag_295\n      jump\t// in\n    tag_475:\n        /* \"#utility.yul\":18743:18745   */\n      0x20\n        /* \"#utility.yul\":18738:18741   */\n      dup3\n        /* \"#utility.yul\":18734:18746   */\n      add\n        /* \"#utility.yul\":18727:18746   */\n      swap1\n      pop\n        /* \"#utility.yul\":18386:18752   */\n      swap2\n      swap1\n      pop\n      jump\t// out\n        /* \"#utility.yul\":18758:19177   */\n    tag_176:\n        /* \"#utility.yul\":18924:18928   */\n      0x00\n        /* \"#utility.yul\":18962:18964   */\n      0x20\n        /* \"#utility.yul\":18951:18960   */\n      dup3\n        /* \"#utility.yul\":18947:18965   */\n      add\n        /* \"#utility.yul\":18939:18965   */\n      swap1\n      pop\n        /* \"#utility.yul\":19011:19020   */\n      dup2\n        /* \"#utility.yul\":19005:19009   */\n      dup2\n        /* \"#utility.yul\":19001:19021   */\n      sub\n        /* \"#utility.yul\":18997:18998   */\n      0x00\n        /* \"#utility.yul\":18986:18995   */\n      dup4\n        /* \"#utility.yul\":18982:18999   */\n      add\n        /* \"#utility.yul\":18975:19022   */\n      mstore\n        /* \"#utility.yul\":19039:19170   */\n      tag_477\n        /* \"#utility.yul\":19165:19169   */\n      dup2\n        /* \"#utility.yul\":19039:19170   */\n      tag_296\n      jump\t// in\n    tag_477:\n        /* \"#utility.yul\":19031:19170   */\n      swap1\n      pop\n        /* \"#utility.yul\":18758:19177   */\n      swap2\n      swap1\n      pop\n      jump\t// out\n        /* \"#utility.yul\":19183:19361   */\n    tag_297:\n        /* \"#utility.yul\":19323:19353   */\n      0x43616e6e6f74207265636f7665722076657374696e6720746f6b656e00000000\n        /* \"#utility.yul\":19319:19320   */\n      0x00\n        /* \"#utility.yul\":19311:19317   */\n      dup3\n        /* \"#utility.yul\":19307:19321   */\n      add\n        /* \"#utility.yul\":19300:19354   */\n      mstore\n        /* \"#utility.yul\":19183:19361   */\n      pop\n      jump\t// out\n        /* \"#utility.yul\":19367:19733   */\n    tag_298:\n        /* \"#utility.yul\":19509:19512   */\n      0x00\n        /* \"#utility.yul\":19530:19597   */\n      tag_480\n        /* \"#utility.yul\":19594:19596   */\n      0x1c\n        /* \"#utility.yul\":19589:19592   */\n      dup4\n        /* \"#utility.yul\":19530:19597   */\n      tag_276\n      jump\t// in\n    tag_480:\n        /* \"#utility.yul\":19523:19597   */\n      swap2\n      pop\n        /* \"#utility.yul\":19606:19699   */\n      tag_481\n        /* \"#utility.yul\":19695:19698   */\n      dup3\n        /* \"#utility.yul\":19606:19699   */\n      tag_297\n      jump\t// in\n    tag_481:\n        /* \"#utility.yul\":19724:19726   */\n      0x20\n        /* \"#utility.yul\":19719:19722   */\n      dup3\n        /* \"#utility.yul\":19715:19727   */\n      add\n        /* \"#utility.yul\":19708:19727   */\n      swap1\n      pop\n        /* \"#utility.yul\":19367:19733   */\n      swap2\n      swap1\n      pop\n      jump\t// out\n        /* \"#utility.yul\":19739:20158   */\n    tag_189:\n        /* \"#utility.yul\":19905:19909   */\n      0x00\n        /* \"#utility.yul\":19943:19945   */\n      0x20\n        /* \"#utility.yul\":19932:19941   */\n      dup3\n        /* \"#utility.yul\":19928:19946   */\n      add\n        /* \"#utility.yul\":19920:19946   */\n      swap1\n      pop\n        /* \"#utility.yul\":19992:20001   */\n      dup2\n        /* \"#utility.yul\":19986:19990   */\n      dup2\n        /* \"#utility.yul\":19982:20002   */\n      sub\n        /* \"#utility.yul\":19978:19979   */\n      0x00\n        /* \"#utility.yul\":19967:19976   */\n      dup4\n        /* \"#utility.yul\":19963:19980   */\n      add\n        /* \"#utility.yul\":19956:20003   */\n      mstore\n        /* \"#utility.yul\":20020:20151   */\n      tag_483\n        /* \"#utility.yul\":20146:20150   */\n      dup2\n        /* \"#utility.yul\":20020:20151   */\n      tag_298\n      jump\t// in\n    tag_483:\n        /* \"#utility.yul\":20012:20151   */\n      swap1\n      pop\n        /* \"#utility.yul\":19739:20158   */\n      swap2\n      swap1\n      pop\n      jump\t// out\n        /* \"#utility.yul\":20164:20338   */\n    tag_299:\n        /* \"#utility.yul\":20304:20330   */\n      0x56657374696e67206973206e6f74207265766f6361626c650000000000000000\n        /* \"#utility.yul\":20300:20301   */\n      0x00\n        /* \"#utility.yul\":20292:20298   */\n      dup3\n        /* \"#utility.yul\":20288:20302   */\n      add\n        /* \"#utility.yul\":20281:20331   */\n      mstore\n        /* \"#utility.yul\":20164:20338   */\n      pop\n      jump\t// out\n        /* \"#utility.yul\":20344:20710   */\n    tag_300:\n        /* \"#utility.yul\":20486:20489   */\n      0x00\n        /* \"#utility.yul\":20507:20574   */\n      tag_486\n        /* \"#utility.yul\":20571:20573   */\n      0x18\n        /* \"#utility.yul\":20566:20569   */\n      dup4\n        /* \"#utility.yul\":20507:20574   */\n      tag_276\n      jump\t// in\n    tag_486:\n        /* \"#utility.yul\":20500:20574   */\n      swap2\n      pop\n        /* \"#utility.yul\":20583:20676   */\n      tag_487\n        /* \"#utility.yul\":20672:20675   */\n      dup3\n        /* \"#utility.yul\":20583:20676   */\n      tag_299\n      jump\t// in\n    tag_487:\n        /* \"#utility.yul\":20701:20703   */\n      0x20\n        /* \"#utility.yul\":20696:20699   */\n      dup3\n        /* \"#utility.yul\":20692:20704   */\n      add\n        /* \"#utility.yul\":20685:20704   */\n      swap1\n      pop\n        /* \"#utility.yul\":20344:20710   */\n      swap2\n      swap1\n      pop\n      jump\t// out\n        /* \"#utility.yul\":20716:21135   */\n    tag_197:\n        /* \"#utility.yul\":20882:20886   */\n      0x00\n        /* \"#utility.yul\":20920:20922   */\n      0x20\n        /* \"#utility.yul\":20909:20918   */\n      dup3\n        /* \"#utility.yul\":20905:20923   */\n      add\n        /* \"#utility.yul\":20897:20923   */\n      swap1\n      pop\n        /* \"#utility.yul\":20969:20978   */\n      dup2\n        /* \"#utility.yul\":20963:20967   */\n      dup2\n        /* \"#utility.yul\":20959:20979   */\n      sub\n        /* \"#utility.yul\":20955:20956   */\n      0x00\n        /* \"#utility.yul\":20944:20953   */\n      dup4\n        /* \"#utility.yul\":20940:20957   */\n      add\n        /* \"#utility.yul\":20933:20980   */\n      mstore\n        /* \"#utility.yul\":20997:21128   */\n      tag_489\n        /* \"#utility.yul\":21123:21127   */\n      dup2\n        /* \"#utility.yul\":20997:21128   */\n      tag_300\n      jump\t// in\n    tag_489:\n        /* \"#utility.yul\":20989:21128   */\n      swap1\n      pop\n        /* \"#utility.yul\":20716:21135   */\n      swap2\n      swap1\n      pop\n      jump\t// out\n        /* \"#utility.yul\":21141:21314   */\n    tag_301:\n        /* \"#utility.yul\":21281:21306   */\n      0x56657374696e6720616c7265616479207265766f6b6564000000000000000000\n        /* \"#utility.yul\":21277:21278   */\n      0x00\n        /* \"#utility.yul\":21269:21275   */\n      dup3\n        /* \"#utility.yul\":21265:21279   */\n      add\n        /* \"#utility.yul\":21258:21307   */\n      mstore\n        /* \"#utility.yul\":21141:21314   */\n      pop\n      jump\t// out\n        /* \"#utility.yul\":21320:21686   */\n    tag_302:\n        /* \"#utility.yul\":21462:21465   */\n      0x00\n        /* \"#utility.yul\":21483:21550   */\n      tag_492\n        /* \"#utility.yul\":21547:21549   */\n      0x17\n        /* \"#utility.yul\":21542:21545   */\n      dup4\n        /* \"#utility.yul\":21483:21550   */\n      tag_276\n      jump\t// in\n    tag_492:\n        /* \"#utility.yul\":21476:21550   */\n      swap2\n      pop\n        /* \"#utility.yul\":21559:21652   */\n      tag_493\n        /* \"#utility.yul\":21648:21651   */\n      dup3\n        /* \"#utility.yul\":21559:21652   */\n      tag_301\n      jump\t// in\n    tag_493:\n        /* \"#utility.yul\":21677:21679   */\n      0x20\n        /* \"#utility.yul\":21672:21675   */\n      dup3\n        /* \"#utility.yul\":21668:21680   */\n      add\n        /* \"#utility.yul\":21661:21680   */\n      swap1\n      pop\n        /* \"#utility.yul\":21320:21686   */\n      swap2\n      swap1\n      pop\n      jump\t// out\n        /* \"#utility.yul\":21692:22111   */\n    tag_200:\n        /* \"#utility.yul\":21858:21862   */\n      0x00\n        /* \"#utility.yul\":21896:21898   */\n      0x20\n        /* \"#utility.yul\":21885:21894   */\n      dup3\n        /* \"#utility.yul\":21881:21899   */\n      add\n        /* \"#utility.yul\":21873:21899   */\n      swap1\n      pop\n        /* \"#utility.yul\":21945:21954   */\n      dup2\n        /* \"#utility.yul\":21939:21943   */\n      dup2\n        /* \"#utility.yul\":21935:21955   */\n      sub\n        /* \"#utility.yul\":21931:21932   */\n      0x00\n        /* \"#utility.yul\":21920:21929   */\n      dup4\n        /* \"#utility.yul\":21916:21933   */\n      add\n        /* \"#utility.yul\":21909:21956   */\n      mstore\n        /* \"#utility.yul\":21973:22104   */\n      tag_495\n        /* \"#utility.yul\":22099:22103   */\n      dup2\n        /* \"#utility.yul\":21973:22104   */\n      tag_302\n      jump\t// in\n    tag_495:\n        /* \"#utility.yul\":21965:22104   */\n      swap1\n      pop\n        /* \"#utility.yul\":21692:22111   */\n      swap2\n      swap1\n      pop\n      jump\t// out\n        /* \"#utility.yul\":22117:22298   */\n    tag_303:\n        /* \"#utility.yul\":22257:22290   */\n      0x5265656e7472616e637947756172643a207265656e7472616e742063616c6c00\n        /* \"#utility.yul\":22253:22254   */\n      0x00\n        /* \"#utility.yul\":22245:22251   */\n      dup3\n        /* \"#utility.yul\":22241:22255   */\n      add\n        /* \"#utility.yul\":22234:22291   */\n      mstore\n        /* \"#utility.yul\":22117:22298   */\n      pop\n      jump\t// out\n        /* \"#utility.yul\":22304:22670   */\n    tag_304:\n        /* \"#utility.yul\":22446:22449   */\n      0x00\n        /* \"#utility.yul\":22467:22534   */\n      tag_498\n        /* \"#utility.yul\":22531:22533   */\n      0x1f\n        /* \"#utility.yul\":22526:22529   */\n      dup4\n        /* \"#utility.yul\":22467:22534   */\n      tag_276\n      jump\t// in\n    tag_498:\n        /* \"#utility.yul\":22460:22534   */\n      swap2\n      pop\n        /* \"#utility.yul\":22543:22636   */\n      tag_499\n        /* \"#utility.yul\":22632:22635   */\n      dup3\n        /* \"#utility.yul\":22543:22636   */\n      tag_303\n      jump\t// in\n    tag_499:\n        /* \"#utility.yul\":22661:22663   */\n      0x20\n        /* \"#utility.yul\":22656:22659   */\n      dup3\n        /* \"#utility.yul\":22652:22664   */\n      add\n        /* \"#utility.yul\":22645:22664   */\n      swap1\n      pop\n        /* \"#utility.yul\":22304:22670   */\n      swap2\n      swap1\n      pop\n      jump\t// out\n        /* \"#utility.yul\":22676:23095   */\n    tag_239:\n        /* \"#utility.yul\":22842:22846   */\n      0x00\n        /* \"#utility.yul\":22880:22882   */\n      0x20\n        /* \"#utility.yul\":22869:22878   */\n      dup3\n        /* \"#utility.yul\":22865:22883   */\n      add\n        /* \"#utility.yul\":22857:22883   */\n      swap1\n      pop\n        /* \"#utility.yul\":22929:22938   */\n      dup2\n        /* \"#utility.yul\":22923:22927   */\n      dup2\n        /* \"#utility.yul\":22919:22939   */\n      sub\n        /* \"#utility.yul\":22915:22916   */\n      0x00\n        /* \"#utility.yul\":22904:22913   */\n      dup4\n        /* \"#utility.yul\":22900:22917   */\n      add\n        /* \"#utility.yul\":22893:22940   */\n      mstore\n        /* \"#utility.yul\":22957:23088   */\n      tag_501\n        /* \"#utility.yul\":23083:23087   */\n      dup2\n        /* \"#utility.yul\":22957:23088   */\n      tag_304\n      jump\t// in\n    tag_501:\n        /* \"#utility.yul\":22949:23088   */\n      swap1\n      pop\n        /* \"#utility.yul\":22676:23095   */\n      swap2\n      swap1\n      pop\n      jump\t// out\n        /* \"#utility.yul\":23101:23433   */\n    tag_243:\n        /* \"#utility.yul\":23222:23226   */\n      0x00\n        /* \"#utility.yul\":23260:23262   */\n      0x40\n        /* \"#utility.yul\":23249:23258   */\n      dup3\n        /* \"#utility.yul\":23245:23263   */\n      add\n        /* \"#utility.yul\":23237:23263   */\n      swap1\n      pop\n        /* \"#utility.yul\":23273:23344   */\n      tag_503\n        /* \"#utility.yul\":23341:23342   */\n      0x00\n        /* \"#utility.yul\":23330:23339   */\n      dup4\n        /* \"#utility.yul\":23326:23343   */\n      add\n        /* \"#utility.yul\":23317:23323   */\n      dup6\n        /* \"#utility.yul\":23273:23344   */\n      tag_259\n      jump\t// in\n    tag_503:\n        /* \"#utility.yul\":23354:23426   */\n      tag_504\n        /* \"#utility.yul\":23422:23424   */\n      0x20\n        /* \"#utility.yul\":23411:23420   */\n      dup4\n        /* \"#utility.yul\":23407:23425   */\n      add\n        /* \"#utility.yul\":23398:23404   */\n      dup5\n        /* \"#utility.yul\":23354:23426   */\n      tag_254\n      jump\t// in\n    tag_504:\n        /* \"#utility.yul\":23101:23433   */\n      swap4\n      swap3\n      pop\n      pop\n      pop\n      jump\t// out\n\n    auxdata: 0xa264697066735822122075971fd7ee9b9806324433c07a30ee4206da5b72375a9b871e370b47faf588e864736f6c63430008140033\n}\n",
				"bytecode": {
					"linkReferences": {},
					"object": "608060405234801562000010575f80fd5b50335f73ffffffffffffffffffffffffffffffffffffffff168173ffffffffffffffffffffffffffffffffffffffff160362000085575f6040517f1e4fbdf70000000000000000000000000000000000000000000000000000000081526004016200007c9190620001a8565b60405180910390fd5b6200009681620000a460201b60201c565b5060018081905550620001c3565b5f805f9054906101000a900473ffffffffffffffffffffffffffffffffffffffff169050815f806101000a81548173ffffffffffffffffffffffffffffffffffffffff021916908373ffffffffffffffffffffffffffffffffffffffff1602179055508173ffffffffffffffffffffffffffffffffffffffff168173ffffffffffffffffffffffffffffffffffffffff167f8be0079c531659141344cd1fd0a4f28419497f9722a3daafe3b4186f6b6457e060405160405180910390a35050565b5f73ffffffffffffffffffffffffffffffffffffffff82169050919050565b5f620001908262000165565b9050919050565b620001a28162000184565b82525050565b5f602082019050620001bd5f83018462000197565b92915050565b611e6080620001d15f395ff3fe608060405234801561000f575f80fd5b5060043610610156575f3560e01c806386d1a69f116100c1578063be9a65551161007a578063be9a655514610336578063dc25a30014610354578063ecb70fb71461037a578063ee4a745c14610398578063f2fde38b146103ba578063fc0c546a146103d657610156565b806386d1a69f146102ac578063872a7810146102b65780638da5cb5b146102d457806396132521146102f25780639639011e14610310578063b6549f751461032c57610156565b806344691f7e1161011357806344691f7e1461020e57806344b1231f1461022c5780635b9400811461024a57806363d256ce14610268578063715018a614610286578063841bee0d1461029057610156565b80630fb5a6b41461015a57806313d033c0146101785780631a39d8ef14610196578063253254d6146101b457806338af3eed146101d2578063392e53cd146101f0575b5f80fd5b6101626103f4565b60405161016f919061132d565b60405180910390f35b6101806103fa565b60405161018d919061132d565b60405180910390f35b61019e610400565b6040516101ab919061132d565b60405180910390f35b6101bc610406565b6040516101c99190611360565b60405180910390f35b6101da61041f565b6040516101e791906113b8565b60405180910390f35b6101f8610444565b6040516102059190611360565b60405180910390f35b61021661045a565b6040516102239190611360565b60405180910390f35b610234610466565b604051610241919061132d565b60405180910390f35b610252610521565b60405161025f919061132d565b60405180910390f35b61027061053c565b60405161027d9190611360565b60405180910390f35b61028e61054f565b005b6102aa60048036038101906102a59190611453565b610562565b005b6102b4610931565b005b6102be610ba1565b6040516102cb9190611360565b60405180910390f35b6102dc610bb3565b6040516102e991906113b8565b60405180910390f35b6102fa610bda565b604051610307919061132d565b60405180910390f35b61032a600480360381019061032591906114f0565b610be0565b005b610334610cad565b005b61033e610e59565b60405161034b919061132d565b60405180910390f35b61035c610e5f565b6040516103719998979695949392919061152e565b60405180910390f35b610382610ef7565b60405161038f9190611360565b60405180910390f35b6103a0610f10565b6040516103b19594939291906115b9565b60405180910390f35b6103d460048036038101906103cf919061160a565b610fab565b005b6103de61102f565b6040516103eb9190611690565b60405180910390f35b60065481565b60045481565b60075481565b5f60045460055461041791906116d6565b421015905090565b60035f9054906101000a900473ffffffffffffffffffffffffffffffffffffffff1681565b5f600960029054906101000a900460ff16905090565b5f600554421015905090565b5f600960019054906101000a900460ff1615610484575f905061051e565b5f42905060045460055461049891906116d6565b8110156104a8575f91505061051e565b6006546005546104b891906116d6565b81106104c95760075491505061051e565b5f600454600554836104db9190611709565b6104e59190611709565b90505f6004546006546104f89190611709565b90505f818360075461050a919061173c565b61051491906117aa565b9050809450505050505b90565b5f60085461052d610466565b6105379190611709565b905090565b600960019054906101000a900460ff1681565b610557611054565b6105605f6110db565b565b600960029054906101000a900460ff16156105b2576040517f08c379a00000000000000000000000000000000000000000000000000000000081526004016105a990611834565b60405180910390fd5b5f73ffffffffffffffffffffffffffffffffffffffff168773ffffffffffffffffffffffffffffffffffffffff1603610620576040517f08c379a00000000000000000000000000000000000000000000000000000000081526004016106179061189c565b60405180910390fd5b5f73ffffffffffffffffffffffffffffffffffffffff168673ffffffffffffffffffffffffffffffffffffffff160361068e576040517f08c379a000000000000000000000000000000000000000000000000000000000815260040161068590611904565b60405180910390fd5b5f85116106d0576040517f08c379a00000000000000000000000000000000000000000000000000000000081526004016106c790611992565b60405180910390fd5b5f8311610712576040517f08c379a0000000000000000000000000000000000000000000000000000000008152600401610709906119fa565b60405180910390fd5b82841115610755576040517f08c379a000000000000000000000000000000000000000000000000000000000815260040161074c90611a62565b60405180910390fd5b5f73ffffffffffffffffffffffffffffffffffffffff168173ffffffffffffffffffffffffffffffffffffffff16036107c3576040517f08c379a00000000000000000000000000000000000000000000000000000000081526004016107ba90611aca565b60405180910390fd5b8660025f6101000a81548173ffffffffffffffffffffffffffffffffffffffff021916908373ffffffffffffffffffffffffffffffffffffffff1602179055508560035f6101000a81548173ffffffffffffffffffffffffffffffffffffffff021916908373ffffffffffffffffffffffffffffffffffffffff1602179055508460078190555083600481905550826006819055508160095f6101000a81548160ff021916908315150217905550426005819055505f6008819055505f600960016101000a81548160ff0219169083151502179055506001600960026101000a81548160ff0219169083151502179055506108bd816110db565b8573ffffffffffffffffffffffffffffffffffffffff168773ffffffffffffffffffffffffffffffffffffffff167f14fc8ad8c19c2f708dda1e872c93f682d7a3cae234bdc2712270269f8e1d00c2878787876040516109209493929190611ae8565b60405180910390a350505050505050565b61093961119c565b600960019054906101000a900460ff1615610989576040517f08c379a000000000000000000000000000000000000000000000000000000000815260040161098090611b75565b60405180910390fd5b60035f9054906101000a900473ffffffffffffffffffffffffffffffffffffffff1673ffffffffffffffffffffffffffffffffffffffff163373ffffffffffffffffffffffffffffffffffffffff161480610a1657506109e7610bb3565b73ffffffffffffffffffffffffffffffffffffffff163373ffffffffffffffffffffffffffffffffffffffff16145b610a55576040517f08c379a0000000000000000000000000000000000000000000000000000000008152600401610a4c90611bdd565b60405180910390fd5b5f610a5e610521565b90505f8111610aa2576040517f08c379a0000000000000000000000000000000000000000000000000000000008152600401610a9990611c45565b60405180910390fd5b8060085f828254610ab391906116d6565b92505081905550610b2760035f9054906101000a900473ffffffffffffffffffffffffffffffffffffffff168260025f9054906101000a900473ffffffffffffffffffffffffffffffffffffffff1673ffffffffffffffffffffffffffffffffffffffff166111eb9092919063ffffffff16565b60035f9054906101000a900473ffffffffffffffffffffffffffffffffffffffff1673ffffffffffffffffffffffffffffffffffffffff167fc7798891864187665ac6dd119286e44ec13f014527aeeb2b8eb3fd413df9317982604051610b8e919061132d565b60405180910390a250610b9f61126a565b565b60095f9054906101000a900460ff1681565b5f805f9054906101000a900473ffffffffffffffffffffffffffffffffffffffff16905090565b60085481565b610be8611054565b60025f9054906101000a900473ffffffffffffffffffffffffffffffffffffffff1673ffffffffffffffffffffffffffffffffffffffff168273ffffffffffffffffffffffffffffffffffffffff1603610c77576040517f08c379a0000000000000000000000000000000000000000000000000000000008152600401610c6e90611cad565b60405180910390fd5b610ca9610c82610bb3565b828473ffffffffffffffffffffffffffffffffffffffff166111eb9092919063ffffffff16565b5050565b610cb5611054565b60095f9054906101000a900460ff16610d03576040517f08c379a0000000000000000000000000000000000000000000000000000000008152600401610cfa90611d15565b60405180910390fd5b600960019054906101000a900460ff1615610d53576040517f08c379a0000000000000000000000000000000000000000000000000000000008152600401610d4a90611d7d565b60405180910390fd5b6001600960016101000a81548160ff0219169083151502179055505f610d77610466565b90505f81600754610d889190611709565b90505f811115610de657610de5610d9d610bb3565b8260025f9054906101000a900473ffffffffffffffffffffffffffffffffffffffff1673ffffffffffffffffffffffffffffffffffffffff166111eb9092919063ffffffff16565b5b60035f9054906101000a900473ffffffffffffffffffffffffffffffffffffffff1673ffffffffffffffffffffffffffffffffffffffff167f57c76f5e278bfbd4eeb5207d287aa5a1a9e1113c65f7eefa540e379a2774d13b82604051610e4d919061132d565b60405180910390a25050565b60055481565b5f805f805f805f805f60025f9054906101000a900473ffffffffffffffffffffffffffffffffffffffff1660035f9054906101000a900473ffffffffffffffffffffffffffffffffffffffff1660075460085460045460055460065460095f9054906101000a900460ff16600960019054906101000a900460ff16985098509850985098509850985098509850909192939495969798565b5f600654600554610f0891906116d6565b421015905090565b5f805f805f804290505f6005548211610f29575f610f38565b60055482610f379190611709565b5b90505f600654600554610f4b91906116d6565b8310610f57575f610f73565b82600654600554610f6891906116d6565b610f729190611709565b5b9050610f7d610466565b610f85610521565b600854600754610f959190611709565b8484975097509750975097505050509091929394565b610fb3611054565b5f73ffffffffffffffffffffffffffffffffffffffff168173ffffffffffffffffffffffffffffffffffffffff1603611023575f6040517f1e4fbdf700000000000000000000000000000000000000000000000000000000815260040161101a91906113b8565b60405180910390fd5b61102c816110db565b50565b60025f9054906101000a900473ffffffffffffffffffffffffffffffffffffffff1681565b61105c611273565b73ffffffffffffffffffffffffffffffffffffffff1661107a610bb3565b73ffffffffffffffffffffffffffffffffffffffff16146110d95761109d611273565b6040517f118cdaa70000000000000000000000000000000000000000000000000000000081526004016110d091906113b8565b60405180910390fd5b565b5f805f9054906101000a900473ffffffffffffffffffffffffffffffffffffffff169050815f806101000a81548173ffffffffffffffffffffffffffffffffffffffff021916908373ffffffffffffffffffffffffffffffffffffffff1602179055508173ffffffffffffffffffffffffffffffffffffffff168173ffffffffffffffffffffffffffffffffffffffff167f8be0079c531659141344cd1fd0a4f28419497f9722a3daafe3b4186f6b6457e060405160405180910390a35050565b6002600154036111e1576040517f08c379a00000000000000000000000000000000000000000000000000000000081526004016111d890611de5565b60405180910390fd5b6002600181905550565b611265838473ffffffffffffffffffffffffffffffffffffffff1663a9059cbb858560405160240161121e929190611e03565b604051602081830303815290604052915060e01b6020820180517bffffffffffffffffffffffffffffffffffffffffffffffffffffffff838183161783525050505061127a565b505050565b60018081905550565b5f33905090565b5f8060205f8451602086015f885af180611299576040513d5f823e3d81fd5b3d92505f519150505f82146112b25760018114156112cd565b5f8473ffffffffffffffffffffffffffffffffffffffff163b145b1561130f57836040517f5274afe700000000000000000000000000000000000000000000000000000000815260040161130691906113b8565b60405180910390fd5b50505050565b5f819050919050565b61132781611315565b82525050565b5f6020820190506113405f83018461131e565b92915050565b5f8115159050919050565b61135a81611346565b82525050565b5f6020820190506113735f830184611351565b92915050565b5f73ffffffffffffffffffffffffffffffffffffffff82169050919050565b5f6113a282611379565b9050919050565b6113b281611398565b82525050565b5f6020820190506113cb5f8301846113a9565b92915050565b5f80fd5b6113de81611398565b81146113e8575f80fd5b50565b5f813590506113f9816113d5565b92915050565b61140881611315565b8114611412575f80fd5b50565b5f81359050611423816113ff565b92915050565b61143281611346565b811461143c575f80fd5b50565b5f8135905061144d81611429565b92915050565b5f805f805f805f60e0888a03121561146e5761146d6113d1565b5b5f61147b8a828b016113eb565b975050602061148c8a828b016113eb565b965050604061149d8a828b01611415565b95505060606114ae8a828b01611415565b94505060806114bf8a828b01611415565b93505060a06114d08a828b0161143f565b92505060c06114e18a828b016113eb565b91505092959891949750929550565b5f8060408385031215611506576115056113d1565b5b5f611513858286016113eb565b925050602061152485828601611415565b9150509250929050565b5f610120820190506115425f83018c6113a9565b61154f602083018b6113a9565b61155c604083018a61131e565b611569606083018961131e565b611576608083018861131e565b61158360a083018761131e565b61159060c083018661131e565b61159d60e0830185611351565b6115ab610100830184611351565b9a9950505050505050505050565b5f60a0820190506115cc5f83018861131e565b6115d9602083018761131e565b6115e6604083018661131e565b6115f3606083018561131e565b611600608083018461131e565b9695505050505050565b5f6020828403121561161f5761161e6113d1565b5b5f61162c848285016113eb565b91505092915050565b5f819050919050565b5f61165861165361164e84611379565b611635565b611379565b9050919050565b5f6116698261163e565b9050919050565b5f61167a8261165f565b9050919050565b61168a81611670565b82525050565b5f6020820190506116a35f830184611681565b92915050565b7f4e487b71000000000000000000000000000000000000000000000000000000005f52601160045260245ffd5b5f6116e082611315565b91506116eb83611315565b9250828201905080821115611703576117026116a9565b5b92915050565b5f61171382611315565b915061171e83611315565b9250828203905081811115611736576117356116a9565b5b92915050565b5f61174682611315565b915061175183611315565b925082820261175f81611315565b91508282048414831517611776576117756116a9565b5b5092915050565b7f4e487b71000000000000000000000000000000000000000000000000000000005f52601260045260245ffd5b5f6117b482611315565b91506117bf83611315565b9250826117cf576117ce61177d565b5b828204905092915050565b5f82825260208201905092915050565b7f416c726561647920696e697469616c697a6564000000000000000000000000005f82015250565b5f61181e6013836117da565b9150611829826117ea565b602082019050919050565b5f6020820190508181035f83015261184b81611812565b9050919050565b7f496e76616c696420746f6b656e206164647265737300000000000000000000005f82015250565b5f6118866015836117da565b915061189182611852565b602082019050919050565b5f6020820190508181035f8301526118b38161187a565b9050919050565b7f496e76616c69642062656e6566696369617279206164647265737300000000005f82015250565b5f6118ee601b836117da565b91506118f9826118ba565b602082019050919050565b5f6020820190508181035f83015261191b816118e2565b9050919050565b7f546f74616c20616d6f756e74206d7573742062652067726561746572207468615f8201527f6e20300000000000000000000000000000000000000000000000000000000000602082015250565b5f61197c6023836117da565b915061198782611922565b604082019050919050565b5f6020820190508181035f8301526119a981611970565b9050919050565b7f4475726174696f6e206d7573742062652067726561746572207468616e2030005f82015250565b5f6119e4601f836117da565b91506119ef826119b0565b602082019050919050565b5f6020820190508181035f830152611a11816119d8565b9050919050565b7f436c6966662063616e6e6f7420657863656564206475726174696f6e000000005f82015250565b5f611a4c601c836117da565b9150611a5782611a18565b602082019050919050565b5f6020820190508181035f830152611a7981611a40565b9050919050565b7f496e76616c6964206f776e6572206164647265737300000000000000000000005f82015250565b5f611ab46015836117da565b9150611abf82611a80565b602082019050919050565b5f6020820190508181035f830152611ae181611aa8565b9050919050565b5f608082019050611afb5f83018761131e565b611b08602083018661131e565b611b15604083018561131e565b611b226060830184611351565b95945050505050565b7f56657374696e6720686173206265656e207265766f6b656400000000000000005f82015250565b5f611b5f6018836117da565b9150611b6a82611b2b565b602082019050919050565b5f6020820190508181035f830152611b8c81611b53565b9050919050565b7f556e617574686f72697a656400000000000000000000000000000000000000005f82015250565b5f611bc7600c836117da565b9150611bd282611b93565b602082019050919050565b5f6020820190508181035f830152611bf481611bbb565b9050919050565b7f4e6f20746f6b656e7320746f2072656c656173650000000000000000000000005f82015250565b5f611c2f6014836117da565b9150611c3a82611bfb565b602082019050919050565b5f6020820190508181035f830152611c5c81611c23565b9050919050565b7f43616e6e6f74207265636f7665722076657374696e6720746f6b656e000000005f82015250565b5f611c97601c836117da565b9150611ca282611c63565b602082019050919050565b5f6020820190508181035f830152611cc481611c8b565b9050919050565b7f56657374696e67206973206e6f74207265766f6361626c6500000000000000005f82015250565b5f611cff6018836117da565b9150611d0a82611ccb565b602082019050919050565b5f6020820190508181035f830152611d2c81611cf3565b9050919050565b7f56657374696e6720616c7265616479207265766f6b65640000000000000000005f82015250565b5f611d676017836117da565b9150611d7282611d33565b602082019050919050565b5f6020820190508181035f830152611d9481611d5b565b9050919050565b7f5265656e7472616e637947756172643a207265656e7472616e742063616c6c005f82015250565b5f611dcf601f836117da565b9150611dda82611d9b565b602082019050919050565b5f6020820190508181035f830152611dfc81611dc3565b9050919050565b5f604082019050611e165f8301856113a9565b611e23602083018461131e565b939250505056fea264697066735822122075971fd7ee9b9806324433c07a30ee4206da5b72375a9b871e370b47faf588e864736f6c63430008140033",
					"opcodes": "PUSH1 0x80 PUSH1 0x40 MSTORE CALLVALUE DUP1 ISZERO PUSH3 0x10 JUMPI PUSH0 DUP1 REVERT JUMPDEST POP CALLER PUSH0 PUSH20 0xFFFFFFFFFFFFFFFFFFFFFFFFFFFFFFFFFFFFFFFF AND DUP2 PUSH20 0xFFFFFFFFFFFFFFFFFFFFFFFFFFFFFFFFFFFFFFFF AND SUB PUSH3 0x85 JUMPI PUSH0 PUSH1 0x40 MLOAD PUSH32 0x1E4FBDF700000000000000000000000000000000000000000000000000000000 DUP2 MSTORE PUSH1 0x4 ADD PUSH3 0x7C SWAP2 SWAP1 PUSH3 0x1A8 JUMP JUMPDEST PUSH1 0x40 MLOAD DUP1 SWAP2 SUB SWAP1 REVERT JUMPDEST PUSH3 0x96 DUP2 PUSH3 0xA4 PUSH1 0x20 SHL PUSH1 0x20 SHR JUMP JUMPDEST POP PUSH1 0x1 DUP1 DUP2 SWAP1 SSTORE POP PUSH3 0x1C3 JUMP JUMPDEST PUSH0 DUP1 PUSH0 SWAP1 SLOAD SWAP1 PUSH2 0x100 EXP SWAP1 DIV PUSH20 0xFFFFFFFFFFFFFFFFFFFFFFFFFFFFFFFFFFFFFFFF AND SWAP1 POP DUP2 PUSH0 DUP1 PUSH2 0x100 EXP DUP2 SLOAD DUP2 PUSH20 0xFFFFFFFFFFFFFFFFFFFFFFFFFFFFFFFFFFFFFFFF MUL NOT AND SWAP1 DUP4 PUSH20 0xFFFFFFFFFFFFFFFFFFFFFFFFFFFFFFFFFFFFFFFF AND MUL OR SWAP1 SSTORE POP DUP2 PUSH20 0xFFFFFFFFFFFFFFFFFFFFFFFFFFFFFFFFFFFFFFFF AND DUP2 PUSH20 0xFFFFFFFFFFFFFFFFFFFFFFFFFFFFFFFFFFFFFFFF AND PUSH32 0x8BE0079C531659141344CD1FD0A4F28419497F9722A3DAAFE3B4186F6B6457E0 PUSH1 0x40 MLOAD PUSH1 0x40 MLOAD DUP1 SWAP2 SUB SWAP1 LOG3 POP POP JUMP JUMPDEST PUSH0 PUSH20 0xFFFFFFFFFFFFFFFFFFFFFFFFFFFFFFFFFFFFFFFF DUP3 AND SWAP1 POP SWAP2 SWAP1 POP JUMP JUMPDEST PUSH0 PUSH3 0x190 DUP3 PUSH3 0x165 JUMP JUMPDEST SWAP1 POP SWAP2 SWAP1 POP JUMP JUMPDEST PUSH3 0x1A2 DUP2 PUSH3 0x184 JUMP JUMPDEST DUP3 MSTORE POP POP JUMP JUMPDEST PUSH0 PUSH1 0x20 DUP3 ADD SWAP1 POP PUSH3 0x1BD PUSH0 DUP4 ADD DUP5 PUSH3 0x197 JUMP JUMPDEST SWAP3 SWAP2 POP POP JUMP JUMPDEST PUSH2 0x1E60 DUP1 PUSH3 0x1D1 PUSH0 CODECOPY PUSH0 RETURN INVALID PUSH1 0x80 PUSH1 0x40 MSTORE CALLVALUE DUP1 ISZERO PUSH2 0xF JUMPI PUSH0 DUP1 REVERT JUMPDEST POP PUSH1 0x4 CALLDATASIZE LT PUSH2 0x156 JUMPI PUSH0 CALLDATALOAD PUSH1 0xE0 SHR DUP1 PUSH4 0x86D1A69F GT PUSH2 0xC1 JUMPI DUP1 PUSH4 0xBE9A6555 GT PUSH2 0x7A JUMPI DUP1 PUSH4 0xBE9A6555 EQ PUSH2 0x336 JUMPI DUP1 PUSH4 0xDC25A300 EQ PUSH2 0x354 JUMPI DUP1 PUSH4 0xECB70FB7 EQ PUSH2 0x37A JUMPI DUP1 PUSH4 0xEE4A745C EQ PUSH2 0x398 JUMPI DUP1 PUSH4 0xF2FDE38B EQ PUSH2 0x3BA JUMPI DUP1 PUSH4 0xFC0C546A EQ PUSH2 0x3D6 JUMPI PUSH2 0x156 JUMP JUMPDEST DUP1 PUSH4 0x86D1A69F EQ PUSH2 0x2AC JUMPI DUP1 PUSH4 0x872A7810 EQ PUSH2 0x2B6 JUMPI DUP1 PUSH4 0x8DA5CB5B EQ PUSH2 0x2D4 JUMPI DUP1 PUSH4 0x96132521 EQ PUSH2 0x2F2 JUMPI DUP1 PUSH4 0x9639011E EQ PUSH2 0x310 JUMPI DUP1 PUSH4 0xB6549F75 EQ PUSH2 0x32C JUMPI PUSH2 0x156 JUMP JUMPDEST DUP1 PUSH4 0x44691F7E GT PUSH2 0x113 JUMPI DUP1 PUSH4 0x44691F7E EQ PUSH2 0x20E JUMPI DUP1 PUSH4 0x44B1231F EQ PUSH2 0x22C JUMPI DUP1 PUSH4 0x5B940081 EQ PUSH2 0x24A JUMPI DUP1 PUSH4 0x63D256CE EQ PUSH2 0x268 JUMPI DUP1 PUSH4 0x715018A6 EQ PUSH2 0x286 JUMPI DUP1 PUSH4 0x841BEE0D EQ PUSH2 0x290 JUMPI PUSH2 0x156 JUMP JUMPDEST DUP1 PUSH4 0xFB5A6B4 EQ PUSH2 0x15A JUMPI DUP1 PUSH4 0x13D033C0 EQ PUSH2 0x178 JUMPI DUP1 PUSH4 0x1A39D8EF EQ PUSH2 0x196 JUMPI DUP1 PUSH4 0x253254D6 EQ PUSH2 0x1B4 JUMPI DUP1 PUSH4 0x38AF3EED EQ PUSH2 0x1D2 JUMPI DUP1 PUSH4 0x392E53CD EQ PUSH2 0x1F0 JUMPI JUMPDEST PUSH0 DUP1 REVERT JUMPDEST PUSH2 0x162 PUSH2 0x3F4 JUMP JUMPDEST PUSH1 0x40 MLOAD PUSH2 0x16F SWAP2 SWAP1 PUSH2 0x132D JUMP JUMPDEST PUSH1 0x40 MLOAD DUP1 SWAP2 SUB SWAP1 RETURN JUMPDEST PUSH2 0x180 PUSH2 0x3FA JUMP JUMPDEST PUSH1 0x40 MLOAD PUSH2 0x18D SWAP2 SWAP1 PUSH2 0x132D JUMP JUMPDEST PUSH1 0x40 MLOAD DUP1 SWAP2 SUB SWAP1 RETURN JUMPDEST PUSH2 0x19E PUSH2 0x400 JUMP JUMPDEST PUSH1 0x40 MLOAD PUSH2 0x1AB SWAP2 SWAP1 PUSH2 0x132D JUMP JUMPDEST PUSH1 0x40 MLOAD DUP1 SWAP2 SUB SWAP1 RETURN JUMPDEST PUSH2 0x1BC PUSH2 0x406 JUMP JUMPDEST PUSH1 0x40 MLOAD PUSH2 0x1C9 SWAP2 SWAP1 PUSH2 0x1360 JUMP JUMPDEST PUSH1 0x40 MLOAD DUP1 SWAP2 SUB SWAP1 RETURN JUMPDEST PUSH2 0x1DA PUSH2 0x41F JUMP JUMPDEST PUSH1 0x40 MLOAD PUSH2 0x1E7 SWAP2 SWAP1 PUSH2 0x13B8 JUMP JUMPDEST PUSH1 0x40 MLOAD DUP1 SWAP2 SUB SWAP1 RETURN JUMPDEST PUSH2 0x1F8 PUSH2 0x444 JUMP JUMPDEST PUSH1 0x40 MLOAD PUSH2 0x205 SWAP2 SWAP1 PUSH2 0x1360 JUMP JUMPDEST PUSH1 0x40 MLOAD DUP1 SWAP2 SUB SWAP1 RETURN JUMPDEST PUSH2 0x216 PUSH2 0x45A JUMP JUMPDEST PUSH1 0x40 MLOAD PUSH2 0x223 SWAP2 SWAP1 PUSH2 0x1360 JUMP JUMPDEST PUSH1 0x40 MLOAD DUP1 SWAP2 SUB SWAP1 RETURN JUMPDEST PUSH2 0x234 PUSH2 0x466 JUMP JUMPDEST PUSH1 0x40 MLOAD PUSH2 0x241 SWAP2 SWAP1 PUSH2 0x132D JUMP JUMPDEST PUSH1 0x40 MLOAD DUP1 SWAP2 SUB SWAP1 RETURN JUMPDEST PUSH2 0x252 PUSH2 0x521 JUMP JUMPDEST PUSH1 0x40 MLOAD PUSH2 0x25F SWAP2 SWAP1 PUSH2 0x132D JUMP JUMPDEST PUSH1 0x40 MLOAD DUP1 SWAP2 SUB SWAP1 RETURN JUMPDEST PUSH2 0x270 PUSH2 0x53C JUMP JUMPDEST PUSH1 0x40 MLOAD PUSH2 0x27D SWAP2 SWAP1 PUSH2 0x1360 JUMP JUMPDEST PUSH1 0x40 MLOAD DUP1 SWAP2 SUB SWAP1 RETURN JUMPDEST PUSH2 0x28E PUSH2 0x54F JUMP JUMPDEST STOP JUMPDEST PUSH2 0x2AA PUSH1 0x4 DUP1 CALLDATASIZE SUB DUP2 ADD SWAP1 PUSH2 0x2A5 SWAP2 SWAP1 PUSH2 0x1453 JUMP JUMPDEST PUSH2 0x562 JUMP JUMPDEST STOP JUMPDEST PUSH2 0x2B4 PUSH2 0x931 JUMP JUMPDEST STOP JUMPDEST PUSH2 0x2BE PUSH2 0xBA1 JUMP JUMPDEST PUSH1 0x40 MLOAD PUSH2 0x2CB SWAP2 SWAP1 PUSH2 0x1360 JUMP JUMPDEST PUSH1 0x40 MLOAD DUP1 SWAP2 SUB SWAP1 RETURN JUMPDEST PUSH2 0x2DC PUSH2 0xBB3 JUMP JUMPDEST PUSH1 0x40 MLOAD PUSH2 0x2E9 SWAP2 SWAP1 PUSH2 0x13B8 JUMP JUMPDEST PUSH1 0x40 MLOAD DUP1 SWAP2 SUB SWAP1 RETURN JUMPDEST PUSH2 0x2FA PUSH2 0xBDA JUMP JUMPDEST PUSH1 0x40 MLOAD PUSH2 0x307 SWAP2 SWAP1 PUSH2 0x132D JUMP JUMPDEST PUSH1 0x40 MLOAD DUP1 SWAP2 SUB SWAP1 RETURN JUMPDEST PUSH2 0x32A PUSH1 0x4 DUP1 CALLDATASIZE SUB DUP2 ADD SWAP1 PUSH2 0x325 SWAP2 SWAP1 PUSH2 0x14F0 JUMP JUMPDEST PUSH2 0xBE0 JUMP JUMPDEST STOP JUMPDEST PUSH2 0x334 PUSH2 0xCAD JUMP JUMPDEST STOP JUMPDEST PUSH2 0x33E PUSH2 0xE59 JUMP JUMPDEST PUSH1 0x40 MLOAD PUSH2 0x34B SWAP2 SWAP1 PUSH2 0x132D JUMP JUMPDEST PUSH1 0x40 MLOAD DUP1 SWAP2 SUB SWAP1 RETURN JUMPDEST PUSH2 0x35C PUSH2 0xE5F JUMP JUMPDEST PUSH1 0x40 MLOAD PUSH2 0x371 SWAP10 SWAP9 SWAP8 SWAP7 SWAP6 SWAP5 SWAP4 SWAP3 SWAP2 SWAP1 PUSH2 0x152E JUMP JUMPDEST PUSH1 0x40 MLOAD DUP1 SWAP2 SUB SWAP1 RETURN JUMPDEST PUSH2 0x382 PUSH2 0xEF7 JUMP JUMPDEST PUSH1 0x40 MLOAD PUSH2 0x38F SWAP2 SWAP1 PUSH2 0x1360 JUMP JUMPDEST PUSH1 0x40 MLOAD DUP1 SWAP2 SUB SWAP1 RETURN JUMPDEST PUSH2 0x3A0 PUSH2 0xF10 JUMP JUMPDEST PUSH1 0x40 MLOAD PUSH2 0x3B1 SWAP6 SWAP5 SWAP4 SWAP3 SWAP2 SWAP1 PUSH2 0x15B9 JUMP JUMPDEST PUSH1 0x40 MLOAD DUP1 SWAP2 SUB SWAP1 RETURN JUMPDEST PUSH2 0x3D4 PUSH1 0x4 DUP1 CALLDATASIZE SUB DUP2 ADD SWAP1 PUSH2 0x3CF SWAP2 SWAP1 PUSH2 0x160A JUMP JUMPDEST PUSH2 0xFAB JUMP JUMPDEST STOP JUMPDEST PUSH2 0x3DE PUSH2 0x102F JUMP JUMPDEST PUSH1 0x40 MLOAD PUSH2 0x3EB SWAP2 SWAP1 PUSH2 0x1690 JUMP JUMPDEST PUSH1 0x40 MLOAD DUP1 SWAP2 SUB SWAP1 RETURN JUMPDEST PUSH1 0x6 SLOAD DUP2 JUMP JUMPDEST PUSH1 0x4 SLOAD DUP2 JUMP JUMPDEST PUSH1 0x7 SLOAD DUP2 JUMP JUMPDEST PUSH0 PUSH1 0x4 SLOAD PUSH1 0x5 SLOAD PUSH2 0x417 SWAP2 SWAP1 PUSH2 0x16D6 JUMP JUMPDEST TIMESTAMP LT ISZERO SWAP1 POP SWAP1 JUMP JUMPDEST PUSH1 0x3 PUSH0 SWAP1 SLOAD SWAP1 PUSH2 0x100 EXP SWAP1 DIV PUSH20 0xFFFFFFFFFFFFFFFFFFFFFFFFFFFFFFFFFFFFFFFF AND DUP2 JUMP JUMPDEST PUSH0 PUSH1 0x9 PUSH1 0x2 SWAP1 SLOAD SWAP1 PUSH2 0x100 EXP SWAP1 DIV PUSH1 0xFF AND SWAP1 POP SWAP1 JUMP JUMPDEST PUSH0 PUSH1 0x5 SLOAD TIMESTAMP LT ISZERO SWAP1 POP SWAP1 JUMP JUMPDEST PUSH0 PUSH1 0x9 PUSH1 0x1 SWAP1 SLOAD SWAP1 PUSH2 0x100 EXP SWAP1 DIV PUSH1 0xFF AND ISZERO PUSH2 0x484 JUMPI PUSH0 SWAP1 POP PUSH2 0x51E JUMP JUMPDEST PUSH0 TIMESTAMP SWAP1 POP PUSH1 0x4 SLOAD PUSH1 0x5 SLOAD PUSH2 0x498 SWAP2 SWAP1 PUSH2 0x16D6 JUMP JUMPDEST DUP2 LT ISZERO PUSH2 0x4A8 JUMPI PUSH0 SWAP2 POP POP PUSH2 0x51E JUMP JUMPDEST PUSH1 0x6 SLOAD PUSH1 0x5 SLOAD PUSH2 0x4B8 SWAP2 SWAP1 PUSH2 0x16D6 JUMP JUMPDEST DUP2 LT PUSH2 0x4C9 JUMPI PUSH1 0x7 SLOAD SWAP2 POP POP PUSH2 0x51E JUMP JUMPDEST PUSH0 PUSH1 0x4 SLOAD PUSH1 0x5 SLOAD DUP4 PUSH2 0x4DB SWAP2 SWAP1 PUSH2 0x1709 JUMP JUMPDEST PUSH2 0x4E5 SWAP2 SWAP1 PUSH2 0x1709 JUMP JUMPDEST SWAP1 POP PUSH0 PUSH1 0x4 SLOAD PUSH1 0x6 SLOAD PUSH2 0x4F8 SWAP2 SWAP1 PUSH2 0x1709 JUMP JUMPDEST SWAP1 POP PUSH0 DUP2 DUP4 PUSH1 0x7 SLOAD PUSH2 0x50A SWAP2 SWAP1 PUSH2 0x173C JUMP JUMPDEST PUSH2 0x514 SWAP2 SWAP1 PUSH2 0x17AA JUMP JUMPDEST SWAP1 POP DUP1 SWAP5 POP POP POP POP POP JUMPDEST SWAP1 JUMP JUMPDEST PUSH0 PUSH1 0x8 SLOAD PUSH2 0x52D PUSH2 0x466 JUMP JUMPDEST PUSH2 0x537 SWAP2 SWAP1 PUSH2 0x1709 JUMP JUMPDEST SWAP1 POP SWAP1 JUMP JUMPDEST PUSH1 0x9 PUSH1 0x1 SWAP1 SLOAD SWAP1 PUSH2 0x100 EXP SWAP1 DIV PUSH1 0xFF AND DUP2 JUMP JUMPDEST PUSH2 0x557 PUSH2 0x1054 JUMP JUMPDEST PUSH2 0x560 PUSH0 PUSH2 0x10DB JUMP JUMPDEST JUMP JUMPDEST PUSH1 0x9 PUSH1 0x2 SWAP1 SLOAD SWAP1 PUSH2 0x100 EXP SWAP1 DIV PUSH1 0xFF AND ISZERO PUSH2 0x5B2 JUMPI PUSH1 0x40 MLOAD PUSH32 0x8C379A000000000000000000000000000000000000000000000000000000000 DUP2 MSTORE PUSH1 0x4 ADD PUSH2 0x5A9 SWAP1 PUSH2 0x1834 JUMP JUMPDEST PUSH1 0x40 MLOAD DUP1 SWAP2 SUB SWAP1 REVERT JUMPDEST PUSH0 PUSH20 0xFFFFFFFFFFFFFFFFFFFFFFFFFFFFFFFFFFFFFFFF AND DUP8 PUSH20 0xFFFFFFFFFFFFFFFFFFFFFFFFFFFFFFFFFFFFFFFF AND SUB PUSH2 0x620 JUMPI PUSH1 0x40 MLOAD PUSH32 0x8C379A000000000000000000000000000000000000000000000000000000000 DUP2 MSTORE PUSH1 0x4 ADD PUSH2 0x617 SWAP1 PUSH2 0x189C JUMP JUMPDEST PUSH1 0x40 MLOAD DUP1 SWAP2 SUB SWAP1 REVERT JUMPDEST PUSH0 PUSH20 0xFFFFFFFFFFFFFFFFFFFFFFFFFFFFFFFFFFFFFFFF AND DUP7 PUSH20 0xFFFFFFFFFFFFFFFFFFFFFFFFFFFFFFFFFFFFFFFF AND SUB PUSH2 0x68E JUMPI PUSH1 0x40 MLOAD PUSH32 0x8C379A000000000000000000000000000000000000000000000000000000000 DUP2 MSTORE PUSH1 0x4 ADD PUSH2 0x685 SWAP1 PUSH2 0x1904 JUMP JUMPDEST PUSH1 0x40 MLOAD DUP1 SWAP2 SUB SWAP1 REVERT JUMPDEST PUSH0 DUP6 GT PUSH2 0x6D0 JUMPI PUSH1 0x40 MLOAD PUSH32 0x8C379A000000000000000000000000000000000000000000000000000000000 DUP2 MSTORE PUSH1 0x4 ADD PUSH2 0x6C7 SWAP1 PUSH2 0x1992 JUMP JUMPDEST PUSH1 0x40 MLOAD DUP1 SWAP2 SUB SWAP1 REVERT JUMPDEST PUSH0 DUP4 GT PUSH2 0x712 JUMPI PUSH1 0x40 MLOAD PUSH32 0x8C379A000000000000000000000000000000000000000000000000000000000 DUP2 MSTORE PUSH1 0x4 ADD PUSH2 0x709 SWAP1 PUSH2 0x19FA JUMP JUMPDEST PUSH1 0x40 MLOAD DUP1 SWAP2 SUB SWAP1 REVERT JUMPDEST DUP3 DUP5 GT ISZERO PUSH2 0x755 JUMPI PUSH1 0x40 MLOAD PUSH32 0x8C379A000000000000000000000000000000000000000000000000000000000 DUP2 MSTORE PUSH1 0x4 ADD PUSH2 0x74C SWAP1 PUSH2 0x1A62 JUMP JUMPDEST PUSH1 0x40 MLOAD DUP1 SWAP2 SUB SWAP1 REVERT JUMPDEST PUSH0 PUSH20 0xFFFFFFFFFFFFFFFFFFFFFFFFFFFFFFFFFFFFFFFF AND DUP2 PUSH20 0xFFFFFFFFFFFFFFFFFFFFFFFFFFFFFFFFFFFFFFFF AND SUB PUSH2 0x7C3 JUMPI PUSH1 0x40 MLOAD PUSH32 0x8C379A000000000000000000000000000000000000000000000000000000000 DUP2 MSTORE PUSH1 0x4 ADD PUSH2 0x7BA SWAP1 PUSH2 0x1ACA JUMP JUMPDEST PUSH1 0x40 MLOAD DUP1 SWAP2 SUB SWAP1 REVERT JUMPDEST DUP7 PUSH1 0x2 PUSH0 PUSH2 0x100 EXP DUP2 SLOAD DUP2 PUSH20 0xFFFFFFFFFFFFFFFFFFFFFFFFFFFFFFFFFFFFFFFF MUL NOT AND SWAP1 DUP4 PUSH20 0xFFFFFFFFFFFFFFFFFFFFFFFFFFFFFFFFFFFFFFFF AND MUL OR SWAP1 SSTORE POP DUP6 PUSH1 0x3 PUSH0 PUSH2 0x100 EXP DUP2 SLOAD DUP2 PUSH20 0xFFFFFFFFFFFFFFFFFFFFFFFFFFFFFFFFFFFFFFFF MUL NOT AND SWAP1 DUP4 PUSH20 0xFFFFFFFFFFFFFFFFFFFFFFFFFFFFFFFFFFFFFFFF AND MUL OR SWAP1 SSTORE POP DUP5 PUSH1 0x7 DUP2 SWAP1 SSTORE POP DUP4 PUSH1 0x4 DUP2 SWAP1 SSTORE POP DUP3 PUSH1 0x6 DUP2 SWAP1 SSTORE POP DUP2 PUSH1 0x9 PUSH0 PUSH2 0x100 EXP DUP2 SLOAD DUP2 PUSH1 0xFF MUL NOT AND SWAP1 DUP4 ISZERO ISZERO MUL OR SWAP1 SSTORE POP TIMESTAMP PUSH1 0x5 DUP2 SWAP1 SSTORE POP PUSH0 PUSH1 0x8 DUP2 SWAP1 SSTORE POP PUSH0 PUSH1 0x9 PUSH1 0x1 PUSH2 0x100 EXP DUP2 SLOAD DUP2 PUSH1 0xFF MUL NOT AND SWAP1 DUP4 ISZERO ISZERO MUL OR SWAP1 SSTORE POP PUSH1 0x1 PUSH1 0x9 PUSH1 0x2 PUSH2 0x100 EXP DUP2 SLOAD DUP2 PUSH1 0xFF MUL NOT AND SWAP1 DUP4 ISZERO ISZERO MUL OR SWAP1 SSTORE POP PUSH2 0x8BD DUP2 PUSH2 0x10DB JUMP JUMPDEST DUP6 PUSH20 0xFFFFFFFFFFFFFFFFFFFFFFFFFFFFFFFFFFFFFFFF AND DUP8 PUSH20 0xFFFFFFFFFFFFFFFFFFFFFFFFFFFFFFFFFFFFFFFF AND PUSH32 0x14FC8AD8C19C2F708DDA1E872C93F682D7A3CAE234BDC2712270269F8E1D00C2 DUP8 DUP8 DUP8 DUP8 PUSH1 0x40 MLOAD PUSH2 0x920 SWAP5 SWAP4 SWAP3 SWAP2 SWAP1 PUSH2 0x1AE8 JUMP JUMPDEST PUSH1 0x40 MLOAD DUP1 SWAP2 SUB SWAP1 LOG3 POP POP POP POP POP POP POP JUMP JUMPDEST PUSH2 0x939 PUSH2 0x119C JUMP JUMPDEST PUSH1 0x9 PUSH1 0x1 SWAP1 SLOAD SWAP1 PUSH2 0x100 EXP SWAP1 DIV PUSH1 0xFF AND ISZERO PUSH2 0x989 JUMPI PUSH1 0x40 MLOAD PUSH32 0x8C379A000000000000000000000000000000000000000000000000000000000 DUP2 MSTORE PUSH1 0x4 ADD PUSH2 0x980 SWAP1 PUSH2 0x1B75 JUMP JUMPDEST PUSH1 0x40 MLOAD DUP1 SWAP2 SUB SWAP1 REVERT JUMPDEST PUSH1 0x3 PUSH0 SWAP1 SLOAD SWAP1 PUSH2 0x100 EXP SWAP1 DIV PUSH20 0xFFFFFFFFFFFFFFFFFFFFFFFFFFFFFFFFFFFFFFFF AND PUSH20 0xFFFFFFFFFFFFFFFFFFFFFFFFFFFFFFFFFFFFFFFF AND CALLER PUSH20 0xFFFFFFFFFFFFFFFFFFFFFFFFFFFFFFFFFFFFFFFF AND EQ DUP1 PUSH2 0xA16 JUMPI POP PUSH2 0x9E7 PUSH2 0xBB3 JUMP JUMPDEST PUSH20 0xFFFFFFFFFFFFFFFFFFFFFFFFFFFFFFFFFFFFFFFF AND CALLER PUSH20 0xFFFFFFFFFFFFFFFFFFFFFFFFFFFFFFFFFFFFFFFF AND EQ JUMPDEST PUSH2 0xA55 JUMPI PUSH1 0x40 MLOAD PUSH32 0x8C379A000000000000000000000000000000000000000000000000000000000 DUP2 MSTORE PUSH1 0x4 ADD PUSH2 0xA4C SWAP1 PUSH2 0x1BDD JUMP JUMPDEST PUSH1 0x40 MLOAD DUP1 SWAP2 SUB SWAP1 REVERT JUMPDEST PUSH0 PUSH2 0xA5E PUSH2 0x521 JUMP JUMPDEST SWAP1 POP PUSH0 DUP2 GT PUSH2 0xAA2 JUMPI PUSH1 0x40 MLOAD PUSH32 0x8C379A000000000000000000000000000000000000000000000000000000000 DUP2 MSTORE PUSH1 0x4 ADD PUSH2 0xA99 SWAP1 PUSH2 0x1C45 JUMP JUMPDEST PUSH1 0x40 MLOAD DUP1 SWAP2 SUB SWAP1 REVERT JUMPDEST DUP1 PUSH1 0x8 PUSH0 DUP3 DUP3 SLOAD PUSH2 0xAB3 SWAP2 SWAP1 PUSH2 0x16D6 JUMP JUMPDEST SWAP3 POP POP DUP2 SWAP1 SSTORE POP PUSH2 0xB27 PUSH1 0x3 PUSH0 SWAP1 SLOAD SWAP1 PUSH2 0x100 EXP SWAP1 DIV PUSH20 0xFFFFFFFFFFFFFFFFFFFFFFFFFFFFFFFFFFFFFFFF AND DUP3 PUSH1 0x2 PUSH0 SWAP1 SLOAD SWAP1 PUSH2 0x100 EXP SWAP1 DIV PUSH20 0xFFFFFFFFFFFFFFFFFFFFFFFFFFFFFFFFFFFFFFFF AND PUSH20 0xFFFFFFFFFFFFFFFFFFFFFFFFFFFFFFFFFFFFFFFF AND PUSH2 0x11EB SWAP1 SWAP3 SWAP2 SWAP1 PUSH4 0xFFFFFFFF AND JUMP JUMPDEST PUSH1 0x3 PUSH0 SWAP1 SLOAD SWAP1 PUSH2 0x100 EXP SWAP1 DIV PUSH20 0xFFFFFFFFFFFFFFFFFFFFFFFFFFFFFFFFFFFFFFFF AND PUSH20 0xFFFFFFFFFFFFFFFFFFFFFFFFFFFFFFFFFFFFFFFF AND PUSH32 0xC7798891864187665AC6DD119286E44EC13F014527AEEB2B8EB3FD413DF93179 DUP3 PUSH1 0x40 MLOAD PUSH2 0xB8E SWAP2 SWAP1 PUSH2 0x132D JUMP JUMPDEST PUSH1 0x40 MLOAD DUP1 SWAP2 SUB SWAP1 LOG2 POP PUSH2 0xB9F PUSH2 0x126A JUMP JUMPDEST JUMP JUMPDEST PUSH1 0x9 PUSH0 SWAP1 SLOAD SWAP1 PUSH2 0x100 EXP SWAP1 DIV PUSH1 0xFF AND DUP2 JUMP JUMPDEST PUSH0 DUP1 PUSH0 SWAP1 SLOAD SWAP1 PUSH2 0x100 EXP SWAP1 DIV PUSH20 0xFFFFFFFFFFFFFFFFFFFFFFFFFFFFFFFFFFFFFFFF AND SWAP1 POP SWAP1 JUMP JUMPDEST PUSH1 0x8 SLOAD DUP2 JUMP JUMPDEST PUSH2 0xBE8 PUSH2 0x1054 JUMP JUMPDEST PUSH1 0x2 PUSH0 SWAP1 SLOAD SWAP1 PUSH2 0x100 EXP SWAP1 DIV PUSH20 0xFFFFFFFFFFFFFFFFFFFFFFFFFFFFFFFFFFFFFFFF AND PUSH20 0xFFFFFFFFFFFFFFFFFFFFFFFFFFFFFFFFFFFFFFFF AND DUP3 PUSH20 0xFFFFFFFFFFFFFFFFFFFFFFFFFFFFFFFFFFFFFFFF AND SUB PUSH2 0xC77 JUMPI PUSH1 0x40 MLOAD PUSH32 0x8C379A000000000000000000000000000000000000000000000000000000000 DUP2 MSTORE PUSH1 0x4 ADD PUSH2 0xC6E SWAP1 PUSH2 0x1CAD JUMP JUMPDEST PUSH1 0x40 MLOAD DUP1 SWAP2 SUB SWAP1 REVERT JUMPDEST PUSH2 0xCA9 PUSH2 0xC82 PUSH2 0xBB3 JUMP JUMPDEST DUP3 DUP5 PUSH20 0xFFFFFFFFFFFFFFFFFFFFFFFFFFFFFFFFFFFFFFFF AND PUSH2 0x11EB SWAP1 SWAP3 SWAP2 SWAP1 PUSH4 0xFFFFFFFF AND JUMP JUMPDEST POP POP JUMP JUMPDEST PUSH2 0xCB5 PUSH2 0x1054 JUMP JUMPDEST PUSH1 0x9 PUSH0 SWAP1 SLOAD SWAP1 PUSH2 0x100 EXP SWAP1 DIV PUSH1 0xFF AND PUSH2 0xD03 JUMPI PUSH1 0x40 MLOAD PUSH32 0x8C379A000000000000000000000000000000000000000000000000000000000 DUP2 MSTORE PUSH1 0x4 ADD PUSH2 0xCFA SWAP1 PUSH2 0x1D15 JUMP JUMPDEST PUSH1 0x40 MLOAD DUP1 SWAP2 SUB SWAP1 REVERT JUMPDEST PUSH1 0x9 PUSH1 0x1 SWAP1 SLOAD SWAP1 PUSH2 0x100 EXP SWAP1 DIV PUSH1 0xFF AND ISZERO PUSH2 0xD53 JUMPI PUSH1 0x40 MLOAD PUSH32 0x8C379A000000000000000000000000000000000000000000000000000000000 DUP2 MSTORE PUSH1 0x4 ADD PUSH2 0xD4A SWAP1 PUSH2 0x1D7D JUMP JUMPDEST PUSH1 0x40 MLOAD DUP1 SWAP2 SUB SWAP1 REVERT JUMPDEST PUSH1 0x1 PUSH1 0x9 PUSH1 0x1 PUSH2 0x100 EXP DUP2 SLOAD DUP2 PUSH1 0xFF MUL NOT AND SWAP1 DUP4 ISZERO ISZERO MUL OR SWAP1 SSTORE POP PUSH0 PUSH2 0xD77 PUSH2 0x466 JUMP JUMPDEST SWAP1 POP PUSH0 DUP2 PUSH1 0x7 SLOAD PUSH2 0xD88 SWAP2 SWAP1 PUSH2 0x1709 JUMP JUMPDEST SWAP1 POP PUSH0 DUP2 GT ISZERO PUSH2 0xDE6 JUMPI PUSH2 0xDE5 PUSH2 0xD9D PUSH2 0xBB3 JUMP JUMPDEST DUP3 PUSH1 0x2 PUSH0 SWAP1 SLOAD SWAP1 PUSH2 0x100 EXP SWAP1 DIV PUSH20 0xFFFFFFFFFFFFFFFFFFFFFFFFFFFFFFFFFFFFFFFF AND PUSH20 0xFFFFFFFFFFFFFFFFFFFFFFFFFFFFFFFFFFFFFFFF AND PUSH2 0x11EB SWAP1 SWAP3 SWAP2 SWAP1 PUSH4 0xFFFFFFFF AND JUMP JUMPDEST JUMPDEST PUSH1 0x3 PUSH0 SWAP1 SLOAD SWAP1 PUSH2 0x100 EXP SWAP1 DIV PUSH20 0xFFFFFFFFFFFFFFFFFFFFFFFFFFFFFFFFFFFFFFFF AND PUSH20 0xFFFFFFFFFFFFFFFFFFFFFFFFFFFFFFFFFFFFFFFF AND PUSH32 0x57C76F5E278BFBD4EEB5207D287AA5A1A9E1113C65F7EEFA540E379A2774D13B DUP3 PUSH1 0x40 MLOAD PUSH2 0xE4D SWAP2 SWAP1 PUSH2 0x132D JUMP JUMPDEST PUSH1 0x40 MLOAD DUP1 SWAP2 SUB SWAP1 LOG2 POP POP JUMP JUMPDEST PUSH1 0x5 SLOAD DUP2 JUMP JUMPDEST PUSH0 DUP1 PUSH0 DUP1 PUSH0 DUP1 PUSH0 DUP1 PUSH0 PUSH1 0x2 PUSH0 SWAP1 SLOAD SWAP1 PUSH2 0x100 EXP SWAP1 DIV PUSH20 0xFFFFFFFFFFFFFFFFFFFFFFFFFFFFFFFFFFFFFFFF AND PUSH1 0x3 PUSH0 SWAP1 SLOAD SWAP1 PUSH2 0x100 EXP SWAP1 DIV PUSH20 0xFFFFFFFFFFFFFFFFFFFFFFFFFFFFFFFFFFFFFFFF AND PUSH1 0x7 SLOAD PUSH1 0x8 SLOAD PUSH1 0x4 SLOAD PUSH1 0x5 SLOAD PUSH1 0x6 SLOAD PUSH1 0x9 PUSH0 SWAP1 SLOAD SWAP1 PUSH2 0x100 EXP SWAP1 DIV PUSH1 0xFF AND PUSH1 0x9 PUSH1 0x1 SWAP1 SLOAD SWAP1 PUSH2 0x100 EXP SWAP1 DIV PUSH1 0xFF AND SWAP9 POP SWAP9 POP SWAP9 POP SWAP9 POP SWAP9 POP SWAP9 POP SWAP9 POP SWAP9 POP SWAP9 POP SWAP1 SWAP2 SWAP3 SWAP4 SWAP5 SWAP6 SWAP7 SWAP8 SWAP9 JUMP JUMPDEST PUSH0 PUSH1 0x6 SLOAD PUSH1 0x5 SLOAD PUSH2 0xF08 SWAP2 SWAP1 PUSH2 0x16D6 JUMP JUMPDEST TIMESTAMP LT ISZERO SWAP1 POP SWAP1 JUMP JUMPDEST PUSH0 DUP1 PUSH0 DUP1 PUSH0 DUP1 TIMESTAMP SWAP1 POP PUSH0 PUSH1 0x5 SLOAD DUP3 GT PUSH2 0xF29 JUMPI PUSH0 PUSH2 0xF38 JUMP JUMPDEST PUSH1 0x5 SLOAD DUP3 PUSH2 0xF37 SWAP2 SWAP1 PUSH2 0x1709 JUMP JUMPDEST JUMPDEST SWAP1 POP PUSH0 PUSH1 0x6 SLOAD PUSH1 0x5 SLOAD PUSH2 0xF4B SWAP2 SWAP1 PUSH2 0x16D6 JUMP JUMPDEST DUP4 LT PUSH2 0xF57 JUMPI PUSH0 PUSH2 0xF73 JUMP JUMPDEST DUP3 PUSH1 0x6 SLOAD PUSH1 0x5 SLOAD PUSH2 0xF68 SWAP2 SWAP1 PUSH2 0x16D6 JUMP JUMPDEST PUSH2 0xF72 SWAP2 SWAP1 PUSH2 0x1709 JUMP JUMPDEST JUMPDEST SWAP1 POP PUSH2 0xF7D PUSH2 0x466 JUMP JUMPDEST PUSH2 0xF85 PUSH2 0x521 JUMP JUMPDEST PUSH1 0x8 SLOAD PUSH1 0x7 SLOAD PUSH2 0xF95 SWAP2 SWAP1 PUSH2 0x1709 JUMP JUMPDEST DUP5 DUP5 SWAP8 POP SWAP8 POP SWAP8 POP SWAP8 POP SWAP8 POP POP POP POP SWAP1 SWAP2 SWAP3 SWAP4 SWAP5 JUMP JUMPDEST PUSH2 0xFB3 PUSH2 0x1054 JUMP JUMPDEST PUSH0 PUSH20 0xFFFFFFFFFFFFFFFFFFFFFFFFFFFFFFFFFFFFFFFF AND DUP2 PUSH20 0xFFFFFFFFFFFFFFFFFFFFFFFFFFFFFFFFFFFFFFFF AND SUB PUSH2 0x1023 JUMPI PUSH0 PUSH1 0x40 MLOAD PUSH32 0x1E4FBDF700000000000000000000000000000000000000000000000000000000 DUP2 MSTORE PUSH1 0x4 ADD PUSH2 0x101A SWAP2 SWAP1 PUSH2 0x13B8 JUMP JUMPDEST PUSH1 0x40 MLOAD DUP1 SWAP2 SUB SWAP1 REVERT JUMPDEST PUSH2 0x102C DUP2 PUSH2 0x10DB JUMP JUMPDEST POP JUMP JUMPDEST PUSH1 0x2 PUSH0 SWAP1 SLOAD SWAP1 PUSH2 0x100 EXP SWAP1 DIV PUSH20 0xFFFFFFFFFFFFFFFFFFFFFFFFFFFFFFFFFFFFFFFF AND DUP2 JUMP JUMPDEST PUSH2 0x105C PUSH2 0x1273 JUMP JUMPDEST PUSH20 0xFFFFFFFFFFFFFFFFFFFFFFFFFFFFFFFFFFFFFFFF AND PUSH2 0x107A PUSH2 0xBB3 JUMP JUMPDEST PUSH20 0xFFFFFFFFFFFFFFFFFFFFFFFFFFFFFFFFFFFFFFFF AND EQ PUSH2 0x10D9 JUMPI PUSH2 0x109D PUSH2 0x1273 JUMP JUMPDEST PUSH1 0x40 MLOAD PUSH32 0x118CDAA700000000000000000000000000000000000000000000000000000000 DUP2 MSTORE PUSH1 0x4 ADD PUSH2 0x10D0 SWAP2 SWAP1 PUSH2 0x13B8 JUMP JUMPDEST PUSH1 0x40 MLOAD DUP1 SWAP2 SUB SWAP1 REVERT JUMPDEST JUMP JUMPDEST PUSH0 DUP1 PUSH0 SWAP1 SLOAD SWAP1 PUSH2 0x100 EXP SWAP1 DIV PUSH20 0xFFFFFFFFFFFFFFFFFFFFFFFFFFFFFFFFFFFFFFFF AND SWAP1 POP DUP2 PUSH0 DUP1 PUSH2 0x100 EXP DUP2 SLOAD DUP2 PUSH20 0xFFFFFFFFFFFFFFFFFFFFFFFFFFFFFFFFFFFFFFFF MUL NOT AND SWAP1 DUP4 PUSH20 0xFFFFFFFFFFFFFFFFFFFFFFFFFFFFFFFFFFFFFFFF AND MUL OR SWAP1 SSTORE POP DUP2 PUSH20 0xFFFFFFFFFFFFFFFFFFFFFFFFFFFFFFFFFFFFFFFF AND DUP2 PUSH20 0xFFFFFFFFFFFFFFFFFFFFFFFFFFFFFFFFFFFFFFFF AND PUSH32 0x8BE0079C531659141344CD1FD0A4F28419497F9722A3DAAFE3B4186F6B6457E0 PUSH1 0x40 MLOAD PUSH1 0x40 MLOAD DUP1 SWAP2 SUB SWAP1 LOG3 POP POP JUMP JUMPDEST PUSH1 0x2 PUSH1 0x1 SLOAD SUB PUSH2 0x11E1 JUMPI PUSH1 0x40 MLOAD PUSH32 0x8C379A000000000000000000000000000000000000000000000000000000000 DUP2 MSTORE PUSH1 0x4 ADD PUSH2 0x11D8 SWAP1 PUSH2 0x1DE5 JUMP JUMPDEST PUSH1 0x40 MLOAD DUP1 SWAP2 SUB SWAP1 REVERT JUMPDEST PUSH1 0x2 PUSH1 0x1 DUP2 SWAP1 SSTORE POP JUMP JUMPDEST PUSH2 0x1265 DUP4 DUP5 PUSH20 0xFFFFFFFFFFFFFFFFFFFFFFFFFFFFFFFFFFFFFFFF AND PUSH4 0xA9059CBB DUP6 DUP6 PUSH1 0x40 MLOAD PUSH1 0x24 ADD PUSH2 0x121E SWAP3 SWAP2 SWAP1 PUSH2 0x1E03 JUMP JUMPDEST PUSH1 0x40 MLOAD PUSH1 0x20 DUP2 DUP4 SUB SUB DUP2 MSTORE SWAP1 PUSH1 0x40 MSTORE SWAP2 POP PUSH1 0xE0 SHL PUSH1 0x20 DUP3 ADD DUP1 MLOAD PUSH28 0xFFFFFFFFFFFFFFFFFFFFFFFFFFFFFFFFFFFFFFFFFFFFFFFFFFFFFFFF DUP4 DUP2 DUP4 AND OR DUP4 MSTORE POP POP POP POP PUSH2 0x127A JUMP JUMPDEST POP POP POP JUMP JUMPDEST PUSH1 0x1 DUP1 DUP2 SWAP1 SSTORE POP JUMP JUMPDEST PUSH0 CALLER SWAP1 POP SWAP1 JUMP JUMPDEST PUSH0 DUP1 PUSH1 0x20 PUSH0 DUP5 MLOAD PUSH1 0x20 DUP7 ADD PUSH0 DUP9 GAS CALL DUP1 PUSH2 0x1299 JUMPI PUSH1 0x40 MLOAD RETURNDATASIZE PUSH0 DUP3 RETURNDATACOPY RETURNDATASIZE DUP2 REVERT JUMPDEST RETURNDATASIZE SWAP3 POP PUSH0 MLOAD SWAP2 POP POP PUSH0 DUP3 EQ PUSH2 0x12B2 JUMPI PUSH1 0x1 DUP2 EQ ISZERO PUSH2 0x12CD JUMP JUMPDEST PUSH0 DUP5 PUSH20 0xFFFFFFFFFFFFFFFFFFFFFFFFFFFFFFFFFFFFFFFF AND EXTCODESIZE EQ JUMPDEST ISZERO PUSH2 0x130F JUMPI DUP4 PUSH1 0x40 MLOAD PUSH32 0x5274AFE700000000000000000000000000000000000000000000000000000000 DUP2 MSTORE PUSH1 0x4 ADD PUSH2 0x1306 SWAP2 SWAP1 PUSH2 0x13B8 JUMP JUMPDEST PUSH1 0x40 MLOAD DUP1 SWAP2 SUB SWAP1 REVERT JUMPDEST POP POP POP POP JUMP JUMPDEST PUSH0 DUP2 SWAP1 POP SWAP2 SWAP1 POP JUMP JUMPDEST PUSH2 0x1327 DUP2 PUSH2 0x1315 JUMP JUMPDEST DUP3 MSTORE POP POP JUMP JUMPDEST PUSH0 PUSH1 0x20 DUP3 ADD SWAP1 POP PUSH2 0x1340 PUSH0 DUP4 ADD DUP5 PUSH2 0x131E JUMP JUMPDEST SWAP3 SWAP2 POP POP JUMP JUMPDEST PUSH0 DUP2 ISZERO ISZERO SWAP1 POP SWAP2 SWAP1 POP JUMP JUMPDEST PUSH2 0x135A DUP2 PUSH2 0x1346 JUMP JUMPDEST DUP3 MSTORE POP POP JUMP JUMPDEST PUSH0 PUSH1 0x20 DUP3 ADD SWAP1 POP PUSH2 0x1373 PUSH0 DUP4 ADD DUP5 PUSH2 0x1351 JUMP JUMPDEST SWAP3 SWAP2 POP POP JUMP JUMPDEST PUSH0 PUSH20 0xFFFFFFFFFFFFFFFFFFFFFFFFFFFFFFFFFFFFFFFF DUP3 AND SWAP1 POP SWAP2 SWAP1 POP JUMP JUMPDEST PUSH0 PUSH2 0x13A2 DUP3 PUSH2 0x1379 JUMP JUMPDEST SWAP1 POP SWAP2 SWAP1 POP JUMP JUMPDEST PUSH2 0x13B2 DUP2 PUSH2 0x1398 JUMP JUMPDEST DUP3 MSTORE POP POP JUMP JUMPDEST PUSH0 PUSH1 0x20 DUP3 ADD SWAP1 POP PUSH2 0x13CB PUSH0 DUP4 ADD DUP5 PUSH2 0x13A9 JUMP JUMPDEST SWAP3 SWAP2 POP POP JUMP JUMPDEST PUSH0 DUP1 REVERT JUMPDEST PUSH2 0x13DE DUP2 PUSH2 0x1398 JUMP JUMPDEST DUP2 EQ PUSH2 0x13E8 JUMPI PUSH0 DUP1 REVERT JUMPDEST POP JUMP JUMPDEST PUSH0 DUP2 CALLDATALOAD SWAP1 POP PUSH2 0x13F9 DUP2 PUSH2 0x13D5 JUMP JUMPDEST SWAP3 SWAP2 POP POP JUMP JUMPDEST PUSH2 0x1408 DUP2 PUSH2 0x1315 JUMP JUMPDEST DUP2 EQ PUSH2 0x1412 JUMPI PUSH0 DUP1 REVERT JUMPDEST POP JUMP JUMPDEST PUSH0 DUP2 CALLDATALOAD SWAP1 POP PUSH2 0x1423 DUP2 PUSH2 0x13FF JUMP JUMPDEST SWAP3 SWAP2 POP POP JUMP JUMPDEST PUSH2 0x1432 DUP2 PUSH2 0x1346 JUMP JUMPDEST DUP2 EQ PUSH2 0x143C JUMPI PUSH0 DUP1 REVERT JUMPDEST POP JUMP JUMPDEST PUSH0 DUP2 CALLDATALOAD SWAP1 POP PUSH2 0x144D DUP2 PUSH2 0x1429 JUMP JUMPDEST SWAP3 SWAP2 POP POP JUMP JUMPDEST PUSH0 DUP1 PUSH0 DUP1 PUSH0 DUP1 PUSH0 PUSH1 0xE0 DUP9 DUP11 SUB SLT ISZERO PUSH2 0x146E JUMPI PUSH2 0x146D PUSH2 0x13D1 JUMP JUMPDEST JUMPDEST PUSH0 PUSH2 0x147B DUP11 DUP3 DUP12 ADD PUSH2 0x13EB JUMP JUMPDEST SWAP8 POP POP PUSH1 0x20 PUSH2 0x148C DUP11 DUP3 DUP12 ADD PUSH2 0x13EB JUMP JUMPDEST SWAP7 POP POP PUSH1 0x40 PUSH2 0x149D DUP11 DUP3 DUP12 ADD PUSH2 0x1415 JUMP JUMPDEST SWAP6 POP POP PUSH1 0x60 PUSH2 0x14AE DUP11 DUP3 DUP12 ADD PUSH2 0x1415 JUMP JUMPDEST SWAP5 POP POP PUSH1 0x80 PUSH2 0x14BF DUP11 DUP3 DUP12 ADD PUSH2 0x1415 JUMP JUMPDEST SWAP4 POP POP PUSH1 0xA0 PUSH2 0x14D0 DUP11 DUP3 DUP12 ADD PUSH2 0x143F JUMP JUMPDEST SWAP3 POP POP PUSH1 0xC0 PUSH2 0x14E1 DUP11 DUP3 DUP12 ADD PUSH2 0x13EB JUMP JUMPDEST SWAP2 POP POP SWAP3 SWAP6 SWAP9 SWAP2 SWAP5 SWAP8 POP SWAP3 SWAP6 POP JUMP JUMPDEST PUSH0 DUP1 PUSH1 0x40 DUP4 DUP6 SUB SLT ISZERO PUSH2 0x1506 JUMPI PUSH2 0x1505 PUSH2 0x13D1 JUMP JUMPDEST JUMPDEST PUSH0 PUSH2 0x1513 DUP6 DUP3 DUP7 ADD PUSH2 0x13EB JUMP JUMPDEST SWAP3 POP POP PUSH1 0x20 PUSH2 0x1524 DUP6 DUP3 DUP7 ADD PUSH2 0x1415 JUMP JUMPDEST SWAP2 POP POP SWAP3 POP SWAP3 SWAP1 POP JUMP JUMPDEST PUSH0 PUSH2 0x120 DUP3 ADD SWAP1 POP PUSH2 0x1542 PUSH0 DUP4 ADD DUP13 PUSH2 0x13A9 JUMP JUMPDEST PUSH2 0x154F PUSH1 0x20 DUP4 ADD DUP12 PUSH2 0x13A9 JUMP JUMPDEST PUSH2 0x155C PUSH1 0x40 DUP4 ADD DUP11 PUSH2 0x131E JUMP JUMPDEST PUSH2 0x1569 PUSH1 0x60 DUP4 ADD DUP10 PUSH2 0x131E JUMP JUMPDEST PUSH2 0x1576 PUSH1 0x80 DUP4 ADD DUP9 PUSH2 0x131E JUMP JUMPDEST PUSH2 0x1583 PUSH1 0xA0 DUP4 ADD DUP8 PUSH2 0x131E JUMP JUMPDEST PUSH2 0x1590 PUSH1 0xC0 DUP4 ADD DUP7 PUSH2 0x131E JUMP JUMPDEST PUSH2 0x159D PUSH1 0xE0 DUP4 ADD DUP6 PUSH2 0x1351 JUMP JUMPDEST PUSH2 0x15AB PUSH2 0x100 DUP4 ADD DUP5 PUSH2 0x1351 JUMP JUMPDEST SWAP11 SWAP10 POP POP POP POP POP POP POP POP POP POP JUMP JUMPDEST PUSH0 PUSH1 0xA0 DUP3 ADD SWAP1 POP PUSH2 0x15CC PUSH0 DUP4 ADD DUP9 PUSH2 0x131E JUMP JUMPDEST PUSH2 0x15D9 PUSH1 0x20 DUP4 ADD DUP8 PUSH2 0x131E JUMP JUMPDEST PUSH2 0x15E6 PUSH1 0x40 DUP4 ADD DUP7 PUSH2 0x131E JUMP JUMPDEST PUSH2 0x15F3 PUSH1 0x60 DUP4 ADD DUP6 PUSH2 0x131E JUMP JUMPDEST PUSH2 0x1600 PUSH1 0x80 DUP4 ADD DUP5 PUSH2 0x131E JUMP JUMPDEST SWAP7 SWAP6 POP POP POP POP POP POP JUMP JUMPDEST PUSH0 PUSH1 0x20 DUP3 DUP5 SUB SLT ISZERO PUSH2 0x161F JUMPI PUSH2 0x161E PUSH2 0x13D1 JUMP JUMPDEST JUMPDEST PUSH0 PUSH2 0x162C DUP5 DUP3 DUP6 ADD PUSH2 0x13EB JUMP JUMPDEST SWAP2 POP POP SWAP3 SWAP2 POP POP JUMP JUMPDEST PUSH0 DUP2 SWAP1 POP SWAP2 SWAP1 POP JUMP JUMPDEST PUSH0 PUSH2 0x1658 PUSH2 0x1653 PUSH2 0x164E DUP5 PUSH2 0x1379 JUMP JUMPDEST PUSH2 0x1635 JUMP JUMPDEST PUSH2 0x1379 JUMP JUMPDEST SWAP1 POP SWAP2 SWAP1 POP JUMP JUMPDEST PUSH0 PUSH2 0x1669 DUP3 PUSH2 0x163E JUMP JUMPDEST SWAP1 POP SWAP2 SWAP1 POP JUMP JUMPDEST PUSH0 PUSH2 0x167A DUP3 PUSH2 0x165F JUMP JUMPDEST SWAP1 POP SWAP2 SWAP1 POP JUMP JUMPDEST PUSH2 0x168A DUP2 PUSH2 0x1670 JUMP JUMPDEST DUP3 MSTORE POP POP JUMP JUMPDEST PUSH0 PUSH1 0x20 DUP3 ADD SWAP1 POP PUSH2 0x16A3 PUSH0 DUP4 ADD DUP5 PUSH2 0x1681 JUMP JUMPDEST SWAP3 SWAP2 POP POP JUMP JUMPDEST PUSH32 0x4E487B7100000000000000000000000000000000000000000000000000000000 PUSH0 MSTORE PUSH1 0x11 PUSH1 0x4 MSTORE PUSH1 0x24 PUSH0 REVERT JUMPDEST PUSH0 PUSH2 0x16E0 DUP3 PUSH2 0x1315 JUMP JUMPDEST SWAP2 POP PUSH2 0x16EB DUP4 PUSH2 0x1315 JUMP JUMPDEST SWAP3 POP DUP3 DUP3 ADD SWAP1 POP DUP1 DUP3 GT ISZERO PUSH2 0x1703 JUMPI PUSH2 0x1702 PUSH2 0x16A9 JUMP JUMPDEST JUMPDEST SWAP3 SWAP2 POP POP JUMP JUMPDEST PUSH0 PUSH2 0x1713 DUP3 PUSH2 0x1315 JUMP JUMPDEST SWAP2 POP PUSH2 0x171E DUP4 PUSH2 0x1315 JUMP JUMPDEST SWAP3 POP DUP3 DUP3 SUB SWAP1 POP DUP2 DUP2 GT ISZERO PUSH2 0x1736 JUMPI PUSH2 0x1735 PUSH2 0x16A9 JUMP JUMPDEST JUMPDEST SWAP3 SWAP2 POP POP JUMP JUMPDEST PUSH0 PUSH2 0x1746 DUP3 PUSH2 0x1315 JUMP JUMPDEST SWAP2 POP PUSH2 0x1751 DUP4 PUSH2 0x1315 JUMP JUMPDEST SWAP3 POP DUP3 DUP3 MUL PUSH2 0x175F DUP2 PUSH2 0x1315 JUMP JUMPDEST SWAP2 POP DUP3 DUP3 DIV DUP5 EQ DUP4 ISZERO OR PUSH2 0x1776 JUMPI PUSH2 0x1775 PUSH2 0x16A9 JUMP JUMPDEST JUMPDEST POP SWAP3 SWAP2 POP POP JUMP JUMPDEST PUSH32 0x4E487B7100000000000000000000000000000000000000000000000000000000 PUSH0 MSTORE PUSH1 0x12 PUSH1 0x4 MSTORE PUSH1 0x24 PUSH0 REVERT JUMPDEST PUSH0 PUSH2 0x17B4 DUP3 PUSH2 0x1315 JUMP JUMPDEST SWAP2 POP PUSH2 0x17BF DUP4 PUSH2 0x1315 JUMP JUMPDEST SWAP3 POP DUP3 PUSH2 0x17CF JUMPI PUSH2 0x17CE PUSH2 0x177D JUMP JUMPDEST JUMPDEST DUP3 DUP3 DIV SWAP1 POP SWAP3 SWAP2 POP POP JUMP JUMPDEST PUSH0 DUP3 DUP3 MSTORE PUSH1 0x20 DUP3 ADD SWAP1 POP SWAP3 SWAP2 POP POP JUMP JUMPDEST PUSH32 0x416C726561647920696E697469616C697A656400000000000000000000000000 PUSH0 DUP3 ADD MSTORE POP JUMP JUMPDEST PUSH0 PUSH2 0x181E PUSH1 0x13 DUP4 PUSH2 0x17DA JUMP JUMPDEST SWAP2 POP PUSH2 0x1829 DUP3 PUSH2 0x17EA JUMP JUMPDEST PUSH1 0x20 DUP3 ADD SWAP1 POP SWAP2 SWAP1 POP JUMP JUMPDEST PUSH0 PUSH1 0x20 DUP3 ADD SWAP1 POP DUP2 DUP2 SUB PUSH0 DUP4 ADD MSTORE PUSH2 0x184B DUP2 PUSH2 0x1812 JUMP JUMPDEST SWAP1 POP SWAP2 SWAP1 POP JUMP JUMPDEST PUSH32 0x496E76616C696420746F6B656E20616464726573730000000000000000000000 PUSH0 DUP3 ADD MSTORE POP JUMP JUMPDEST PUSH0 PUSH2 0x1886 PUSH1 0x15 DUP4 PUSH2 0x17DA JUMP JUMPDEST SWAP2 POP PUSH2 0x1891 DUP3 PUSH2 0x1852 JUMP JUMPDEST PUSH1 0x20 DUP3 ADD SWAP1 POP SWAP2 SWAP1 POP JUMP JUMPDEST PUSH0 PUSH1 0x20 DUP3 ADD SWAP1 POP DUP2 DUP2 SUB PUSH0 DUP4 ADD MSTORE PUSH2 0x18B3 DUP2 PUSH2 0x187A JUMP JUMPDEST SWAP1 POP SWAP2 SWAP1 POP JUMP JUMPDEST PUSH32 0x496E76616C69642062656E656669636961727920616464726573730000000000 PUSH0 DUP3 ADD MSTORE POP JUMP JUMPDEST PUSH0 PUSH2 0x18EE PUSH1 0x1B DUP4 PUSH2 0x17DA JUMP JUMPDEST SWAP2 POP PUSH2 0x18F9 DUP3 PUSH2 0x18BA JUMP JUMPDEST PUSH1 0x20 DUP3 ADD SWAP1 POP SWAP2 SWAP1 POP JUMP JUMPDEST PUSH0 PUSH1 0x20 DUP3 ADD SWAP1 POP DUP2 DUP2 SUB PUSH0 DUP4 ADD MSTORE PUSH2 0x191B DUP2 PUSH2 0x18E2 JUMP JUMPDEST SWAP1 POP SWAP2 SWAP1 POP JUMP JUMPDEST PUSH32 0x546F74616C20616D6F756E74206D757374206265206772656174657220746861 PUSH0 DUP3 ADD MSTORE PUSH32 0x6E20300000000000000000000000000000000000000000000000000000000000 PUSH1 0x20 DUP3 ADD MSTORE POP JUMP JUMPDEST PUSH0 PUSH2 0x197C PUSH1 0x23 DUP4 PUSH2 0x17DA JUMP JUMPDEST SWAP2 POP PUSH2 0x1987 DUP3 PUSH2 0x1922 JUMP JUMPDEST PUSH1 0x40 DUP3 ADD SWAP1 POP SWAP2 SWAP1 POP JUMP JUMPDEST PUSH0 PUSH1 0x20 DUP3 ADD SWAP1 POP DUP2 DUP2 SUB PUSH0 DUP4 ADD MSTORE PUSH2 0x19A9 DUP2 PUSH2 0x1970 JUMP JUMPDEST SWAP1 POP SWAP2 SWAP1 POP JUMP JUMPDEST PUSH32 0x4475726174696F6E206D7573742062652067726561746572207468616E203000 PUSH0 DUP3 ADD MSTORE POP JUMP JUMPDEST PUSH0 PUSH2 0x19E4 PUSH1 0x1F DUP4 PUSH2 0x17DA JUMP JUMPDEST SWAP2 POP PUSH2 0x19EF DUP3 PUSH2 0x19B0 JUMP JUMPDEST PUSH1 0x20 DUP3 ADD SWAP1 POP SWAP2 SWAP1 POP JUMP JUMPDEST PUSH0 PUSH1 0x20 DUP3 ADD SWAP1 POP DUP2 DUP2 SUB PUSH0 DUP4 ADD MSTORE PUSH2 0x1A11 DUP2 PUSH2 0x19D8 JUMP JUMPDEST SWAP1 POP SWAP2 SWAP1 POP JUMP JUMPDEST PUSH32 0x436C6966662063616E6E6F7420657863656564206475726174696F6E00000000 PUSH0 DUP3 ADD MSTORE POP JUMP JUMPDEST PUSH0 PUSH2 0x1A4C PUSH1 0x1C DUP4 PUSH2 0x17DA JUMP JUMPDEST SWAP2 POP PUSH2 0x1A57 DUP3 PUSH2 0x1A18 JUMP JUMPDEST PUSH1 0x20 DUP3 ADD SWAP1 POP SWAP2 SWAP1 POP JUMP JUMPDEST PUSH0 PUSH1 0x20 DUP3 ADD SWAP1 POP DUP2 DUP2 SUB PUSH0 DUP4 ADD MSTORE PUSH2 0x1A79 DUP2 PUSH2 0x1A40 JUMP JUMPDEST SWAP1 POP SWAP2 SWAP1 POP JUMP JUMPDEST PUSH32 0x496E76616C6964206F776E657220616464726573730000000000000000000000 PUSH0 DUP3 ADD MSTORE POP JUMP JUMPDEST PUSH0 PUSH2 0x1AB4 PUSH1 0x15 DUP4 PUSH2 0x17DA JUMP JUMPDEST SWAP2 POP PUSH2 0x1ABF DUP3 PUSH2 0x1A80 JUMP JUMPDEST PUSH1 0x20 DUP3 ADD SWAP1 POP SWAP2 SWAP1 POP JUMP JUMPDEST PUSH0 PUSH1 0x20 DUP3 ADD SWAP1 POP DUP2 DUP2 SUB PUSH0 DUP4 ADD MSTORE PUSH2 0x1AE1 DUP2 PUSH2 0x1AA8 JUMP JUMPDEST SWAP1 POP SWAP2 SWAP1 POP JUMP JUMPDEST PUSH0 PUSH1 0x80 DUP3 ADD SWAP1 POP PUSH2 0x1AFB PUSH0 DUP4 ADD DUP8 PUSH2 0x131E JUMP JUMPDEST PUSH2 0x1B08 PUSH1 0x20 DUP4 ADD DUP7 PUSH2 0x131E JUMP JUMPDEST PUSH2 0x1B15 PUSH1 0x40 DUP4 ADD DUP6 PUSH2 0x131E JUMP JUMPDEST PUSH2 0x1B22 PUSH1 0x60 DUP4 ADD DUP5 PUSH2 0x1351 JUMP JUMPDEST SWAP6 SWAP5 POP POP POP POP POP JUMP JUMPDEST PUSH32 0x56657374696E6720686173206265656E207265766F6B65640000000000000000 PUSH0 DUP3 ADD MSTORE POP JUMP JUMPDEST PUSH0 PUSH2 0x1B5F PUSH1 0x18 DUP4 PUSH2 0x17DA JUMP JUMPDEST SWAP2 POP PUSH2 0x1B6A DUP3 PUSH2 0x1B2B JUMP JUMPDEST PUSH1 0x20 DUP3 ADD SWAP1 POP SWAP2 SWAP1 POP JUMP JUMPDEST PUSH0 PUSH1 0x20 DUP3 ADD SWAP1 POP DUP2 DUP2 SUB PUSH0 DUP4 ADD MSTORE PUSH2 0x1B8C DUP2 PUSH2 0x1B53 JUMP JUMPDEST SWAP1 POP SWAP2 SWAP1 POP JUMP JUMPDEST PUSH32 0x556E617574686F72697A65640000000000000000000000000000000000000000 PUSH0 DUP3 ADD MSTORE POP JUMP JUMPDEST PUSH0 PUSH2 0x1BC7 PUSH1 0xC DUP4 PUSH2 0x17DA JUMP JUMPDEST SWAP2 POP PUSH2 0x1BD2 DUP3 PUSH2 0x1B93 JUMP JUMPDEST PUSH1 0x20 DUP3 ADD SWAP1 POP SWAP2 SWAP1 POP JUMP JUMPDEST PUSH0 PUSH1 0x20 DUP3 ADD SWAP1 POP DUP2 DUP2 SUB PUSH0 DUP4 ADD MSTORE PUSH2 0x1BF4 DUP2 PUSH2 0x1BBB JUMP JUMPDEST SWAP1 POP SWAP2 SWAP1 POP JUMP JUMPDEST PUSH32 0x4E6F20746F6B656E7320746F2072656C65617365000000000000000000000000 PUSH0 DUP3 ADD MSTORE POP JUMP JUMPDEST PUSH0 PUSH2 0x1C2F PUSH1 0x14 DUP4 PUSH2 0x17DA JUMP JUMPDEST SWAP2 POP PUSH2 0x1C3A DUP3 PUSH2 0x1BFB JUMP JUMPDEST PUSH1 0x20 DUP3 ADD SWAP1 POP SWAP2 SWAP1 POP JUMP JUMPDEST PUSH0 PUSH1 0x20 DUP3 ADD SWAP1 POP DUP2 DUP2 SUB PUSH0 DUP4 ADD MSTORE PUSH2 0x1C5C DUP2 PUSH2 0x1C23 JUMP JUMPDEST SWAP1 POP SWAP2 SWAP1 POP JUMP JUMPDEST PUSH32 0x43616E6E6F74207265636F7665722076657374696E6720746F6B656E00000000 PUSH0 DUP3 ADD MSTORE POP JUMP JUMPDEST PUSH0 PUSH2 0x1C97 PUSH1 0x1C DUP4 PUSH2 0x17DA JUMP JUMPDEST SWAP2 POP PUSH2 0x1CA2 DUP3 PUSH2 0x1C63 JUMP JUMPDEST PUSH1 0x20 DUP3 ADD SWAP1 POP SWAP2 SWAP1 POP JUMP JUMPDEST PUSH0 PUSH1 0x20 DUP3 ADD SWAP1 POP DUP2 DUP2 SUB PUSH0 DUP4 ADD MSTORE PUSH2 0x1CC4 DUP2 PUSH2 0x1C8B JUMP JUMPDEST SWAP1 POP SWAP2 SWAP1 POP JUMP JUMPDEST PUSH32 0x56657374696E67206973206E6F74207265766F6361626C650000000000000000 PUSH0 DUP3 ADD MSTORE POP JUMP JUMPDEST PUSH0 PUSH2 0x1CFF PUSH1 0x18 DUP4 PUSH2 0x17DA JUMP JUMPDEST SWAP2 POP PUSH2 0x1D0A DUP3 PUSH2 0x1CCB JUMP JUMPDEST PUSH1 0x20 DUP3 ADD SWAP1 POP SWAP2 SWAP1 POP JUMP JUMPDEST PUSH0 PUSH1 0x20 DUP3 ADD SWAP1 POP DUP2 DUP2 SUB PUSH0 DUP4 ADD MSTORE PUSH2 0x1D2C DUP2 PUSH2 0x1CF3 JUMP JUMPDEST SWAP1 POP SWAP2 SWAP1 POP JUMP JUMPDEST PUSH32 0x56657374696E6720616C7265616479207265766F6B6564000000000000000000 PUSH0 DUP3 ADD MSTORE POP JUMP JUMPDEST PUSH0 PUSH2 0x1D67 PUSH1 0x17 DUP4 PUSH2 0x17DA JUMP JUMPDEST SWAP2 POP PUSH2 0x1D72 DUP3 PUSH2 0x1D33 JUMP JUMPDEST PUSH1 0x20 DUP3 ADD SWAP1 POP SWAP2 SWAP1 POP JUMP JUMPDEST PUSH0 PUSH1 0x20 DUP3 ADD SWAP1 POP DUP2 DUP2 SUB PUSH0 DUP4 ADD MSTORE PUSH2 0x1D94 DUP2 PUSH2 0x1D5B JUMP JUMPDEST SWAP1 POP SWAP2 SWAP1 POP JUMP JUMPDEST PUSH32 0x5265656E7472616E637947756172643A207265656E7472616E742063616C6C00 PUSH0 DUP3 ADD MSTORE POP JUMP JUMPDEST PUSH0 PUSH2 0x1DCF PUSH1 0x1F DUP4 PUSH2 0x17DA JUMP JUMPDEST SWAP2 POP PUSH2 0x1DDA DUP3 PUSH2 0x1D9B JUMP JUMPDEST PUSH1 0x20 DUP3 ADD SWAP1 POP SWAP2 SWAP1 POP JUMP JUMPDEST PUSH0 PUSH1 0x20 DUP3 ADD SWAP1 POP DUP2 DUP2 SUB PUSH0 DUP4 ADD MSTORE PUSH2 0x1DFC DUP2 PUSH2 0x1DC3 JUMP JUMPDEST SWAP1 POP SWAP2 SWAP1 POP JUMP JUMPDEST PUSH0 PUSH1 0x40 DUP3 ADD SWAP1 POP PUSH2 0x1E16 PUSH0 DUP4 ADD DUP6 PUSH2 0x13A9 JUMP JUMPDEST PUSH2 0x1E23 PUSH1 0x20 DUP4 ADD DUP5 PUSH2 0x131E JUMP JUMPDEST SWAP4 SWAP3 POP POP POP JUMP INVALID LOG2 PUSH5 0x6970667358 0x22 SLT KECCAK256 PUSH22 0x971FD7EE9B9806324433C07A30EE4206DA5B72375A9B DUP8 0x1E CALLDATACOPY SIGNEXTEND SELFBALANCE STATICCALL CREATE2 DUP9 0xE8 PUSH5 0x736F6C6343 STOP ADDMOD EQ STOP CALLER "
				},
				"gasEstimates": {
					"creation": {
						"codeDepositCost": "1555200",
						"executionCost": "infinite",
						"totalCost": "infinite"
					},
					"external": {
						"beneficiary()": "2620",
						"cliff()": "2471",
						"cliffEnded()": "infinite",
						"duration()": "2449",
						"emergencyRecover(address,uint256)": "infinite",
						"getVestingInfo()": "infinite",
						"getVestingStatus()": "infinite",
						"hasEnded()": "infinite",
						"hasStarted()": "2469",
						"initialize(address,address,uint256,uint256,uint256,bool,address)": "infinite",
						"isInitialized()": "2658",
						"owner()": "2582",
						"releasableAmount()": "infinite",
						"release()": "infinite",
						"released()": "2514",
						"renounceOwnership()": "infinite",
						"revocable()": "2511",
						"revoke()": "infinite",
						"revoked()": "2606",
						"start()": "2447",
						"token()": "infinite",
						"totalAmount()": "2493",
						"transferOwnership(address)": "infinite",
						"vestedAmount()": "infinite"
					}
				},
				"methodIdentifiers": {
					"beneficiary()": "38af3eed",
					"cliff()": "13d033c0",
					"cliffEnded()": "253254d6",
					"duration()": "0fb5a6b4",
					"emergencyRecover(address,uint256)": "9639011e",
					"getVestingInfo()": "dc25a300",
					"getVestingStatus()": "ee4a745c",
					"hasEnded()": "ecb70fb7",
					"hasStarted()": "44691f7e",
					"initialize(address,address,uint256,uint256,uint256,bool,address)": "841bee0d",
					"isInitialized()": "392e53cd",
					"owner()": "8da5cb5b",
					"releasableAmount()": "5b940081",
					"release()": "86d1a69f",
					"released()": "96132521",
					"renounceOwnership()": "715018a6",
					"revocable()": "872a7810",
					"revoke()": "b6549f75",
					"revoked()": "63d256ce",
					"start()": "be9a6555",
					"token()": "fc0c546a",
					"totalAmount()": "1a39d8ef",
					"transferOwnership(address)": "f2fde38b",
					"vestedAmount()": "44b1231f"
				}
			},
			"storageLayout": {
				"storage": [
					{
						"astId": 8,
						"contract": "TokenVesting.sol:TokenVesting",
						"label": "_owner",
						"offset": 0,
						"slot": "0",
						"type": "t_address"
					},
					{
						"astId": 248,
						"contract": "TokenVesting.sol:TokenVesting",
						"label": "_status",
						"offset": 0,
						"slot": "1",
						"type": "t_uint256"
					},
					{
						"astId": 903,
						"contract": "TokenVesting.sol:TokenVesting",
						"label": "token",
						"offset": 0,
						"slot": "2",
						"type": "t_contract(IERC20)380"
					},
					{
						"astId": 905,
						"contract": "TokenVesting.sol:TokenVesting",
						"label": "beneficiary",
						"offset": 0,
						"slot": "3",
						"type": "t_address"
					},
					{
						"astId": 907,
						"contract": "TokenVesting.sol:TokenVesting",
						"label": "cliff",
						"offset": 0,
						"slot": "4",
						"type": "t_uint256"
					},
					{
						"astId": 909,
						"contract": "TokenVesting.sol:TokenVesting",
						"label": "start",
						"offset": 0,
						"slot": "5",
						"type": "t_uint256"
					},
					{
						"astId": 911,
						"contract": "TokenVesting.sol:TokenVesting",
						"label": "duration",
						"offset": 0,
						"slot": "6",
						"type": "t_uint256"
					},
					{
						"astId": 913,
						"contract": "TokenVesting.sol:TokenVesting",
						"label": "totalAmount",
						"offset": 0,
						"slot": "7",
						"type": "t_uint256"
					},
					{
						"astId": 915,
						"contract": "TokenVesting.sol:TokenVesting",
						"label": "released",
						"offset": 0,
						"slot": "8",
						"type": "t_uint256"
					},
					{
						"astId": 917,
						"contract": "TokenVesting.sol:TokenVesting",
						"label": "revocable",
						"offset": 0,
						"slot": "9",
						"type": "t_bool"
					},
					{
						"astId": 919,
						"contract": "TokenVesting.sol:TokenVesting",
						"label": "revoked",
						"offset": 1,
						"slot": "9",
						"type": "t_bool"
					},
					{
						"astId": 921,
						"contract": "TokenVesting.sol:TokenVesting",
						"label": "_initialized",
						"offset": 2,
						"slot": "9",
						"type": "t_bool"
					}
				],
				"types": {
					"t_address": {
						"encoding": "inplace",
						"label": "address",
						"numberOfBytes": "20"
					},
					"t_bool": {
						"encoding": "inplace",
						"label": "bool",
						"numberOfBytes": "1"
					},
					"t_contract(IERC20)380": {
						"encoding": "inplace",
						"label": "contract IERC20",
						"numberOfBytes": "20"
					},
					"t_uint256": {
						"encoding": "inplace",
						"label": "uint256",
						"numberOfBytes": "32"
					}
				}
			},
			"userdoc": {
				"kind": "user",
				"methods": {},
				"version": 1
			}
		}
	}
}